{
  "contractName": "Game",
  "abi": [
    {
      "inputs": [],
      "stateMutability": "nonpayable",
      "type": "constructor"
    },
    {
      "anonymous": false,
      "inputs": [
        {
          "indexed": false,
          "internalType": "address",
          "name": "player",
          "type": "address"
        }
      ],
      "name": "NewPlayer",
      "type": "event"
    },
    {
      "anonymous": false,
      "inputs": [
        {
          "indexed": false,
          "internalType": "address",
          "name": "proposer",
          "type": "address"
        },
        {
          "indexed": false,
          "internalType": "uint256",
          "name": "quantity",
          "type": "uint256"
        }
      ],
      "name": "NewProposal",
      "type": "event"
    },
    {
      "inputs": [
        {
          "internalType": "address",
          "name": "",
          "type": "address"
        }
      ],
      "name": "balances",
      "outputs": [
        {
          "internalType": "uint256",
          "name": "",
          "type": "uint256"
        }
      ],
      "stateMutability": "view",
      "type": "function",
      "constant": true
    },
    {
      "inputs": [],
      "name": "entranceFee",
      "outputs": [
        {
          "internalType": "uint256",
          "name": "",
          "type": "uint256"
        }
      ],
      "stateMutability": "view",
      "type": "function",
      "constant": true
    },
    {
      "inputs": [],
      "name": "maxPlayers",
      "outputs": [
        {
          "internalType": "uint8",
          "name": "",
          "type": "uint8"
        }
      ],
      "stateMutability": "view",
      "type": "function",
      "constant": true
    },
    {
      "inputs": [],
      "name": "name",
      "outputs": [
        {
          "internalType": "string",
          "name": "",
          "type": "string"
        }
      ],
      "stateMutability": "view",
      "type": "function",
      "constant": true
    },
    {
      "inputs": [],
      "name": "numPlayers",
      "outputs": [
        {
          "internalType": "uint256",
          "name": "",
          "type": "uint256"
        }
      ],
      "stateMutability": "view",
      "type": "function",
      "constant": true
    },
    {
      "inputs": [],
      "name": "playDirection",
      "outputs": [
        {
          "internalType": "uint256",
          "name": "",
          "type": "uint256"
        }
      ],
      "stateMutability": "view",
      "type": "function",
      "constant": true
    },
    {
      "inputs": [
        {
          "internalType": "uint256",
          "name": "",
          "type": "uint256"
        }
      ],
      "name": "proposals",
      "outputs": [
        {
          "internalType": "address",
          "name": "proposer",
          "type": "address"
        },
        {
          "internalType": "uint256",
          "name": "proposalType",
          "type": "uint256"
        },
        {
          "internalType": "uint256",
          "name": "quantity",
          "type": "uint256"
        },
        {
          "internalType": "bool",
          "name": "complete",
          "type": "bool"
        },
        {
          "internalType": "bool",
          "name": "successful",
          "type": "bool"
        }
      ],
      "stateMutability": "view",
      "type": "function",
      "constant": true
    },
    {
      "inputs": [],
      "name": "quorum",
      "outputs": [
        {
          "internalType": "uint256",
          "name": "",
          "type": "uint256"
        }
      ],
      "stateMutability": "view",
      "type": "function",
      "constant": true
    },
    {
      "inputs": [],
      "name": "reward",
      "outputs": [
        {
          "internalType": "uint256",
          "name": "",
          "type": "uint256"
        }
      ],
      "stateMutability": "view",
      "type": "function",
      "constant": true
    },
    {
      "inputs": [
        {
          "internalType": "address",
          "name": "",
          "type": "address"
        }
      ],
      "name": "vote_share",
      "outputs": [
        {
          "internalType": "uint256",
          "name": "",
          "type": "uint256"
        }
      ],
      "stateMutability": "view",
      "type": "function",
      "constant": true
    },
    {
      "inputs": [],
      "name": "getProposalsLength",
      "outputs": [
        {
          "internalType": "uint256",
          "name": "",
          "type": "uint256"
        }
      ],
      "stateMutability": "view",
      "type": "function",
      "constant": true
    },
    {
      "inputs": [
        {
          "internalType": "address",
          "name": "_owner",
          "type": "address"
        },
        {
          "internalType": "string",
          "name": "_name",
          "type": "string"
        }
      ],
      "name": "gameSetup",
      "outputs": [],
      "stateMutability": "nonpayable",
      "type": "function"
    },
    {
      "inputs": [],
      "name": "joinGame",
      "outputs": [],
      "stateMutability": "payable",
      "type": "function",
      "payable": true
    },
    {
      "inputs": [],
      "name": "getNumPlayers",
      "outputs": [
        {
          "internalType": "uint256",
          "name": "",
          "type": "uint256"
        }
      ],
      "stateMutability": "view",
      "type": "function",
      "constant": true
    },
    {
      "inputs": [
        {
          "internalType": "uint256",
          "name": "quantity",
          "type": "uint256"
        }
      ],
      "name": "createProposal",
      "outputs": [],
      "stateMutability": "nonpayable",
      "type": "function"
    },
    {
      "inputs": [
        {
          "internalType": "uint256",
          "name": "proposalIndex",
          "type": "uint256"
        },
        {
          "internalType": "bool",
          "name": "vote",
          "type": "bool"
        }
      ],
      "name": "voteOnProposal",
      "outputs": [],
      "stateMutability": "nonpayable",
      "type": "function"
    },
    {
      "inputs": [],
      "name": "withdraw",
      "outputs": [],
      "stateMutability": "nonpayable",
      "type": "function"
    },
    {
      "inputs": [],
      "name": "endTheGame",
      "outputs": [],
      "stateMutability": "nonpayable",
      "type": "function"
    }
  ],
  "bytecode": "0x60806040526040518060400160405280600981526020017f626c616864746f776e0000000000000000000000000000000000000000000000815250600190805190602001906200005192919062000086565b5060016004556002600162000067919062000136565b60ff16600555600a6007553480156200007f57600080fd5b506200020f565b82805462000094906200017b565b90600052602060002090601f016020900481019282620000b8576000855562000104565b82601f10620000d357805160ff191683800117855562000104565b8280016001018555821562000104579182015b8281111562000103578251825591602001919060010190620000e6565b5b50905062000113919062000117565b5090565b5b808211156200013257600081600090555060010162000118565b5090565b600062000143826200016e565b915062000150836200016e565b925082620001635762000162620001b1565b5b828204905092915050565b600060ff82169050919050565b600060028204905060018216806200019457607f821691505b60208210811415620001ab57620001aa620001e0565b5b50919050565b7f4e487b7100000000000000000000000000000000000000000000000000000000600052601260045260246000fd5b7f4e487b7100000000000000000000000000000000000000000000000000000000600052602260045260246000fd5b611480806200021f6000396000f3fe6080604052600436106101095760003560e01c806355c9e9261161009557806397b2f5561161006457806397b2f5561461034b578063bc378a7314610376578063d4f77b1c146103a1578063e3c78629146103ab578063e4c172a0146103e857610109565b806355c9e926146102a15780635a43dc00146102cc578063649677e1146102f557806368dd63311461032057610109565b80631703a018116100dc5780631703a018146101cc578063228cb733146101f757806327e235e3146102225780633ccfd60b1461025f5780634c2412a21461027657610109565b8063013cf08b1461010e57806306fdde031461014f5780630976c1381461017a5780631614665c146101a3575b600080fd5b34801561011a57600080fd5b5061013560048036038101906101309190610e4f565b6103ff565b604051610146959493929190610fd6565b60405180910390f35b34801561015b57600080fd5b5061016461047f565b6040516101719190611029565b60405180910390f35b34801561018657600080fd5b506101a1600480360381019061019c9190610dfb565b61050d565b005b3480156101af57600080fd5b506101ca60048036038101906101c59190610e78565b610568565b005b3480156101d857600080fd5b506101e1610878565b6040516101ee91906110ab565b60405180910390f35b34801561020357600080fd5b5061020c61087e565b60405161021991906110ab565b60405180910390f35b34801561022e57600080fd5b5061024960048036038101906102449190610dd2565b610884565b60405161025691906110ab565b60405180910390f35b34801561026b57600080fd5b5061027461089c565b005b34801561028257600080fd5b5061028b61089e565b60405161029891906110c6565b60405180910390f35b3480156102ad57600080fd5b506102b66108a3565b6040516102c391906110ab565b60405180910390f35b3480156102d857600080fd5b506102f360048036038101906102ee9190610e4f565b6108ad565b005b34801561030157600080fd5b5061030a6109a2565b60405161031791906110ab565b60405180910390f35b34801561032c57600080fd5b506103356109a8565b60405161034291906110ab565b60405180910390f35b34801561035757600080fd5b506103606109ae565b60405161036d91906110ab565b60405180910390f35b34801561038257600080fd5b5061038b6109b4565b60405161039891906110ab565b60405180910390f35b6103a96109c1565b005b3480156103b757600080fd5b506103d260048036038101906103cd9190610dd2565b610ae3565b6040516103df91906110ab565b60405180910390f35b3480156103f457600080fd5b506103fd610afb565b005b6008818154811061040f57600080fd5b90600052602060002090600502016000915090508060000160009054906101000a900473ffffffffffffffffffffffffffffffffffffffff16908060010154908060020154908060030160009054906101000a900460ff16908060030160019054906101000a900460ff16905085565b6001805461048c90611240565b80601f01602080910402602001604051908101604052809291908181526020018280546104b890611240565b80156105055780601f106104da57610100808354040283529160200191610505565b820191906000526020600020905b8154815290600101906020018083116104e857829003601f168201915b505050505081565b816000806101000a81548173ffffffffffffffffffffffffffffffffffffffff021916908373ffffffffffffffffffffffffffffffffffffffff1602179055508060019080519060200190610563929190610c88565b505050565b60001515600883815481106105a6577f4e487b7100000000000000000000000000000000000000000000000000000000600052603260045260246000fd5b906000526020600020906005020160030160009054906101000a900460ff161515146105d157600080fd5b600060405180604001604052803373ffffffffffffffffffffffffffffffffffffffff16815260200183151581525090506008838154811061063c577f4e487b7100000000000000000000000000000000000000000000000000000000600052603260045260246000fd5b9060005260206000209060050201600401819080600181540180825580915050600190039060005260206000200160009091909190915060008201518160000160006101000a81548173ffffffffffffffffffffffffffffffffffffffff021916908373ffffffffffffffffffffffffffffffffffffffff16021790555060208201518160000160146101000a81548160ff021916908315150217905550505060055460088481548110610719577f4e487b7100000000000000000000000000000000000000000000000000000000600052603260045260246000fd5b906000526020600020906005020160040180549050106108735760016008848154811061076f577f4e487b7100000000000000000000000000000000000000000000000000000000600052603260045260246000fd5b906000526020600020906005020160030160006101000a81548160ff02191690831515021790555060006107a284610afd565b905080156108715761081e600885815481106107e7577f4e487b7100000000000000000000000000000000000000000000000000000000600052603260045260246000fd5b906000526020600020906005020160000160009054906101000a900473ffffffffffffffffffffffffffffffffffffffff16610c2d565b60088481548110610858577f4e487b7100000000000000000000000000000000000000000000000000000000600052603260045260246000fd5b9060005260206000209060050201600201546007819055505b505b505050565b60055481565b60075481565b60026020528060005260406000206000915090505481565b565b600181565b6000600354905090565b600160ff16600354146108f5576040517f08c379a00000000000000000000000000000000000000000000000000000000081526004016108ec9061106b565b60405180910390fd5b7f8dfa4a39b973cacc42c5d14d9461d66fd1fda5ea696f7d2a3c44fd9d7f11d04f3382604051610926929190610fad565b60405180910390a1600060086001816001815401808255809150500390600052602060002090600502019050338160000160006101000a81548173ffffffffffffffffffffffffffffffffffffffff021916908373ffffffffffffffffffffffffffffffffffffffff1602179055508181600201819055505050565b6103e881565b60045481565b60035481565b6000600880549050905090565b600160ff1660035410610a09576040517f08c379a0000000000000000000000000000000000000000000000000000000008152600401610a009061104b565b60405180910390fd5b6103e83411610a4d576040517f08c379a0000000000000000000000000000000000000000000000000000000008152600401610a449061108b565b60405180910390fd5b60036000815480929190610a60906112a3565b91905055506064600260003373ffffffffffffffffffffffffffffffffffffffff1673ffffffffffffffffffffffffffffffffffffffff168152602001908152602001600020819055507f52e92d4898337244a39bd42674ac561eadfd3959e947deec1c0ab82dd58b5a7533604051610ad99190610f92565b60405180910390a1565b60066020528060005260406000206000915090505481565b565b60008060005b60088481548110610b3d577f4e487b7100000000000000000000000000000000000000000000000000000000600052603260045260246000fd5b906000526020600020906005020160040180549050811015610c1e5760088481548110610b93577f4e487b7100000000000000000000000000000000000000000000000000000000600052603260045260246000fd5b90600052602060002090600502016004018181548110610bdc577f4e487b7100000000000000000000000000000000000000000000000000000000600052603260045260246000fd5b9060005260206000200160000160149054906101000a900460ff1615610c0b578180610c07906112a3565b9250505b8080610c16906112a3565b915050610b03565b50600554811015915050919050565b600754600260008373ffffffffffffffffffffffffffffffffffffffff1673ffffffffffffffffffffffffffffffffffffffff1681526020019081526020016000206000828254610c7e9190611153565b9250508190555050565b828054610c9490611240565b90600052602060002090601f016020900481019282610cb65760008555610cfd565b82601f10610ccf57805160ff1916838001178555610cfd565b82800160010185558215610cfd579182015b82811115610cfc578251825591602001919060010190610ce1565b5b509050610d0a9190610d0e565b5090565b5b80821115610d27576000816000905550600101610d0f565b5090565b6000610d3e610d3984611106565b6110e1565b905082815260208101848484011115610d5657600080fd5b610d618482856111fe565b509392505050565b600081359050610d7881611405565b92915050565b600081359050610d8d8161141c565b92915050565b600082601f830112610da457600080fd5b8135610db4848260208601610d2b565b91505092915050565b600081359050610dcc81611433565b92915050565b600060208284031215610de457600080fd5b6000610df284828501610d69565b91505092915050565b60008060408385031215610e0e57600080fd5b6000610e1c85828601610d69565b925050602083013567ffffffffffffffff811115610e3957600080fd5b610e4585828601610d93565b9150509250929050565b600060208284031215610e6157600080fd5b6000610e6f84828501610dbd565b91505092915050565b60008060408385031215610e8b57600080fd5b6000610e9985828601610dbd565b9250506020610eaa85828601610d7e565b9150509250929050565b610ebd816111a9565b82525050565b610ecc816111bb565b82525050565b6000610edd82611137565b610ee78185611142565b9350610ef781856020860161120d565b610f0081611379565b840191505092915050565b6000610f18600c83611142565b9150610f238261138a565b602082019050919050565b6000610f3b601d83611142565b9150610f46826113b3565b602082019050919050565b6000610f5e601583611142565b9150610f69826113dc565b602082019050919050565b610f7d816111e7565b82525050565b610f8c816111f1565b82525050565b6000602082019050610fa76000830184610eb4565b92915050565b6000604082019050610fc26000830185610eb4565b610fcf6020830184610f74565b9392505050565b600060a082019050610feb6000830188610eb4565b610ff86020830187610f74565b6110056040830186610f74565b6110126060830185610ec3565b61101f6080830184610ec3565b9695505050505050565b600060208201905081810360008301526110438184610ed2565b905092915050565b6000602082019050818103600083015261106481610f0b565b9050919050565b6000602082019050818103600083015261108481610f2e565b9050919050565b600060208201905081810360008301526110a481610f51565b9050919050565b60006020820190506110c06000830184610f74565b92915050565b60006020820190506110db6000830184610f83565b92915050565b60006110eb6110fc565b90506110f78282611272565b919050565b6000604051905090565b600067ffffffffffffffff8211156111215761112061134a565b5b61112a82611379565b9050602081019050919050565b600081519050919050565b600082825260208201905092915050565b600061115e826111e7565b9150611169836111e7565b9250827fffffffffffffffffffffffffffffffffffffffffffffffffffffffffffffffff0382111561119e5761119d6112ec565b5b828201905092915050565b60006111b4826111c7565b9050919050565b60008115159050919050565b600073ffffffffffffffffffffffffffffffffffffffff82169050919050565b6000819050919050565b600060ff82169050919050565b82818337600083830152505050565b60005b8381101561122b578082015181840152602081019050611210565b8381111561123a576000848401525b50505050565b6000600282049050600182168061125857607f821691505b6020821081141561126c5761126b61131b565b5b50919050565b61127b82611379565b810181811067ffffffffffffffff8211171561129a5761129961134a565b5b80604052505050565b60006112ae826111e7565b91507fffffffffffffffffffffffffffffffffffffffffffffffffffffffffffffffff8214156112e1576112e06112ec565b5b600182019050919050565b7f4e487b7100000000000000000000000000000000000000000000000000000000600052601160045260246000fd5b7f4e487b7100000000000000000000000000000000000000000000000000000000600052602260045260246000fd5b7f4e487b7100000000000000000000000000000000000000000000000000000000600052604160045260246000fd5b6000601f19601f8301169050919050565b7f47616d652069732066756c6c0000000000000000000000000000000000000000600082015250565b7f4e6f7420656e6f7567682070656f706c6520696e2067616d6520796574000000600082015250565b7f546865207374616b652069732031303030207765690000000000000000000000600082015250565b61140e816111a9565b811461141957600080fd5b50565b611425816111bb565b811461143057600080fd5b50565b61143c816111e7565b811461144757600080fd5b5056fea26469706673582212205f831fe00ab317b07d42026e889378984ef5bde6133c083fd5defd2282f42eeb64736f6c63430008010033",
  "immutableReferences": {},
  "source": "// SPDX-License-Identifier: MIT\npragma solidity 0.8.1;\n\n// import \"@openzeppelin/contracts/utils/EnumerableSet.sol\";\n\ncontract Game {\n    address owner;\n    string public name = \"blahdtown\";\n    mapping(address => uint256) public balances;\n    uint256 public numPlayers; // use EnumerableMapping?\n\n    uint8 public constant maxPlayers = 1;\n\n    // initial rules\n    uint256 public playDirection = 1;\n    uint256 public quorum = maxPlayers / 2;\n    mapping(address => uint256) public vote_share;\n    uint256 public reward = 10;\n\n    uint256 public constant entranceFee = 1000 wei;\n\n    event NewPlayer(address player);\n    event NewProposal(address proposer, uint256 quantity);\n\n    struct Proposal {\n        address proposer;\n        uint256 proposalType;\n        uint256 quantity;\n        bool complete;\n        bool successful;\n        Vote[] votes;\n    }\n\n    struct Vote {\n        address voter;\n        bool vote;\n    }\n\n    // enum ProposalTypes {Quorum, PlayDirection, VoteShare}\n\n    Proposal[] public proposals;\n\n    function getProposalsLength() external view returns (uint256) {\n        return proposals.length;\n    }\n\n    constructor() {}\n\n    function gameSetup(address _owner, string memory _name) public {\n        owner = _owner;\n        name = _name;\n    }\n\n    function joinGame() public payable {\n        require(numPlayers < maxPlayers, \"Game is full\");\n        require(msg.value > entranceFee, \"The stake is 1000 wei\");\n        numPlayers++;\n        balances[msg.sender] = 100;\n        emit NewPlayer(msg.sender);\n    }\n\n    function getNumPlayers() external view returns (uint256) {\n        return numPlayers;\n    }\n\n    function createProposal(uint256 quantity) public {\n        require(numPlayers == maxPlayers, \"Not enough people in game yet\");\n        // require that user is a member of this game\n        emit NewProposal(msg.sender, quantity);\n        Proposal storage nextProposal = proposals.push();\n        nextProposal.proposer = msg.sender;\n        nextProposal.quantity = quantity;\n        // nextProposal.proposalType = proposalType;\n    }\n\n    function countVotes(uint256 proposalIndex) internal view returns (bool) {\n        uint256 votesFor;\n        for (\n            uint256 index = 0;\n            index < proposals[proposalIndex].votes.length;\n            index++\n        ) {\n            if (proposals[proposalIndex].votes[index].vote) {\n                votesFor++;\n            }\n        }\n        return votesFor >= quorum;\n    }\n\n    function voteOnProposal(uint256 proposalIndex, bool vote) public {\n        require(proposals[proposalIndex].complete == false);\n        Vote memory v = Vote({voter: msg.sender, vote: vote});\n        proposals[proposalIndex].votes.push(v);\n\n        if (proposals[proposalIndex].votes.length >= quorum) {\n            proposals[proposalIndex].complete = true;\n            bool successful = countVotes(proposalIndex);\n            // emit ProposalComplete(proposalIndex, successful);\n            // proposals[proposalIndex].successful = countVotes();\n            if (successful) {\n                rewardPlayer(proposals[proposalIndex].proposer);\n                reward = proposals[proposalIndex].quantity;\n            }\n        }\n    }\n\n    function rewardPlayer(address player) private {\n        balances[player] += reward;\n    }\n\n    function enactProposal(uint256 proposalIndex) private {\n        // if (proposals[proposalIndex].proposalType == ProposalTypes.Quorum) {\n        //     quorum = proposals[proposalIndex].quantity;\n        // } else if (\n        //     proposals[proposalIndex].proposalType == ProposalTypes.PlayDirection\n        // ) {\n        //     playDirection = proposals[proposalIndex].quantity;\n        // } else if (\n        //     proposals[proposalIndex].proposalType == ProposalTypes.VoteShare\n        // ) {\n        //     // needs extra data to assign vote share to specific users\n        // }\n    }\n\n    function withdraw() external {\n        // allow withdraw if game hasn't started\n        // return stake to user\n        // remove from balances\n        // set num players\n    }\n\n    function endTheGame() public {}\n}\n",
  "sourcePath": "/Users/tomchambers/projects/nomdao2/contracts/Game.sol",
  "compiler": {
    "name": "solc",
    "version": "0.8.1+commit.df193b15.Emscripten.clang"
  },
  "schemaVersion": "3.3.3",
  "updatedAt": "2021-02-11T21:06:08.819Z",
  "networkType": "ethereum",
  "devdoc": {
    "kind": "dev",
    "methods": {},
    "version": 1
  },
  "userdoc": {
    "kind": "user",
    "methods": {},
    "version": 1
  }
}