{
  "_format": "hh-sol-artifact-1",
  "contractName": "Game",
  "sourceName": "contracts/Game.sol",
  "abi": [
    {
      "inputs": [],
      "stateMutability": "nonpayable",
      "type": "constructor"
    },
    {
      "anonymous": false,
      "inputs": [
        {
          "indexed": false,
          "internalType": "address",
          "name": "player",
          "type": "address"
        }
      ],
      "name": "NewPlayer",
      "type": "event"
    },
    {
      "anonymous": false,
      "inputs": [
        {
          "indexed": false,
          "internalType": "address",
          "name": "proposer",
          "type": "address"
        },
        {
          "indexed": false,
          "internalType": "uint256",
          "name": "quantity",
          "type": "uint256"
        }
      ],
      "name": "NewProposal",
      "type": "event"
    },
    {
      "inputs": [
        {
          "internalType": "address",
          "name": "",
          "type": "address"
        }
      ],
      "name": "balances",
      "outputs": [
        {
          "internalType": "uint256",
          "name": "",
          "type": "uint256"
        }
      ],
      "stateMutability": "view",
      "type": "function"
    },
    {
      "inputs": [
        {
          "internalType": "uint256",
          "name": "quantity",
          "type": "uint256"
        }
      ],
      "name": "createProposal",
      "outputs": [],
      "stateMutability": "nonpayable",
      "type": "function"
    },
    {
      "inputs": [],
      "name": "endTheGame",
      "outputs": [],
      "stateMutability": "nonpayable",
      "type": "function"
    },
    {
      "inputs": [],
      "name": "entranceFee",
      "outputs": [
        {
          "internalType": "uint256",
          "name": "",
          "type": "uint256"
        }
      ],
      "stateMutability": "view",
      "type": "function"
    },
    {
      "inputs": [
        {
          "internalType": "address",
          "name": "_owner",
          "type": "address"
        },
        {
          "internalType": "string",
          "name": "_name",
          "type": "string"
        }
      ],
      "name": "gameSetup",
      "outputs": [],
      "stateMutability": "nonpayable",
      "type": "function"
    },
    {
      "inputs": [],
      "name": "getNumPlayers",
      "outputs": [
        {
          "internalType": "uint256",
          "name": "",
          "type": "uint256"
        }
      ],
      "stateMutability": "view",
      "type": "function"
    },
    {
      "inputs": [],
      "name": "getPlayersLength",
      "outputs": [
        {
          "internalType": "uint256",
          "name": "",
          "type": "uint256"
        }
      ],
      "stateMutability": "view",
      "type": "function"
    },
    {
      "inputs": [],
      "name": "getProposalsLength",
      "outputs": [
        {
          "internalType": "uint256",
          "name": "",
          "type": "uint256"
        }
      ],
      "stateMutability": "view",
      "type": "function"
    },
    {
      "inputs": [],
      "name": "joinGame",
      "outputs": [],
      "stateMutability": "payable",
      "type": "function"
    },
    {
      "inputs": [],
      "name": "maxPlayers",
      "outputs": [
        {
          "internalType": "uint8",
          "name": "",
          "type": "uint8"
        }
      ],
      "stateMutability": "view",
      "type": "function"
    },
    {
      "inputs": [],
      "name": "name",
      "outputs": [
        {
          "internalType": "string",
          "name": "",
          "type": "string"
        }
      ],
      "stateMutability": "view",
      "type": "function"
    },
    {
      "inputs": [],
      "name": "numPlayers",
      "outputs": [
        {
          "internalType": "uint256",
          "name": "",
          "type": "uint256"
        }
      ],
      "stateMutability": "view",
      "type": "function"
    },
    {
      "inputs": [],
      "name": "playDirection",
      "outputs": [
        {
          "internalType": "uint256",
          "name": "",
          "type": "uint256"
        }
      ],
      "stateMutability": "view",
      "type": "function"
    },
    {
      "inputs": [
        {
          "internalType": "uint256",
          "name": "",
          "type": "uint256"
        }
      ],
      "name": "players",
      "outputs": [
        {
          "internalType": "address",
          "name": "",
          "type": "address"
        }
      ],
      "stateMutability": "view",
      "type": "function"
    },
    {
      "inputs": [
        {
          "internalType": "uint256",
          "name": "",
          "type": "uint256"
        }
      ],
      "name": "proposals",
      "outputs": [
        {
          "internalType": "address",
          "name": "proposer",
          "type": "address"
        },
        {
          "internalType": "uint256",
          "name": "proposalType",
          "type": "uint256"
        },
        {
          "internalType": "uint256",
          "name": "quantity",
          "type": "uint256"
        },
        {
          "internalType": "bool",
          "name": "complete",
          "type": "bool"
        },
        {
          "internalType": "bool",
          "name": "successful",
          "type": "bool"
        }
      ],
      "stateMutability": "view",
      "type": "function"
    },
    {
      "inputs": [],
      "name": "quorum",
      "outputs": [
        {
          "internalType": "uint256",
          "name": "",
          "type": "uint256"
        }
      ],
      "stateMutability": "view",
      "type": "function"
    },
    {
      "inputs": [],
      "name": "reward",
      "outputs": [
        {
          "internalType": "uint256",
          "name": "",
          "type": "uint256"
        }
      ],
      "stateMutability": "view",
      "type": "function"
    },
    {
      "inputs": [
        {
          "internalType": "uint256",
          "name": "proposalIndex",
          "type": "uint256"
        },
        {
          "internalType": "bool",
          "name": "vote",
          "type": "bool"
        }
      ],
      "name": "voteOnProposal",
      "outputs": [],
      "stateMutability": "nonpayable",
      "type": "function"
    },
    {
      "inputs": [
        {
          "internalType": "address",
          "name": "",
          "type": "address"
        }
      ],
      "name": "vote_share",
      "outputs": [
        {
          "internalType": "uint256",
          "name": "",
          "type": "uint256"
        }
      ],
      "stateMutability": "view",
      "type": "function"
    },
    {
      "inputs": [],
      "name": "withdraw",
      "outputs": [],
      "stateMutability": "nonpayable",
      "type": "function"
    }
  ],
  "bytecode": "0x60806040526040518060400160405280600981526020017f626c616864746f776e0000000000000000000000000000000000000000000000815250600190805190602001906200005192919062000085565b50600160055560028062000066919062000135565b60ff16600655600a6008553480156200007e57600080fd5b506200020e565b82805462000093906200017a565b90600052602060002090601f016020900481019282620000b7576000855562000103565b82601f10620000d257805160ff191683800117855562000103565b8280016001018555821562000103579182015b8281111562000102578251825591602001919060010190620000e5565b5b50905062000112919062000116565b5090565b5b808211156200013157600081600090555060010162000117565b5090565b600062000142826200016d565b91506200014f836200016d565b925082620001625762000161620001b0565b5b828204905092915050565b600060ff82169050919050565b600060028204905060018216806200019357607f821691505b60208210811415620001aa57620001a9620001df565b5b50919050565b7f4e487b7100000000000000000000000000000000000000000000000000000000600052601260045260246000fd5b7f4e487b7100000000000000000000000000000000000000000000000000000000600052602260045260246000fd5b6118d7806200021e6000396000f3fe60806040526004361061011f5760003560e01c80635a43dc00116100a0578063cd61386d11610064578063cd61386d146103b7578063d4f77b1c146103e2578063e3c78629146103ec578063e4c172a014610429578063f71d96cb146104405761011f565b80635a43dc00146102e2578063649677e11461030b57806368dd63311461033657806397b2f55614610361578063bc378a731461038c5761011f565b8063228cb733116100e7578063228cb7331461020d57806327e235e3146102385780633ccfd60b146102755780634c2412a21461028c57806355c9e926146102b75761011f565b8063013cf08b1461012457806306fdde03146101655780630976c138146101905780631614665c146101b95780631703a018146101e2575b600080fd5b34801561013057600080fd5b5061014b6004803603810190610146919061121f565b61047d565b60405161015c9594939291906113c9565b60405180910390f35b34801561017157600080fd5b5061017a6104fd565b6040516101879190611437565b60405180910390f35b34801561019c57600080fd5b506101b760048036038101906101b291906111cb565b61058b565b005b3480156101c557600080fd5b506101e060048036038101906101db9190611248565b6105e6565b005b3480156101ee57600080fd5b506101f761098f565b60405161020491906114d9565b60405180910390f35b34801561021957600080fd5b50610222610995565b60405161022f91906114d9565b60405180910390f35b34801561024457600080fd5b5061025f600480360381019061025a91906111a2565b61099b565b60405161026c91906114d9565b60405180910390f35b34801561028157600080fd5b5061028a6109b3565b005b34801561029857600080fd5b506102a16109b5565b6040516102ae91906114f4565b60405180910390f35b3480156102c357600080fd5b506102cc6109ba565b6040516102d991906114d9565b60405180910390f35b3480156102ee57600080fd5b506103096004803603810190610304919061121f565b6109c4565b005b34801561031757600080fd5b50610320610ab9565b60405161032d91906114d9565b60405180910390f35b34801561034257600080fd5b5061034b610abf565b60405161035891906114d9565b60405180910390f35b34801561036d57600080fd5b50610376610ac5565b60405161038391906114d9565b60405180910390f35b34801561039857600080fd5b506103a1610acb565b6040516103ae91906114d9565b60405180910390f35b3480156103c357600080fd5b506103cc610ad8565b6040516103d991906114d9565b60405180910390f35b6103ea610ae5565b005b3480156103f857600080fd5b50610413600480360381019061040e91906111a2565b610c6a565b60405161042091906114d9565b60405180910390f35b34801561043557600080fd5b5061043e610c82565b005b34801561044c57600080fd5b506104676004803603810190610462919061121f565b610c84565b6040516104749190611385565b60405180910390f35b6009818154811061048d57600080fd5b90600052602060002090600502016000915090508060000160009054906101000a900473ffffffffffffffffffffffffffffffffffffffff16908060010154908060020154908060030160009054906101000a900460ff16908060030160019054906101000a900460ff16905085565b6001805461050a9061166e565b80601f01602080910402602001604051908101604052809291908181526020018280546105369061166e565b80156105835780601f1061055857610100808354040283529160200191610583565b820191906000526020600020905b81548152906001019060200180831161056657829003601f168201915b505050505081565b816000806101000a81548173ffffffffffffffffffffffffffffffffffffffff021916908373ffffffffffffffffffffffffffffffffffffffff16021790555080600190805190602001906105e1929190611058565b505050565b6000151560098381548110610624577f4e487b7100000000000000000000000000000000000000000000000000000000600052603260045260246000fd5b906000526020600020906005020160030160009054906101000a900460ff16151514610685576040517f08c379a000000000000000000000000000000000000000000000000000000000815260040161067c906114b9565b60405180910390fd5b600060405180604001604052803373ffffffffffffffffffffffffffffffffffffffff1681526020018315158152509050600983815481106106f0577f4e487b7100000000000000000000000000000000000000000000000000000000600052603260045260246000fd5b9060005260206000209060050201600401819080600181540180825580915050600190039060005260206000200160009091909190915060008201518160000160006101000a81548173ffffffffffffffffffffffffffffffffffffffff021916908373ffffffffffffffffffffffffffffffffffffffff16021790555060208201518160000160146101000a81548160ff0219169083151502179055505050600654600984815481106107cd577f4e487b7100000000000000000000000000000000000000000000000000000000600052603260045260246000fd5b9060005260206000209060050201600401805490501061098a57600160098481548110610823577f4e487b7100000000000000000000000000000000000000000000000000000000600052603260045260246000fd5b906000526020600020906005020160030160006101000a81548160ff021916908315150217905550600061085684610cc3565b90508060098581548110610893577f4e487b7100000000000000000000000000000000000000000000000000000000600052603260045260246000fd5b906000526020600020906005020160030160016101000a81548160ff021916908315150217905550801561098857610935600985815481106108fe577f4e487b7100000000000000000000000000000000000000000000000000000000600052603260045260246000fd5b906000526020600020906005020160000160009054906101000a900473ffffffffffffffffffffffffffffffffffffffff16610ea2565b6009848154811061096f577f4e487b7100000000000000000000000000000000000000000000000000000000600052603260045260246000fd5b9060005260206000209060050201600201546008819055505b505b505050565b60065481565b60085481565b60036020528060005260406000206000915090505481565b565b600281565b6000600454905090565b600260ff1660045414610a0c576040517f08c379a0000000000000000000000000000000000000000000000000000000008152600401610a0390611479565b60405180910390fd5b7f8dfa4a39b973cacc42c5d14d9461d66fd1fda5ea696f7d2a3c44fd9d7f11d04f3382604051610a3d9291906113a0565b60405180910390a1600060096001816001815401808255809150500390600052602060002090600502019050338160000160006101000a81548173ffffffffffffffffffffffffffffffffffffffff021916908373ffffffffffffffffffffffffffffffffffffffff1602179055508181600201819055505050565b6103e881565b60055481565b60045481565b6000600980549050905090565b6000600280549050905090565b600260ff1660045410610b2d576040517f08c379a0000000000000000000000000000000000000000000000000000000008152600401610b2490611459565b60405180910390fd5b6103e83411610b71576040517f08c379a0000000000000000000000000000000000000000000000000000000008152600401610b6890611499565b60405180910390fd5b60046000815480929190610b84906116d1565b91905055506002339080600181540180825580915050600190039060005260206000200160009091909190916101000a81548173ffffffffffffffffffffffffffffffffffffffff021916908373ffffffffffffffffffffffffffffffffffffffff1602179055506064600360003373ffffffffffffffffffffffffffffffffffffffff1673ffffffffffffffffffffffffffffffffffffffff168152602001908152602001600020819055507f52e92d4898337244a39bd42674ac561eadfd3959e947deec1c0ab82dd58b5a7533604051610c609190611385565b60405180910390a1565b60076020528060005260406000206000915090505481565b565b60028181548110610c9457600080fd5b906000526020600020016000915054906101000a900473ffffffffffffffffffffffffffffffffffffffff1681565b60008060005b60098481548110610d03577f4e487b7100000000000000000000000000000000000000000000000000000000600052603260045260246000fd5b906000526020600020906005020160040180549050811015610e8a57610dc560098581548110610d5c577f4e487b7100000000000000000000000000000000000000000000000000000000600052603260045260246000fd5b90600052602060002090600502016004018281548110610da5577f4e487b7100000000000000000000000000000000000000000000000000000000600052603260045260246000fd5b9060005260206000200160000160149054906101000a900460ff16610efd565b60098481548110610dff577f4e487b7100000000000000000000000000000000000000000000000000000000600052603260045260246000fd5b90600052602060002090600502016004018181548110610e48577f4e487b7100000000000000000000000000000000000000000000000000000000600052603260045260246000fd5b9060005260206000200160000160149054906101000a900460ff1615610e77578180610e73906116d1565b9250505b8080610e82906116d1565b915050610cc9565b50610e9481610f96565b600654811015915050919050565b600854600360008373ffffffffffffffffffffffffffffffffffffffff1673ffffffffffffffffffffffffffffffffffffffff1681526020019081526020016000206000828254610ef39190611581565b9250508190555050565b610f9381604051602401610f11919061141c565b6040516020818303038152906040527f32458eed000000000000000000000000000000000000000000000000000000007bffffffffffffffffffffffffffffffffffffffffffffffffffffffff19166020820180517bffffffffffffffffffffffffffffffffffffffffffffffffffffffff838183161783525050505061102f565b50565b61102c81604051602401610faa91906114d9565b6040516020818303038152906040527ff5b1bba9000000000000000000000000000000000000000000000000000000007bffffffffffffffffffffffffffffffffffffffffffffffffffffffff19166020820180517bffffffffffffffffffffffffffffffffffffffffffffffffffffffff838183161783525050505061102f565b50565b60008151905060006a636f6e736f6c652e6c6f679050602083016000808483855afa5050505050565b8280546110649061166e565b90600052602060002090601f01602090048101928261108657600085556110cd565b82601f1061109f57805160ff19168380011785556110cd565b828001600101855582156110cd579182015b828111156110cc5782518255916020019190600101906110b1565b5b5090506110da91906110de565b5090565b5b808211156110f75760008160009055506001016110df565b5090565b600061110e61110984611534565b61150f565b90508281526020810184848401111561112657600080fd5b61113184828561162c565b509392505050565b6000813590506111488161185c565b92915050565b60008135905061115d81611873565b92915050565b600082601f83011261117457600080fd5b81356111848482602086016110fb565b91505092915050565b60008135905061119c8161188a565b92915050565b6000602082840312156111b457600080fd5b60006111c284828501611139565b91505092915050565b600080604083850312156111de57600080fd5b60006111ec85828601611139565b925050602083013567ffffffffffffffff81111561120957600080fd5b61121585828601611163565b9150509250929050565b60006020828403121561123157600080fd5b600061123f8482850161118d565b91505092915050565b6000806040838503121561125b57600080fd5b60006112698582860161118d565b925050602061127a8582860161114e565b9150509250929050565b61128d816115d7565b82525050565b61129c816115e9565b82525050565b60006112ad82611565565b6112b78185611570565b93506112c781856020860161163b565b6112d0816117a7565b840191505092915050565b60006112e8600c83611570565b91506112f3826117b8565b602082019050919050565b600061130b601d83611570565b9150611316826117e1565b602082019050919050565b600061132e601583611570565b91506113398261180a565b602082019050919050565b6000611351601483611570565b915061135c82611833565b602082019050919050565b61137081611615565b82525050565b61137f8161161f565b82525050565b600060208201905061139a6000830184611284565b92915050565b60006040820190506113b56000830185611284565b6113c26020830184611367565b9392505050565b600060a0820190506113de6000830188611284565b6113eb6020830187611367565b6113f86040830186611367565b6114056060830185611293565b6114126080830184611293565b9695505050505050565b60006020820190506114316000830184611293565b92915050565b6000602082019050818103600083015261145181846112a2565b905092915050565b60006020820190508181036000830152611472816112db565b9050919050565b60006020820190508181036000830152611492816112fe565b9050919050565b600060208201905081810360008301526114b281611321565b9050919050565b600060208201905081810360008301526114d281611344565b9050919050565b60006020820190506114ee6000830184611367565b92915050565b60006020820190506115096000830184611376565b92915050565b600061151961152a565b905061152582826116a0565b919050565b6000604051905090565b600067ffffffffffffffff82111561154f5761154e611778565b5b611558826117a7565b9050602081019050919050565b600081519050919050565b600082825260208201905092915050565b600061158c82611615565b915061159783611615565b9250827fffffffffffffffffffffffffffffffffffffffffffffffffffffffffffffffff038211156115cc576115cb61171a565b5b828201905092915050565b60006115e2826115f5565b9050919050565b60008115159050919050565b600073ffffffffffffffffffffffffffffffffffffffff82169050919050565b6000819050919050565b600060ff82169050919050565b82818337600083830152505050565b60005b8381101561165957808201518184015260208101905061163e565b83811115611668576000848401525b50505050565b6000600282049050600182168061168657607f821691505b6020821081141561169a57611699611749565b5b50919050565b6116a9826117a7565b810181811067ffffffffffffffff821117156116c8576116c7611778565b5b80604052505050565b60006116dc82611615565b91507fffffffffffffffffffffffffffffffffffffffffffffffffffffffffffffffff82141561170f5761170e61171a565b5b600182019050919050565b7f4e487b7100000000000000000000000000000000000000000000000000000000600052601160045260246000fd5b7f4e487b7100000000000000000000000000000000000000000000000000000000600052602260045260246000fd5b7f4e487b7100000000000000000000000000000000000000000000000000000000600052604160045260246000fd5b6000601f19601f8301169050919050565b7f47616d652069732066756c6c0000000000000000000000000000000000000000600082015250565b7f4e6f7420656e6f7567682070656f706c6520696e2067616d6520796574000000600082015250565b7f546865207374616b652069732031303030207765690000000000000000000000600082015250565b7f50726f706f73616c20697320636f6d706c657465000000000000000000000000600082015250565b611865816115d7565b811461187057600080fd5b50565b61187c816115e9565b811461188757600080fd5b50565b61189381611615565b811461189e57600080fd5b5056fea2646970667358221220826529fa1eecc85116dbac2e6e09902e6151ad98cfaaefe7a7a4fe7bd10c33cf64736f6c63430008010033",
  "linkReferences": {},
  "deployedLinkReferences": {}
}