{
  "_format": "hh-sol-artifact-1",
  "contractName": "Game",
  "sourceName": "contracts/Game.sol",
  "abi": [
    {
      "inputs": [
        {
          "internalType": "address",
          "name": "firstPlayer",
          "type": "address"
        },
        {
          "internalType": "uint256",
          "name": "entryFee",
          "type": "uint256"
        },
        {
          "internalType": "uint256",
          "name": "startBalance",
          "type": "uint256"
        },
        {
          "internalType": "uint256",
          "name": "rewardValue",
          "type": "uint256"
        },
        {
          "internalType": "uint256",
          "name": "majorityValue",
          "type": "uint256"
        },
        {
          "internalType": "uint256",
          "name": "quorumValue",
          "type": "uint256"
        },
        {
          "internalType": "uint256",
          "name": "maxProposalsValue",
          "type": "uint256"
        },
        {
          "internalType": "uint256",
          "name": "pollTaxValue",
          "type": "uint256"
        },
        {
          "internalType": "uint256",
          "name": "wealthTaxValue",
          "type": "uint256"
        },
        {
          "internalType": "uint256",
          "name": "wealthTaxThreshold",
          "type": "uint256"
        },
        {
          "internalType": "uint256",
          "name": "proposalFee",
          "type": "uint256"
        }
      ],
      "stateMutability": "payable",
      "type": "constructor"
    },
    {
      "anonymous": false,
      "inputs": [
        {
          "indexed": false,
          "internalType": "address",
          "name": "playerAddress",
          "type": "address"
        },
        {
          "indexed": false,
          "internalType": "uint256",
          "name": "amount",
          "type": "uint256"
        },
        {
          "indexed": false,
          "internalType": "bool",
          "name": "isDeduction",
          "type": "bool"
        },
        {
          "indexed": false,
          "internalType": "uint256",
          "name": "balance",
          "type": "uint256"
        },
        {
          "indexed": false,
          "internalType": "bool",
          "name": "successfulProposal",
          "type": "bool"
        },
        {
          "indexed": false,
          "internalType": "uint256",
          "name": "ruleIndex",
          "type": "uint256"
        }
      ],
      "name": "LedgerEntry",
      "type": "event"
    },
    {
      "inputs": [
        {
          "internalType": "uint256",
          "name": "ruleIndex",
          "type": "uint256"
        },
        {
          "internalType": "uint256",
          "name": "value",
          "type": "uint256"
        }
      ],
      "name": "createProposal",
      "outputs": [],
      "stateMutability": "nonpayable",
      "type": "function"
    },
    {
      "inputs": [],
      "name": "gameEndTime",
      "outputs": [
        {
          "internalType": "uint256",
          "name": "",
          "type": "uint256"
        }
      ],
      "stateMutability": "view",
      "type": "function"
    },
    {
      "inputs": [],
      "name": "getPlayersLength",
      "outputs": [
        {
          "internalType": "uint256",
          "name": "",
          "type": "uint256"
        }
      ],
      "stateMutability": "view",
      "type": "function"
    },
    {
      "inputs": [],
      "name": "getProposalsLength",
      "outputs": [
        {
          "internalType": "uint256",
          "name": "",
          "type": "uint256"
        }
      ],
      "stateMutability": "view",
      "type": "function"
    },
    {
      "inputs": [],
      "name": "getRulesLength",
      "outputs": [
        {
          "internalType": "uint256",
          "name": "",
          "type": "uint256"
        }
      ],
      "stateMutability": "view",
      "type": "function"
    },
    {
      "inputs": [
        {
          "internalType": "uint256",
          "name": "proposalIndex",
          "type": "uint256"
        },
        {
          "internalType": "uint256",
          "name": "voteIndex",
          "type": "uint256"
        }
      ],
      "name": "getVote",
      "outputs": [
        {
          "internalType": "address",
          "name": "playerAddress",
          "type": "address"
        },
        {
          "internalType": "bool",
          "name": "vote",
          "type": "bool"
        }
      ],
      "stateMutability": "view",
      "type": "function"
    },
    {
      "inputs": [
        {
          "internalType": "uint256",
          "name": "proposalIndex",
          "type": "uint256"
        }
      ],
      "name": "getVotesLength",
      "outputs": [
        {
          "internalType": "uint256",
          "name": "",
          "type": "uint256"
        }
      ],
      "stateMutability": "view",
      "type": "function"
    },
    {
      "inputs": [],
      "name": "joinGame",
      "outputs": [],
      "stateMutability": "payable",
      "type": "function"
    },
    {
      "inputs": [
        {
          "internalType": "uint256",
          "name": "",
          "type": "uint256"
        }
      ],
      "name": "players",
      "outputs": [
        {
          "internalType": "address",
          "name": "playerAddress",
          "type": "address"
        },
        {
          "internalType": "uint256",
          "name": "balance",
          "type": "uint256"
        }
      ],
      "stateMutability": "view",
      "type": "function"
    },
    {
      "inputs": [
        {
          "internalType": "uint256",
          "name": "",
          "type": "uint256"
        }
      ],
      "name": "proposals",
      "outputs": [
        {
          "internalType": "address",
          "name": "proposer",
          "type": "address"
        },
        {
          "internalType": "uint256",
          "name": "value",
          "type": "uint256"
        },
        {
          "internalType": "uint256",
          "name": "ruleIndex",
          "type": "uint256"
        },
        {
          "internalType": "bool",
          "name": "mutabilityChange",
          "type": "bool"
        },
        {
          "internalType": "bool",
          "name": "feePaid",
          "type": "bool"
        },
        {
          "internalType": "bool",
          "name": "complete",
          "type": "bool"
        },
        {
          "internalType": "bool",
          "name": "successful",
          "type": "bool"
        }
      ],
      "stateMutability": "view",
      "type": "function"
    },
    {
      "inputs": [
        {
          "internalType": "uint256",
          "name": "",
          "type": "uint256"
        }
      ],
      "name": "rules",
      "outputs": [
        {
          "internalType": "string",
          "name": "name",
          "type": "string"
        },
        {
          "internalType": "uint256",
          "name": "value",
          "type": "uint256"
        },
        {
          "internalType": "uint256",
          "name": "lowerBound",
          "type": "uint256"
        },
        {
          "internalType": "uint256",
          "name": "upperBound",
          "type": "uint256"
        }
      ],
      "stateMutability": "view",
      "type": "function"
    },
    {
      "inputs": [
        {
          "internalType": "uint256",
          "name": "proposalIndex",
          "type": "uint256"
        },
        {
          "internalType": "bool",
          "name": "vote",
          "type": "bool"
        }
      ],
      "name": "voteOnProposal",
      "outputs": [],
      "stateMutability": "nonpayable",
      "type": "function"
    }
  ],
  "bytecode": "0x6080604052604051620049fc380380620049fc833981810160405281019062000029919062000ad7565b600260405180608001604052806040518060400160405280600981526020017f456e74727920666565000000000000000000000000000000000000000000000081525081526020018c8152602001600081526020016103e881525090806001815401808255809150506001900390600052602060002090600402016000909190919091506000820151816000019080519060200190620000cb929190620009f9565b506020820151816001015560408201518160020155606082015181600301555050600260405180608001604052806040518060400160405280600d81526020017f53746172742062616c616e63650000000000000000000000000000000000000081525081526020018b8152602001600081526020016103e8815250908060018154018082558091505060019003906000526020600020906004020160009091909190915060008201518160000190805190602001906200018e929190620009f9565b506020820151816001015560408201518160020155606082015181600301555050600260405180608001604052806040518060400160405280600f81526020017f50726f706f73616c20726577617264000000000000000000000000000000000081525081526020018a815260200160008152602001633b9aca008152509080600181540180825580915050600190039060005260206000209060040201600090919091909150600082015181600001908051906020019062000253929190620009f9565b506020820151816001015560408201518160020155606082015181600301555050600260405180608001604052806040518060400160405280600881526020017f4d616a6f7269747900000000000000000000000000000000000000000000000081525081526020018981526020016000815260200160648152509080600181540180825580915050600190039060005260206000209060040201600090919091909150600082015181600001908051906020019062000315929190620009f9565b506020820151816001015560408201518160020155606082015181600301555050600260405180608001604052806040518060400160405280600681526020017f51756f72756d0000000000000000000000000000000000000000000000000000815250815260200188815260200160008152602001606481525090806001815401808255809150506001900390600052602060002090600402016000909190919091506000820151816000019080519060200190620003d7929190620009f9565b506020820151816001015560408201518160020155606082015181600301555050600260405180608001604052806040518060400160405280600b81526020017f47616d65206c656e67746800000000000000000000000000000000000000000081525081526020018781526020016001815260200160648152509080600181540180825580915050600190039060005260206000209060040201600090919091909150600082015181600001908051906020019062000499929190620009f9565b506020820151816001015560408201518160020155606082015181600301555050600260405180608001604052806040518060400160405280600881526020017f506f6c6c20746178000000000000000000000000000000000000000000000000815250815260200186815260200160018152602001633b9aca00815250908060018154018082558091505060019003906000526020600020906004020160009091909190915060008201518160000190805190602001906200055e929190620009f9565b506020820151816001015560408201518160020155606082015181600301555050600260405180608001604052806040518060400160405280600a81526020017f5765616c7468207461780000000000000000000000000000000000000000000081525081526020018581526020016001815260200160648152509080600181540180825580915050600190039060005260206000209060040201600090919091909150600082015181600001908051906020019062000620929190620009f9565b506020820151816001015560408201518160020155606082015181600301555050600260405180608001604052806040518060400160405280601481526020017f5765616c746820746178207468726573686f6c64000000000000000000000000815250815260200184815260200160008152602001633b9aca0081525090806001815401808255809150506001900390600052602060002090600402016000909190919091506000820151816000019080519060200190620006e5929190620009f9565b506020820151816001015560408201518160020155606082015181600301555050600260405180608001604052806040518060400160405280600c81526020017f50726f706f73616c206665650000000000000000000000000000000000000000815250815260200183815260200160008152602001633b9aca0081525090806001815401808255809150506001900390600052602060002090600402016000909190919091506000820151816000019080519060200190620007aa929190620009f9565b506020820151816001015560408201518160020155606082015181600301555050620007db620007fd60201b60201c565b620007ec8b620008e560201b60201c565b505050505050505050505062000dee565b6000670de0b6b3a764000090508060026000600981111562000848577f4e487b7100000000000000000000000000000000000000000000000000000000600052602160045260246000fd5b8154811062000880577f4e487b7100000000000000000000000000000000000000000000000000000000600052603260045260246000fd5b9060005260206000209060040201600101546200089e919062000c38565b3414620008e2576040517f08c379a0000000000000000000000000000000000000000000000000000000008152600401620008d99062000c05565b60405180910390fd5b50565b6000670de0b6b3a764000090506000600180816001815401808255809150500390600052602060002090600202019050828160000160006101000a81548173ffffffffffffffffffffffffffffffffffffffff021916908373ffffffffffffffffffffffffffffffffffffffff1602179055508160026001600981111562000996577f4e487b7100000000000000000000000000000000000000000000000000000000600052602160045260246000fd5b81548110620009ce577f4e487b7100000000000000000000000000000000000000000000000000000000600052603260045260246000fd5b906000526020600020906004020160010154620009ec919062000c38565b8160010181905550505050565b82805462000a079062000cd7565b90600052602060002090601f01602090048101928262000a2b576000855562000a77565b82601f1062000a4657805160ff191683800117855562000a77565b8280016001018555821562000a77579182015b8281111562000a7657825182559160200191906001019062000a59565b5b50905062000a86919062000a8a565b5090565b5b8082111562000aa557600081600090555060010162000a8b565b5090565b60008151905062000aba8162000dba565b92915050565b60008151905062000ad18162000dd4565b92915050565b60008060008060008060008060008060006101608c8e03121562000afa57600080fd5b600062000b0a8e828f0162000aa9565b9b5050602062000b1d8e828f0162000ac0565b9a5050604062000b308e828f0162000ac0565b995050606062000b438e828f0162000ac0565b985050608062000b568e828f0162000ac0565b97505060a062000b698e828f0162000ac0565b96505060c062000b7c8e828f0162000ac0565b95505060e062000b8f8e828f0162000ac0565b94505061010062000ba38e828f0162000ac0565b93505061012062000bb78e828f0162000ac0565b92505061014062000bcb8e828f0162000ac0565b9150509295989b509295989b9093969950565b600062000bed60318362000c27565b915062000bfa8262000d6b565b604082019050919050565b6000602082019050818103600083015262000c208162000bde565b9050919050565b600082825260208201905092915050565b600062000c458262000ccd565b915062000c528362000ccd565b9250817fffffffffffffffffffffffffffffffffffffffffffffffffffffffffffffffff048311821515161562000c8e5762000c8d62000d0d565b5b828202905092915050565b600062000ca68262000cad565b9050919050565b600073ffffffffffffffffffffffffffffffffffffffff82169050919050565b6000819050919050565b6000600282049050600182168062000cf057607f821691505b6020821081141562000d075762000d0662000d3c565b5b50919050565b7f4e487b7100000000000000000000000000000000000000000000000000000000600052601160045260246000fd5b7f4e487b7100000000000000000000000000000000000000000000000000000000600052602260045260246000fd5b7f596f75206d7573742073656e6420726571756972656420656e7472792066656560008201527f20746f206a6f696e207468652067616d65000000000000000000000000000000602082015250565b62000dc58162000c99565b811462000dd157600080fd5b50565b62000ddf8162000ccd565b811462000deb57600080fd5b50565b613bfe8062000dfe6000396000f3fe6080604052600436106100a75760003560e01c8063bc378a7311610064578063bc378a73146101ea578063cd61386d14610215578063d4f77b1c14610240578063d5b60c641461024a578063f71d96cb14610275578063fa06ab7f146102b3576100a7565b8063013cf08b146100ac57806304d6ded4146100ef5780631614665c1461012f57806344d9bc5f1461015857806349330cb8146101835780636935bda6146101c1575b600080fd5b3480156100b857600080fd5b506100d360048036038101906100ce9190612fbe565b6102f0565b6040516100e69796959493929190613331565b60405180910390f35b3480156100fb57600080fd5b5061011660048036038101906101119190612fbe565b610396565b60405161012694939291906133a0565b60405180910390f35b34801561013b57600080fd5b5061015660048036038101906101519190613010565b61045e565b005b34801561016457600080fd5b5061016d610a4f565b60405161017a9190613567565b60405180910390f35b34801561018f57600080fd5b506101aa60048036038101906101a5919061304c565b610a55565b6040516101b892919061327e565b60405180910390f35b3480156101cd57600080fd5b506101e860048036038101906101e3919061304c565b610c89565b005b3480156101f657600080fd5b506101ff611126565b60405161020c9190613567565b60405180910390f35b34801561022157600080fd5b5061022a611133565b6040516102379190613567565b60405180910390f35b610248611140565b005b34801561025657600080fd5b5061025f6113b1565b60405161026c9190613567565b60405180910390f35b34801561028157600080fd5b5061029c60048036038101906102979190612fbe565b6113be565b6040516102aa9291906132a7565b60405180910390f35b3480156102bf57600080fd5b506102da60048036038101906102d59190612fbe565b611412565b6040516102e79190613567565b60405180910390f35b6003818154811061030057600080fd5b90600052602060002090600502016000915090508060000160009054906101000a900473ffffffffffffffffffffffffffffffffffffffff16908060010154908060020154908060040160009054906101000a900460ff16908060040160019054906101000a900460ff16908060040160029054906101000a900460ff16908060040160039054906101000a900460ff16905087565b600281815481106103a657600080fd5b90600052602060002090600402016000915090508060000180546103c990613764565b80601f01602080910402602001604051908101604052809291908181526020018280546103f590613764565b80156104425780601f1061041757610100808354040283529160200191610442565b820191906000526020600020905b81548152906001019060200180831161042557829003601f168201915b5050505050908060010154908060020154908060030154905084565b600080600090505b60018054905081101561052e57600181815481106104ad577f4e487b7100000000000000000000000000000000000000000000000000000000600052603260045260246000fd5b906000526020600020906002020160000160009054906101000a900473ffffffffffffffffffffffffffffffffffffffff1673ffffffffffffffffffffffffffffffffffffffff163373ffffffffffffffffffffffffffffffffffffffff16141561051b576001915061052e565b808061052690613796565b915050610466565b508061056f576040517f08c379a00000000000000000000000000000000000000000000000000000000081526004016105669061346c565b60405180910390fd5b600080600090505b60038054905081101561060457600381815481106105be577f4e487b7100000000000000000000000000000000000000000000000000000000600052603260045260246000fd5b906000526020600020906005020160040160029054906101000a900460ff16156105f15781806105ed906137df565b9250505b80806105fc90613796565b915050610577565b50600260056009811115610641577f4e487b7100000000000000000000000000000000000000000000000000000000600052602160045260246000fd5b81548110610678577f4e487b7100000000000000000000000000000000000000000000000000000000600052603260045260246000fd5b9060005260206000209060040201600101548160ff16106106ce576040517f08c379a00000000000000000000000000000000000000000000000000000000081526004016106c5906134ec565b60405180910390fd5b6003805490508410610715576040517f08c379a000000000000000000000000000000000000000000000000000000000815260040161070c906134cc565b60405180910390fd5b6003848154811061074f577f4e487b7100000000000000000000000000000000000000000000000000000000600052603260045260246000fd5b906000526020600020906005020160040160029054906101000a900460ff16156107ae576040517f08c379a00000000000000000000000000000000000000000000000000000000081526004016107a59061352c565b60405180910390fd5b60005b600385815481106107eb577f4e487b7100000000000000000000000000000000000000000000000000000000600052603260045260246000fd5b906000526020600020906005020160030180549050811015610939573373ffffffffffffffffffffffffffffffffffffffff1660038681548110610858577f4e487b7100000000000000000000000000000000000000000000000000000000600052603260045260246000fd5b906000526020600020906005020160030182815481106108a1577f4e487b7100000000000000000000000000000000000000000000000000000000600052603260045260246000fd5b9060005260206000200160000160009054906101000a900473ffffffffffffffffffffffffffffffffffffffff1673ffffffffffffffffffffffffffffffffffffffff161415610926576040517f08c379a000000000000000000000000000000000000000000000000000000000815260040161091d9061348c565b60405180910390fd5b808061093190613796565b9150506107b1565b5060038481548110610974577f4e487b7100000000000000000000000000000000000000000000000000000000600052603260045260246000fd5b906000526020600020906005020160030160405180604001604052803373ffffffffffffffffffffffffffffffffffffffff1681526020018515158152509080600181540180825580915050600190039060005260206000200160009091909190915060008201518160000160006101000a81548173ffffffffffffffffffffffffffffffffffffffff021916908373ffffffffffffffffffffffffffffffffffffffff16021790555060208201518160000160146101000a81548160ff0219169083151502179055505050610a498461146a565b50505050565b60005481565b6000806003805490508410610a9f576040517f08c379a0000000000000000000000000000000000000000000000000000000008152600401610a969061342c565b60405180910390fd5b60038481548110610ad9577f4e487b7100000000000000000000000000000000000000000000000000000000600052603260045260246000fd5b9060005260206000209060050201600301805490508310610b2f576040517f08c379a0000000000000000000000000000000000000000000000000000000008152600401610b26906134ac565b60405180910390fd5b60038481548110610b69577f4e487b7100000000000000000000000000000000000000000000000000000000600052603260045260246000fd5b90600052602060002090600502016003018381548110610bb2577f4e487b7100000000000000000000000000000000000000000000000000000000600052603260045260246000fd5b9060005260206000200160000160009054906101000a900473ffffffffffffffffffffffffffffffffffffffff1660038581548110610c1a577f4e487b7100000000000000000000000000000000000000000000000000000000600052603260045260246000fd5b90600052602060002090600502016003018481548110610c63577f4e487b7100000000000000000000000000000000000000000000000000000000600052603260045260246000fd5b9060005260206000200160000160149054906101000a900460ff16915091509250929050565b600080600090505b600380549050811015610d1e5760038181548110610cd8577f4e487b7100000000000000000000000000000000000000000000000000000000600052603260045260246000fd5b906000526020600020906005020160040160029054906101000a900460ff1615610d0b578180610d07906137df565b9250505b8080610d1690613796565b915050610c91565b50600260056009811115610d5b577f4e487b7100000000000000000000000000000000000000000000000000000000600052602160045260246000fd5b81548110610d92577f4e487b7100000000000000000000000000000000000000000000000000000000600052603260045260246000fd5b9060005260206000209060040201600101548160ff1610610de8576040517f08c379a0000000000000000000000000000000000000000000000000000000008152600401610ddf906134ec565b60405180910390fd5b600080600090505b600180549050811015610eb85760018181548110610e37577f4e487b7100000000000000000000000000000000000000000000000000000000600052603260045260246000fd5b906000526020600020906002020160000160009054906101000a900473ffffffffffffffffffffffffffffffffffffffff1673ffffffffffffffffffffffffffffffffffffffff163373ffffffffffffffffffffffffffffffffffffffff161415610ea55760019150610eb8565b8080610eb090613796565b915050610df0565b5080610ef9576040517f08c379a0000000000000000000000000000000000000000000000000000000008152600401610ef09061346c565b60405180910390fd5b6002805490508410610f40576040517f08c379a0000000000000000000000000000000000000000000000000000000008152600401610f379061340c565b60405180910390fd5b60028481548110610f7a577f4e487b7100000000000000000000000000000000000000000000000000000000600052603260045260246000fd5b9060005260206000209060040201600301548311158015610fe6575060028481548110610fd0577f4e487b7100000000000000000000000000000000000000000000000000000000600052603260045260246000fd5b9060005260206000209060040201600201548310155b611025576040517f08c379a000000000000000000000000000000000000000000000000000000000815260040161101c906133ec565b60405180910390fd5b600060036001816001815401808255809150500390600052602060002090600502019050338160000160006101000a81548173ffffffffffffffffffffffffffffffffffffffff021916908373ffffffffffffffffffffffffffffffffffffffff16021790555084816002018190555083816001018190555060018160040160016101000a81548160ff0219169083151502179055506110c36118f3565b61111f5760008160040160036101000a81548160ff02191690831515021790555060008160040160016101000a81548160ff02191690831515021790555060018160040160026101000a81548160ff0219169083151502179055505b5050505050565b6000600380549050905090565b6000600180549050905090565b600080600090505b6003805490508110156111d5576003818154811061118f577f4e487b7100000000000000000000000000000000000000000000000000000000600052603260045260246000fd5b906000526020600020906005020160040160029054906101000a900460ff16156111c25781806111be906137df565b9250505b80806111cd90613796565b915050611148565b50600260056009811115611212577f4e487b7100000000000000000000000000000000000000000000000000000000600052602160045260246000fd5b81548110611249577f4e487b7100000000000000000000000000000000000000000000000000000000600052603260045260246000fd5b9060005260206000209060040201600101548160ff161061129f576040517f08c379a0000000000000000000000000000000000000000000000000000000008152600401611296906134ec565b60405180910390fd5b6112a7611ba2565b60005b6001805490508110156113a457600181815481106112f1577f4e487b7100000000000000000000000000000000000000000000000000000000600052603260045260246000fd5b906000526020600020906002020160000160009054906101000a900473ffffffffffffffffffffffffffffffffffffffff1673ffffffffffffffffffffffffffffffffffffffff163373ffffffffffffffffffffffffffffffffffffffff161415611391576040517f08c379a00000000000000000000000000000000000000000000000000000000081526004016113889061350c565b60405180910390fd5b808061139c90613796565b9150506112aa565b506113ae33611c83565b50565b6000600280549050905090565b600181815481106113ce57600080fd5b90600052602060002090600202016000915090508060000160009054906101000a900473ffffffffffffffffffffffffffffffffffffffff16908060010154905082565b60006003828154811061144e577f4e487b7100000000000000000000000000000000000000000000000000000000600052603260045260246000fd5b9060005260206000209060050201600301805490509050919050565b600073__$e84fd790a222e3862b17f02ee13c9fe1a1$__63656fa32e6002600460098111156114c2577f4e487b7100000000000000000000000000000000000000000000000000000000600052602160045260246000fd5b815481106114f9577f4e487b7100000000000000000000000000000000000000000000000000000000600052603260045260246000fd5b9060005260206000209060040201600101546001805490506040518363ffffffff1660e01b815260040161152e929190613582565b60206040518083038186803b15801561154657600080fd5b505af415801561155a573d6000803e3d6000fd5b505050506040513d601f19601f8201168201806040525081019061157e9190612fe7565b905080600383815481106115bb577f4e487b7100000000000000000000000000000000000000000000000000000000600052603260045260246000fd5b906000526020600020906005020160030180549050106118ef57600160038381548110611611577f4e487b7100000000000000000000000000000000000000000000000000000000600052603260045260246000fd5b906000526020600020906005020160040160026101000a81548160ff021916908315150217905550600080600090505b6003848154811061167b577f4e487b7100000000000000000000000000000000000000000000000000000000600052603260045260246000fd5b90600052602060002090600502016003018054905081101561175c57600384815481106116d1577f4e487b7100000000000000000000000000000000000000000000000000000000600052603260045260246000fd5b9060005260206000209060050201600301818154811061171a577f4e487b7100000000000000000000000000000000000000000000000000000000600052603260045260246000fd5b9060005260206000200160000160149054906101000a900460ff161561174957818061174590613796565b9250505b808061175490613796565b915050611641565b50600073__$e84fd790a222e3862b17f02ee13c9fe1a1$__6384f37fd26002600360098111156117b5577f4e487b7100000000000000000000000000000000000000000000000000000000600052602160045260246000fd5b815481106117ec577f4e487b7100000000000000000000000000000000000000000000000000000000600052603260045260246000fd5b90600052602060002090600402016001015460038781548110611838577f4e487b7100000000000000000000000000000000000000000000000000000000600052603260045260246000fd5b9060005260206000209060050201600301805490506040518363ffffffff1660e01b815260040161186a929190613582565b60206040518083038186803b15801561188257600080fd5b505af4158015611896573d6000803e3d6000fd5b505050506040513d601f19601f820116820180604052508101906118ba9190612fe7565b90506000818311905080156118d3576118d285611d93565b5b6118db612266565b6118e36125d9565b6118eb612a37565b5050505b5050565b60008073__$e84fd790a222e3862b17f02ee13c9fe1a1$__63d8916bb9600260098081111561194b577f4e487b7100000000000000000000000000000000000000000000000000000000600052602160045260246000fd5b81548110611982577f4e487b7100000000000000000000000000000000000000000000000000000000600052603260045260246000fd5b9060005260206000209060040201600101546040518263ffffffff1660e01b81526004016119b0919061354c565b60206040518083038186803b1580156119c857600080fd5b505af41580156119dc573d6000803e3d6000fd5b505050506040513d601f19601f82011682018060405250810190611a009190612fe7565b90506000611a0d33612ea8565b905060006001905060018281548110611a4f577f4e487b7100000000000000000000000000000000000000000000000000000000600052603260045260246000fd5b906000526020600020906002020160010154831115611a715760009050611b99565b8260018381548110611aac577f4e487b7100000000000000000000000000000000000000000000000000000000600052603260045260246000fd5b90600052602060002090600202016001016000828254611acc91906136a8565b925050819055507fe17681b714b3e85dd366451bd41d7a8ddb22b3c20575cb55fb96dfc3e14411a233846001808681548110611b31577f4e487b7100000000000000000000000000000000000000000000000000000000600052603260045260246000fd5b9060005260206000209060020201600101546000600980811115611b7e577f4e487b7100000000000000000000000000000000000000000000000000000000600052602160045260246000fd5b604051611b90969594939291906132d0565b60405180910390a15b80935050505090565b6000670de0b6b3a7640000905080600260006009811115611bec577f4e487b7100000000000000000000000000000000000000000000000000000000600052602160045260246000fd5b81548110611c23577f4e487b7100000000000000000000000000000000000000000000000000000000600052603260045260246000fd5b906000526020600020906004020160010154611c3f919061364e565b3414611c80576040517f08c379a0000000000000000000000000000000000000000000000000000000008152600401611c779061344c565b60405180910390fd5b50565b6000670de0b6b3a764000090506000600180816001815401808255809150500390600052602060002090600202019050828160000160006101000a81548173ffffffffffffffffffffffffffffffffffffffff021916908373ffffffffffffffffffffffffffffffffffffffff16021790555081600260016009811115611d33577f4e487b7100000000000000000000000000000000000000000000000000000000600052602160045260246000fd5b81548110611d6a577f4e487b7100000000000000000000000000000000000000000000000000000000600052603260045260246000fd5b906000526020600020906004020160010154611d86919061364e565b8160010181905550505050565b600160038281548110611dcf577f4e487b7100000000000000000000000000000000000000000000000000000000600052603260045260246000fd5b906000526020600020906005020160040160036101000a81548160ff021916908315150217905550600060038281548110611e33577f4e487b7100000000000000000000000000000000000000000000000000000000600052603260045260246000fd5b9060005260206000209060050201604051806101000160405290816000820160009054906101000a900473ffffffffffffffffffffffffffffffffffffffff1673ffffffffffffffffffffffffffffffffffffffff1673ffffffffffffffffffffffffffffffffffffffff168152602001600182015481526020016002820154815260200160038201805480602002602001604051908101604052809291908181526020016000905b82821015611f7b578382906000526020600020016040518060400160405290816000820160009054906101000a900473ffffffffffffffffffffffffffffffffffffffff1673ffffffffffffffffffffffffffffffffffffffff1673ffffffffffffffffffffffffffffffffffffffff1681526020016000820160149054906101000a900460ff16151515158152505081526020019060010190611edc565b5050505081526020016004820160009054906101000a900460ff161515151581526020016004820160019054906101000a900460ff161515151581526020016004820160029054906101000a900460ff161515151581526020016004820160039054906101000a900460ff161515151581525050905060006120008260000151612ea8565b9050600073__$e84fd790a222e3862b17f02ee13c9fe1a1$__63d8916bb96002806009811115612059577f4e487b7100000000000000000000000000000000000000000000000000000000600052602160045260246000fd5b81548110612090577f4e487b7100000000000000000000000000000000000000000000000000000000600052603260045260246000fd5b9060005260206000209060040201600101546040518263ffffffff1660e01b81526004016120be919061354c565b60206040518083038186803b1580156120d657600080fd5b505af41580156120ea573d6000803e3d6000fd5b505050506040513d601f19601f8201168201806040525081019061210e9190612fe7565b9050806001838154811061214b577f4e487b7100000000000000000000000000000000000000000000000000000000600052603260045260246000fd5b9060005260206000209060020201600101600082825461216b91906135c7565b92505081905550826020015160028460400151815481106121b5577f4e487b7100000000000000000000000000000000000000000000000000000000600052603260045260246000fd5b9060005260206000209060040201600101819055507fe17681b714b3e85dd366451bd41d7a8ddb22b3c20575cb55fb96dfc3e14411a283600001518260006001868154811061222d577f4e487b7100000000000000000000000000000000000000000000000000000000600052603260045260246000fd5b90600052602060002090600202016001015460018860400151604051612258969594939291906132d0565b60405180910390a150505050565b60005b6001805490508110156125d657600073__$e84fd790a222e3862b17f02ee13c9fe1a1$__63d8916bb96002600660098111156122ce577f4e487b7100000000000000000000000000000000000000000000000000000000600052602160045260246000fd5b81548110612305577f4e487b7100000000000000000000000000000000000000000000000000000000600052603260045260246000fd5b9060005260206000209060040201600101546040518263ffffffff1660e01b8152600401612333919061354c565b60206040518083038186803b15801561234b57600080fd5b505af415801561235f573d6000803e3d6000fd5b505050506040513d601f19601f820116820180604052508101906123839190612fe7565b9050600182815481106123bf577f4e487b7100000000000000000000000000000000000000000000000000000000600052603260045260246000fd5b90600052602060002090600202016001015481111561242e57600060018381548110612414577f4e487b7100000000000000000000000000000000000000000000000000000000600052603260045260246000fd5b906000526020600020906002020160010181905550612491565b8060018381548110612469577f4e487b7100000000000000000000000000000000000000000000000000000000600052603260045260246000fd5b9060005260206000209060020201600101600082825461248991906136a8565b925050819055505b7fe17681b714b3e85dd366451bd41d7a8ddb22b3c20575cb55fb96dfc3e14411a2600183815481106124ec577f4e487b7100000000000000000000000000000000000000000000000000000000600052603260045260246000fd5b906000526020600020906002020160000160009054906101000a900473ffffffffffffffffffffffffffffffffffffffff1682600180868154811061255a577f4e487b7100000000000000000000000000000000000000000000000000000000600052603260045260246000fd5b9060005260206000209060020201600101546000600660098111156125a8577f4e487b7100000000000000000000000000000000000000000000000000000000600052602160045260246000fd5b6040516125ba969594939291906132d0565b60405180910390a15080806125ce90613796565b915050612269565b50565b60005b600180549050811015612a3457600073__$e84fd790a222e3862b17f02ee13c9fe1a1$__63d8916bb9600260086009811115612641577f4e487b7100000000000000000000000000000000000000000000000000000000600052602160045260246000fd5b81548110612678577f4e487b7100000000000000000000000000000000000000000000000000000000600052603260045260246000fd5b9060005260206000209060040201600101546040518263ffffffff1660e01b81526004016126a6919061354c565b60206040518083038186803b1580156126be57600080fd5b505af41580156126d2573d6000803e3d6000fd5b505050506040513d601f19601f820116820180604052508101906126f69190612fe7565b905060018281548110612732577f4e487b7100000000000000000000000000000000000000000000000000000000600052603260045260246000fd5b906000526020600020906002020160010154811015612a205760008160018481548110612788577f4e487b7100000000000000000000000000000000000000000000000000000000600052603260045260246000fd5b9060005260206000209060020201600101546127a491906136a8565b9050600060646002600760098111156127e6577f4e487b7100000000000000000000000000000000000000000000000000000000600052602160045260246000fd5b8154811061281d577f4e487b7100000000000000000000000000000000000000000000000000000000600052603260045260246000fd5b9060005260206000209060040201600101548361283a919061364e565b612844919061361d565b90508060018581548110612881577f4e487b7100000000000000000000000000000000000000000000000000000000600052603260045260246000fd5b90600052602060002090600202016001015461289d91906136a8565b600185815481106128d7577f4e487b7100000000000000000000000000000000000000000000000000000000600052603260045260246000fd5b9060005260206000209060020201600101819055507fe17681b714b3e85dd366451bd41d7a8ddb22b3c20575cb55fb96dfc3e14411a260018581548110612947577f4e487b7100000000000000000000000000000000000000000000000000000000600052603260045260246000fd5b906000526020600020906002020160000160009054906101000a900473ffffffffffffffffffffffffffffffffffffffff168260018088815481106129b5577f4e487b7100000000000000000000000000000000000000000000000000000000600052603260045260246000fd5b906000526020600020906002020160010154600060076009811115612a03577f4e487b7100000000000000000000000000000000000000000000000000000000600052602160045260246000fd5b604051612a15969594939291906132d0565b60405180910390a150505b508080612a2c90613796565b9150506125dc565b50565b600260056009811115612a73577f4e487b7100000000000000000000000000000000000000000000000000000000600052602160045260246000fd5b81548110612aaa577f4e487b7100000000000000000000000000000000000000000000000000000000600052603260045260246000fd5b90600052602060002090600402016001015460038054905010612ea65742600081905550600080479050600060018054905067ffffffffffffffff811115612b1b577f4e487b7100000000000000000000000000000000000000000000000000000000600052604160045260246000fd5b604051908082528060200260200182016040528015612b495781602001602082028036833780820191505090505b50905060005b600180549050811015612c4e5760018181548110612b96577f4e487b7100000000000000000000000000000000000000000000000000000000600052603260045260246000fd5b906000526020600020906002020160010154828281518110612be1577f4e487b7100000000000000000000000000000000000000000000000000000000600052603260045260246000fd5b602002602001018181525050818181518110612c26577f4e487b7100000000000000000000000000000000000000000000000000000000600052603260045260246000fd5b602002602001015184612c3991906135c7565b93508080612c4690613796565b915050612b4f565b506000831415612d215760005b600180549050811015612d1f576001828281518110612ca3577f4e487b7100000000000000000000000000000000000000000000000000000000600052603260045260246000fd5b60200260200101818151612cb791906135c7565b91508181525050818181518110612cf7577f4e487b7100000000000000000000000000000000000000000000000000000000600052603260045260246000fd5b602002602001015184612d0a91906135c7565b93508080612d1790613796565b915050612c5b565b505b60005b600180549050811015612ea1576000828281518110612d6c577f4e487b7100000000000000000000000000000000000000000000000000000000600052603260045260246000fd5b60200260200101511415612d7f57612e8e565b60008484848481518110612dbc577f4e487b7100000000000000000000000000000000000000000000000000000000600052603260045260246000fd5b6020026020010151612dce919061364e565b612dd8919061361d565b905060018281548110612e14577f4e487b7100000000000000000000000000000000000000000000000000000000600052603260045260246000fd5b906000526020600020906002020160000160009054906101000a900473ffffffffffffffffffffffffffffffffffffffff1673ffffffffffffffffffffffffffffffffffffffff166108fc829081150290604051600060405180830381858888f19350505050158015612e8b573d6000803e3d6000fd5b50505b8080612e9990613796565b915050612d24565b505050505b565b600080600090505b600180549050811015612f78578273ffffffffffffffffffffffffffffffffffffffff1660018281548110612f0e577f4e487b7100000000000000000000000000000000000000000000000000000000600052603260045260246000fd5b906000526020600020906002020160000160009054906101000a900473ffffffffffffffffffffffffffffffffffffffff1673ffffffffffffffffffffffffffffffffffffffff161415612f655780915050612f7a565b8080612f7090613796565b915050612eb0565b505b919050565b600081359050612f8e81613b9a565b92915050565b600081359050612fa381613bb1565b92915050565b600081519050612fb881613bb1565b92915050565b600060208284031215612fd057600080fd5b6000612fde84828501612f94565b91505092915050565b600060208284031215612ff957600080fd5b600061300784828501612fa9565b91505092915050565b6000806040838503121561302357600080fd5b600061303185828601612f94565b925050602061304285828601612f7f565b9150509250929050565b6000806040838503121561305f57600080fd5b600061306d85828601612f94565b925050602061307e85828601612f94565b9150509250929050565b613091816136dc565b82525050565b6130a0816136ee565b82525050565b60006130b1826135ab565b6130bb81856135b6565b93506130cb818560208601613731565b6130d481613896565b840191505092915050565b60006130ec6029836135b6565b91506130f7826138a7565b604082019050919050565b600061310f6027836135b6565b915061311a826138f6565b604082019050919050565b6000613132601f836135b6565b915061313d82613945565b602082019050919050565b60006131556031836135b6565b91506131608261396e565b604082019050919050565b60006131786033836135b6565b9150613183826139bd565b604082019050919050565b600061319b6027836135b6565b91506131a682613a0c565b604082019050919050565b60006131be601b836135b6565b91506131c982613a5b565b602082019050919050565b60006131e1601e836135b6565b91506131ec82613a84565b602082019050919050565b60006132046037836135b6565b915061320f82613aad565b604082019050919050565b60006132276021836135b6565b915061323282613afc565b604082019050919050565b600061324a6026836135b6565b915061325582613b4b565b604082019050919050565b6132698161371a565b82525050565b6132788161371a565b82525050565b60006040820190506132936000830185613088565b6132a06020830184613097565b9392505050565b60006040820190506132bc6000830185613088565b6132c96020830184613260565b9392505050565b600060c0820190506132e56000830189613088565b6132f26020830188613260565b6132ff6040830187613097565b61330c6060830186613260565b6133196080830185613097565b61332660a0830184613260565b979650505050505050565b600060e082019050613346600083018a613088565b6133536020830189613260565b6133606040830188613260565b61336d6060830187613097565b61337a6080830186613097565b61338760a0830185613097565b61339460c0830184613097565b98975050505050505050565b600060808201905081810360008301526133ba81876130a6565b90506133c96020830186613260565b6133d66040830185613260565b6133e36060830184613260565b95945050505050565b60006020820190508181036000830152613405816130df565b9050919050565b6000602082019050818103600083015261342581613102565b9050919050565b6000602082019050818103600083015261344581613125565b9050919050565b6000602082019050818103600083015261346581613148565b9050919050565b600060208201905081810360008301526134858161316b565b9050919050565b600060208201905081810360008301526134a58161318e565b9050919050565b600060208201905081810360008301526134c5816131b1565b9050919050565b600060208201905081810360008301526134e5816131d4565b9050919050565b60006020820190508181036000830152613505816131f7565b9050919050565b600060208201905081810360008301526135258161321a565b9050919050565b600060208201905081810360008301526135458161323d565b9050919050565b6000602082019050613561600083018461326f565b92915050565b600060208201905061357c6000830184613260565b92915050565b6000604082019050613597600083018561326f565b6135a4602083018461326f565b9392505050565b600081519050919050565b600082825260208201905092915050565b60006135d28261371a565b91506135dd8361371a565b9250827fffffffffffffffffffffffffffffffffffffffffffffffffffffffffffffffff0382111561361257613611613809565b5b828201905092915050565b60006136288261371a565b91506136338361371a565b92508261364357613642613838565b5b828204905092915050565b60006136598261371a565b91506136648361371a565b9250817fffffffffffffffffffffffffffffffffffffffffffffffffffffffffffffffff048311821515161561369d5761369c613809565b5b828202905092915050565b60006136b38261371a565b91506136be8361371a565b9250828210156136d1576136d0613809565b5b828203905092915050565b60006136e7826136fa565b9050919050565b60008115159050919050565b600073ffffffffffffffffffffffffffffffffffffffff82169050919050565b6000819050919050565b600060ff82169050919050565b60005b8381101561374f578082015181840152602081019050613734565b8381111561375e576000848401525b50505050565b6000600282049050600182168061377c57607f821691505b602082108114156137905761378f613867565b5b50919050565b60006137a18261371a565b91507fffffffffffffffffffffffffffffffffffffffffffffffffffffffffffffffff8214156137d4576137d3613809565b5b600182019050919050565b60006137ea82613724565b915060ff8214156137fe576137fd613809565b5b600182019050919050565b7f4e487b7100000000000000000000000000000000000000000000000000000000600052601160045260246000fd5b7f4e487b7100000000000000000000000000000000000000000000000000000000600052601260045260246000fd5b7f4e487b7100000000000000000000000000000000000000000000000000000000600052602260045260246000fd5b6000601f19601f8301169050919050565b7f50726f706f73616c2076616c7565206d7573742062652077697468696e20727560008201527f6c6520626f756e64730000000000000000000000000000000000000000000000602082015250565b7f50726f706f73616c206d757374206170706c7920746f20616e2065786973746960008201527f6e672072756c6500000000000000000000000000000000000000000000000000602082015250565b7f50726f706f73616c20696e646578206d75737420626520696e2072616e676500600082015250565b7f596f75206d7573742073656e6420726571756972656420656e7472792066656560008201527f20746f206a6f696e207468652067616d65000000000000000000000000000000602082015250565b7f596f75206d7573742068617665206a6f696e6564207468652067616d6520746f60008201527f2063616c6c20746869732066756e6374696f6e00000000000000000000000000602082015250565b7f596f75206861766520616c726561647920766f746564206f6e2074686973207060008201527f726f706f73616c00000000000000000000000000000000000000000000000000602082015250565b7f566f746520696e646578206d75737420626520696e2072616e67650000000000600082015250565b7f566f746564206f6e206e6f6e2d6578697374656e742070726f706f73616c0000600082015250565b7f596f752063616e6e6f7420696e7465726163742077697468207468697320676160008201527f6d6520626563617573652069742068617320656e646564000000000000000000602082015250565b7f596f75206861766520616c7265616479206a6f696e656420746869732067616d60008201527f6500000000000000000000000000000000000000000000000000000000000000602082015250565b7f596f75206d6179206e6f7420766f7465206f6e20636f6d706c6574656420707260008201527f6f706f73616c0000000000000000000000000000000000000000000000000000602082015250565b613ba3816136ee565b8114613bae57600080fd5b50565b613bba8161371a565b8114613bc557600080fd5b5056fea2646970667358221220b1049dbc529d27ecda1e3874a111ebf53db7050da51e3028e9880f75bb8592d164736f6c63430008010033",
  "linkReferences": {
    "contracts/Game.sol": {
      "Calculations": [
        {
          "length": 20,
          "start": 8812
        },
        {
          "length": 20,
          "start": 9567
        },
        {
          "length": 20,
          "start": 9974
        },
        {
          "length": 20,
          "start": 11780
        },
        {
          "length": 20,
          "start": 12408
        },
        {
          "length": 20,
          "start": 13291
        }
      ]
    }
  },
  "deployedLinkReferences": {
    "contracts/Game.sol": {
      "Calculations": [
        {
          "length": 20,
          "start": 5230
        },
        {
          "length": 20,
          "start": 5985
        },
        {
          "length": 20,
          "start": 6392
        },
        {
          "length": 20,
          "start": 8198
        },
        {
          "length": 20,
          "start": 8826
        },
        {
          "length": 20,
          "start": 9709
        }
      ]
    }
  }
}