{
  "_format": "hh-sol-artifact-1",
  "contractName": "Game",
  "sourceName": "contracts/Game.sol",
  "abi": [
    {
      "inputs": [],
      "stateMutability": "nonpayable",
      "type": "constructor"
    },
    {
      "anonymous": false,
      "inputs": [
        {
          "indexed": false,
          "internalType": "uint256",
          "name": "playerIndex",
          "type": "uint256"
        },
        {
          "indexed": false,
          "internalType": "address",
          "name": "playerAddress",
          "type": "address"
        },
        {
          "indexed": false,
          "internalType": "uint256",
          "name": "balance",
          "type": "uint256"
        }
      ],
      "name": "PlayerUpdate",
      "type": "event"
    },
    {
      "anonymous": false,
      "inputs": [
        {
          "indexed": false,
          "internalType": "uint256",
          "name": "proposalIndex",
          "type": "uint256"
        },
        {
          "indexed": false,
          "internalType": "address",
          "name": "proposer",
          "type": "address"
        },
        {
          "indexed": false,
          "internalType": "uint256",
          "name": "ruleIndex",
          "type": "uint256"
        },
        {
          "indexed": false,
          "internalType": "uint256",
          "name": "value",
          "type": "uint256"
        },
        {
          "indexed": false,
          "internalType": "bool",
          "name": "complete",
          "type": "bool"
        },
        {
          "indexed": false,
          "internalType": "bool",
          "name": "successful",
          "type": "bool"
        }
      ],
      "name": "ProposalUpdate",
      "type": "event"
    },
    {
      "anonymous": false,
      "inputs": [
        {
          "indexed": false,
          "internalType": "uint256",
          "name": "ruleIndex",
          "type": "uint256"
        },
        {
          "indexed": false,
          "internalType": "uint256",
          "name": "value",
          "type": "uint256"
        }
      ],
      "name": "RuleUpdate",
      "type": "event"
    },
    {
      "anonymous": false,
      "inputs": [
        {
          "indexed": false,
          "internalType": "uint256",
          "name": "proposalIndex",
          "type": "uint256"
        },
        {
          "indexed": false,
          "internalType": "uint256",
          "name": "voteIndex",
          "type": "uint256"
        },
        {
          "indexed": false,
          "internalType": "address",
          "name": "player",
          "type": "address"
        },
        {
          "indexed": false,
          "internalType": "uint256",
          "name": "vote",
          "type": "uint256"
        }
      ],
      "name": "VoteUpdate",
      "type": "event"
    },
    {
      "inputs": [
        {
          "internalType": "uint256",
          "name": "ruleIndex",
          "type": "uint256"
        },
        {
          "internalType": "uint256",
          "name": "value",
          "type": "uint256"
        }
      ],
      "name": "createProposal",
      "outputs": [],
      "stateMutability": "nonpayable",
      "type": "function"
    },
    {
      "inputs": [],
      "name": "getPlayersLength",
      "outputs": [
        {
          "internalType": "uint256",
          "name": "",
          "type": "uint256"
        }
      ],
      "stateMutability": "view",
      "type": "function"
    },
    {
      "inputs": [],
      "name": "getProposalsLength",
      "outputs": [
        {
          "internalType": "uint256",
          "name": "",
          "type": "uint256"
        }
      ],
      "stateMutability": "view",
      "type": "function"
    },
    {
      "inputs": [],
      "name": "getRulesLength",
      "outputs": [
        {
          "internalType": "uint256",
          "name": "",
          "type": "uint256"
        }
      ],
      "stateMutability": "view",
      "type": "function"
    },
    {
      "inputs": [
        {
          "internalType": "uint256",
          "name": "proposalIndex",
          "type": "uint256"
        },
        {
          "internalType": "uint256",
          "name": "voteIndex",
          "type": "uint256"
        }
      ],
      "name": "getVote",
      "outputs": [
        {
          "internalType": "address",
          "name": "playerAddress",
          "type": "address"
        },
        {
          "internalType": "bool",
          "name": "vote",
          "type": "bool"
        }
      ],
      "stateMutability": "view",
      "type": "function"
    },
    {
      "inputs": [
        {
          "internalType": "uint256",
          "name": "proposalIndex",
          "type": "uint256"
        }
      ],
      "name": "getVotesLength",
      "outputs": [
        {
          "internalType": "uint256",
          "name": "",
          "type": "uint256"
        }
      ],
      "stateMutability": "view",
      "type": "function"
    },
    {
      "inputs": [],
      "name": "joinGame",
      "outputs": [],
      "stateMutability": "payable",
      "type": "function"
    },
    {
      "inputs": [
        {
          "internalType": "uint256",
          "name": "",
          "type": "uint256"
        }
      ],
      "name": "players",
      "outputs": [
        {
          "internalType": "address",
          "name": "playerAddress",
          "type": "address"
        },
        {
          "internalType": "uint256",
          "name": "balance",
          "type": "uint256"
        }
      ],
      "stateMutability": "view",
      "type": "function"
    },
    {
      "inputs": [
        {
          "internalType": "uint256",
          "name": "",
          "type": "uint256"
        }
      ],
      "name": "proposals",
      "outputs": [
        {
          "internalType": "address",
          "name": "proposer",
          "type": "address"
        },
        {
          "internalType": "uint256",
          "name": "value",
          "type": "uint256"
        },
        {
          "internalType": "uint256",
          "name": "ruleIndex",
          "type": "uint256"
        },
        {
          "internalType": "bool",
          "name": "mutabilityChange",
          "type": "bool"
        },
        {
          "internalType": "bool",
          "name": "proposedMutability",
          "type": "bool"
        },
        {
          "internalType": "bool",
          "name": "complete",
          "type": "bool"
        },
        {
          "internalType": "bool",
          "name": "successful",
          "type": "bool"
        }
      ],
      "stateMutability": "view",
      "type": "function"
    },
    {
      "inputs": [
        {
          "internalType": "uint256",
          "name": "",
          "type": "uint256"
        }
      ],
      "name": "rules",
      "outputs": [
        {
          "internalType": "string",
          "name": "name",
          "type": "string"
        },
        {
          "internalType": "uint256",
          "name": "value",
          "type": "uint256"
        },
        {
          "internalType": "uint256",
          "name": "lowerBound",
          "type": "uint256"
        },
        {
          "internalType": "uint256",
          "name": "upperBound",
          "type": "uint256"
        }
      ],
      "stateMutability": "view",
      "type": "function"
    },
    {
      "inputs": [
        {
          "internalType": "uint256",
          "name": "proposalIndex",
          "type": "uint256"
        },
        {
          "internalType": "bool",
          "name": "vote",
          "type": "bool"
        }
      ],
      "name": "voteOnProposal",
      "outputs": [],
      "stateMutability": "nonpayable",
      "type": "function"
    }
  ],
  "bytecode": "0x60806040523480156200001157600080fd5b50600160405180608001604052806040518060400160405280600f81526020017f50726f706f73616c2072657761726400000000000000000000000000000000008152508152602001600a8152602001600081526020016103e881525090806001815401808255809150506001900390600052602060002090600402016000909190919091506000820151816000019080519060200190620000b592919062000325565b506020820151816001015560408201518160020155606082015181600301555050600160405180608001604052806040518060400160405280600881526020017f4d616a6f72697479000000000000000000000000000000000000000000000000815250815260200160328152602001600081526020016064815250908060018154018082558091505060019003906000526020600020906004020160009091909190915060008201518160000190805190602001906200017892919062000325565b506020820151816001015560408201518160020155606082015181600301555050600160405180608001604052806040518060400160405280600681526020017f51756f72756d0000000000000000000000000000000000000000000000000000815250815260200160328152602001600081526020016064815250908060018154018082558091505060019003906000526020600020906004020160009091909190915060008201518160000190805190602001906200023b92919062000325565b506020820151816001015560408201518160020155606082015181600301555050600160405180608001604052806040518060400160405280600d81526020017f4d61782070726f706f73616c730000000000000000000000000000000000000081525081526020016003815260200160018152602001606481525090806001815401808255809150506001900390600052602060002090600402016000909190919091506000820151816000019080519060200190620002fe92919062000325565b5060208201518160010155604082015181600201556060820151816003015550506200043a565b8280546200033390620003d5565b90600052602060002090601f016020900481019282620003575760008555620003a3565b82601f106200037257805160ff1916838001178555620003a3565b82800160010185558215620003a3579182015b82811115620003a257825182559160200191906001019062000385565b5b509050620003b29190620003b6565b5090565b5b80821115620003d1576000816000905550600101620003b7565b5090565b60006002820490506001821680620003ee57607f821691505b602082108114156200040557620004046200040b565b5b50919050565b7f4e487b7100000000000000000000000000000000000000000000000000000000600052602260045260246000fd5b612f29806200044a6000396000f3fe60806040526004361061009c5760003560e01c8063bc378a7311610064578063bc378a73146101b4578063cd61386d146101df578063d4f77b1c1461020a578063d5b60c6414610214578063f71d96cb1461023f578063fa06ab7f1461027d5761009c565b8063013cf08b146100a157806304d6ded4146100e45780631614665c1461012457806349330cb81461014d5780636935bda61461018b575b600080fd5b3480156100ad57600080fd5b506100c860048036038101906100c39190612274565b6102ba565b6040516100db9796959493929190612586565b60405180910390f35b3480156100f057600080fd5b5061010b60048036038101906101069190612274565b610360565b60405161011b9493929190612625565b60405180910390f35b34801561013057600080fd5b5061014b600480360381019061014691906122c6565b610428565b005b34801561015957600080fd5b50610174600480360381019061016f9190612302565b6109e1565b604051610182929190612534565b60405180910390f35b34801561019757600080fd5b506101b260048036038101906101ad9190612302565b610c15565b005b3480156101c057600080fd5b506101c9611078565b6040516101d691906127d1565b60405180910390f35b3480156101eb57600080fd5b506101f4611085565b60405161020191906127d1565b60405180910390f35b610212611091565b005b34801561022057600080fd5b506102296113ef565b60405161023691906127d1565b60405180910390f35b34801561024b57600080fd5b5061026660048036038101906102619190612274565b6113fc565b60405161027492919061255d565b60405180910390f35b34801561028957600080fd5b506102a4600480360381019061029f9190612274565b611450565b6040516102b191906127d1565b60405180910390f35b600281815481106102ca57600080fd5b90600052602060002090600502016000915090508060000160009054906101000a900473ffffffffffffffffffffffffffffffffffffffff16908060010154908060020154908060040160009054906101000a900460ff16908060040160019054906101000a900460ff16908060040160029054906101000a900460ff16908060040160039054906101000a900460ff16905087565b6001818154811061037057600080fd5b906000526020600020906004020160009150905080600001805461039390612a8f565b80601f01602080910402602001604051908101604052809291908181526020018280546103bf90612a8f565b801561040c5780601f106103e15761010080835404028352916020019161040c565b820191906000526020600020905b8154815290600101906020018083116103ef57829003601f168201915b5050505050908060010154908060020154908060030154905084565b600080600090505b6000805490508110156104f85760008181548110610477577f4e487b7100000000000000000000000000000000000000000000000000000000600052603260045260246000fd5b906000526020600020906002020160000160009054906101000a900473ffffffffffffffffffffffffffffffffffffffff1673ffffffffffffffffffffffffffffffffffffffff163373ffffffffffffffffffffffffffffffffffffffff1614156104e557600191506104f8565b80806104f090612ac1565b915050610430565b5080610539576040517f08c379a0000000000000000000000000000000000000000000000000000000008152600401610530906126f1565b60405180910390fd5b600080600090505b6002805490508110156105ce5760028181548110610588577f4e487b7100000000000000000000000000000000000000000000000000000000600052603260045260246000fd5b906000526020600020906005020160040160029054906101000a900460ff16156105bb5781806105b790612b0a565b9250505b80806105c690612ac1565b915050610541565b50600160038154811061060a577f4e487b7100000000000000000000000000000000000000000000000000000000600052603260045260246000fd5b9060005260206000209060040201600101548160ff1610610660576040517f08c379a000000000000000000000000000000000000000000000000000000000815260040161065790612771565b60405180910390fd5b60028054905084106106a7576040517f08c379a000000000000000000000000000000000000000000000000000000000815260040161069e90612751565b60405180910390fd5b600284815481106106e1577f4e487b7100000000000000000000000000000000000000000000000000000000600052603260045260246000fd5b906000526020600020906005020160040160029054906101000a900460ff1615610740576040517f08c379a0000000000000000000000000000000000000000000000000000000008152600401610737906127b1565b60405180910390fd5b60005b6002858154811061077d577f4e487b7100000000000000000000000000000000000000000000000000000000600052603260045260246000fd5b9060005260206000209060050201600301805490508110156108cb573373ffffffffffffffffffffffffffffffffffffffff16600286815481106107ea577f4e487b7100000000000000000000000000000000000000000000000000000000600052603260045260246000fd5b90600052602060002090600502016003018281548110610833577f4e487b7100000000000000000000000000000000000000000000000000000000600052603260045260246000fd5b9060005260206000200160000160009054906101000a900473ffffffffffffffffffffffffffffffffffffffff1673ffffffffffffffffffffffffffffffffffffffff1614156108b8576040517f08c379a00000000000000000000000000000000000000000000000000000000081526004016108af90612711565b60405180910390fd5b80806108c390612ac1565b915050610743565b5060028481548110610906577f4e487b7100000000000000000000000000000000000000000000000000000000600052603260045260246000fd5b906000526020600020906005020160030160405180604001604052803373ffffffffffffffffffffffffffffffffffffffff1681526020018515158152509080600181540180825580915050600190039060005260206000200160009091909190915060008201518160000160006101000a81548173ffffffffffffffffffffffffffffffffffffffff021916908373ffffffffffffffffffffffffffffffffffffffff16021790555060208201518160000160146101000a81548160ff02191690831515021790555050506109db846114a8565b50505050565b6000806002805490508410610a2b576040517f08c379a0000000000000000000000000000000000000000000000000000000008152600401610a22906126d1565b60405180910390fd5b60028481548110610a65577f4e487b7100000000000000000000000000000000000000000000000000000000600052603260045260246000fd5b9060005260206000209060050201600301805490508310610abb576040517f08c379a0000000000000000000000000000000000000000000000000000000008152600401610ab290612731565b60405180910390fd5b60028481548110610af5577f4e487b7100000000000000000000000000000000000000000000000000000000600052603260045260246000fd5b90600052602060002090600502016003018381548110610b3e577f4e487b7100000000000000000000000000000000000000000000000000000000600052603260045260246000fd5b9060005260206000200160000160009054906101000a900473ffffffffffffffffffffffffffffffffffffffff1660028581548110610ba6577f4e487b7100000000000000000000000000000000000000000000000000000000600052603260045260246000fd5b90600052602060002090600502016003018481548110610bef577f4e487b7100000000000000000000000000000000000000000000000000000000600052603260045260246000fd5b9060005260206000200160000160149054906101000a900460ff16915091509250929050565b600080600090505b600280549050811015610caa5760028181548110610c64577f4e487b7100000000000000000000000000000000000000000000000000000000600052603260045260246000fd5b906000526020600020906005020160040160029054906101000a900460ff1615610c97578180610c9390612b0a565b9250505b8080610ca290612ac1565b915050610c1d565b506001600381548110610ce6577f4e487b7100000000000000000000000000000000000000000000000000000000600052603260045260246000fd5b9060005260206000209060040201600101548160ff1610610d3c576040517f08c379a0000000000000000000000000000000000000000000000000000000008152600401610d3390612771565b60405180910390fd5b600080600090505b600080549050811015610e0c5760008181548110610d8b577f4e487b7100000000000000000000000000000000000000000000000000000000600052603260045260246000fd5b906000526020600020906002020160000160009054906101000a900473ffffffffffffffffffffffffffffffffffffffff1673ffffffffffffffffffffffffffffffffffffffff163373ffffffffffffffffffffffffffffffffffffffff161415610df95760019150610e0c565b8080610e0490612ac1565b915050610d44565b5080610e4d576040517f08c379a0000000000000000000000000000000000000000000000000000000008152600401610e44906126f1565b60405180910390fd5b6001805490508410610e94576040517f08c379a0000000000000000000000000000000000000000000000000000000008152600401610e8b90612691565b60405180910390fd5b60018481548110610ece577f4e487b7100000000000000000000000000000000000000000000000000000000600052603260045260246000fd5b9060005260206000209060040201600301548311158015610f3a575060018481548110610f24577f4e487b7100000000000000000000000000000000000000000000000000000000600052603260045260246000fd5b9060005260206000209060040201600201548310155b610f79576040517f08c379a0000000000000000000000000000000000000000000000000000000008152600401610f7090612671565b60405180910390fd5b600060026001816001815401808255809150500390600052602060002090600502019050338160000160006101000a81548173ffffffffffffffffffffffffffffffffffffffff021916908373ffffffffffffffffffffffffffffffffffffffff1602179055508481600201819055508381600101819055507fd4743de435a414428065ef5daa1f8015fabaac9920b880ef40bab2abc46ea16a600160028054905061102591906129d3565b8260000160009054906101000a900473ffffffffffffffffffffffffffffffffffffffff168360020154846001015460008060405161106996959493929190612823565b60405180910390a15050505050565b6000600280549050905090565b60008080549050905090565b600080600090505b60028054905081101561112657600281815481106110e0577f4e487b7100000000000000000000000000000000000000000000000000000000600052603260045260246000fd5b906000526020600020906005020160040160029054906101000a900460ff161561111357818061110f90612b0a565b9250505b808061111e90612ac1565b915050611099565b506001600381548110611162577f4e487b7100000000000000000000000000000000000000000000000000000000600052603260045260246000fd5b9060005260206000209060040201600101548160ff16106111b8576040517f08c379a00000000000000000000000000000000000000000000000000000000081526004016111af90612771565b60405180910390fd5b674563918244f400003414611202576040517f08c379a00000000000000000000000000000000000000000000000000000000081526004016111f9906126b1565b60405180910390fd5b60005b6000805490508110156112ff576000818154811061124c577f4e487b7100000000000000000000000000000000000000000000000000000000600052603260045260246000fd5b906000526020600020906002020160000160009054906101000a900473ffffffffffffffffffffffffffffffffffffffff1673ffffffffffffffffffffffffffffffffffffffff163373ffffffffffffffffffffffffffffffffffffffff1614156112ec576040517f08c379a00000000000000000000000000000000000000000000000000000000081526004016112e390612791565b60405180910390fd5b80806112f790612ac1565b915050611205565b506000806001816001815401808255809150500390600052602060002090600202019050338160000160006101000a81548173ffffffffffffffffffffffffffffffffffffffff021916908373ffffffffffffffffffffffffffffffffffffffff160217905550674563918244f4000081600101819055507f47cf72a1319b630ec3083d16054ea77c907fc0b1d6214c3c99fcc34c71c6705260016000805490506113aa91906129d3565b8260000160009054906101000a900473ffffffffffffffffffffffffffffffffffffffff1683600101546040516113e3939291906127ec565b60405180910390a15050565b6000600180549050905090565b6000818154811061140c57600080fd5b90600052602060002090600202016000915090508060000160009054906101000a900473ffffffffffffffffffffffffffffffffffffffff16908060010154905082565b60006002828154811061148c577f4e487b7100000000000000000000000000000000000000000000000000000000600052603260045260246000fd5b9060005260206000209060050201600301805490509050919050565b600073__$e84fd790a222e3862b17f02ee13c9fe1a1$__63656fa32e60016002815481106114ff577f4e487b7100000000000000000000000000000000000000000000000000000000600052603260045260246000fd5b9060005260206000209060040201600101546000805490506040518363ffffffff1660e01b8152600401611534929190612884565b60206040518083038186803b15801561154c57600080fd5b505af4158015611560573d6000803e3d6000fd5b505050506040513d601f19601f82011682018060405250810190611584919061229d565b905080600283815481106115c1577f4e487b7100000000000000000000000000000000000000000000000000000000600052603260045260246000fd5b906000526020600020906005020160030180549050106119ef57600160028381548110611617577f4e487b7100000000000000000000000000000000000000000000000000000000600052603260045260246000fd5b906000526020600020906005020160040160026101000a81548160ff0219169083151502179055506116476119f3565b600080600090505b60028481548110611689577f4e487b7100000000000000000000000000000000000000000000000000000000600052603260045260246000fd5b90600052602060002090600502016003018054905081101561176a57600284815481106116df577f4e487b7100000000000000000000000000000000000000000000000000000000600052603260045260246000fd5b90600052602060002090600502016003018181548110611728577f4e487b7100000000000000000000000000000000000000000000000000000000600052603260045260246000fd5b9060005260206000200160000160149054906101000a900460ff161561175757818061175390612ac1565b9250505b808061176290612ac1565b91505061164f565b50600073__$e84fd790a222e3862b17f02ee13c9fe1a1$__6384f37fd2600180815481106117c1577f4e487b7100000000000000000000000000000000000000000000000000000000600052603260045260246000fd5b9060005260206000209060040201600101546002878154811061180d577f4e487b7100000000000000000000000000000000000000000000000000000000600052603260045260246000fd5b9060005260206000209060050201600301805490506040518363ffffffff1660e01b815260040161183f929190612884565b60206040518083038186803b15801561185757600080fd5b505af415801561186b573d6000803e3d6000fd5b505050506040513d601f19601f8201168201806040525081019061188f919061229d565b90506000818311905080156118a8576118a785611c54565b5b7fd4743de435a414428065ef5daa1f8015fabaac9920b880ef40bab2abc46ea16a8560028781548110611904577f4e487b7100000000000000000000000000000000000000000000000000000000600052603260045260246000fd5b906000526020600020906005020160000160009054906101000a900473ffffffffffffffffffffffffffffffffffffffff1660028881548110611970577f4e487b7100000000000000000000000000000000000000000000000000000000600052603260045260246000fd5b906000526020600020906005020160020154600289815481106119bc577f4e487b7100000000000000000000000000000000000000000000000000000000600052603260045260246000fd5b9060005260206000209060050201600101546001866040516119e396959493929190612823565b60405180910390a15050505b5050565b6001600381548110611a2e577f4e487b7100000000000000000000000000000000000000000000000000000000600052603260045260246000fd5b90600052602060002090600402016001015460028054905010611c5257600080600090505b600080549050811015611acc5760008181548110611a9a577f4e487b7100000000000000000000000000000000000000000000000000000000600052603260045260246000fd5b90600052602060002090600202016001015482611ab791906128f2565b91508080611ac490612ac1565b915050611a53565b50611b0c6040518060400160405280600b81526020017f62616c616e63652073756d00000000000000000000000000000000000000000081525082612099565b60005b600080549050811015611c4f57600082600080549050674563918244f4000060008581548110611b68577f4e487b7100000000000000000000000000000000000000000000000000000000600052603260045260246000fd5b906000526020600020906002020160010154611b849190612979565b611b8e9190612979565b611b989190612948565b905060008281548110611bd4577f4e487b7100000000000000000000000000000000000000000000000000000000600052603260045260246000fd5b906000526020600020906002020160000160009054906101000a900473ffffffffffffffffffffffffffffffffffffffff1673ffffffffffffffffffffffffffffffffffffffff166108fc829081150290604051600060405180830381858888f1935050505050508080611c4790612ac1565b915050611b0f565b50505b565b600160028281548110611c90577f4e487b7100000000000000000000000000000000000000000000000000000000600052603260045260246000fd5b906000526020600020906005020160040160036101000a81548160ff021916908315150217905550600060028281548110611cf4577f4e487b7100000000000000000000000000000000000000000000000000000000600052603260045260246000fd5b9060005260206000209060050201604051806101000160405290816000820160009054906101000a900473ffffffffffffffffffffffffffffffffffffffff1673ffffffffffffffffffffffffffffffffffffffff1673ffffffffffffffffffffffffffffffffffffffff168152602001600182015481526020016002820154815260200160038201805480602002602001604051908101604052809291908181526020016000905b82821015611e3c578382906000526020600020016040518060400160405290816000820160009054906101000a900473ffffffffffffffffffffffffffffffffffffffff1673ffffffffffffffffffffffffffffffffffffffff1673ffffffffffffffffffffffffffffffffffffffff1681526020016000820160149054906101000a900460ff16151515158152505081526020019060010190611d9d565b5050505081526020016004820160009054906101000a900460ff161515151581526020016004820160019054906101000a900460ff161515151581526020016004820160029054906101000a900460ff161515151581526020016004820160039054906101000a900460ff161515151581525050905080602001516001826040015181548110611ef5577f4e487b7100000000000000000000000000000000000000000000000000000000600052603260045260246000fd5b9060005260206000209060040201600101819055506000611f198260000151612135565b90506001600081548110611f56577f4e487b7100000000000000000000000000000000000000000000000000000000600052603260045260246000fd5b90600052602060002090600402016001015460008281548110611fa2577f4e487b7100000000000000000000000000000000000000000000000000000000600052603260045260246000fd5b90600052602060002090600202016001016000828254611fc291906128f2565b925050819055507f47cf72a1319b630ec3083d16054ea77c907fc0b1d6214c3c99fcc34c71c670528183600001516000848154811061202a577f4e487b7100000000000000000000000000000000000000000000000000000000600052603260045260246000fd5b90600052602060002090600202016001015460405161204b939291906127ec565b60405180910390a17f5944fa0810cbd352342aab6f3e0ddb95ef2c75161835113fc1b703b76ce69eef8260400151836020015160405161208c9291906128ad565b60405180910390a1505050565b61213182826040516024016120af9291906125f5565b6040516020818303038152906040527f9710a9d0000000000000000000000000000000000000000000000000000000007bffffffffffffffffffffffffffffffffffffffffffffffffffffffff19166020820180517bffffffffffffffffffffffffffffffffffffffffffffffffffffffff838183161783525050505061220c565b5050565b600080600090505b600080549050811015612205578273ffffffffffffffffffffffffffffffffffffffff166000828154811061219b577f4e487b7100000000000000000000000000000000000000000000000000000000600052603260045260246000fd5b906000526020600020906002020160000160009054906101000a900473ffffffffffffffffffffffffffffffffffffffff1673ffffffffffffffffffffffffffffffffffffffff1614156121f25780915050612207565b80806121fd90612ac1565b91505061213d565b505b919050565b60008151905060006a636f6e736f6c652e6c6f679050602083016000808483855afa5050505050565b60008135905061224481612ec5565b92915050565b60008135905061225981612edc565b92915050565b60008151905061226e81612edc565b92915050565b60006020828403121561228657600080fd5b60006122948482850161224a565b91505092915050565b6000602082840312156122af57600080fd5b60006122bd8482850161225f565b91505092915050565b600080604083850312156122d957600080fd5b60006122e78582860161224a565b92505060206122f885828601612235565b9150509250929050565b6000806040838503121561231557600080fd5b60006123238582860161224a565b92505060206123348582860161224a565b9150509250929050565b61234781612a07565b82525050565b61235681612a19565b82525050565b6000612367826128d6565b61237181856128e1565b9350612381818560208601612a5c565b61238a81612bc1565b840191505092915050565b60006123a26029836128e1565b91506123ad82612bd2565b604082019050919050565b60006123c56027836128e1565b91506123d082612c21565b604082019050919050565b60006123e86025836128e1565b91506123f382612c70565b604082019050919050565b600061240b601f836128e1565b915061241682612cbf565b602082019050919050565b600061242e6033836128e1565b915061243982612ce8565b604082019050919050565b60006124516027836128e1565b915061245c82612d37565b604082019050919050565b6000612474601b836128e1565b915061247f82612d86565b602082019050919050565b6000612497601e836128e1565b91506124a282612daf565b602082019050919050565b60006124ba6037836128e1565b91506124c582612dd8565b604082019050919050565b60006124dd6021836128e1565b91506124e882612e27565b604082019050919050565b60006125006026836128e1565b915061250b82612e76565b604082019050919050565b61251f81612a45565b82525050565b61252e81612a45565b82525050565b6000604082019050612549600083018561233e565b612556602083018461234d565b9392505050565b6000604082019050612572600083018561233e565b61257f6020830184612516565b9392505050565b600060e08201905061259b600083018a61233e565b6125a86020830189612516565b6125b56040830188612516565b6125c2606083018761234d565b6125cf608083018661234d565b6125dc60a083018561234d565b6125e960c083018461234d565b98975050505050505050565b6000604082019050818103600083015261260f818561235c565b905061261e6020830184612516565b9392505050565b6000608082019050818103600083015261263f818761235c565b905061264e6020830186612516565b61265b6040830185612516565b6126686060830184612516565b95945050505050565b6000602082019050818103600083015261268a81612395565b9050919050565b600060208201905081810360008301526126aa816123b8565b9050919050565b600060208201905081810360008301526126ca816123db565b9050919050565b600060208201905081810360008301526126ea816123fe565b9050919050565b6000602082019050818103600083015261270a81612421565b9050919050565b6000602082019050818103600083015261272a81612444565b9050919050565b6000602082019050818103600083015261274a81612467565b9050919050565b6000602082019050818103600083015261276a8161248a565b9050919050565b6000602082019050818103600083015261278a816124ad565b9050919050565b600060208201905081810360008301526127aa816124d0565b9050919050565b600060208201905081810360008301526127ca816124f3565b9050919050565b60006020820190506127e66000830184612516565b92915050565b60006060820190506128016000830186612516565b61280e602083018561233e565b61281b6040830184612516565b949350505050565b600060c0820190506128386000830189612516565b612845602083018861233e565b6128526040830187612516565b61285f6060830186612516565b61286c608083018561234d565b61287960a083018461234d565b979650505050505050565b60006040820190506128996000830185612525565b6128a66020830184612525565b9392505050565b60006040820190506128c26000830185612516565b6128cf6020830184612516565b9392505050565b600081519050919050565b600082825260208201905092915050565b60006128fd82612a45565b915061290883612a45565b9250827fffffffffffffffffffffffffffffffffffffffffffffffffffffffffffffffff0382111561293d5761293c612b34565b5b828201905092915050565b600061295382612a45565b915061295e83612a45565b92508261296e5761296d612b63565b5b828204905092915050565b600061298482612a45565b915061298f83612a45565b9250817fffffffffffffffffffffffffffffffffffffffffffffffffffffffffffffffff04831182151516156129c8576129c7612b34565b5b828202905092915050565b60006129de82612a45565b91506129e983612a45565b9250828210156129fc576129fb612b34565b5b828203905092915050565b6000612a1282612a25565b9050919050565b60008115159050919050565b600073ffffffffffffffffffffffffffffffffffffffff82169050919050565b6000819050919050565b600060ff82169050919050565b60005b83811015612a7a578082015181840152602081019050612a5f565b83811115612a89576000848401525b50505050565b60006002820490506001821680612aa757607f821691505b60208210811415612abb57612aba612b92565b5b50919050565b6000612acc82612a45565b91507fffffffffffffffffffffffffffffffffffffffffffffffffffffffffffffffff821415612aff57612afe612b34565b5b600182019050919050565b6000612b1582612a4f565b915060ff821415612b2957612b28612b34565b5b600182019050919050565b7f4e487b7100000000000000000000000000000000000000000000000000000000600052601160045260246000fd5b7f4e487b7100000000000000000000000000000000000000000000000000000000600052601260045260246000fd5b7f4e487b7100000000000000000000000000000000000000000000000000000000600052602260045260246000fd5b6000601f19601f8301169050919050565b7f50726f706f73616c2076616c7565206d7573742062652077697468696e20727560008201527f6c6520626f756e64730000000000000000000000000000000000000000000000602082015250565b7f50726f706f73616c206d757374206170706c7920746f20616e2065786973746960008201527f6e672072756c6500000000000000000000000000000000000000000000000000602082015250565b7f596f75206d7573742073656e642035207844616920746f206a6f696e2074686560008201527f2067616d65000000000000000000000000000000000000000000000000000000602082015250565b7f50726f706f73616c20696e646578206d75737420626520696e2072616e676500600082015250565b7f596f75206d7573742068617665206a6f696e6564207468652067616d6520746f60008201527f2063616c6c20746869732066756e6374696f6e00000000000000000000000000602082015250565b7f596f75206861766520616c726561647920766f746564206f6e2074686973207060008201527f726f706f73616c00000000000000000000000000000000000000000000000000602082015250565b7f566f746520696e646578206d75737420626520696e2072616e67650000000000600082015250565b7f566f746564206f6e206e6f6e2d6578697374656e742070726f706f73616c0000600082015250565b7f596f752063616e6e6f7420696e7465726163742077697468207468697320676160008201527f6d6520626563617573652069742068617320656e646564000000000000000000602082015250565b7f596f75206861766520616c7265616479206a6f696e656420746869732067616d60008201527f6500000000000000000000000000000000000000000000000000000000000000602082015250565b7f596f75206d6179206e6f7420766f7465206f6e20636f6d706c6574656420707260008201527f6f706f73616c0000000000000000000000000000000000000000000000000000602082015250565b612ece81612a19565b8114612ed957600080fd5b50565b612ee581612a45565b8114612ef057600080fd5b5056fea26469706673582212204b71605b34645472f9ee4898f323732981b4066036b4d9e2eff66d744fcc849464736f6c63430008010033",
  "linkReferences": {
    "contracts/Game.sol": {
      "Calculations": [
        {
          "length": 20,
          "start": 6390
        },
        {
          "length": 20,
          "start": 7097
        }
      ]
    }
  },
  "deployedLinkReferences": {
    "contracts/Game.sol": {
      "Calculations": [
        {
          "length": 20,
          "start": 5292
        },
        {
          "length": 20,
          "start": 5999
        }
      ]
    }
  }
}