{
  "_format": "hh-sol-artifact-1",
  "contractName": "Game",
  "sourceName": "contracts/Game.sol",
  "abi": [
    {
      "inputs": [],
      "stateMutability": "nonpayable",
      "type": "constructor"
    },
    {
      "anonymous": false,
      "inputs": [
        {
          "indexed": false,
          "internalType": "address",
          "name": "playerAddress",
          "type": "address"
        },
        {
          "indexed": false,
          "internalType": "uint256",
          "name": "balance",
          "type": "uint256"
        }
      ],
      "name": "NewPlayer",
      "type": "event"
    },
    {
      "anonymous": false,
      "inputs": [
        {
          "indexed": false,
          "internalType": "address",
          "name": "proposer",
          "type": "address"
        },
        {
          "indexed": false,
          "internalType": "uint256",
          "name": "ruleIndex",
          "type": "uint256"
        },
        {
          "indexed": false,
          "internalType": "uint256",
          "name": "value",
          "type": "uint256"
        }
      ],
      "name": "NewProposal",
      "type": "event"
    },
    {
      "anonymous": false,
      "inputs": [
        {
          "indexed": false,
          "internalType": "uint256",
          "name": "proposalIndex",
          "type": "uint256"
        },
        {
          "indexed": false,
          "internalType": "address",
          "name": "player",
          "type": "address"
        },
        {
          "indexed": false,
          "internalType": "uint256",
          "name": "vote",
          "type": "uint256"
        }
      ],
      "name": "NewVote",
      "type": "event"
    },
    {
      "anonymous": false,
      "inputs": [
        {
          "indexed": false,
          "internalType": "uint256",
          "name": "proposalIndex",
          "type": "uint256"
        },
        {
          "indexed": false,
          "internalType": "bool",
          "name": "successful",
          "type": "bool"
        }
      ],
      "name": "ProposalComplete",
      "type": "event"
    },
    {
      "inputs": [
        {
          "internalType": "uint256",
          "name": "ruleIndex",
          "type": "uint256"
        },
        {
          "internalType": "uint256",
          "name": "value",
          "type": "uint256"
        }
      ],
      "name": "createProposal",
      "outputs": [],
      "stateMutability": "nonpayable",
      "type": "function"
    },
    {
      "inputs": [],
      "name": "getPlayersLength",
      "outputs": [
        {
          "internalType": "uint256",
          "name": "",
          "type": "uint256"
        }
      ],
      "stateMutability": "view",
      "type": "function"
    },
    {
      "inputs": [],
      "name": "getProposalsLength",
      "outputs": [
        {
          "internalType": "uint256",
          "name": "",
          "type": "uint256"
        }
      ],
      "stateMutability": "view",
      "type": "function"
    },
    {
      "inputs": [],
      "name": "getRulesLength",
      "outputs": [
        {
          "internalType": "uint256",
          "name": "",
          "type": "uint256"
        }
      ],
      "stateMutability": "view",
      "type": "function"
    },
    {
      "inputs": [
        {
          "internalType": "uint256",
          "name": "proposalIndex",
          "type": "uint256"
        },
        {
          "internalType": "uint256",
          "name": "voteIndex",
          "type": "uint256"
        }
      ],
      "name": "getVote",
      "outputs": [
        {
          "internalType": "address",
          "name": "",
          "type": "address"
        },
        {
          "internalType": "bool",
          "name": "",
          "type": "bool"
        }
      ],
      "stateMutability": "view",
      "type": "function"
    },
    {
      "inputs": [],
      "name": "joinGame",
      "outputs": [],
      "stateMutability": "payable",
      "type": "function"
    },
    {
      "inputs": [
        {
          "internalType": "uint256",
          "name": "",
          "type": "uint256"
        }
      ],
      "name": "players",
      "outputs": [
        {
          "internalType": "address",
          "name": "playerAddress",
          "type": "address"
        },
        {
          "internalType": "uint256",
          "name": "balance",
          "type": "uint256"
        }
      ],
      "stateMutability": "view",
      "type": "function"
    },
    {
      "inputs": [
        {
          "internalType": "uint256",
          "name": "",
          "type": "uint256"
        }
      ],
      "name": "proposals",
      "outputs": [
        {
          "internalType": "address",
          "name": "proposer",
          "type": "address"
        },
        {
          "internalType": "uint256",
          "name": "value",
          "type": "uint256"
        },
        {
          "internalType": "uint256",
          "name": "ruleIndex",
          "type": "uint256"
        },
        {
          "internalType": "bool",
          "name": "mutabilityChange",
          "type": "bool"
        },
        {
          "internalType": "bool",
          "name": "proposedMutability",
          "type": "bool"
        },
        {
          "internalType": "bool",
          "name": "complete",
          "type": "bool"
        },
        {
          "internalType": "bool",
          "name": "successful",
          "type": "bool"
        }
      ],
      "stateMutability": "view",
      "type": "function"
    },
    {
      "inputs": [
        {
          "internalType": "uint256",
          "name": "",
          "type": "uint256"
        }
      ],
      "name": "rules",
      "outputs": [
        {
          "internalType": "string",
          "name": "name",
          "type": "string"
        },
        {
          "internalType": "uint256",
          "name": "value",
          "type": "uint256"
        },
        {
          "internalType": "uint256",
          "name": "lowerBound",
          "type": "uint256"
        },
        {
          "internalType": "uint256",
          "name": "upperBound",
          "type": "uint256"
        }
      ],
      "stateMutability": "view",
      "type": "function"
    },
    {
      "inputs": [
        {
          "internalType": "uint256",
          "name": "proposalIndex",
          "type": "uint256"
        },
        {
          "internalType": "bool",
          "name": "vote",
          "type": "bool"
        }
      ],
      "name": "voteOnProposal",
      "outputs": [],
      "stateMutability": "nonpayable",
      "type": "function"
    }
  ],
  "bytecode": "0x60806040523480156200001157600080fd5b50600160405180608001604052806040518060400160405280600f81526020017f50726f706f73616c2072657761726400000000000000000000000000000000008152508152602001600a8152602001600081526020016103e881525090806001815401808255809150506001900390600052602060002090600402016000909190919091506000820151816000019080519060200190620000b592919062000325565b506020820151816001015560408201518160020155606082015181600301555050600160405180608001604052806040518060400160405280600881526020017f4d616a6f72697479000000000000000000000000000000000000000000000000815250815260200160328152602001600081526020016064815250908060018154018082558091505060019003906000526020600020906004020160009091909190915060008201518160000190805190602001906200017892919062000325565b506020820151816001015560408201518160020155606082015181600301555050600160405180608001604052806040518060400160405280600681526020017f51756f72756d0000000000000000000000000000000000000000000000000000815250815260200160328152602001600081526020016064815250908060018154018082558091505060019003906000526020600020906004020160009091909190915060008201518160000190805190602001906200023b92919062000325565b506020820151816001015560408201518160020155606082015181600301555050600160405180608001604052806040518060400160405280600d81526020017f4d61782070726f706f73616c730000000000000000000000000000000000000081525081526020016003815260200160018152602001606481525090806001815401808255809150506001900390600052602060002090600402016000909190919091506000820151816000019080519060200190620002fe92919062000325565b5060208201518160010155604082015181600201556060820151816003015550506200043a565b8280546200033390620003d5565b90600052602060002090601f016020900481019282620003575760008555620003a3565b82601f106200037257805160ff1916838001178555620003a3565b82800160010185558215620003a3579182015b82811115620003a257825182559160200191906001019062000385565b5b509050620003b29190620003b6565b5090565b5b80821115620003d1576000816000905550600101620003b7565b5090565b60006002820490506001821680620003ee57607f821691505b602082108114156200040557620004046200040b565b5b50919050565b7f4e487b7100000000000000000000000000000000000000000000000000000000600052602260045260246000fd5b612b3b806200044a6000396000f3fe6080604052600436106100915760003560e01c8063bc378a7311610059578063bc378a73146101a9578063cd61386d146101d4578063d4f77b1c146101ff578063d5b60c6414610209578063f71d96cb1461023457610091565b8063013cf08b1461009657806304d6ded4146100d95780631614665c1461011957806349330cb8146101425780636935bda614610180575b600080fd5b3480156100a257600080fd5b506100bd60048036038101906100b89190611f87565b610272565b6040516100d097969594939291906122ad565b60405180910390f35b3480156100e557600080fd5b5061010060048036038101906100fb9190611f87565b610318565b604051610110949392919061234c565b60405180910390f35b34801561012557600080fd5b50610140600480360381019061013b9190611fd9565b6103e0565b005b34801561014e57600080fd5b5061016960048036038101906101649190612015565b610952565b604051610177929190612224565b60405180910390f35b34801561018c57600080fd5b506101a760048036038101906101a29190612015565b610b86565b005b3480156101b557600080fd5b506101be610fd1565b6040516101cb91906124d8565b60405180910390f35b3480156101e057600080fd5b506101e9610fde565b6040516101f691906124d8565b60405180910390f35b610207610fea565b005b34801561021557600080fd5b5061021e611335565b60405161022b91906124d8565b60405180910390f35b34801561024057600080fd5b5061025b60048036038101906102569190611f87565b611342565b60405161026992919061224d565b60405180910390f35b6002818154811061028257600080fd5b90600052602060002090600502016000915090508060000160009054906101000a900473ffffffffffffffffffffffffffffffffffffffff16908060010154908060020154908060040160009054906101000a900460ff16908060040160019054906101000a900460ff16908060040160029054906101000a900460ff16908060040160039054906101000a900460ff16905087565b6001818154811061032857600080fd5b906000526020600020906004020160009150905080600001805461034b906126ca565b80601f0160208091040260200160405190810160405280929190818152602001828054610377906126ca565b80156103c45780601f10610399576101008083540402835291602001916103c4565b820191906000526020600020905b8154815290600101906020018083116103a757829003601f168201915b5050505050908060010154908060020154908060030154905084565b600080600090505b6000805490508110156104b0576000818154811061042f577f4e487b7100000000000000000000000000000000000000000000000000000000600052603260045260246000fd5b906000526020600020906002020160000160009054906101000a900473ffffffffffffffffffffffffffffffffffffffff1673ffffffffffffffffffffffffffffffffffffffff163373ffffffffffffffffffffffffffffffffffffffff16141561049d57600191506104b0565b80806104a8906126fc565b9150506103e8565b50806104f1576040517f08c379a00000000000000000000000000000000000000000000000000000000081526004016104e890612418565b60405180910390fd5b600080600090505b6002805490508110156105865760028181548110610540577f4e487b7100000000000000000000000000000000000000000000000000000000600052603260045260246000fd5b906000526020600020906005020160040160029054906101000a900460ff161561057357818061056f90612745565b9250505b808061057e906126fc565b9150506104f9565b5060016003815481106105c2577f4e487b7100000000000000000000000000000000000000000000000000000000600052603260045260246000fd5b9060005260206000209060040201600101548160ff1610610618576040517f08c379a000000000000000000000000000000000000000000000000000000000815260040161060f90612478565b60405180910390fd5b60028481548110610652577f4e487b7100000000000000000000000000000000000000000000000000000000600052603260045260246000fd5b906000526020600020906005020160040160029054906101000a900460ff16156106b1576040517f08c379a00000000000000000000000000000000000000000000000000000000081526004016106a8906124b8565b60405180910390fd5b60005b600285815481106106ee577f4e487b7100000000000000000000000000000000000000000000000000000000600052603260045260246000fd5b90600052602060002090600502016003018054905081101561083c573373ffffffffffffffffffffffffffffffffffffffff166002868154811061075b577f4e487b7100000000000000000000000000000000000000000000000000000000600052603260045260246000fd5b906000526020600020906005020160030182815481106107a4577f4e487b7100000000000000000000000000000000000000000000000000000000600052603260045260246000fd5b9060005260206000200160000160009054906101000a900473ffffffffffffffffffffffffffffffffffffffff1673ffffffffffffffffffffffffffffffffffffffff161415610829576040517f08c379a000000000000000000000000000000000000000000000000000000000815260040161082090612438565b60405180910390fd5b8080610834906126fc565b9150506106b4565b5060028481548110610877577f4e487b7100000000000000000000000000000000000000000000000000000000600052603260045260246000fd5b906000526020600020906005020160030160405180604001604052803373ffffffffffffffffffffffffffffffffffffffff1681526020018515158152509080600181540180825580915050600190039060005260206000200160009091909190915060008201518160000160006101000a81548173ffffffffffffffffffffffffffffffffffffffff021916908373ffffffffffffffffffffffffffffffffffffffff16021790555060208201518160000160146101000a81548160ff021916908315150217905550505061094c84611396565b50505050565b600080600280549050841061099c576040517f08c379a0000000000000000000000000000000000000000000000000000000008152600401610993906123f8565b60405180910390fd5b600284815481106109d6577f4e487b7100000000000000000000000000000000000000000000000000000000600052603260045260246000fd5b9060005260206000209060050201600301805490508310610a2c576040517f08c379a0000000000000000000000000000000000000000000000000000000008152600401610a2390612458565b60405180910390fd5b60028481548110610a66577f4e487b7100000000000000000000000000000000000000000000000000000000600052603260045260246000fd5b90600052602060002090600502016003018381548110610aaf577f4e487b7100000000000000000000000000000000000000000000000000000000600052603260045260246000fd5b9060005260206000200160000160009054906101000a900473ffffffffffffffffffffffffffffffffffffffff1660028581548110610b17577f4e487b7100000000000000000000000000000000000000000000000000000000600052603260045260246000fd5b90600052602060002090600502016003018481548110610b60577f4e487b7100000000000000000000000000000000000000000000000000000000600052603260045260246000fd5b9060005260206000200160000160149054906101000a900460ff16915091509250929050565b600080600090505b600280549050811015610c1b5760028181548110610bd5577f4e487b7100000000000000000000000000000000000000000000000000000000600052603260045260246000fd5b906000526020600020906005020160040160029054906101000a900460ff1615610c08578180610c0490612745565b9250505b8080610c13906126fc565b915050610b8e565b506001600381548110610c57577f4e487b7100000000000000000000000000000000000000000000000000000000600052603260045260246000fd5b9060005260206000209060040201600101548160ff1610610cad576040517f08c379a0000000000000000000000000000000000000000000000000000000008152600401610ca490612478565b60405180910390fd5b600080600090505b600080549050811015610d7d5760008181548110610cfc577f4e487b7100000000000000000000000000000000000000000000000000000000600052603260045260246000fd5b906000526020600020906002020160000160009054906101000a900473ffffffffffffffffffffffffffffffffffffffff1673ffffffffffffffffffffffffffffffffffffffff163373ffffffffffffffffffffffffffffffffffffffff161415610d6a5760019150610d7d565b8080610d75906126fc565b915050610cb5565b5080610dbe576040517f08c379a0000000000000000000000000000000000000000000000000000000008152600401610db590612418565b60405180910390fd5b6001805490508410610e05576040517f08c379a0000000000000000000000000000000000000000000000000000000008152600401610dfc906123b8565b60405180910390fd5b60018481548110610e3f577f4e487b7100000000000000000000000000000000000000000000000000000000600052603260045260246000fd5b9060005260206000209060040201600301548311158015610eab575060018481548110610e95577f4e487b7100000000000000000000000000000000000000000000000000000000600052603260045260246000fd5b9060005260206000209060040201600201548310155b610eea576040517f08c379a0000000000000000000000000000000000000000000000000000000008152600401610ee190612398565b60405180910390fd5b600060026001816001815401808255809150500390600052602060002090600502019050338160000160006101000a81548173ffffffffffffffffffffffffffffffffffffffff021916908373ffffffffffffffffffffffffffffffffffffffff1602179055508481600201819055508381600101819055507f7bf352ba24249a94adb0618fb9a979f326660385774ed92388e949525e871d278160000160009054906101000a900473ffffffffffffffffffffffffffffffffffffffff1682600201548360010154604051610fc293929190612276565b60405180910390a15050505050565b6000600280549050905090565b60008080549050905090565b600080600090505b60028054905081101561107f5760028181548110611039577f4e487b7100000000000000000000000000000000000000000000000000000000600052603260045260246000fd5b906000526020600020906005020160040160029054906101000a900460ff161561106c57818061106890612745565b9250505b8080611077906126fc565b915050610ff2565b5060016003815481106110bb577f4e487b7100000000000000000000000000000000000000000000000000000000600052603260045260246000fd5b9060005260206000209060040201600101548160ff1610611111576040517f08c379a000000000000000000000000000000000000000000000000000000000815260040161110890612478565b60405180910390fd5b674563918244f40000341461115b576040517f08c379a0000000000000000000000000000000000000000000000000000000008152600401611152906123d8565b60405180910390fd5b60005b60008054905081101561125857600081815481106111a5577f4e487b7100000000000000000000000000000000000000000000000000000000600052603260045260246000fd5b906000526020600020906002020160000160009054906101000a900473ffffffffffffffffffffffffffffffffffffffff1673ffffffffffffffffffffffffffffffffffffffff163373ffffffffffffffffffffffffffffffffffffffff161415611245576040517f08c379a000000000000000000000000000000000000000000000000000000000815260040161123c90612498565b60405180910390fd5b8080611250906126fc565b91505061115e565b506000806001816001815401808255809150500390600052602060002090600202019050338160000160006101000a81548173ffffffffffffffffffffffffffffffffffffffff021916908373ffffffffffffffffffffffffffffffffffffffff160217905550674563918244f4000081600101819055507f6b8fe0f067804a78a12efa88b8428446c8d8a703d5604dffc63ac27fcbdcfd0d8160000160009054906101000a900473ffffffffffffffffffffffffffffffffffffffff16826001015460405161132992919061224d565b60405180910390a15050565b6000600180549050905090565b6000818154811061135257600080fd5b90600052602060002090600202016000915090508060000160009054906101000a900473ffffffffffffffffffffffffffffffffffffffff16908060010154905082565b600073__$e84fd790a222e3862b17f02ee13c9fe1a1$__63656fa32e60016002815481106113ed577f4e487b7100000000000000000000000000000000000000000000000000000000600052603260045260246000fd5b9060005260206000209060040201600101546000805490506040518363ffffffff1660e01b815260040161142292919061251c565b60206040518083038186803b15801561143a57600080fd5b505af415801561144e573d6000803e3d6000fd5b505050506040513d601f19601f820116820180604052508101906114729190611fb0565b905080600283815481106114af577f4e487b7100000000000000000000000000000000000000000000000000000000600052603260045260246000fd5b906000526020600020906005020160030180549050106117d357600160028381548110611505577f4e487b7100000000000000000000000000000000000000000000000000000000600052603260045260246000fd5b906000526020600020906005020160040160026101000a81548160ff0219169083151502179055506115356117d7565b600080600090505b60028481548110611577577f4e487b7100000000000000000000000000000000000000000000000000000000600052603260045260246000fd5b90600052602060002090600502016003018054905081101561165857600284815481106115cd577f4e487b7100000000000000000000000000000000000000000000000000000000600052603260045260246000fd5b90600052602060002090600502016003018181548110611616577f4e487b7100000000000000000000000000000000000000000000000000000000600052603260045260246000fd5b9060005260206000200160000160149054906101000a900460ff1615611645578180611641906126fc565b9250505b8080611650906126fc565b91505061153d565b50600073__$e84fd790a222e3862b17f02ee13c9fe1a1$__6384f37fd2600180815481106116af577f4e487b7100000000000000000000000000000000000000000000000000000000600052603260045260246000fd5b906000526020600020906004020160010154600287815481106116fb577f4e487b7100000000000000000000000000000000000000000000000000000000600052603260045260246000fd5b9060005260206000209060050201600301805490506040518363ffffffff1660e01b815260040161172d92919061251c565b60206040518083038186803b15801561174557600080fd5b505af4158015611759573d6000803e3d6000fd5b505050506040513d601f19601f8201168201806040525081019061177d9190611fb0565b90506000818311905080156117965761179585611a38565b5b7fafa70422c56629ea58edc94846317c266aae36ccb2d4b8b5953a6fe5a3bdbd3f85826040516117c79291906124f3565b60405180910390a15050505b5050565b6001600381548110611812577f4e487b7100000000000000000000000000000000000000000000000000000000600052603260045260246000fd5b90600052602060002090600402016001015460028054905010611a3657600080600090505b6000805490508110156118b0576000818154811061187e577f4e487b7100000000000000000000000000000000000000000000000000000000600052603260045260246000fd5b9060005260206000209060020201600101548261189b9190612561565b915080806118a8906126fc565b915050611837565b506118f06040518060400160405280600b81526020017f62616c616e63652073756d00000000000000000000000000000000000000000081525082611dac565b60005b600080549050811015611a3357600082600080549050674563918244f400006000858154811061194c577f4e487b7100000000000000000000000000000000000000000000000000000000600052603260045260246000fd5b90600052602060002090600202016001015461196891906125e8565b61197291906125e8565b61197c91906125b7565b9050600082815481106119b8577f4e487b7100000000000000000000000000000000000000000000000000000000600052603260045260246000fd5b906000526020600020906002020160000160009054906101000a900473ffffffffffffffffffffffffffffffffffffffff1673ffffffffffffffffffffffffffffffffffffffff166108fc829081150290604051600060405180830381858888f1935050505050508080611a2b906126fc565b9150506118f3565b50505b565b600160028281548110611a74577f4e487b7100000000000000000000000000000000000000000000000000000000600052603260045260246000fd5b906000526020600020906005020160040160036101000a81548160ff021916908315150217905550600060028281548110611ad8577f4e487b7100000000000000000000000000000000000000000000000000000000600052603260045260246000fd5b9060005260206000209060050201604051806101000160405290816000820160009054906101000a900473ffffffffffffffffffffffffffffffffffffffff1673ffffffffffffffffffffffffffffffffffffffff1673ffffffffffffffffffffffffffffffffffffffff168152602001600182015481526020016002820154815260200160038201805480602002602001604051908101604052809291908181526020016000905b82821015611c20578382906000526020600020016040518060400160405290816000820160009054906101000a900473ffffffffffffffffffffffffffffffffffffffff1673ffffffffffffffffffffffffffffffffffffffff1673ffffffffffffffffffffffffffffffffffffffff1681526020016000820160149054906101000a900460ff16151515158152505081526020019060010190611b81565b5050505081526020016004820160009054906101000a900460ff161515151581526020016004820160019054906101000a900460ff161515151581526020016004820160029054906101000a900460ff161515151581526020016004820160039054906101000a900460ff161515151581525050905080602001516001826040015181548110611cd9577f4e487b7100000000000000000000000000000000000000000000000000000000600052603260045260246000fd5b9060005260206000209060040201600101819055506001600081548110611d29577f4e487b7100000000000000000000000000000000000000000000000000000000600052603260045260246000fd5b9060005260206000209060040201600101546000611d4a8360000151611e48565b81548110611d81577f4e487b7100000000000000000000000000000000000000000000000000000000600052603260045260246000fd5b90600052602060002090600202016001016000828254611da19190612561565b925050819055505050565b611e448282604051602401611dc292919061231c565b6040516020818303038152906040527f9710a9d0000000000000000000000000000000000000000000000000000000007bffffffffffffffffffffffffffffffffffffffffffffffffffffffff19166020820180517bffffffffffffffffffffffffffffffffffffffffffffffffffffffff8381831617835250505050611f1f565b5050565b600080600090505b600080549050811015611f18578273ffffffffffffffffffffffffffffffffffffffff1660008281548110611eae577f4e487b7100000000000000000000000000000000000000000000000000000000600052603260045260246000fd5b906000526020600020906002020160000160009054906101000a900473ffffffffffffffffffffffffffffffffffffffff1673ffffffffffffffffffffffffffffffffffffffff161415611f055780915050611f1a565b8080611f10906126fc565b915050611e50565b505b919050565b60008151905060006a636f6e736f6c652e6c6f679050602083016000808483855afa5050505050565b600081359050611f5781612ad7565b92915050565b600081359050611f6c81612aee565b92915050565b600081519050611f8181612aee565b92915050565b600060208284031215611f9957600080fd5b6000611fa784828501611f5d565b91505092915050565b600060208284031215611fc257600080fd5b6000611fd084828501611f72565b91505092915050565b60008060408385031215611fec57600080fd5b6000611ffa85828601611f5d565b925050602061200b85828601611f48565b9150509250929050565b6000806040838503121561202857600080fd5b600061203685828601611f5d565b925050602061204785828601611f5d565b9150509250929050565b61205a81612642565b82525050565b61206981612654565b82525050565b600061207a82612545565b6120848185612550565b9350612094818560208601612697565b61209d816127fc565b840191505092915050565b60006120b5602983612550565b91506120c08261280d565b604082019050919050565b60006120d8602783612550565b91506120e38261285c565b604082019050919050565b60006120fb602583612550565b9150612106826128ab565b604082019050919050565b600061211e601f83612550565b9150612129826128fa565b602082019050919050565b6000612141603383612550565b915061214c82612923565b604082019050919050565b6000612164602783612550565b915061216f82612972565b604082019050919050565b6000612187601b83612550565b9150612192826129c1565b602082019050919050565b60006121aa603783612550565b91506121b5826129ea565b604082019050919050565b60006121cd602183612550565b91506121d882612a39565b604082019050919050565b60006121f0602683612550565b91506121fb82612a88565b604082019050919050565b61220f81612680565b82525050565b61221e81612680565b82525050565b60006040820190506122396000830185612051565b6122466020830184612060565b9392505050565b60006040820190506122626000830185612051565b61226f6020830184612206565b9392505050565b600060608201905061228b6000830186612051565b6122986020830185612206565b6122a56040830184612206565b949350505050565b600060e0820190506122c2600083018a612051565b6122cf6020830189612206565b6122dc6040830188612206565b6122e96060830187612060565b6122f66080830186612060565b61230360a0830185612060565b61231060c0830184612060565b98975050505050505050565b60006040820190508181036000830152612336818561206f565b90506123456020830184612206565b9392505050565b60006080820190508181036000830152612366818761206f565b90506123756020830186612206565b6123826040830185612206565b61238f6060830184612206565b95945050505050565b600060208201905081810360008301526123b1816120a8565b9050919050565b600060208201905081810360008301526123d1816120cb565b9050919050565b600060208201905081810360008301526123f1816120ee565b9050919050565b6000602082019050818103600083015261241181612111565b9050919050565b6000602082019050818103600083015261243181612134565b9050919050565b6000602082019050818103600083015261245181612157565b9050919050565b600060208201905081810360008301526124718161217a565b9050919050565b600060208201905081810360008301526124918161219d565b9050919050565b600060208201905081810360008301526124b1816121c0565b9050919050565b600060208201905081810360008301526124d1816121e3565b9050919050565b60006020820190506124ed6000830184612206565b92915050565b60006040820190506125086000830185612206565b6125156020830184612060565b9392505050565b60006040820190506125316000830185612215565b61253e6020830184612215565b9392505050565b600081519050919050565b600082825260208201905092915050565b600061256c82612680565b915061257783612680565b9250827fffffffffffffffffffffffffffffffffffffffffffffffffffffffffffffffff038211156125ac576125ab61276f565b5b828201905092915050565b60006125c282612680565b91506125cd83612680565b9250826125dd576125dc61279e565b5b828204905092915050565b60006125f382612680565b91506125fe83612680565b9250817fffffffffffffffffffffffffffffffffffffffffffffffffffffffffffffffff04831182151516156126375761263661276f565b5b828202905092915050565b600061264d82612660565b9050919050565b60008115159050919050565b600073ffffffffffffffffffffffffffffffffffffffff82169050919050565b6000819050919050565b600060ff82169050919050565b60005b838110156126b557808201518184015260208101905061269a565b838111156126c4576000848401525b50505050565b600060028204905060018216806126e257607f821691505b602082108114156126f6576126f56127cd565b5b50919050565b600061270782612680565b91507fffffffffffffffffffffffffffffffffffffffffffffffffffffffffffffffff82141561273a5761273961276f565b5b600182019050919050565b60006127508261268a565b915060ff8214156127645761276361276f565b5b600182019050919050565b7f4e487b7100000000000000000000000000000000000000000000000000000000600052601160045260246000fd5b7f4e487b7100000000000000000000000000000000000000000000000000000000600052601260045260246000fd5b7f4e487b7100000000000000000000000000000000000000000000000000000000600052602260045260246000fd5b6000601f19601f8301169050919050565b7f50726f706f73616c2076616c7565206d7573742062652077697468696e20727560008201527f6c6520626f756e64730000000000000000000000000000000000000000000000602082015250565b7f50726f706f73616c206d757374206170706c7920746f20616e2065786973746960008201527f6e672072756c6500000000000000000000000000000000000000000000000000602082015250565b7f596f75206d7573742073656e642035207844616920746f206a6f696e2074686560008201527f2067616d65000000000000000000000000000000000000000000000000000000602082015250565b7f50726f706f73616c20696e646578206d75737420626520696e2072616e676500600082015250565b7f596f75206d7573742068617665206a6f696e6564207468652067616d6520746f60008201527f2063616c6c20746869732066756e6374696f6e00000000000000000000000000602082015250565b7f596f75206861766520616c726561647920766f746564206f6e2074686973207060008201527f726f706f73616c00000000000000000000000000000000000000000000000000602082015250565b7f566f746520696e646578206d75737420626520696e2072616e67650000000000600082015250565b7f596f752063616e6e6f7420696e7465726163742077697468207468697320676160008201527f6d6520626563617573652069742068617320656e646564000000000000000000602082015250565b7f596f75206861766520616c7265616479206a6f696e656420746869732067616d60008201527f6500000000000000000000000000000000000000000000000000000000000000602082015250565b7f596f75206d6179206e6f7420766f7465206f6e20636f6d706c6574656420707260008201527f6f706f73616c0000000000000000000000000000000000000000000000000000602082015250565b612ae081612654565b8114612aeb57600080fd5b50565b612af781612680565b8114612b0257600080fd5b5056fea26469706673582212206f46614bfcfad747a40b76c52e422d80be1fcc2228a5081c399ee6e4d447680564736f6c63430008010033",
  "linkReferences": {
    "contracts/Game.sol": {
      "Calculations": [
        {
          "length": 20,
          "start": 6116
        },
        {
          "length": 20,
          "start": 6823
        }
      ]
    }
  },
  "deployedLinkReferences": {
    "contracts/Game.sol": {
      "Calculations": [
        {
          "length": 20,
          "start": 5018
        },
        {
          "length": 20,
          "start": 5725
        }
      ]
    }
  }
}