{
  "_format": "hh-sol-artifact-1",
  "contractName": "Game",
  "sourceName": "contracts/Game.sol",
  "abi": [
    {
      "inputs": [
        {
          "internalType": "address",
          "name": "firstPlayer",
          "type": "address"
        },
        {
          "components": [
            {
              "internalType": "uint256",
              "name": "entryFee",
              "type": "uint256"
            },
            {
              "internalType": "uint256",
              "name": "startBalance",
              "type": "uint256"
            },
            {
              "internalType": "uint256",
              "name": "successfulProposalReward",
              "type": "uint256"
            },
            {
              "internalType": "uint256",
              "name": "majority",
              "type": "uint256"
            },
            {
              "internalType": "uint256",
              "name": "quorum",
              "type": "uint256"
            },
            {
              "internalType": "uint256",
              "name": "maxProposals",
              "type": "uint256"
            },
            {
              "internalType": "uint256",
              "name": "pollTax",
              "type": "uint256"
            },
            {
              "internalType": "uint256",
              "name": "wealthTax",
              "type": "uint256"
            },
            {
              "internalType": "uint256",
              "name": "wealthTaxThreshold",
              "type": "uint256"
            },
            {
              "internalType": "uint256",
              "name": "proposalFee",
              "type": "uint256"
            },
            {
              "internalType": "uint256",
              "name": "dividend",
              "type": "uint256"
            }
          ],
          "internalType": "struct Calculations.GameParams",
          "name": "gameParams",
          "type": "tuple"
        }
      ],
      "stateMutability": "payable",
      "type": "constructor"
    },
    {
      "anonymous": false,
      "inputs": [
        {
          "indexed": false,
          "internalType": "address",
          "name": "playerAddress",
          "type": "address"
        },
        {
          "indexed": false,
          "internalType": "uint256",
          "name": "balance",
          "type": "uint256"
        }
      ],
      "name": "CreatePlayer",
      "type": "event"
    },
    {
      "anonymous": false,
      "inputs": [
        {
          "indexed": false,
          "internalType": "address",
          "name": "playerAddress",
          "type": "address"
        },
        {
          "indexed": false,
          "internalType": "uint256",
          "name": "amount",
          "type": "uint256"
        },
        {
          "indexed": false,
          "internalType": "bool",
          "name": "isDeduction",
          "type": "bool"
        },
        {
          "indexed": false,
          "internalType": "uint256",
          "name": "balance",
          "type": "uint256"
        },
        {
          "indexed": false,
          "internalType": "bool",
          "name": "successfulProposal",
          "type": "bool"
        },
        {
          "indexed": false,
          "internalType": "uint256",
          "name": "ruleIndex",
          "type": "uint256"
        }
      ],
      "name": "LedgerEntry",
      "type": "event"
    },
    {
      "inputs": [
        {
          "internalType": "address",
          "name": "playerAddress",
          "type": "address"
        }
      ],
      "name": "admitPlayer",
      "outputs": [],
      "stateMutability": "nonpayable",
      "type": "function"
    },
    {
      "inputs": [
        {
          "internalType": "uint256",
          "name": "ruleIndex",
          "type": "uint256"
        },
        {
          "internalType": "uint256",
          "name": "value",
          "type": "uint256"
        }
      ],
      "name": "createProposal",
      "outputs": [],
      "stateMutability": "nonpayable",
      "type": "function"
    },
    {
      "inputs": [],
      "name": "gameEndTime",
      "outputs": [
        {
          "internalType": "uint256",
          "name": "",
          "type": "uint256"
        }
      ],
      "stateMutability": "view",
      "type": "function"
    },
    {
      "inputs": [],
      "name": "getPendingPlayersLength",
      "outputs": [
        {
          "internalType": "uint256",
          "name": "",
          "type": "uint256"
        }
      ],
      "stateMutability": "view",
      "type": "function"
    },
    {
      "inputs": [],
      "name": "getPlayersLength",
      "outputs": [
        {
          "internalType": "uint256",
          "name": "",
          "type": "uint256"
        }
      ],
      "stateMutability": "view",
      "type": "function"
    },
    {
      "inputs": [],
      "name": "getProposalsLength",
      "outputs": [
        {
          "internalType": "uint256",
          "name": "",
          "type": "uint256"
        }
      ],
      "stateMutability": "view",
      "type": "function"
    },
    {
      "inputs": [],
      "name": "getRulesLength",
      "outputs": [
        {
          "internalType": "uint256",
          "name": "",
          "type": "uint256"
        }
      ],
      "stateMutability": "view",
      "type": "function"
    },
    {
      "inputs": [
        {
          "internalType": "uint256",
          "name": "proposalIndex",
          "type": "uint256"
        },
        {
          "internalType": "uint256",
          "name": "voteIndex",
          "type": "uint256"
        }
      ],
      "name": "getVote",
      "outputs": [
        {
          "internalType": "address",
          "name": "playerAddress",
          "type": "address"
        },
        {
          "internalType": "bool",
          "name": "vote",
          "type": "bool"
        }
      ],
      "stateMutability": "view",
      "type": "function"
    },
    {
      "inputs": [
        {
          "internalType": "uint256",
          "name": "proposalIndex",
          "type": "uint256"
        }
      ],
      "name": "getVotesLength",
      "outputs": [
        {
          "internalType": "uint256",
          "name": "",
          "type": "uint256"
        }
      ],
      "stateMutability": "view",
      "type": "function"
    },
    {
      "inputs": [],
      "name": "joinGame",
      "outputs": [],
      "stateMutability": "payable",
      "type": "function"
    },
    {
      "inputs": [
        {
          "internalType": "uint256",
          "name": "",
          "type": "uint256"
        }
      ],
      "name": "pendingPlayers",
      "outputs": [
        {
          "internalType": "address",
          "name": "playerAddress",
          "type": "address"
        },
        {
          "internalType": "uint256",
          "name": "balance",
          "type": "uint256"
        }
      ],
      "stateMutability": "view",
      "type": "function"
    },
    {
      "inputs": [
        {
          "internalType": "uint256",
          "name": "",
          "type": "uint256"
        }
      ],
      "name": "players",
      "outputs": [
        {
          "internalType": "address",
          "name": "playerAddress",
          "type": "address"
        },
        {
          "internalType": "uint256",
          "name": "balance",
          "type": "uint256"
        }
      ],
      "stateMutability": "view",
      "type": "function"
    },
    {
      "inputs": [
        {
          "internalType": "uint256",
          "name": "",
          "type": "uint256"
        }
      ],
      "name": "proposals",
      "outputs": [
        {
          "internalType": "address",
          "name": "proposer",
          "type": "address"
        },
        {
          "internalType": "uint256",
          "name": "value",
          "type": "uint256"
        },
        {
          "internalType": "uint256",
          "name": "ruleIndex",
          "type": "uint256"
        },
        {
          "internalType": "bool",
          "name": "mutabilityChange",
          "type": "bool"
        },
        {
          "internalType": "bool",
          "name": "feePaid",
          "type": "bool"
        },
        {
          "internalType": "bool",
          "name": "complete",
          "type": "bool"
        },
        {
          "internalType": "bool",
          "name": "successful",
          "type": "bool"
        }
      ],
      "stateMutability": "view",
      "type": "function"
    },
    {
      "inputs": [
        {
          "internalType": "uint256",
          "name": "",
          "type": "uint256"
        }
      ],
      "name": "rules",
      "outputs": [
        {
          "internalType": "string",
          "name": "name",
          "type": "string"
        },
        {
          "internalType": "uint256",
          "name": "value",
          "type": "uint256"
        },
        {
          "internalType": "uint256",
          "name": "lowerBound",
          "type": "uint256"
        },
        {
          "internalType": "uint256",
          "name": "upperBound",
          "type": "uint256"
        }
      ],
      "stateMutability": "view",
      "type": "function"
    },
    {
      "inputs": [
        {
          "internalType": "uint256",
          "name": "proposalIndex",
          "type": "uint256"
        },
        {
          "internalType": "bool",
          "name": "vote",
          "type": "bool"
        }
      ],
      "name": "voteOnProposal",
      "outputs": [],
      "stateMutability": "nonpayable",
      "type": "function"
    }
  ],
  "bytecode": "0x60806040526040516200595b3803806200595b833981810160405281019062000029919062000c6d565b600034116200006f576040517f08c379a0000000000000000000000000000000000000000000000000000000008152600401620000669062000cfd565b60405180910390fd5b68056bc75e2d631000003410620000bd576040517f08c379a0000000000000000000000000000000000000000000000000000000008152600401620000b49062000d1f565b60405180910390fd5b600360405180608001604052806040518060400160405280600981526020017f456e7472792066656500000000000000000000000000000000000000000000008152508152602001836000015181526020016000815260200168056bc75e2d63100000815250908060018154018082558091505060019003906000526020600020906004020160009091909190915060008201518160000190805190602001906200016a92919062000a6e565b506020820151816001015560408201518160020155606082015181600301555050600360405180608001604052806040518060400160405280600d81526020017f53746172742062616c616e636500000000000000000000000000000000000000815250815260200183602001518152602001600081526020016103e8815250908060018154018082558091505060019003906000526020600020906004020160009091909190915060008201518160000190805190602001906200023192919062000a6e565b506020820151816001015560408201518160020155606082015181600301555050600360405180608001604052806040518060400160405280600f81526020017f50726f706f73616c20726577617264000000000000000000000000000000000081525081526020018360400151815260200160008152602001633b9aca0081525090806001815401808255809150506001900390600052602060002090600402016000909190919091506000820151816000019080519060200190620002fa92919062000a6e565b506020820151816001015560408201518160020155606082015181600301555050600360405180608001604052806040518060400160405280600881526020017f4d616a6f7269747900000000000000000000000000000000000000000000000081525081526020018360600151815260200160008152602001606481525090806001815401808255809150506001900390600052602060002090600402016000909190919091506000820151816000019080519060200190620003c092919062000a6e565b506020820151816001015560408201518160020155606082015181600301555050600360405180608001604052806040518060400160405280600681526020017f51756f72756d0000000000000000000000000000000000000000000000000000815250815260200183608001518152602001600081526020016064815250908060018154018082558091505060019003906000526020600020906004020160009091909190915060008201518160000190805190602001906200048692919062000a6e565b506020820151816001015560408201518160020155606082015181600301555050600360405180608001604052806040518060400160405280600b81526020017f47616d65206c656e67746800000000000000000000000000000000000000000081525081526020018360a001518152602001600181526020016064815250908060018154018082558091505060019003906000526020600020906004020160009091909190915060008201518160000190805190602001906200054c92919062000a6e565b506020820151816001015560408201518160020155606082015181600301555050600360405180608001604052806040518060400160405280600881526020017f506f6c6c2074617800000000000000000000000000000000000000000000000081525081526020018360c00151815260200160018152602001633b9aca00815250908060018154018082558091505060019003906000526020600020906004020160009091909190915060008201518160000190805190602001906200061592919062000a6e565b506020820151816001015560408201518160020155606082015181600301555050600360405180608001604052806040518060400160405280600a81526020017f5765616c7468207461780000000000000000000000000000000000000000000081525081526020018360e00151815260200160018152602001606481525090806001815401808255809150506001900390600052602060002090600402016000909190919091506000820151816000019080519060200190620006db92919062000a6e565b506020820151816001015560408201518160020155606082015181600301555050600360405180608001604052806040518060400160405280601481526020017f5765616c746820746178207468726573686f6c640000000000000000000000008152508152602001836101000151815260200160008152602001633b9aca0081525090806001815401808255809150506001900390600052602060002090600402016000909190919091506000820151816000019080519060200190620007a592919062000a6e565b506020820151816001015560408201518160020155606082015181600301555050600360405180608001604052806040518060400160405280600c81526020017f50726f706f73616c2066656500000000000000000000000000000000000000008152508152602001836101200151815260200160008152602001633b9aca00815250908060018154018082558091505060019003906000526020600020906004020160009091909190915060008201518160000190805190602001906200086f92919062000a6e565b506020820151816001015560408201518160020155606082015181600301555050600360405180608001604052806040518060400160405280600881526020017f4469766964656e640000000000000000000000000000000000000000000000008152508152602001836101400151815260200160008152602001633b9aca00815250908060018154018082558091505060019003906000526020600020906004020160009091909190915060008201518160000190805190602001906200093992919062000a6e565b506020820151816001015560408201518160020155606082015181600301555050600060026001816001815401808255809150500390600052602060002090600202019050828160000160006101000a81548173ffffffffffffffffffffffffffffffffffffffff021916908373ffffffffffffffffffffffffffffffffffffffff160217905550670de0b6b3a764000060036001600a81111562000a07577f4e487b7100000000000000000000000000000000000000000000000000000000600052602160045260246000fd5b8154811062000a3f577f4e487b7100000000000000000000000000000000000000000000000000000000600052603260045260246000fd5b90600052602060002090600402016001015462000a5d919062000d7b565b816001018190555050505062000fd0565b82805462000a7c9062000e1a565b90600052602060002090601f01602090048101928262000aa0576000855562000aec565b82601f1062000abb57805160ff191683800117855562000aec565b8280016001018555821562000aec579182015b8281111562000aeb57825182559160200191906001019062000ace565b5b50905062000afb919062000aff565b5090565b5b8082111562000b1a57600081600090555060010162000b00565b5090565b60008151905062000b2f8162000f9c565b92915050565b6000610160828403121562000b4957600080fd5b62000b5661016062000d41565b9050600062000b688482850162000c56565b600083015250602062000b7e8482850162000c56565b602083015250604062000b948482850162000c56565b604083015250606062000baa8482850162000c56565b606083015250608062000bc08482850162000c56565b60808301525060a062000bd68482850162000c56565b60a08301525060c062000bec8482850162000c56565b60c08301525060e062000c028482850162000c56565b60e08301525061010062000c198482850162000c56565b6101008301525061012062000c318482850162000c56565b6101208301525061014062000c498482850162000c56565b6101408301525092915050565b60008151905062000c678162000fb6565b92915050565b600080610180838503121562000c8257600080fd5b600062000c928582860162000b1e565b925050602062000ca58582860162000b35565b9150509250929050565b600062000cbe60258362000d6a565b915062000ccb8262000f24565b604082019050919050565b600062000ce560148362000d6a565b915062000cf28262000f73565b602082019050919050565b6000602082019050818103600083015262000d188162000caf565b9050919050565b6000602082019050818103600083015262000d3a8162000cd6565b9050919050565b600062000d4d62000d60565b905062000d5b828262000e50565b919050565b6000604051905090565b600082825260208201905092915050565b600062000d888262000e10565b915062000d958362000e10565b9250817fffffffffffffffffffffffffffffffffffffffffffffffffffffffffffffffff048311821515161562000dd15762000dd062000e86565b5b828202905092915050565b600062000de98262000df0565b9050919050565b600073ffffffffffffffffffffffffffffffffffffffff82169050919050565b6000819050919050565b6000600282049050600182168062000e3357607f821691505b6020821081141562000e4a5762000e4962000eb5565b5b50919050565b62000e5b8262000f13565b810181811067ffffffffffffffff8211171562000e7d5762000e7c62000ee4565b5b80604052505050565b7f4e487b7100000000000000000000000000000000000000000000000000000000600052601160045260246000fd5b7f4e487b7100000000000000000000000000000000000000000000000000000000600052602260045260246000fd5b7f4e487b7100000000000000000000000000000000000000000000000000000000600052604160045260246000fd5b6000601f19601f8301169050919050565b7f4d7573742073656e6420616e20656e7472792066656520746f2063726561746560008201527f2067616d65000000000000000000000000000000000000000000000000000000602082015250565b7f416d6f756e74206d757374206265203c20313030000000000000000000000000600082015250565b62000fa78162000ddc565b811462000fb357600080fd5b50565b62000fc18162000e10565b811462000fcd57600080fd5b50565b61497b8062000fe06000396000f3fe6080604052600436106100e85760003560e01c80638b470d861161008a578063d5b60c6411610059578063d5b60c64146102f2578063e8eb14431461031d578063f71d96cb14610348578063fa06ab7f14610386576100e8565b80638b470d8614610254578063bc378a7314610292578063cd61386d146102bd578063d4f77b1c146102e8576100e8565b806344d9bc5f116100c657806344d9bc5f1461019957806349330cb8146101c45780636935bda6146102025780636ee8db321461022b576100e8565b8063013cf08b146100ed57806304d6ded4146101305780631614665c14610170575b600080fd5b3480156100f957600080fd5b50610114600480360381019061010f9190613a8b565b6103c3565b6040516101279796959493929190613ead565b60405180910390f35b34801561013c57600080fd5b5061015760048036038101906101529190613a8b565b610469565b6040516101679493929190613f1c565b60405180910390f35b34801561017c57600080fd5b5061019760048036038101906101929190613add565b610531565b005b3480156101a557600080fd5b506101ae610a92565b6040516101bb9190614183565b60405180910390f35b3480156101d057600080fd5b506101eb60048036038101906101e69190613b19565b610a98565b6040516101f9929190613dfa565b60405180910390f35b34801561020e57600080fd5b5061022960048036038101906102249190613b19565b610ccc565b005b34801561023757600080fd5b50610252600480360381019061024d9190613a62565b61118f565b005b34801561026057600080fd5b5061027b60048036038101906102769190613a8b565b61155f565b604051610289929190613e23565b60405180910390f35b34801561029e57600080fd5b506102a76115b3565b6040516102b49190614183565b60405180910390f35b3480156102c957600080fd5b506102d26115c0565b6040516102df9190614183565b60405180910390f35b6102f06115cd565b005b3480156102fe57600080fd5b5061030761190a565b6040516103149190614183565b60405180910390f35b34801561032957600080fd5b50610332611917565b60405161033f9190614183565b60405180910390f35b34801561035457600080fd5b5061036f600480360381019061036a9190613a8b565b611924565b60405161037d929190613e23565b60405180910390f35b34801561039257600080fd5b506103ad60048036038101906103a89190613a8b565b611978565b6040516103ba9190614183565b60405180910390f35b600481815481106103d357600080fd5b90600052602060002090600502016000915090508060000160009054906101000a900473ffffffffffffffffffffffffffffffffffffffff16908060010154908060020154908060040160009054906101000a900460ff16908060040160019054906101000a900460ff16908060040160029054906101000a900460ff16908060040160039054906101000a900460ff16905087565b6003818154811061047957600080fd5b906000526020600020906004020160009150905080600001805461049c90614380565b80601f01602080910402602001604051908101604052809291908181526020018280546104c890614380565b80156105155780601f106104ea57610100808354040283529160200191610515565b820191906000526020600020905b8154815290600101906020018083116104f857829003601f168201915b5050505050908060010154908060020154908060030154905084565b600080600090505b6002805490508110156106015760028181548110610580577f4e487b7100000000000000000000000000000000000000000000000000000000600052603260045260246000fd5b906000526020600020906002020160000160009054906101000a900473ffffffffffffffffffffffffffffffffffffffff1673ffffffffffffffffffffffffffffffffffffffff163373ffffffffffffffffffffffffffffffffffffffff1614156105ee5760019150610601565b80806105f9906143b2565b915050610539565b5080610642576040517f08c379a000000000000000000000000000000000000000000000000000000000815260040161063990614148565b60405180910390fd5b60036005600a81111561067e577f4e487b7100000000000000000000000000000000000000000000000000000000600052602160045260246000fd5b815481106106b5577f4e487b7100000000000000000000000000000000000000000000000000000000600052603260045260246000fd5b9060005260206000209060040201600101546106cf6119d0565b60ff1610610712576040517f08c379a000000000000000000000000000000000000000000000000000000000815260040161070990613f68565b60405180910390fd5b6004805490508310610759576040517f08c379a0000000000000000000000000000000000000000000000000000000008152600401610750906140c8565b60405180910390fd5b60048381548110610793577f4e487b7100000000000000000000000000000000000000000000000000000000600052603260045260246000fd5b906000526020600020906005020160040160029054906101000a900460ff16156107f2576040517f08c379a00000000000000000000000000000000000000000000000000000000081526004016107e990614128565b60405180910390fd5b60005b6004848154811061082f577f4e487b7100000000000000000000000000000000000000000000000000000000600052603260045260246000fd5b90600052602060002090600502016003018054905081101561097d573373ffffffffffffffffffffffffffffffffffffffff166004858154811061089c577f4e487b7100000000000000000000000000000000000000000000000000000000600052603260045260246000fd5b906000526020600020906005020160030182815481106108e5577f4e487b7100000000000000000000000000000000000000000000000000000000600052603260045260246000fd5b9060005260206000200160000160009054906101000a900473ffffffffffffffffffffffffffffffffffffffff1673ffffffffffffffffffffffffffffffffffffffff16141561096a576040517f08c379a000000000000000000000000000000000000000000000000000000000815260040161096190614068565b60405180910390fd5b8080610975906143b2565b9150506107f5565b50600483815481106109b8577f4e487b7100000000000000000000000000000000000000000000000000000000600052603260045260246000fd5b906000526020600020906005020160030160405180604001604052803373ffffffffffffffffffffffffffffffffffffffff1681526020018415158152509080600181540180825580915050600190039060005260206000200160009091909190915060008201518160000160006101000a81548173ffffffffffffffffffffffffffffffffffffffff021916908373ffffffffffffffffffffffffffffffffffffffff16021790555060208201518160000160146101000a81548160ff0219169083151502179055505050610a8d83611a6f565b505050565b60005481565b6000806004805490508410610ae2576040517f08c379a0000000000000000000000000000000000000000000000000000000008152600401610ad990613fe8565b60405180910390fd5b60048481548110610b1c577f4e487b7100000000000000000000000000000000000000000000000000000000600052603260045260246000fd5b9060005260206000209060050201600301805490508310610b72576040517f08c379a0000000000000000000000000000000000000000000000000000000008152600401610b6990614088565b60405180910390fd5b60048481548110610bac577f4e487b7100000000000000000000000000000000000000000000000000000000600052603260045260246000fd5b90600052602060002090600502016003018381548110610bf5577f4e487b7100000000000000000000000000000000000000000000000000000000600052603260045260246000fd5b9060005260206000200160000160009054906101000a900473ffffffffffffffffffffffffffffffffffffffff1660048581548110610c5d577f4e487b7100000000000000000000000000000000000000000000000000000000600052603260045260246000fd5b90600052602060002090600502016003018481548110610ca6577f4e487b7100000000000000000000000000000000000000000000000000000000600052603260045260246000fd5b9060005260206000200160000160149054906101000a900460ff16915091509250929050565b60036005600a811115610d08577f4e487b7100000000000000000000000000000000000000000000000000000000600052602160045260246000fd5b81548110610d3f577f4e487b7100000000000000000000000000000000000000000000000000000000600052603260045260246000fd5b906000526020600020906004020160010154610d596119d0565b60ff1610610d9c576040517f08c379a0000000000000000000000000000000000000000000000000000000008152600401610d9390613f68565b60405180910390fd5b600080600090505b600280549050811015610e6c5760028181548110610deb577f4e487b7100000000000000000000000000000000000000000000000000000000600052603260045260246000fd5b906000526020600020906002020160000160009054906101000a900473ffffffffffffffffffffffffffffffffffffffff1673ffffffffffffffffffffffffffffffffffffffff163373ffffffffffffffffffffffffffffffffffffffff161415610e595760019150610e6c565b8080610e64906143b2565b915050610da4565b5080610ead576040517f08c379a0000000000000000000000000000000000000000000000000000000008152600401610ea490614148565b60405180910390fd5b6003805490508310610ef4576040517f08c379a0000000000000000000000000000000000000000000000000000000008152600401610eeb906140a8565b60405180910390fd5b60038381548110610f2e577f4e487b7100000000000000000000000000000000000000000000000000000000600052603260045260246000fd5b9060005260206000209060040201600301548211158015610f9a575060038381548110610f84577f4e487b7100000000000000000000000000000000000000000000000000000000600052603260045260246000fd5b9060005260206000209060040201600201548210155b610fd9576040517f08c379a0000000000000000000000000000000000000000000000000000000008152600401610fd090613fa8565b60405180910390fd5b6000610fe433611fce565b90506000610ff06119d0565b90508160028054905060016002805490508460ff1661100f91906141e3565b61101991906142c4565b6110239190614425565b14611063576040517f08c379a000000000000000000000000000000000000000000000000000000000815260040161105a90614008565b60405180910390fd5b6004805490508160ff16146110ad576040517f08c379a00000000000000000000000000000000000000000000000000000000081526004016110a490614048565b60405180910390fd5b600060046001816001815401808255809150500390600052602060002090600502019050338160000160006101000a81548173ffffffffffffffffffffffffffffffffffffffff021916908373ffffffffffffffffffffffffffffffffffffffff16021790555085816002018190555084816001018190555060018160040160016101000a81548160ff02191690831515021790555061114b6120ed565b6111875760008160040160016101000a81548160ff021916908315150217905550611186600160048054905061118191906142c4565b611a6f565b5b505050505050565b60036005600a8111156111cb577f4e487b7100000000000000000000000000000000000000000000000000000000600052602160045260246000fd5b81548110611202577f4e487b7100000000000000000000000000000000000000000000000000000000600052603260045260246000fd5b90600052602060002090600402016001015461121c6119d0565b60ff161061125f576040517f08c379a000000000000000000000000000000000000000000000000000000000815260040161125690613f68565b60405180910390fd5b600080600090505b60028054905081101561132f57600281815481106112ae577f4e487b7100000000000000000000000000000000000000000000000000000000600052603260045260246000fd5b906000526020600020906002020160000160009054906101000a900473ffffffffffffffffffffffffffffffffffffffff1673ffffffffffffffffffffffffffffffffffffffff163373ffffffffffffffffffffffffffffffffffffffff16141561131c576001915061132f565b8080611327906143b2565b915050611267565b5080611370576040517f08c379a000000000000000000000000000000000000000000000000000000000815260040161136790614148565b60405180910390fd5b600060026001816001815401808255809150500390600052602060002090600202019050828160000160006101000a81548173ffffffffffffffffffffffffffffffffffffffff021916908373ffffffffffffffffffffffffffffffffffffffff160217905550670de0b6b3a764000060036001600a81111561141c577f4e487b7100000000000000000000000000000000000000000000000000000000600052602160045260246000fd5b81548110611453577f4e487b7100000000000000000000000000000000000000000000000000000000600052603260045260246000fd5b90600052602060002090600402016001015461146f919061426a565b81600101819055506001611482846123a5565b815481106114b9577f4e487b7100000000000000000000000000000000000000000000000000000000600052603260045260246000fd5b9060005260206000209060020201600080820160006101000a81549073ffffffffffffffffffffffffffffffffffffffff0219169055600182016000905550507f8095b5c1de2d93f7f4b4a3816ad93e4cb2718a8716b3fa1d49aad9f918b124e18160000160009054906101000a900473ffffffffffffffffffffffffffffffffffffffff168260010154604051611552929190613e23565b60405180910390a1505050565b6001818154811061156f57600080fd5b90600052602060002090600202016000915090508060000160009054906101000a900473ffffffffffffffffffffffffffffffffffffffff16908060010154905082565b6000600480549050905090565b6000600280549050905090565b60036005600a811115611609577f4e487b7100000000000000000000000000000000000000000000000000000000600052602160045260246000fd5b81548110611640577f4e487b7100000000000000000000000000000000000000000000000000000000600052603260045260246000fd5b90600052602060002090600402016001015461165a6119d0565b60ff161061169d576040517f08c379a000000000000000000000000000000000000000000000000000000000815260040161169490613f68565b60405180910390fd5b6116a56124c4565b60005b6001805490508110156117a257600181815481106116ef577f4e487b7100000000000000000000000000000000000000000000000000000000600052603260045260246000fd5b906000526020600020906002020160000160009054906101000a900473ffffffffffffffffffffffffffffffffffffffff1673ffffffffffffffffffffffffffffffffffffffff163373ffffffffffffffffffffffffffffffffffffffff16141561178f576040517f08c379a000000000000000000000000000000000000000000000000000000000815260040161178690613f88565b60405180910390fd5b808061179a906143b2565b9150506116a8565b5060005b6002805490508110156118a057600281815481106117ed577f4e487b7100000000000000000000000000000000000000000000000000000000600052603260045260246000fd5b906000526020600020906002020160000160009054906101000a900473ffffffffffffffffffffffffffffffffffffffff1673ffffffffffffffffffffffffffffffffffffffff163373ffffffffffffffffffffffffffffffffffffffff16141561188d576040517f08c379a0000000000000000000000000000000000000000000000000000000008152600401611884906140e8565b60405180910390fd5b8080611898906143b2565b9150506117a6565b506000600180816001815401808255809150500390600052602060002090600202019050338160000160006101000a81548173ffffffffffffffffffffffffffffffffffffffff021916908373ffffffffffffffffffffffffffffffffffffffff16021790555050565b6000600380549050905090565b6000600180549050905090565b6002818154811061193457600080fd5b90600052602060002090600202016000915090508060000160009054906101000a900473ffffffffffffffffffffffffffffffffffffffff16908060010154905082565b6000600482815481106119b4577f4e487b7100000000000000000000000000000000000000000000000000000000600052603260045260246000fd5b9060005260206000209060050201600301805490509050919050565b6000806000905060005b600480549050811015611a675760048181548110611a21577f4e487b7100000000000000000000000000000000000000000000000000000000600052603260045260246000fd5b906000526020600020906005020160040160029054906101000a900460ff1615611a54578180611a50906143fb565b9250505b8080611a5f906143b2565b9150506119da565b508091505090565b600073__$e84fd790a222e3862b17f02ee13c9fe1a1$__63656fa32e60036004600a811115611ac7577f4e487b7100000000000000000000000000000000000000000000000000000000600052602160045260246000fd5b81548110611afe577f4e487b7100000000000000000000000000000000000000000000000000000000600052603260045260246000fd5b9060005260206000209060040201600101546002805490506040518363ffffffff1660e01b8152600401611b3392919061419e565b60206040518083038186803b158015611b4b57600080fd5b505af4158015611b5f573d6000803e3d6000fd5b505050506040513d601f19601f82011682018060405250810190611b839190613ab4565b90508060048381548110611bc0577f4e487b7100000000000000000000000000000000000000000000000000000000600052603260045260246000fd5b906000526020600020906005020160030180549050101580611c3e57506000151560048381548110611c1b577f4e487b7100000000000000000000000000000000000000000000000000000000600052603260045260246000fd5b906000526020600020906005020160040160019054906101000a900460ff161515145b15611fca57600160048381548110611c7f577f4e487b7100000000000000000000000000000000000000000000000000000000600052603260045260246000fd5b906000526020600020906005020160040160026101000a81548160ff0219169083151502179055506001151560048381548110611ce5577f4e487b7100000000000000000000000000000000000000000000000000000000600052603260045260246000fd5b906000526020600020906005020160040160019054906101000a900460ff1615151415611fa957600080600090505b60048481548110611d4e577f4e487b7100000000000000000000000000000000000000000000000000000000600052603260045260246000fd5b906000526020600020906005020160030180549050811015611e2f5760048481548110611da4577f4e487b7100000000000000000000000000000000000000000000000000000000600052603260045260246000fd5b90600052602060002090600502016003018181548110611ded577f4e487b7100000000000000000000000000000000000000000000000000000000600052603260045260246000fd5b9060005260206000200160000160149054906101000a900460ff1615611e1c578180611e18906143b2565b9250505b8080611e27906143b2565b915050611d14565b50600073__$e84fd790a222e3862b17f02ee13c9fe1a1$__6384f37fd2600380600a811115611e87577f4e487b7100000000000000000000000000000000000000000000000000000000600052602160045260246000fd5b81548110611ebe577f4e487b7100000000000000000000000000000000000000000000000000000000600052603260045260246000fd5b90600052602060002090600402016001015460048781548110611f0a577f4e487b7100000000000000000000000000000000000000000000000000000000600052603260045260246000fd5b9060005260206000209060050201600301805490506040518363ffffffff1660e01b8152600401611f3c92919061419e565b60206040518083038186803b158015611f5457600080fd5b505af4158015611f68573d6000803e3d6000fd5b505050506040513d601f19601f82011682018060405250810190611f8c9190613ab4565b9050600081831190508015611fa557611fa48561258c565b5b5050505b611fb1612a60565b611fb9612f4d565b611fc16132cb565b611fc961359d565b5b5050565b6000806000905060005b6002805490508110156120a5578373ffffffffffffffffffffffffffffffffffffffff1660028281548110612036577f4e487b7100000000000000000000000000000000000000000000000000000000600052603260045260246000fd5b906000526020600020906002020160000160009054906101000a900473ffffffffffffffffffffffffffffffffffffffff1673ffffffffffffffffffffffffffffffffffffffff161415612092576001915080925050506120e8565b808061209d906143b2565b915050611fd8565b50806120e6576040517f08c379a00000000000000000000000000000000000000000000000000000000081526004016120dd90614028565b60405180910390fd5b505b919050565b60008073__$e84fd790a222e3862b17f02ee13c9fe1a1$__63d8916bb960036009600a811115612146577f4e487b7100000000000000000000000000000000000000000000000000000000600052602160045260246000fd5b8154811061217d577f4e487b7100000000000000000000000000000000000000000000000000000000600052603260045260246000fd5b9060005260206000209060040201600101546040518263ffffffff1660e01b81526004016121ab9190614168565b60206040518083038186803b1580156121c357600080fd5b505af41580156121d7573d6000803e3d6000fd5b505050506040513d601f19601f820116820180604052508101906121fb9190613ab4565b9050600061220833611fce565b905060028181548110612244577f4e487b7100000000000000000000000000000000000000000000000000000000600052603260045260246000fd5b906000526020600020906002020160010154821115612268576000925050506123a2565b600082111561239b5781600282815481106122ac577f4e487b7100000000000000000000000000000000000000000000000000000000600052603260045260246000fd5b906000526020600020906002020160010160008282546122cc91906142c4565b925050819055507fe17681b714b3e85dd366451bd41d7a8ddb22b3c20575cb55fb96dfc3e14411a23383600160028581548110612332577f4e487b7100000000000000000000000000000000000000000000000000000000600052603260045260246000fd5b90600052602060002090600202016001015460006009600a811115612380577f4e487b7100000000000000000000000000000000000000000000000000000000600052602160045260246000fd5b60405161239296959493929190613e4c565b60405180910390a15b6001925050505b90565b6000806000905060005b60018054905081101561247c578373ffffffffffffffffffffffffffffffffffffffff166001828154811061240d577f4e487b7100000000000000000000000000000000000000000000000000000000600052603260045260246000fd5b906000526020600020906002020160000160009054906101000a900473ffffffffffffffffffffffffffffffffffffffff1673ffffffffffffffffffffffffffffffffffffffff161415612469576001915080925050506124bf565b8080612474906143b2565b9150506123af565b50806124bd576040517f08c379a00000000000000000000000000000000000000000000000000000000081526004016124b490614108565b60405180910390fd5b505b919050565b60036000600a811115612500577f4e487b7100000000000000000000000000000000000000000000000000000000600052602160045260246000fd5b81548110612537577f4e487b7100000000000000000000000000000000000000000000000000000000600052603260045260246000fd5b906000526020600020906004020160010154341461258a576040517f08c379a000000000000000000000000000000000000000000000000000000000815260040161258190613fc8565b60405180910390fd5b565b6001600482815481106125c8577f4e487b7100000000000000000000000000000000000000000000000000000000600052603260045260246000fd5b906000526020600020906005020160040160036101000a81548160ff02191690831515021790555060006004828154811061262c577f4e487b7100000000000000000000000000000000000000000000000000000000600052603260045260246000fd5b9060005260206000209060050201604051806101000160405290816000820160009054906101000a900473ffffffffffffffffffffffffffffffffffffffff1673ffffffffffffffffffffffffffffffffffffffff1673ffffffffffffffffffffffffffffffffffffffff168152602001600182015481526020016002820154815260200160038201805480602002602001604051908101604052809291908181526020016000905b82821015612774578382906000526020600020016040518060400160405290816000820160009054906101000a900473ffffffffffffffffffffffffffffffffffffffff1673ffffffffffffffffffffffffffffffffffffffff1673ffffffffffffffffffffffffffffffffffffffff1681526020016000820160149054906101000a900460ff161515151581525050815260200190600101906126d5565b5050505081526020016004820160009054906101000a900460ff161515151581526020016004820160019054906101000a900460ff161515151581526020016004820160029054906101000a900460ff161515151581526020016004820160039054906101000a900460ff16151515158152505090508060200151600382604001518154811061282d577f4e487b7100000000000000000000000000000000000000000000000000000000600052603260045260246000fd5b90600052602060002090600402016001018190555060006128518260000151611fce565b9050600073__$e84fd790a222e3862b17f02ee13c9fe1a1$__63d8916bb960036002600a8111156128ab577f4e487b7100000000000000000000000000000000000000000000000000000000600052602160045260246000fd5b815481106128e2577f4e487b7100000000000000000000000000000000000000000000000000000000600052603260045260246000fd5b9060005260206000209060040201600101546040518263ffffffff1660e01b81526004016129109190614168565b60206040518083038186803b15801561292857600080fd5b505af415801561293c573d6000803e3d6000fd5b505050506040513d601f19601f820116820180604052508101906129609190613ab4565b9050806002838154811061299d577f4e487b7100000000000000000000000000000000000000000000000000000000600052603260045260246000fd5b906000526020600020906002020160010160008282546129bd91906141e3565b925050819055507fe17681b714b3e85dd366451bd41d7a8ddb22b3c20575cb55fb96dfc3e14411a2836000015182600060028681548110612a27577f4e487b7100000000000000000000000000000000000000000000000000000000600052603260045260246000fd5b90600052602060002090600202016001015460018860400151604051612a5296959493929190613e4c565b60405180910390a150505050565b60005b600280549050811015612f4a57600073__$e84fd790a222e3862b17f02ee13c9fe1a1$__63d8916bb960036008600a811115612ac8577f4e487b7100000000000000000000000000000000000000000000000000000000600052602160045260246000fd5b81548110612aff577f4e487b7100000000000000000000000000000000000000000000000000000000600052603260045260246000fd5b9060005260206000209060040201600101546040518263ffffffff1660e01b8152600401612b2d9190614168565b60206040518083038186803b158015612b4557600080fd5b505af4158015612b59573d6000803e3d6000fd5b505050506040513d601f19601f82011682018060405250810190612b7d9190613ab4565b9050600060036007600a811115612bbd577f4e487b7100000000000000000000000000000000000000000000000000000000600052602160045260246000fd5b81548110612bf4577f4e487b7100000000000000000000000000000000000000000000000000000000600052603260045260246000fd5b9060005260206000209060040201600101541115612f365760028281548110612c46577f4e487b7100000000000000000000000000000000000000000000000000000000600052603260045260246000fd5b906000526020600020906002020160010154811015612f355760008160028481548110612c9c577f4e487b7100000000000000000000000000000000000000000000000000000000600052603260045260246000fd5b906000526020600020906002020160010154612cb891906142c4565b90506000606460036007600a811115612cfa577f4e487b7100000000000000000000000000000000000000000000000000000000600052602160045260246000fd5b81548110612d31577f4e487b7100000000000000000000000000000000000000000000000000000000600052603260045260246000fd5b90600052602060002090600402016001015483612d4e919061426a565b612d589190614239565b90508060028581548110612d95577f4e487b7100000000000000000000000000000000000000000000000000000000600052603260045260246000fd5b906000526020600020906002020160010154612db191906142c4565b60028581548110612deb577f4e487b7100000000000000000000000000000000000000000000000000000000600052603260045260246000fd5b9060005260206000209060020201600101819055507fe17681b714b3e85dd366451bd41d7a8ddb22b3c20575cb55fb96dfc3e14411a260028581548110612e5b577f4e487b7100000000000000000000000000000000000000000000000000000000600052603260045260246000fd5b906000526020600020906002020160000160009054906101000a900473ffffffffffffffffffffffffffffffffffffffff1682600160028881548110612eca577f4e487b7100000000000000000000000000000000000000000000000000000000600052603260045260246000fd5b90600052602060002090600202016001015460006007600a811115612f18577f4e487b7100000000000000000000000000000000000000000000000000000000600052602160045260246000fd5b604051612f2a96959493929190613e4c565b60405180910390a150505b5b508080612f42906143b2565b915050612a63565b50565b60005b6002805490508110156132c857600073__$e84fd790a222e3862b17f02ee13c9fe1a1$__63d8916bb960036006600a811115612fb5577f4e487b7100000000000000000000000000000000000000000000000000000000600052602160045260246000fd5b81548110612fec577f4e487b7100000000000000000000000000000000000000000000000000000000600052603260045260246000fd5b9060005260206000209060040201600101546040518263ffffffff1660e01b815260040161301a9190614168565b60206040518083038186803b15801561303257600080fd5b505af4158015613046573d6000803e3d6000fd5b505050506040513d601f19601f8201168201806040525081019061306a9190613ab4565b905060008111156132b457600282815481106130af577f4e487b7100000000000000000000000000000000000000000000000000000000600052603260045260246000fd5b90600052602060002090600202016001015481111561311e57600060028381548110613104577f4e487b7100000000000000000000000000000000000000000000000000000000600052603260045260246000fd5b906000526020600020906002020160010181905550613181565b8060028381548110613159577f4e487b7100000000000000000000000000000000000000000000000000000000600052603260045260246000fd5b9060005260206000209060020201600101600082825461317991906142c4565b925050819055505b7fe17681b714b3e85dd366451bd41d7a8ddb22b3c20575cb55fb96dfc3e14411a2600283815481106131dc577f4e487b7100000000000000000000000000000000000000000000000000000000600052603260045260246000fd5b906000526020600020906002020160000160009054906101000a900473ffffffffffffffffffffffffffffffffffffffff168260016002868154811061324b577f4e487b7100000000000000000000000000000000000000000000000000000000600052603260045260246000fd5b90600052602060002090600202016001015460006006600a811115613299577f4e487b7100000000000000000000000000000000000000000000000000000000600052602160045260246000fd5b6040516132ab96959493929190613e4c565b60405180910390a15b5080806132c0906143b2565b915050612f50565b50565b600073__$e84fd790a222e3862b17f02ee13c9fe1a1$__63d8916bb96003600a80811115613322577f4e487b7100000000000000000000000000000000000000000000000000000000600052602160045260246000fd5b81548110613359577f4e487b7100000000000000000000000000000000000000000000000000000000600052603260045260246000fd5b9060005260206000209060040201600101546040518263ffffffff1660e01b81526004016133879190614168565b60206040518083038186803b15801561339f57600080fd5b505af41580156133b3573d6000803e3d6000fd5b505050506040513d601f19601f820116820180604052508101906133d79190613ab4565b905060005b600280549050811015613599578160028281548110613424577f4e487b7100000000000000000000000000000000000000000000000000000000600052603260045260246000fd5b9060005260206000209060020201600101600082825461344491906141e3565b925050819055506000821115613586577fe17681b714b3e85dd366451bd41d7a8ddb22b3c20575cb55fb96dfc3e14411a2600282815481106134af577f4e487b7100000000000000000000000000000000000000000000000000000000600052603260045260246000fd5b906000526020600020906002020160000160009054906101000a900473ffffffffffffffffffffffffffffffffffffffff168360006002858154811061351e577f4e487b7100000000000000000000000000000000000000000000000000000000600052603260045260246000fd5b9060005260206000209060020201600101546000600a8081111561356b577f4e487b7100000000000000000000000000000000000000000000000000000000600052602160045260246000fd5b60405161357d96959493929190613e4c565b60405180910390a15b8080613591906143b2565b9150506133dc565b5050565b60036005600a8111156135d9577f4e487b7100000000000000000000000000000000000000000000000000000000600052602160045260246000fd5b81548110613610577f4e487b7100000000000000000000000000000000000000000000000000000000600052603260045260246000fd5b90600052602060002090600402016001015460048054905010613a0c5742600081905550600080479050600060028054905067ffffffffffffffff811115613681577f4e487b7100000000000000000000000000000000000000000000000000000000600052604160045260246000fd5b6040519080825280602002602001820160405280156136af5781602001602082028036833780820191505090505b50905060005b6002805490508110156137b457600281815481106136fc577f4e487b7100000000000000000000000000000000000000000000000000000000600052603260045260246000fd5b906000526020600020906002020160010154828281518110613747577f4e487b7100000000000000000000000000000000000000000000000000000000600052603260045260246000fd5b60200260200101818152505081818151811061378c577f4e487b7100000000000000000000000000000000000000000000000000000000600052603260045260246000fd5b60200260200101518461379f91906141e3565b935080806137ac906143b2565b9150506136b5565b5060008314156138875760005b600280549050811015613885576001828281518110613809577f4e487b7100000000000000000000000000000000000000000000000000000000600052603260045260246000fd5b6020026020010181815161381d91906141e3565b9150818152505081818151811061385d577f4e487b7100000000000000000000000000000000000000000000000000000000600052603260045260246000fd5b60200260200101518461387091906141e3565b9350808061387d906143b2565b9150506137c1565b505b60005b600280549050811015613a075760008282815181106138d2577f4e487b7100000000000000000000000000000000000000000000000000000000600052603260045260246000fd5b602002602001015114156138e5576139f4565b60008484848481518110613922577f4e487b7100000000000000000000000000000000000000000000000000000000600052603260045260246000fd5b6020026020010151613934919061426a565b61393e9190614239565b90506002828154811061397a577f4e487b7100000000000000000000000000000000000000000000000000000000600052603260045260246000fd5b906000526020600020906002020160000160009054906101000a900473ffffffffffffffffffffffffffffffffffffffff1673ffffffffffffffffffffffffffffffffffffffff166108fc829081150290604051600060405180830381858888f193505050501580156139f1573d6000803e3d6000fd5b50505b80806139ff906143b2565b91505061388a565b505050505b565b600081359050613a1d81614900565b92915050565b600081359050613a3281614917565b92915050565b600081359050613a478161492e565b92915050565b600081519050613a5c8161492e565b92915050565b600060208284031215613a7457600080fd5b6000613a8284828501613a0e565b91505092915050565b600060208284031215613a9d57600080fd5b6000613aab84828501613a38565b91505092915050565b600060208284031215613ac657600080fd5b6000613ad484828501613a4d565b91505092915050565b60008060408385031215613af057600080fd5b6000613afe85828601613a38565b9250506020613b0f85828601613a23565b9150509250929050565b60008060408385031215613b2c57600080fd5b6000613b3a85828601613a38565b9250506020613b4b85828601613a38565b9150509250929050565b613b5e816142f8565b82525050565b613b6d8161430a565b82525050565b6000613b7e826141c7565b613b8881856141d2565b9350613b9881856020860161434d565b613ba1816144e3565b840191505092915050565b6000613bb9600e836141d2565b9150613bc4826144f4565b602082019050919050565b6000613bdc6022836141d2565b9150613be78261451d565b604082019050919050565b6000613bff6024836141d2565b9150613c0a8261456c565b604082019050919050565b6000613c22602d836141d2565b9150613c2d826145bb565b604082019050919050565b6000613c45601f836141d2565b9150613c508261460a565b602082019050919050565b6000613c68600d836141d2565b9150613c7382614633565b602082019050919050565b6000613c8b6033836141d2565b9150613c968261465c565b604082019050919050565b6000613cae601f836141d2565b9150613cb9826146ab565b602082019050919050565b6000613cd16027836141d2565b9150613cdc826146d4565b604082019050919050565b6000613cf4601b836141d2565b9150613cff82614723565b602082019050919050565b6000613d176024836141d2565b9150613d228261474c565b604082019050919050565b6000613d3a601e836141d2565b9150613d458261479b565b602082019050919050565b6000613d5d6021836141d2565b9150613d68826147c4565b604082019050919050565b6000613d80603b836141d2565b9150613d8b82614813565b604082019050919050565b6000613da36021836141d2565b9150613dae82614862565b604082019050919050565b6000613dc6602f836141d2565b9150613dd1826148b1565b604082019050919050565b613de581614336565b82525050565b613df481614336565b82525050565b6000604082019050613e0f6000830185613b55565b613e1c6020830184613b64565b9392505050565b6000604082019050613e386000830185613b55565b613e456020830184613ddc565b9392505050565b600060c082019050613e616000830189613b55565b613e6e6020830188613ddc565b613e7b6040830187613b64565b613e886060830186613ddc565b613e956080830185613b64565b613ea260a0830184613ddc565b979650505050505050565b600060e082019050613ec2600083018a613b55565b613ecf6020830189613ddc565b613edc6040830188613ddc565b613ee96060830187613b64565b613ef66080830186613b64565b613f0360a0830185613b64565b613f1060c0830184613b64565b98975050505050505050565b60006080820190508181036000830152613f368187613b73565b9050613f456020830186613ddc565b613f526040830185613ddc565b613f5f6060830184613ddc565b95945050505050565b60006020820190508181036000830152613f8181613bac565b9050919050565b60006020820190508181036000830152613fa181613bcf565b9050919050565b60006020820190508181036000830152613fc181613bf2565b9050919050565b60006020820190508181036000830152613fe181613c15565b9050919050565b6000602082019050818103600083015261400181613c38565b9050919050565b6000602082019050818103600083015261402181613c5b565b9050919050565b6000602082019050818103600083015261404181613c7e565b9050919050565b6000602082019050818103600083015261406181613ca1565b9050919050565b6000602082019050818103600083015261408181613cc4565b9050919050565b600060208201905081810360008301526140a181613ce7565b9050919050565b600060208201905081810360008301526140c181613d0a565b9050919050565b600060208201905081810360008301526140e181613d2d565b9050919050565b6000602082019050818103600083015261410181613d50565b9050919050565b6000602082019050818103600083015261412181613d73565b9050919050565b6000602082019050818103600083015261414181613d96565b9050919050565b6000602082019050818103600083015261416181613db9565b9050919050565b600060208201905061417d6000830184613deb565b92915050565b60006020820190506141986000830184613ddc565b92915050565b60006040820190506141b36000830185613deb565b6141c06020830184613deb565b9392505050565b600081519050919050565b600082825260208201905092915050565b60006141ee82614336565b91506141f983614336565b9250827fffffffffffffffffffffffffffffffffffffffffffffffffffffffffffffffff0382111561422e5761422d614456565b5b828201905092915050565b600061424482614336565b915061424f83614336565b92508261425f5761425e614485565b5b828204905092915050565b600061427582614336565b915061428083614336565b9250817fffffffffffffffffffffffffffffffffffffffffffffffffffffffffffffffff04831182151516156142b9576142b8614456565b5b828202905092915050565b60006142cf82614336565b91506142da83614336565b9250828210156142ed576142ec614456565b5b828203905092915050565b600061430382614316565b9050919050565b60008115159050919050565b600073ffffffffffffffffffffffffffffffffffffffff82169050919050565b6000819050919050565b600060ff82169050919050565b60005b8381101561436b578082015181840152602081019050614350565b8381111561437a576000848401525b50505050565b6000600282049050600182168061439857607f821691505b602082108114156143ac576143ab6144b4565b5b50919050565b60006143bd82614336565b91507fffffffffffffffffffffffffffffffffffffffffffffffffffffffffffffffff8214156143f0576143ef614456565b5b600182019050919050565b600061440682614340565b915060ff82141561441a57614419614456565b5b600182019050919050565b600061443082614336565b915061443b83614336565b92508261444b5761444a614485565b5b828206905092915050565b7f4e487b7100000000000000000000000000000000000000000000000000000000600052601160045260246000fd5b7f4e487b7100000000000000000000000000000000000000000000000000000000600052601260045260246000fd5b7f4e487b7100000000000000000000000000000000000000000000000000000000600052602260045260246000fd5b6000601f19601f8301169050919050565b7f47616d652068617320656e646564000000000000000000000000000000000000600082015250565b7f416c72656164792070726f706f73656420746f206a6f696e207468697320676160008201527f6d65000000000000000000000000000000000000000000000000000000000000602082015250565b7f50726f706f73616c2076616c7565206d7573742062652077697468696e20626f60008201527f756e647300000000000000000000000000000000000000000000000000000000602082015250565b7f4d7573742073656e6420726571756972656420656e7472792066656520746f2060008201527f6a6f696e207468652067616d6500000000000000000000000000000000000000602082015250565b7f50726f706f73616c20696e646578206d75737420626520696e2072616e676500600082015250565b7f4e6f7420796f7572207475726e00000000000000000000000000000000000000600082015250565b7f4f7065726174696f6e2072657175657374656420666f7220706c61796572207760008201527f69746820756e6b6e6f776e206164647265737300000000000000000000000000602082015250565b7f4f75747374616e64696e6720696e636f6d706c6574652070726f706f73616c00600082015250565b7f596f75206861766520616c726561647920766f746564206f6e2074686973207060008201527f726f706f73616c00000000000000000000000000000000000000000000000000602082015250565b7f566f746520696e646578206d75737420626520696e2072616e67650000000000600082015250565b7f50726f706f73616c206d757374206170706c7920746f206578697374696e672060008201527f72756c6500000000000000000000000000000000000000000000000000000000602082015250565b7f566f746564206f6e206e6f6e2d6578697374656e742070726f706f73616c0000600082015250565b7f596f75206861766520616c7265616479206a6f696e656420746869732067616d60008201527f6500000000000000000000000000000000000000000000000000000000000000602082015250565b7f4f7065726174696f6e2072657175657374656420666f722070656e64696e672060008201527f706c61796572207769746820756e6b6e6f776e20616464726573730000000000602082015250565b7f43616e6e6f7420766f7465206f6e20636f6d706c657465642070726f706f736160008201527f6c00000000000000000000000000000000000000000000000000000000000000602082015250565b7f4d7573742068617665206a6f696e6564207468652067616d6520746f2063616c60008201527f6c20746869732066756e6374696f6e0000000000000000000000000000000000602082015250565b614909816142f8565b811461491457600080fd5b50565b6149208161430a565b811461492b57600080fd5b50565b61493781614336565b811461494257600080fd5b5056fea264697066735822122074e00423997619c1626e36770007c0ccd9af38cbae24b5b9f80332130a79738f64736f6c63430008010033",
  "linkReferences": {
    "contracts/Game.sol": {
      "Calculations": [
        {
          "length": 20,
          "start": 10835
        },
        {
          "length": 20,
          "start": 11796
        },
        {
          "length": 20,
          "start": 12498
        },
        {
          "length": 20,
          "start": 14391
        },
        {
          "length": 20,
          "start": 14932
        },
        {
          "length": 20,
          "start": 16193
        },
        {
          "length": 20,
          "start": 17071
        }
      ]
    }
  },
  "deployedLinkReferences": {
    "contracts/Game.sol": {
      "Calculations": [
        {
          "length": 20,
          "start": 6771
        },
        {
          "length": 20,
          "start": 7732
        },
        {
          "length": 20,
          "start": 8434
        },
        {
          "length": 20,
          "start": 10327
        },
        {
          "length": 20,
          "start": 10868
        },
        {
          "length": 20,
          "start": 12129
        },
        {
          "length": 20,
          "start": 13007
        }
      ]
    }
  }
}