{
  "_format": "hh-sol-artifact-1",
  "contractName": "Game",
  "sourceName": "contracts/Game.sol",
  "abi": [
    {
      "inputs": [],
      "stateMutability": "nonpayable",
      "type": "constructor"
    },
    {
      "inputs": [
        {
          "internalType": "uint256",
          "name": "ruleIndex",
          "type": "uint256"
        },
        {
          "internalType": "uint256",
          "name": "value",
          "type": "uint256"
        }
      ],
      "name": "createProposal",
      "outputs": [],
      "stateMutability": "nonpayable",
      "type": "function"
    },
    {
      "inputs": [
        {
          "internalType": "uint256",
          "name": "index",
          "type": "uint256"
        }
      ],
      "name": "getPlayers",
      "outputs": [
        {
          "internalType": "address",
          "name": "",
          "type": "address"
        },
        {
          "internalType": "uint256",
          "name": "",
          "type": "uint256"
        }
      ],
      "stateMutability": "view",
      "type": "function"
    },
    {
      "inputs": [],
      "name": "getPlayersLength",
      "outputs": [
        {
          "internalType": "uint256",
          "name": "",
          "type": "uint256"
        }
      ],
      "stateMutability": "view",
      "type": "function"
    },
    {
      "inputs": [
        {
          "internalType": "uint256",
          "name": "index",
          "type": "uint256"
        }
      ],
      "name": "getProposals",
      "outputs": [
        {
          "internalType": "address",
          "name": "",
          "type": "address"
        },
        {
          "internalType": "uint256",
          "name": "",
          "type": "uint256"
        },
        {
          "internalType": "uint256",
          "name": "",
          "type": "uint256"
        }
      ],
      "stateMutability": "view",
      "type": "function"
    },
    {
      "inputs": [],
      "name": "getProposalsLength",
      "outputs": [
        {
          "internalType": "uint256",
          "name": "",
          "type": "uint256"
        }
      ],
      "stateMutability": "view",
      "type": "function"
    },
    {
      "inputs": [
        {
          "internalType": "uint256",
          "name": "index",
          "type": "uint256"
        }
      ],
      "name": "getRules",
      "outputs": [
        {
          "internalType": "string",
          "name": "",
          "type": "string"
        },
        {
          "internalType": "uint256",
          "name": "",
          "type": "uint256"
        },
        {
          "internalType": "uint256",
          "name": "",
          "type": "uint256"
        },
        {
          "internalType": "uint256",
          "name": "",
          "type": "uint256"
        }
      ],
      "stateMutability": "view",
      "type": "function"
    },
    {
      "inputs": [],
      "name": "getRulesLength",
      "outputs": [
        {
          "internalType": "uint256",
          "name": "",
          "type": "uint256"
        }
      ],
      "stateMutability": "view",
      "type": "function"
    },
    {
      "inputs": [
        {
          "internalType": "uint256",
          "name": "proposalIndex",
          "type": "uint256"
        },
        {
          "internalType": "uint256",
          "name": "voteIndex",
          "type": "uint256"
        }
      ],
      "name": "getVote",
      "outputs": [
        {
          "internalType": "address",
          "name": "",
          "type": "address"
        },
        {
          "internalType": "bool",
          "name": "",
          "type": "bool"
        }
      ],
      "stateMutability": "view",
      "type": "function"
    },
    {
      "inputs": [],
      "name": "joinGame",
      "outputs": [],
      "stateMutability": "payable",
      "type": "function"
    },
    {
      "inputs": [
        {
          "internalType": "uint256",
          "name": "",
          "type": "uint256"
        }
      ],
      "name": "players",
      "outputs": [
        {
          "internalType": "address",
          "name": "playerAddress",
          "type": "address"
        },
        {
          "internalType": "uint256",
          "name": "balance",
          "type": "uint256"
        }
      ],
      "stateMutability": "view",
      "type": "function"
    },
    {
      "inputs": [
        {
          "internalType": "uint256",
          "name": "",
          "type": "uint256"
        }
      ],
      "name": "proposals",
      "outputs": [
        {
          "internalType": "address",
          "name": "proposer",
          "type": "address"
        },
        {
          "internalType": "uint256",
          "name": "value",
          "type": "uint256"
        },
        {
          "internalType": "uint256",
          "name": "ruleIndex",
          "type": "uint256"
        },
        {
          "internalType": "bool",
          "name": "mutabilityChange",
          "type": "bool"
        },
        {
          "internalType": "bool",
          "name": "proposedMutability",
          "type": "bool"
        },
        {
          "internalType": "bool",
          "name": "complete",
          "type": "bool"
        },
        {
          "internalType": "bool",
          "name": "successful",
          "type": "bool"
        }
      ],
      "stateMutability": "view",
      "type": "function"
    },
    {
      "inputs": [
        {
          "internalType": "uint256",
          "name": "",
          "type": "uint256"
        }
      ],
      "name": "rules",
      "outputs": [
        {
          "internalType": "string",
          "name": "name",
          "type": "string"
        },
        {
          "internalType": "uint256",
          "name": "value",
          "type": "uint256"
        },
        {
          "internalType": "uint256",
          "name": "lowerBound",
          "type": "uint256"
        },
        {
          "internalType": "uint256",
          "name": "upperBound",
          "type": "uint256"
        }
      ],
      "stateMutability": "view",
      "type": "function"
    },
    {
      "inputs": [
        {
          "internalType": "uint256",
          "name": "proposalIndex",
          "type": "uint256"
        },
        {
          "internalType": "bool",
          "name": "vote",
          "type": "bool"
        }
      ],
      "name": "voteOnProposal",
      "outputs": [],
      "stateMutability": "nonpayable",
      "type": "function"
    }
  ],
  "bytecode": "0x60806040523480156200001157600080fd5b50600160405180608001604052806040518060400160405280600f81526020017f50726f706f73616c2072657761726400000000000000000000000000000000008152508152602001600a8152602001600081526020016103e881525090806001815401808255809150506001900390600052602060002090600402016000909190919091506000820151816000019080519060200190620000b592919062000325565b506020820151816001015560408201518160020155606082015181600301555050600160405180608001604052806040518060400160405280600881526020017f4d616a6f72697479000000000000000000000000000000000000000000000000815250815260200160328152602001600081526020016064815250908060018154018082558091505060019003906000526020600020906004020160009091909190915060008201518160000190805190602001906200017892919062000325565b506020820151816001015560408201518160020155606082015181600301555050600160405180608001604052806040518060400160405280600681526020017f51756f72756d0000000000000000000000000000000000000000000000000000815250815260200160328152602001600081526020016064815250908060018154018082558091505060019003906000526020600020906004020160009091909190915060008201518160000190805190602001906200023b92919062000325565b506020820151816001015560408201518160020155606082015181600301555050600160405180608001604052806040518060400160405280600d81526020017f4d61782070726f706f73616c730000000000000000000000000000000000000081525081526020016003815260200160018152602001606481525090806001815401808255809150506001900390600052602060002090600402016000909190919091506000820151816000019080519060200190620002fe92919062000325565b5060208201518160010155604082015181600201556060820151816003015550506200043a565b8280546200033390620003d5565b90600052602060002090601f016020900481019282620003575760008555620003a3565b82601f106200037257805160ff1916838001178555620003a3565b82800160010185558215620003a3579182015b82811115620003a257825182559160200191906001019062000385565b5b509050620003b29190620003b6565b5090565b5b80821115620003d1576000816000905550600101620003b7565b5090565b60006002820490506001821680620003ee57607f821691505b602082108114156200040557620004046200040b565b5b50919050565b7f4e487b7100000000000000000000000000000000000000000000000000000000600052602260045260246000fd5b612ea4806200044a6000396000f3fe6080604052600436106100c25760003560e01c80636935bda61161007f578063cd61386d11610059578063cd61386d146102c2578063d4f77b1c146102ed578063d5b60c64146102f7578063f71d96cb14610322576100c2565b80636935bda61461022e5780638f7daf0f14610257578063bc378a7314610297576100c2565b8063013cf08b146100c757806304d6ded41461010a5780631614665c1461014a5780632c72fdfc14610173578063460e2049146101b257806349330cb8146101f0575b600080fd5b3480156100d357600080fd5b506100ee60048036038101906100e99190612319565b610360565b604051610101979695949392919061263f565b60405180910390f35b34801561011657600080fd5b50610131600480360381019061012c9190612319565b610406565b60405161014194939291906126de565b60405180910390f35b34801561015657600080fd5b50610171600480360381019061016c919061236b565b6104ce565b005b34801561017f57600080fd5b5061019a60048036038101906101959190612319565b610a40565b6040516101a993929190612608565b60405180910390f35b3480156101be57600080fd5b506101d960048036038101906101d49190612319565b610b56565b6040516101e79291906125df565b60405180910390f35b3480156101fc57600080fd5b50610217600480360381019061021291906123a7565b610c1a565b6040516102259291906125b6565b60405180910390f35b34801561023a57600080fd5b50610255600480360381019061025091906123a7565b610e4e565b005b34801561026357600080fd5b5061027e60048036038101906102799190612319565b611232565b60405161028e94939291906126de565b60405180910390f35b3480156102a357600080fd5b506102ac611403565b6040516102b9919061286a565b60405180910390f35b3480156102ce57600080fd5b506102d7611410565b6040516102e4919061286a565b60405180910390f35b6102f561141c565b005b34801561030357600080fd5b5061030c611706565b604051610319919061286a565b60405180910390f35b34801561032e57600080fd5b5061034960048036038101906103449190612319565b611713565b6040516103579291906125df565b60405180910390f35b6002818154811061037057600080fd5b90600052602060002090600502016000915090508060000160009054906101000a900473ffffffffffffffffffffffffffffffffffffffff16908060010154908060020154908060040160009054906101000a900460ff16908060040160019054906101000a900460ff16908060040160029054906101000a900460ff16908060040160039054906101000a900460ff16905087565b6001818154811061041657600080fd5b906000526020600020906004020160009150905080600001805461043990612a33565b80601f016020809104026020016040519081016040528092919081815260200182805461046590612a33565b80156104b25780601f10610487576101008083540402835291602001916104b2565b820191906000526020600020905b81548152906001019060200180831161049557829003601f168201915b5050505050908060010154908060020154908060030154905084565b600080600090505b60008054905081101561059e576000818154811061051d577f4e487b7100000000000000000000000000000000000000000000000000000000600052603260045260246000fd5b906000526020600020906002020160000160009054906101000a900473ffffffffffffffffffffffffffffffffffffffff1673ffffffffffffffffffffffffffffffffffffffff163373ffffffffffffffffffffffffffffffffffffffff16141561058b576001915061059e565b808061059690612a65565b9150506104d6565b50806105df576040517f08c379a00000000000000000000000000000000000000000000000000000000081526004016105d6906127aa565b60405180910390fd5b600080600090505b600280549050811015610674576002818154811061062e577f4e487b7100000000000000000000000000000000000000000000000000000000600052603260045260246000fd5b906000526020600020906005020160040160029054906101000a900460ff161561066157818061065d90612aae565b9250505b808061066c90612a65565b9150506105e7565b5060016003815481106106b0577f4e487b7100000000000000000000000000000000000000000000000000000000600052603260045260246000fd5b9060005260206000209060040201600101548160ff1610610706576040517f08c379a00000000000000000000000000000000000000000000000000000000081526004016106fd9061280a565b60405180910390fd5b60028481548110610740577f4e487b7100000000000000000000000000000000000000000000000000000000600052603260045260246000fd5b906000526020600020906005020160040160029054906101000a900460ff161561079f576040517f08c379a00000000000000000000000000000000000000000000000000000000081526004016107969061284a565b60405180910390fd5b60005b600285815481106107dc577f4e487b7100000000000000000000000000000000000000000000000000000000600052603260045260246000fd5b90600052602060002090600502016003018054905081101561092a573373ffffffffffffffffffffffffffffffffffffffff1660028681548110610849577f4e487b7100000000000000000000000000000000000000000000000000000000600052603260045260246000fd5b90600052602060002090600502016003018281548110610892577f4e487b7100000000000000000000000000000000000000000000000000000000600052603260045260246000fd5b9060005260206000200160000160009054906101000a900473ffffffffffffffffffffffffffffffffffffffff1673ffffffffffffffffffffffffffffffffffffffff161415610917576040517f08c379a000000000000000000000000000000000000000000000000000000000815260040161090e906127ca565b60405180910390fd5b808061092290612a65565b9150506107a2565b5060028481548110610965577f4e487b7100000000000000000000000000000000000000000000000000000000600052603260045260246000fd5b906000526020600020906005020160030160405180604001604052803373ffffffffffffffffffffffffffffffffffffffff1681526020018515158152509080600181540180825580915050600190039060005260206000200160009091909190915060008201518160000160006101000a81548173ffffffffffffffffffffffffffffffffffffffff021916908373ffffffffffffffffffffffffffffffffffffffff16021790555060208201518160000160146101000a81548160ff0219169083151502179055505050610a3a84611767565b50505050565b600080600060028481548110610a7f577f4e487b7100000000000000000000000000000000000000000000000000000000600052603260045260246000fd5b906000526020600020906005020160000160009054906101000a900473ffffffffffffffffffffffffffffffffffffffff1660028581548110610aeb577f4e487b7100000000000000000000000000000000000000000000000000000000600052603260045260246000fd5b90600052602060002090600502016002015460028681548110610b37577f4e487b7100000000000000000000000000000000000000000000000000000000600052603260045260246000fd5b9060005260206000209060050201600101549250925092509193909250565b60008060008381548110610b93577f4e487b7100000000000000000000000000000000000000000000000000000000600052603260045260246000fd5b906000526020600020906002020160000160009054906101000a900473ffffffffffffffffffffffffffffffffffffffff1660008481548110610bff577f4e487b7100000000000000000000000000000000000000000000000000000000600052603260045260246000fd5b90600052602060002090600202016001015491509150915091565b6000806002805490508410610c64576040517f08c379a0000000000000000000000000000000000000000000000000000000008152600401610c5b9061278a565b60405180910390fd5b60028481548110610c9e577f4e487b7100000000000000000000000000000000000000000000000000000000600052603260045260246000fd5b9060005260206000209060050201600301805490508310610cf4576040517f08c379a0000000000000000000000000000000000000000000000000000000008152600401610ceb906127ea565b60405180910390fd5b60028481548110610d2e577f4e487b7100000000000000000000000000000000000000000000000000000000600052603260045260246000fd5b90600052602060002090600502016003018381548110610d77577f4e487b7100000000000000000000000000000000000000000000000000000000600052603260045260246000fd5b9060005260206000200160000160009054906101000a900473ffffffffffffffffffffffffffffffffffffffff1660028581548110610ddf577f4e487b7100000000000000000000000000000000000000000000000000000000600052603260045260246000fd5b90600052602060002090600502016003018481548110610e28577f4e487b7100000000000000000000000000000000000000000000000000000000600052603260045260246000fd5b9060005260206000200160000160149054906101000a900460ff16915091509250929050565b600080600090505b600280549050811015610ee35760028181548110610e9d577f4e487b7100000000000000000000000000000000000000000000000000000000600052603260045260246000fd5b906000526020600020906005020160040160029054906101000a900460ff1615610ed0578180610ecc90612aae565b9250505b8080610edb90612a65565b915050610e56565b506001600381548110610f1f577f4e487b7100000000000000000000000000000000000000000000000000000000600052603260045260246000fd5b9060005260206000209060040201600101548160ff1610610f75576040517f08c379a0000000000000000000000000000000000000000000000000000000008152600401610f6c9061280a565b60405180910390fd5b600080600090505b6000805490508110156110455760008181548110610fc4577f4e487b7100000000000000000000000000000000000000000000000000000000600052603260045260246000fd5b906000526020600020906002020160000160009054906101000a900473ffffffffffffffffffffffffffffffffffffffff1673ffffffffffffffffffffffffffffffffffffffff163373ffffffffffffffffffffffffffffffffffffffff1614156110325760019150611045565b808061103d90612a65565b915050610f7d565b5080611086576040517f08c379a000000000000000000000000000000000000000000000000000000000815260040161107d906127aa565b60405180910390fd5b60018054905084106110cd576040517f08c379a00000000000000000000000000000000000000000000000000000000081526004016110c49061274a565b60405180910390fd5b60018481548110611107577f4e487b7100000000000000000000000000000000000000000000000000000000600052603260045260246000fd5b906000526020600020906004020160030154831115801561117357506001848154811061115d577f4e487b7100000000000000000000000000000000000000000000000000000000600052603260045260246000fd5b9060005260206000209060040201600201548310155b6111b2576040517f08c379a00000000000000000000000000000000000000000000000000000000081526004016111a99061272a565b60405180910390fd5b600060026001816001815401808255809150500390600052602060002090600502019050338160000160006101000a81548173ffffffffffffffffffffffffffffffffffffffff021916908373ffffffffffffffffffffffffffffffffffffffff1602179055508481600201819055508381600101819055505050505050565b6060600080600060018581548110611273577f4e487b7100000000000000000000000000000000000000000000000000000000600052603260045260246000fd5b9060005260206000209060040201600001600186815481106112be577f4e487b7100000000000000000000000000000000000000000000000000000000600052603260045260246000fd5b9060005260206000209060040201600101546001878154811061130a577f4e487b7100000000000000000000000000000000000000000000000000000000600052603260045260246000fd5b90600052602060002090600402016002015460018881548110611356577f4e487b7100000000000000000000000000000000000000000000000000000000600052603260045260246000fd5b90600052602060002090600402016003015483805461137490612a33565b80601f01602080910402602001604051908101604052809291908181526020018280546113a090612a33565b80156113ed5780601f106113c2576101008083540402835291602001916113ed565b820191906000526020600020905b8154815290600101906020018083116113d057829003601f168201915b5050505050935093509350935093509193509193565b6000600280549050905090565b60008080549050905090565b600080600090505b6002805490508110156114b1576002818154811061146b577f4e487b7100000000000000000000000000000000000000000000000000000000600052603260045260246000fd5b906000526020600020906005020160040160029054906101000a900460ff161561149e57818061149a90612aae565b9250505b80806114a990612a65565b915050611424565b5060016003815481106114ed577f4e487b7100000000000000000000000000000000000000000000000000000000600052603260045260246000fd5b9060005260206000209060040201600101548160ff1610611543576040517f08c379a000000000000000000000000000000000000000000000000000000000815260040161153a9061280a565b60405180910390fd5b674563918244f40000341461158d576040517f08c379a00000000000000000000000000000000000000000000000000000000081526004016115849061276a565b60405180910390fd5b60005b60008054905081101561168a57600081815481106115d7577f4e487b7100000000000000000000000000000000000000000000000000000000600052603260045260246000fd5b906000526020600020906002020160000160009054906101000a900473ffffffffffffffffffffffffffffffffffffffff1673ffffffffffffffffffffffffffffffffffffffff163373ffffffffffffffffffffffffffffffffffffffff161415611677576040517f08c379a000000000000000000000000000000000000000000000000000000000815260040161166e9061282a565b60405180910390fd5b808061168290612a65565b915050611590565b506000806001816001815401808255809150500390600052602060002090600202019050338160000160006101000a81548173ffffffffffffffffffffffffffffffffffffffff021916908373ffffffffffffffffffffffffffffffffffffffff160217905550674563918244f4000081600101819055505050565b6000600180549050905090565b6000818154811061172357600080fd5b90600052602060002090600202016000915090508060000160009054906101000a900473ffffffffffffffffffffffffffffffffffffffff16908060010154905082565b600073__$e84fd790a222e3862b17f02ee13c9fe1a1$__63656fa32e60016002815481106117be577f4e487b7100000000000000000000000000000000000000000000000000000000600052603260045260246000fd5b9060005260206000209060040201600101546000805490506040518363ffffffff1660e01b81526004016117f3929190612885565b60206040518083038186803b15801561180b57600080fd5b505af415801561181f573d6000803e3d6000fd5b505050506040513d601f19601f820116820180604052508101906118439190612342565b90508060028381548110611880577f4e487b7100000000000000000000000000000000000000000000000000000000600052603260045260246000fd5b90600052602060002090600502016003018054905010611b65576001600283815481106118d6577f4e487b7100000000000000000000000000000000000000000000000000000000600052603260045260246000fd5b906000526020600020906005020160040160026101000a81548160ff021916908315150217905550611906611b69565b600080600090505b60028481548110611948577f4e487b7100000000000000000000000000000000000000000000000000000000600052603260045260246000fd5b906000526020600020906005020160030180549050811015611a29576002848154811061199e577f4e487b7100000000000000000000000000000000000000000000000000000000600052603260045260246000fd5b906000526020600020906005020160030181815481106119e7577f4e487b7100000000000000000000000000000000000000000000000000000000600052603260045260246000fd5b9060005260206000200160000160149054906101000a900460ff1615611a16578180611a1290612a65565b9250505b8080611a2190612a65565b91505061190e565b50600073__$e84fd790a222e3862b17f02ee13c9fe1a1$__6384f37fd260018081548110611a80577f4e487b7100000000000000000000000000000000000000000000000000000000600052603260045260246000fd5b90600052602060002090600402016001015460028781548110611acc577f4e487b7100000000000000000000000000000000000000000000000000000000600052603260045260246000fd5b9060005260206000209060050201600301805490506040518363ffffffff1660e01b8152600401611afe929190612885565b60206040518083038186803b158015611b1657600080fd5b505af4158015611b2a573d6000803e3d6000fd5b505050506040513d601f19601f82011682018060405250810190611b4e9190612342565b905080821115611b6257611b6184611dca565b5b50505b5050565b6001600381548110611ba4577f4e487b7100000000000000000000000000000000000000000000000000000000600052603260045260246000fd5b90600052602060002090600402016001015460028054905010611dc857600080600090505b600080549050811015611c425760008181548110611c10577f4e487b7100000000000000000000000000000000000000000000000000000000600052603260045260246000fd5b90600052602060002090600202016001015482611c2d91906128ca565b91508080611c3a90612a65565b915050611bc9565b50611c826040518060400160405280600b81526020017f62616c616e63652073756d0000000000000000000000000000000000000000008152508261213e565b60005b600080549050811015611dc557600082600080549050674563918244f4000060008581548110611cde577f4e487b7100000000000000000000000000000000000000000000000000000000600052603260045260246000fd5b906000526020600020906002020160010154611cfa9190612951565b611d049190612951565b611d0e9190612920565b905060008281548110611d4a577f4e487b7100000000000000000000000000000000000000000000000000000000600052603260045260246000fd5b906000526020600020906002020160000160009054906101000a900473ffffffffffffffffffffffffffffffffffffffff1673ffffffffffffffffffffffffffffffffffffffff166108fc829081150290604051600060405180830381858888f1935050505050508080611dbd90612a65565b915050611c85565b50505b565b600160028281548110611e06577f4e487b7100000000000000000000000000000000000000000000000000000000600052603260045260246000fd5b906000526020600020906005020160040160036101000a81548160ff021916908315150217905550600060028281548110611e6a577f4e487b7100000000000000000000000000000000000000000000000000000000600052603260045260246000fd5b9060005260206000209060050201604051806101000160405290816000820160009054906101000a900473ffffffffffffffffffffffffffffffffffffffff1673ffffffffffffffffffffffffffffffffffffffff1673ffffffffffffffffffffffffffffffffffffffff168152602001600182015481526020016002820154815260200160038201805480602002602001604051908101604052809291908181526020016000905b82821015611fb2578382906000526020600020016040518060400160405290816000820160009054906101000a900473ffffffffffffffffffffffffffffffffffffffff1673ffffffffffffffffffffffffffffffffffffffff1673ffffffffffffffffffffffffffffffffffffffff1681526020016000820160149054906101000a900460ff16151515158152505081526020019060010190611f13565b5050505081526020016004820160009054906101000a900460ff161515151581526020016004820160019054906101000a900460ff161515151581526020016004820160029054906101000a900460ff161515151581526020016004820160039054906101000a900460ff16151515158152505090508060200151600182604001518154811061206b577f4e487b7100000000000000000000000000000000000000000000000000000000600052603260045260246000fd5b90600052602060002090600402016001018190555060016000815481106120bb577f4e487b7100000000000000000000000000000000000000000000000000000000600052603260045260246000fd5b90600052602060002090600402016001015460006120dc83600001516121da565b81548110612113577f4e487b7100000000000000000000000000000000000000000000000000000000600052603260045260246000fd5b9060005260206000209060020201600101600082825461213391906128ca565b925050819055505050565b6121d682826040516024016121549291906126ae565b6040516020818303038152906040527f9710a9d0000000000000000000000000000000000000000000000000000000007bffffffffffffffffffffffffffffffffffffffffffffffffffffffff19166020820180517bffffffffffffffffffffffffffffffffffffffffffffffffffffffff83818316178352505050506122b1565b5050565b600080600090505b6000805490508110156122aa578273ffffffffffffffffffffffffffffffffffffffff1660008281548110612240577f4e487b7100000000000000000000000000000000000000000000000000000000600052603260045260246000fd5b906000526020600020906002020160000160009054906101000a900473ffffffffffffffffffffffffffffffffffffffff1673ffffffffffffffffffffffffffffffffffffffff16141561229757809150506122ac565b80806122a290612a65565b9150506121e2565b505b919050565b60008151905060006a636f6e736f6c652e6c6f679050602083016000808483855afa5050505050565b6000813590506122e981612e40565b92915050565b6000813590506122fe81612e57565b92915050565b60008151905061231381612e57565b92915050565b60006020828403121561232b57600080fd5b6000612339848285016122ef565b91505092915050565b60006020828403121561235457600080fd5b600061236284828501612304565b91505092915050565b6000806040838503121561237e57600080fd5b600061238c858286016122ef565b925050602061239d858286016122da565b9150509250929050565b600080604083850312156123ba57600080fd5b60006123c8858286016122ef565b92505060206123d9858286016122ef565b9150509250929050565b6123ec816129ab565b82525050565b6123fb816129bd565b82525050565b600061240c826128ae565b61241681856128b9565b9350612426818560208601612a00565b61242f81612b65565b840191505092915050565b60006124476029836128b9565b915061245282612b76565b604082019050919050565b600061246a6027836128b9565b915061247582612bc5565b604082019050919050565b600061248d6025836128b9565b915061249882612c14565b604082019050919050565b60006124b0601f836128b9565b91506124bb82612c63565b602082019050919050565b60006124d36033836128b9565b91506124de82612c8c565b604082019050919050565b60006124f66027836128b9565b915061250182612cdb565b604082019050919050565b6000612519601b836128b9565b915061252482612d2a565b602082019050919050565b600061253c6037836128b9565b915061254782612d53565b604082019050919050565b600061255f6021836128b9565b915061256a82612da2565b604082019050919050565b60006125826026836128b9565b915061258d82612df1565b604082019050919050565b6125a1816129e9565b82525050565b6125b0816129e9565b82525050565b60006040820190506125cb60008301856123e3565b6125d860208301846123f2565b9392505050565b60006040820190506125f460008301856123e3565b6126016020830184612598565b9392505050565b600060608201905061261d60008301866123e3565b61262a6020830185612598565b6126376040830184612598565b949350505050565b600060e082019050612654600083018a6123e3565b6126616020830189612598565b61266e6040830188612598565b61267b60608301876123f2565b61268860808301866123f2565b61269560a08301856123f2565b6126a260c08301846123f2565b98975050505050505050565b600060408201905081810360008301526126c88185612401565b90506126d76020830184612598565b9392505050565b600060808201905081810360008301526126f88187612401565b90506127076020830186612598565b6127146040830185612598565b6127216060830184612598565b95945050505050565b600060208201905081810360008301526127438161243a565b9050919050565b600060208201905081810360008301526127638161245d565b9050919050565b6000602082019050818103600083015261278381612480565b9050919050565b600060208201905081810360008301526127a3816124a3565b9050919050565b600060208201905081810360008301526127c3816124c6565b9050919050565b600060208201905081810360008301526127e3816124e9565b9050919050565b600060208201905081810360008301526128038161250c565b9050919050565b600060208201905081810360008301526128238161252f565b9050919050565b6000602082019050818103600083015261284381612552565b9050919050565b6000602082019050818103600083015261286381612575565b9050919050565b600060208201905061287f6000830184612598565b92915050565b600060408201905061289a60008301856125a7565b6128a760208301846125a7565b9392505050565b600081519050919050565b600082825260208201905092915050565b60006128d5826129e9565b91506128e0836129e9565b9250827fffffffffffffffffffffffffffffffffffffffffffffffffffffffffffffffff0382111561291557612914612ad8565b5b828201905092915050565b600061292b826129e9565b9150612936836129e9565b92508261294657612945612b07565b5b828204905092915050565b600061295c826129e9565b9150612967836129e9565b9250817fffffffffffffffffffffffffffffffffffffffffffffffffffffffffffffffff04831182151516156129a05761299f612ad8565b5b828202905092915050565b60006129b6826129c9565b9050919050565b60008115159050919050565b600073ffffffffffffffffffffffffffffffffffffffff82169050919050565b6000819050919050565b600060ff82169050919050565b60005b83811015612a1e578082015181840152602081019050612a03565b83811115612a2d576000848401525b50505050565b60006002820490506001821680612a4b57607f821691505b60208210811415612a5f57612a5e612b36565b5b50919050565b6000612a70826129e9565b91507fffffffffffffffffffffffffffffffffffffffffffffffffffffffffffffffff821415612aa357612aa2612ad8565b5b600182019050919050565b6000612ab9826129f3565b915060ff821415612acd57612acc612ad8565b5b600182019050919050565b7f4e487b7100000000000000000000000000000000000000000000000000000000600052601160045260246000fd5b7f4e487b7100000000000000000000000000000000000000000000000000000000600052601260045260246000fd5b7f4e487b7100000000000000000000000000000000000000000000000000000000600052602260045260246000fd5b6000601f19601f8301169050919050565b7f50726f706f73616c2076616c7565206d7573742062652077697468696e20727560008201527f6c6520626f756e64730000000000000000000000000000000000000000000000602082015250565b7f50726f706f73616c206d757374206170706c7920746f20616e2065786973746960008201527f6e672072756c6500000000000000000000000000000000000000000000000000602082015250565b7f596f75206d7573742073656e642035207844616920746f206a6f696e2074686560008201527f2067616d65000000000000000000000000000000000000000000000000000000602082015250565b7f50726f706f73616c20696e646578206d75737420626520696e2072616e676500600082015250565b7f596f75206d7573742068617665206a6f696e6564207468652067616d6520746f60008201527f2063616c6c20746869732066756e6374696f6e00000000000000000000000000602082015250565b7f596f75206861766520616c726561647920766f746564206f6e2074686973207060008201527f726f706f73616c00000000000000000000000000000000000000000000000000602082015250565b7f566f746520696e646578206d75737420626520696e2072616e67650000000000600082015250565b7f596f752063616e6e6f7420696e7465726163742077697468207468697320676160008201527f6d6520626563617573652069742068617320656e646564000000000000000000602082015250565b7f596f75206861766520616c7265616479206a6f696e656420746869732067616d60008201527f6500000000000000000000000000000000000000000000000000000000000000602082015250565b7f596f75206d6179206e6f7420766f7465206f6e20636f6d706c6574656420707260008201527f6f706f73616c0000000000000000000000000000000000000000000000000000602082015250565b612e49816129bd565b8114612e5457600080fd5b50565b612e60816129e9565b8114612e6b57600080fd5b5056fea2646970667358221220324fad0dcd7338424ed4e25b4adb28cf6e3669b37ea828a0a08714c2db94e1a864736f6c63430008010033",
  "linkReferences": {
    "contracts/Game.sol": {
      "Calculations": [
        {
          "length": 20,
          "start": 7093
        },
        {
          "length": 20,
          "start": 7800
        }
      ]
    }
  },
  "deployedLinkReferences": {
    "contracts/Game.sol": {
      "Calculations": [
        {
          "length": 20,
          "start": 5995
        },
        {
          "length": 20,
          "start": 6702
        }
      ]
    }
  }
}