{
  "_format": "hh-sol-artifact-1",
  "contractName": "GameFactory",
  "sourceName": "contracts/Game.sol",
  "abi": [
    {
      "anonymous": false,
      "inputs": [
        {
          "indexed": false,
          "internalType": "uint256",
          "name": "gameIndex",
          "type": "uint256"
        },
        {
          "indexed": false,
          "internalType": "address",
          "name": "gameAddress",
          "type": "address"
        }
      ],
      "name": "NewGame",
      "type": "event"
    },
    {
      "inputs": [
        {
          "internalType": "uint256",
          "name": "",
          "type": "uint256"
        }
      ],
      "name": "games",
      "outputs": [
        {
          "internalType": "contract Game",
          "name": "",
          "type": "address"
        }
      ],
      "stateMutability": "view",
      "type": "function"
    },
    {
      "inputs": [],
      "name": "getGamesLength",
      "outputs": [
        {
          "internalType": "uint256",
          "name": "",
          "type": "uint256"
        }
      ],
      "stateMutability": "view",
      "type": "function"
    },
    {
      "inputs": [],
      "name": "newGame",
      "outputs": [],
      "stateMutability": "payable",
      "type": "function"
    }
  ],
  "bytecode": "0x608060405234801561001057600080fd5b506158b5806100206000396000f3fe608060405260043610620000385760003560e01c8063117a5b90146200003d578063654f1ccb14620000815780637d03f5f314620000b1575b600080fd5b3480156200004a57600080fd5b5062000069600480360381019062000063919062000364565b620000bd565b6040516200007891906200055d565b60405180910390f35b3480156200008e57600080fd5b5062000099620000fd565b604051620000a89190620005b9565b60405180910390f35b620000bb62000109565b005b60008181548110620000ce57600080fd5b906000526020600020016000915054906101000a900473ffffffffffffffffffffffffffffffffffffffff1681565b60008080549050905090565b73__$e84fd790a222e3862b17f02ee13c9fe1a1$__63d8916bb960056040518263ffffffff1660e01b81526004016200014391906200057a565b60206040518083038186803b1580156200015c57600080fd5b505af415801562000171573d6000803e3d6000fd5b505050506040513d601f19601f8201168201806040525081019062000197919062000390565b3414620001db576040517f08c379a0000000000000000000000000000000000000000000000000000000008152600401620001d29062000597565b60405180910390fd5b60003433604051806101600160405280600581526020016103e881526020016107d081526020016032815260200160418152602001601e8152602001600081526020016000815260200160008152602001600081526020016000815250604051620002469062000328565b620002539291906200052f565b6040518091039082f090508015801562000271573d6000803e3d6000fd5b5090506000819080600181540180825580915050600190039060005260206000200160009091909190916101000a81548173ffffffffffffffffffffffffffffffffffffffff021916908373ffffffffffffffffffffffffffffffffffffffff1602179055507fb4ab36f4d2fee8698466065c4ee831b4748994cdd8de1c10a834a1d9b945233760016000805490506200030c919062000614565b826040516200031d929190620005d6565b60405180910390a150565b61511e806200076283390190565b600081359050620003478162000747565b92915050565b6000815190506200035e8162000747565b92915050565b6000602082840312156200037757600080fd5b6000620003878482850162000336565b91505092915050565b600060208284031215620003a357600080fd5b6000620003b3848285016200034d565b91505092915050565b620003c7816200064f565b82525050565b620003d8816200068d565b82525050565b620003e981620006b5565b82525050565b6000620003fe60308362000603565b91506200040b82620006f8565b604082019050919050565b610160820160008201516200042f60008501826200050d565b5060208201516200044460208501826200050d565b5060408201516200045960408501826200050d565b5060608201516200046e60608501826200050d565b5060808201516200048360808501826200050d565b5060a08201516200049860a08501826200050d565b5060c0820151620004ad60c08501826200050d565b5060e0820151620004c260e08501826200050d565b50610100820151620004d96101008501826200050d565b50610120820151620004f06101208501826200050d565b50610140820151620005076101408501826200050d565b50505050565b620005188162000683565b82525050565b620005298162000683565b82525050565b600061018082019050620005476000830185620003bc565b62000556602083018462000416565b9392505050565b6000602082019050620005746000830184620003cd565b92915050565b6000602082019050620005916000830184620003de565b92915050565b60006020820190508181036000830152620005b281620003ef565b9050919050565b6000602082019050620005d060008301846200051e565b92915050565b6000604082019050620005ed60008301856200051e565b620005fc6020830184620003bc565b9392505050565b600082825260208201905092915050565b6000620006218262000683565b91506200062e8362000683565b925082821015620006445762000643620006c9565b5b828203905092915050565b60006200065c8262000663565b9050919050565b600073ffffffffffffffffffffffffffffffffffffffff82169050919050565b6000819050919050565b60006200069a82620006a1565b9050919050565b6000620006ae8262000663565b9050919050565b6000620006c28262000683565b9050919050565b7f4e487b7100000000000000000000000000000000000000000000000000000000600052601160045260246000fd5b7f596f75206d7573742073656e642074686520656e74727920666565202835292060008201527f746f2063726561746520612067616d6500000000000000000000000000000000602082015250565b620007528162000683565b81146200075e57600080fd5b5056fe60806040526040516200511e3803806200511e833981810160405281019062000029919062000d46565b600260405180608001604052806040518060400160405280600981526020017f456e747279206665650000000000000000000000000000000000000000000000815250815260200183600001518152602001600081526020016103e881525090806001815401808255809150506001900390600052602060002090600402016000909190919091506000820151816000019080519060200190620000cf92919062000b47565b506020820151816001015560408201518160020155606082015181600301555050600260405180608001604052806040518060400160405280600d81526020017f53746172742062616c616e636500000000000000000000000000000000000000815250815260200183602001518152602001600081526020016103e8815250908060018154018082558091505060019003906000526020600020906004020160009091909190915060008201518160000190805190602001906200019692919062000b47565b506020820151816001015560408201518160020155606082015181600301555050600260405180608001604052806040518060400160405280600f81526020017f50726f706f73616c20726577617264000000000000000000000000000000000081525081526020018360400151815260200160008152602001633b9aca00815250908060018154018082558091505060019003906000526020600020906004020160009091909190915060008201518160000190805190602001906200025f92919062000b47565b506020820151816001015560408201518160020155606082015181600301555050600260405180608001604052806040518060400160405280600881526020017f4d616a6f72697479000000000000000000000000000000000000000000000000815250815260200183606001518152602001600081526020016064815250908060018154018082558091505060019003906000526020600020906004020160009091909190915060008201518160000190805190602001906200032592919062000b47565b506020820151816001015560408201518160020155606082015181600301555050600260405180608001604052806040518060400160405280600681526020017f51756f72756d000000000000000000000000000000000000000000000000000081525081526020018360800151815260200160008152602001606481525090806001815401808255809150506001900390600052602060002090600402016000909190919091506000820151816000019080519060200190620003eb92919062000b47565b506020820151816001015560408201518160020155606082015181600301555050600260405180608001604052806040518060400160405280600b81526020017f47616d65206c656e67746800000000000000000000000000000000000000000081525081526020018360a00151815260200160018152602001606481525090806001815401808255809150506001900390600052602060002090600402016000909190919091506000820151816000019080519060200190620004b192919062000b47565b506020820151816001015560408201518160020155606082015181600301555050600260405180608001604052806040518060400160405280600881526020017f506f6c6c2074617800000000000000000000000000000000000000000000000081525081526020018360c00151815260200160018152602001633b9aca00815250908060018154018082558091505060019003906000526020600020906004020160009091909190915060008201518160000190805190602001906200057a92919062000b47565b506020820151816001015560408201518160020155606082015181600301555050600260405180608001604052806040518060400160405280600a81526020017f5765616c7468207461780000000000000000000000000000000000000000000081525081526020018360e001518152602001600181526020016064815250908060018154018082558091505060019003906000526020600020906004020160009091909190915060008201518160000190805190602001906200064092919062000b47565b506020820151816001015560408201518160020155606082015181600301555050600260405180608001604052806040518060400160405280601481526020017f5765616c746820746178207468726573686f6c640000000000000000000000008152508152602001836101000151815260200160008152602001633b9aca00815250908060018154018082558091505060019003906000526020600020906004020160009091909190915060008201518160000190805190602001906200070a92919062000b47565b506020820151816001015560408201518160020155606082015181600301555050600260405180608001604052806040518060400160405280600c81526020017f50726f706f73616c2066656500000000000000000000000000000000000000008152508152602001836101200151815260200160008152602001633b9aca0081525090806001815401808255809150506001900390600052602060002090600402016000909190919091506000820151816000019080519060200190620007d492919062000b47565b506020820151816001015560408201518160020155606082015181600301555050600260405180608001604052806040518060400160405280600881526020017f4469766964656e640000000000000000000000000000000000000000000000008152508152602001836101400151815260200160008152602001633b9aca00815250908060018154018082558091505060019003906000526020600020906004020160009091909190915060008201518160000190805190602001906200089e92919062000b47565b506020820151816001015560408201518160020155606082015181600301555050620008cf620008e860201b60201c565b620008e082620009d060201b60201c565b505062001086565b6000670de0b6b3a764000090508060026000600a81111562000933577f4e487b7100000000000000000000000000000000000000000000000000000000600052602160045260246000fd5b815481106200096b577f4e487b7100000000000000000000000000000000000000000000000000000000600052603260045260246000fd5b90600052602060002090600402016001015462000989919062000e5a565b3414620009cd576040517f08c379a0000000000000000000000000000000000000000000000000000000008152600401620009c49062000dfe565b60405180910390fd5b50565b6000670de0b6b3a764000090506000600180816001815401808255809150500390600052602060002090600202019050828160000160006101000a81548173ffffffffffffffffffffffffffffffffffffffff021916908373ffffffffffffffffffffffffffffffffffffffff1602179055508160026001600a81111562000a81577f4e487b7100000000000000000000000000000000000000000000000000000000600052602160045260246000fd5b8154811062000ab9577f4e487b7100000000000000000000000000000000000000000000000000000000600052603260045260246000fd5b90600052602060002090600402016001015462000ad7919062000e5a565b81600101819055507f8095b5c1de2d93f7f4b4a3816ad93e4cb2718a8716b3fa1d49aad9f918b124e18160000160009054906101000a900473ffffffffffffffffffffffffffffffffffffffff16826001015460405162000b3a92919062000dd1565b60405180910390a1505050565b82805462000b559062000ef9565b90600052602060002090601f01602090048101928262000b79576000855562000bc5565b82601f1062000b9457805160ff191683800117855562000bc5565b8280016001018555821562000bc5579182015b8281111562000bc457825182559160200191906001019062000ba7565b5b50905062000bd4919062000bd8565b5090565b5b8082111562000bf357600081600090555060010162000bd9565b5090565b60008151905062000c088162001052565b92915050565b6000610160828403121562000c2257600080fd5b62000c2f61016062000e20565b9050600062000c418482850162000d2f565b600083015250602062000c578482850162000d2f565b602083015250604062000c6d8482850162000d2f565b604083015250606062000c838482850162000d2f565b606083015250608062000c998482850162000d2f565b60808301525060a062000caf8482850162000d2f565b60a08301525060c062000cc58482850162000d2f565b60c08301525060e062000cdb8482850162000d2f565b60e08301525061010062000cf28482850162000d2f565b6101008301525061012062000d0a8482850162000d2f565b6101208301525061014062000d228482850162000d2f565b6101408301525092915050565b60008151905062000d40816200106c565b92915050565b600080610180838503121562000d5b57600080fd5b600062000d6b8582860162000bf7565b925050602062000d7e8582860162000c0e565b9150509250929050565b62000d938162000ebb565b82525050565b600062000da860318362000e49565b915062000db58262001003565b604082019050919050565b62000dcb8162000eef565b82525050565b600060408201905062000de8600083018562000d88565b62000df7602083018462000dc0565b9392505050565b6000602082019050818103600083015262000e198162000d99565b9050919050565b600062000e2c62000e3f565b905062000e3a828262000f2f565b919050565b6000604051905090565b600082825260208201905092915050565b600062000e678262000eef565b915062000e748362000eef565b9250817fffffffffffffffffffffffffffffffffffffffffffffffffffffffffffffffff048311821515161562000eb05762000eaf62000f65565b5b828202905092915050565b600062000ec88262000ecf565b9050919050565b600073ffffffffffffffffffffffffffffffffffffffff82169050919050565b6000819050919050565b6000600282049050600182168062000f1257607f821691505b6020821081141562000f295762000f2862000f94565b5b50919050565b62000f3a8262000ff2565b810181811067ffffffffffffffff8211171562000f5c5762000f5b62000fc3565b5b80604052505050565b7f4e487b7100000000000000000000000000000000000000000000000000000000600052601160045260246000fd5b7f4e487b7100000000000000000000000000000000000000000000000000000000600052602260045260246000fd5b7f4e487b7100000000000000000000000000000000000000000000000000000000600052604160045260246000fd5b6000601f19601f8301169050919050565b7f596f75206d7573742073656e6420726571756972656420656e7472792066656560008201527f20746f206a6f696e207468652067616d65000000000000000000000000000000602082015250565b6200105d8162000ebb565b81146200106957600080fd5b50565b620010778162000eef565b81146200108357600080fd5b50565b61408880620010966000396000f3fe6080604052600436106100a75760003560e01c8063bc378a7311610064578063bc378a73146101ea578063cd61386d14610215578063d4f77b1c14610240578063d5b60c641461024a578063f71d96cb14610275578063fa06ab7f146102b3576100a7565b8063013cf08b146100ac57806304d6ded4146100ef5780631614665c1461012f57806344d9bc5f1461015857806349330cb8146101835780636935bda6146101c1575b600080fd5b3480156100b857600080fd5b506100d360048036038101906100ce9190613448565b6102f0565b6040516100e697969594939291906137bb565b60405180910390f35b3480156100fb57600080fd5b5061011660048036038101906101119190613448565b610396565b604051610126949392919061382a565b60405180910390f35b34801561013b57600080fd5b506101566004803603810190610151919061349a565b61045e565b005b34801561016457600080fd5b5061016d610a4f565b60405161017a91906139f1565b60405180910390f35b34801561018f57600080fd5b506101aa60048036038101906101a591906134d6565b610a55565b6040516101b8929190613708565b60405180910390f35b3480156101cd57600080fd5b506101e860048036038101906101e391906134d6565b610c89565b005b3480156101f657600080fd5b506101ff611106565b60405161020c91906139f1565b60405180910390f35b34801561022157600080fd5b5061022a611113565b60405161023791906139f1565b60405180910390f35b610248611120565b005b34801561025657600080fd5b5061025f611391565b60405161026c91906139f1565b60405180910390f35b34801561028157600080fd5b5061029c60048036038101906102979190613448565b61139e565b6040516102aa929190613731565b60405180910390f35b3480156102bf57600080fd5b506102da60048036038101906102d59190613448565b6113f2565b6040516102e791906139f1565b60405180910390f35b6003818154811061030057600080fd5b90600052602060002090600502016000915090508060000160009054906101000a900473ffffffffffffffffffffffffffffffffffffffff16908060010154908060020154908060040160009054906101000a900460ff16908060040160019054906101000a900460ff16908060040160029054906101000a900460ff16908060040160039054906101000a900460ff16905087565b600281815481106103a657600080fd5b90600052602060002090600402016000915090508060000180546103c990613bee565b80601f01602080910402602001604051908101604052809291908181526020018280546103f590613bee565b80156104425780601f1061041757610100808354040283529160200191610442565b820191906000526020600020905b81548152906001019060200180831161042557829003601f168201915b5050505050908060010154908060020154908060030154905084565b600080600090505b60018054905081101561052e57600181815481106104ad577f4e487b7100000000000000000000000000000000000000000000000000000000600052603260045260246000fd5b906000526020600020906002020160000160009054906101000a900473ffffffffffffffffffffffffffffffffffffffff1673ffffffffffffffffffffffffffffffffffffffff163373ffffffffffffffffffffffffffffffffffffffff16141561051b576001915061052e565b808061052690613c20565b915050610466565b508061056f576040517f08c379a0000000000000000000000000000000000000000000000000000000008152600401610566906138f6565b60405180910390fd5b600080600090505b60038054905081101561060457600381815481106105be577f4e487b7100000000000000000000000000000000000000000000000000000000600052603260045260246000fd5b906000526020600020906005020160040160029054906101000a900460ff16156105f15781806105ed90613c69565b9250505b80806105fc90613c20565b915050610577565b5060026005600a811115610641577f4e487b7100000000000000000000000000000000000000000000000000000000600052602160045260246000fd5b81548110610678577f4e487b7100000000000000000000000000000000000000000000000000000000600052603260045260246000fd5b9060005260206000209060040201600101548160ff16106106ce576040517f08c379a00000000000000000000000000000000000000000000000000000000081526004016106c590613976565b60405180910390fd5b6003805490508410610715576040517f08c379a000000000000000000000000000000000000000000000000000000000815260040161070c90613956565b60405180910390fd5b6003848154811061074f577f4e487b7100000000000000000000000000000000000000000000000000000000600052603260045260246000fd5b906000526020600020906005020160040160029054906101000a900460ff16156107ae576040517f08c379a00000000000000000000000000000000000000000000000000000000081526004016107a5906139b6565b60405180910390fd5b60005b600385815481106107eb577f4e487b7100000000000000000000000000000000000000000000000000000000600052603260045260246000fd5b906000526020600020906005020160030180549050811015610939573373ffffffffffffffffffffffffffffffffffffffff1660038681548110610858577f4e487b7100000000000000000000000000000000000000000000000000000000600052603260045260246000fd5b906000526020600020906005020160030182815481106108a1577f4e487b7100000000000000000000000000000000000000000000000000000000600052603260045260246000fd5b9060005260206000200160000160009054906101000a900473ffffffffffffffffffffffffffffffffffffffff1673ffffffffffffffffffffffffffffffffffffffff161415610926576040517f08c379a000000000000000000000000000000000000000000000000000000000815260040161091d90613916565b60405180910390fd5b808061093190613c20565b9150506107b1565b5060038481548110610974577f4e487b7100000000000000000000000000000000000000000000000000000000600052603260045260246000fd5b906000526020600020906005020160030160405180604001604052803373ffffffffffffffffffffffffffffffffffffffff1681526020018515158152509080600181540180825580915050600190039060005260206000200160009091909190915060008201518160000160006101000a81548173ffffffffffffffffffffffffffffffffffffffff021916908373ffffffffffffffffffffffffffffffffffffffff16021790555060208201518160000160146101000a81548160ff0219169083151502179055505050610a498461144a565b50505050565b60005481565b6000806003805490508410610a9f576040517f08c379a0000000000000000000000000000000000000000000000000000000008152600401610a96906138b6565b60405180910390fd5b60038481548110610ad9577f4e487b7100000000000000000000000000000000000000000000000000000000600052603260045260246000fd5b9060005260206000209060050201600301805490508310610b2f576040517f08c379a0000000000000000000000000000000000000000000000000000000008152600401610b2690613936565b60405180910390fd5b60038481548110610b69577f4e487b7100000000000000000000000000000000000000000000000000000000600052603260045260246000fd5b90600052602060002090600502016003018381548110610bb2577f4e487b7100000000000000000000000000000000000000000000000000000000600052603260045260246000fd5b9060005260206000200160000160009054906101000a900473ffffffffffffffffffffffffffffffffffffffff1660038581548110610c1a577f4e487b7100000000000000000000000000000000000000000000000000000000600052603260045260246000fd5b90600052602060002090600502016003018481548110610c63577f4e487b7100000000000000000000000000000000000000000000000000000000600052603260045260246000fd5b9060005260206000200160000160149054906101000a900460ff16915091509250929050565b600080600090505b600380549050811015610d1e5760038181548110610cd8577f4e487b7100000000000000000000000000000000000000000000000000000000600052603260045260246000fd5b906000526020600020906005020160040160029054906101000a900460ff1615610d0b578180610d0790613c69565b9250505b8080610d1690613c20565b915050610c91565b5060026005600a811115610d5b577f4e487b7100000000000000000000000000000000000000000000000000000000600052602160045260246000fd5b81548110610d92577f4e487b7100000000000000000000000000000000000000000000000000000000600052603260045260246000fd5b9060005260206000209060040201600101548160ff1610610de8576040517f08c379a0000000000000000000000000000000000000000000000000000000008152600401610ddf90613976565b60405180910390fd5b600080600090505b600180549050811015610eb85760018181548110610e37577f4e487b7100000000000000000000000000000000000000000000000000000000600052603260045260246000fd5b906000526020600020906002020160000160009054906101000a900473ffffffffffffffffffffffffffffffffffffffff1673ffffffffffffffffffffffffffffffffffffffff163373ffffffffffffffffffffffffffffffffffffffff161415610ea55760019150610eb8565b8080610eb090613c20565b915050610df0565b5080610ef9576040517f08c379a0000000000000000000000000000000000000000000000000000000008152600401610ef0906138f6565b60405180910390fd5b6002805490508410610f40576040517f08c379a0000000000000000000000000000000000000000000000000000000008152600401610f3790613896565b60405180910390fd5b60028481548110610f7a577f4e487b7100000000000000000000000000000000000000000000000000000000600052603260045260246000fd5b9060005260206000209060040201600301548311158015610fe6575060028481548110610fd0577f4e487b7100000000000000000000000000000000000000000000000000000000600052603260045260246000fd5b9060005260206000209060040201600201548310155b611025576040517f08c379a000000000000000000000000000000000000000000000000000000000815260040161101c90613876565b60405180910390fd5b600060036001816001815401808255809150500390600052602060002090600502019050338160000160006101000a81548173ffffffffffffffffffffffffffffffffffffffff021916908373ffffffffffffffffffffffffffffffffffffffff16021790555084816002018190555083816001018190555060018160040160016101000a81548160ff0219169083151502179055506110c36119aa565b6110ff5760008160040160016101000a81548160ff0219169083151502179055506110fe60016003805490506110f99190613b32565b61144a565b5b5050505050565b6000600380549050905090565b6000600180549050905090565b600080600090505b6003805490508110156111b5576003818154811061116f577f4e487b7100000000000000000000000000000000000000000000000000000000600052603260045260246000fd5b906000526020600020906005020160040160029054906101000a900460ff16156111a257818061119e90613c69565b9250505b80806111ad90613c20565b915050611128565b5060026005600a8111156111f2577f4e487b7100000000000000000000000000000000000000000000000000000000600052602160045260246000fd5b81548110611229577f4e487b7100000000000000000000000000000000000000000000000000000000600052603260045260246000fd5b9060005260206000209060040201600101548160ff161061127f576040517f08c379a000000000000000000000000000000000000000000000000000000000815260040161127690613976565b60405180910390fd5b611287611c61565b60005b60018054905081101561138457600181815481106112d1577f4e487b7100000000000000000000000000000000000000000000000000000000600052603260045260246000fd5b906000526020600020906002020160000160009054906101000a900473ffffffffffffffffffffffffffffffffffffffff1673ffffffffffffffffffffffffffffffffffffffff163373ffffffffffffffffffffffffffffffffffffffff161415611371576040517f08c379a000000000000000000000000000000000000000000000000000000000815260040161136890613996565b60405180910390fd5b808061137c90613c20565b91505061128a565b5061138e33611d42565b50565b6000600280549050905090565b600181815481106113ae57600080fd5b90600052602060002090600202016000915090508060000160009054906101000a900473ffffffffffffffffffffffffffffffffffffffff16908060010154905082565b60006003828154811061142e577f4e487b7100000000000000000000000000000000000000000000000000000000600052603260045260246000fd5b9060005260206000209060050201600301805490509050919050565b600073__$e84fd790a222e3862b17f02ee13c9fe1a1$__63656fa32e60026004600a8111156114a2577f4e487b7100000000000000000000000000000000000000000000000000000000600052602160045260246000fd5b815481106114d9577f4e487b7100000000000000000000000000000000000000000000000000000000600052603260045260246000fd5b9060005260206000209060040201600101546001805490506040518363ffffffff1660e01b815260040161150e929190613a0c565b60206040518083038186803b15801561152657600080fd5b505af415801561153a573d6000803e3d6000fd5b505050506040513d601f19601f8201168201806040525081019061155e9190613471565b9050806003838154811061159b577f4e487b7100000000000000000000000000000000000000000000000000000000600052603260045260246000fd5b906000526020600020906005020160030180549050101580611619575060001515600383815481106115f6577f4e487b7100000000000000000000000000000000000000000000000000000000600052603260045260246000fd5b906000526020600020906005020160040160019054906101000a900460ff161515145b156119a65760016003838154811061165a577f4e487b7100000000000000000000000000000000000000000000000000000000600052603260045260246000fd5b906000526020600020906005020160040160026101000a81548160ff02191690831515021790555060011515600383815481106116c0577f4e487b7100000000000000000000000000000000000000000000000000000000600052603260045260246000fd5b906000526020600020906005020160040160019054906101000a900460ff161515141561198557600080600090505b60038481548110611729577f4e487b7100000000000000000000000000000000000000000000000000000000600052603260045260246000fd5b90600052602060002090600502016003018054905081101561180a576003848154811061177f577f4e487b7100000000000000000000000000000000000000000000000000000000600052603260045260246000fd5b906000526020600020906005020160030181815481106117c8577f4e487b7100000000000000000000000000000000000000000000000000000000600052603260045260246000fd5b9060005260206000200160000160149054906101000a900460ff16156117f75781806117f390613c20565b9250505b808061180290613c20565b9150506116ef565b50600073__$e84fd790a222e3862b17f02ee13c9fe1a1$__6384f37fd260026003600a811115611863577f4e487b7100000000000000000000000000000000000000000000000000000000600052602160045260246000fd5b8154811061189a577f4e487b7100000000000000000000000000000000000000000000000000000000600052603260045260246000fd5b906000526020600020906004020160010154600387815481106118e6577f4e487b7100000000000000000000000000000000000000000000000000000000600052603260045260246000fd5b9060005260206000209060050201600301805490506040518363ffffffff1660e01b8152600401611918929190613a0c565b60206040518083038186803b15801561193057600080fd5b505af4158015611944573d6000803e3d6000fd5b505050506040513d601f19601f820116820180604052508101906119689190613471565b90506000818311905080156119815761198085611eb3565b5b5050505b61198d612386565b611995612872565b61199d612bef565b6119a5612ec1565b5b5050565b60008073__$e84fd790a222e3862b17f02ee13c9fe1a1$__63d8916bb960026009600a811115611a03577f4e487b7100000000000000000000000000000000000000000000000000000000600052602160045260246000fd5b81548110611a3a577f4e487b7100000000000000000000000000000000000000000000000000000000600052603260045260246000fd5b9060005260206000209060040201600101546040518263ffffffff1660e01b8152600401611a6891906139d6565b60206040518083038186803b158015611a8057600080fd5b505af4158015611a94573d6000803e3d6000fd5b505050506040513d601f19601f82011682018060405250810190611ab89190613471565b90506000611ac533613332565b905060018181548110611b01577f4e487b7100000000000000000000000000000000000000000000000000000000600052603260045260246000fd5b906000526020600020906002020160010154821115611b2557600092505050611c5e565b6000821115611c57578160018281548110611b69577f4e487b7100000000000000000000000000000000000000000000000000000000600052603260045260246000fd5b90600052602060002090600202016001016000828254611b899190613b32565b925050819055507fe17681b714b3e85dd366451bd41d7a8ddb22b3c20575cb55fb96dfc3e14411a233836001808581548110611bee577f4e487b7100000000000000000000000000000000000000000000000000000000600052603260045260246000fd5b90600052602060002090600202016001015460006009600a811115611c3c577f4e487b7100000000000000000000000000000000000000000000000000000000600052602160045260246000fd5b604051611c4e9695949392919061375a565b60405180910390a15b6001925050505b90565b6000670de0b6b3a764000090508060026000600a811115611cab577f4e487b7100000000000000000000000000000000000000000000000000000000600052602160045260246000fd5b81548110611ce2577f4e487b7100000000000000000000000000000000000000000000000000000000600052603260045260246000fd5b906000526020600020906004020160010154611cfe9190613ad8565b3414611d3f576040517f08c379a0000000000000000000000000000000000000000000000000000000008152600401611d36906138d6565b60405180910390fd5b50565b6000670de0b6b3a764000090506000600180816001815401808255809150500390600052602060002090600202019050828160000160006101000a81548173ffffffffffffffffffffffffffffffffffffffff021916908373ffffffffffffffffffffffffffffffffffffffff1602179055508160026001600a811115611df2577f4e487b7100000000000000000000000000000000000000000000000000000000600052602160045260246000fd5b81548110611e29577f4e487b7100000000000000000000000000000000000000000000000000000000600052603260045260246000fd5b906000526020600020906004020160010154611e459190613ad8565b81600101819055507f8095b5c1de2d93f7f4b4a3816ad93e4cb2718a8716b3fa1d49aad9f918b124e18160000160009054906101000a900473ffffffffffffffffffffffffffffffffffffffff168260010154604051611ea6929190613731565b60405180910390a1505050565b600160038281548110611eef577f4e487b7100000000000000000000000000000000000000000000000000000000600052603260045260246000fd5b906000526020600020906005020160040160036101000a81548160ff021916908315150217905550600060038281548110611f53577f4e487b7100000000000000000000000000000000000000000000000000000000600052603260045260246000fd5b9060005260206000209060050201604051806101000160405290816000820160009054906101000a900473ffffffffffffffffffffffffffffffffffffffff1673ffffffffffffffffffffffffffffffffffffffff1673ffffffffffffffffffffffffffffffffffffffff168152602001600182015481526020016002820154815260200160038201805480602002602001604051908101604052809291908181526020016000905b8282101561209b578382906000526020600020016040518060400160405290816000820160009054906101000a900473ffffffffffffffffffffffffffffffffffffffff1673ffffffffffffffffffffffffffffffffffffffff1673ffffffffffffffffffffffffffffffffffffffff1681526020016000820160149054906101000a900460ff16151515158152505081526020019060010190611ffc565b5050505081526020016004820160009054906101000a900460ff161515151581526020016004820160019054906101000a900460ff161515151581526020016004820160029054906101000a900460ff161515151581526020016004820160039054906101000a900460ff161515151581525050905080602001516002826040015181548110612154577f4e487b7100000000000000000000000000000000000000000000000000000000600052603260045260246000fd5b90600052602060002090600402016001018190555060006121788260000151613332565b9050600073__$e84fd790a222e3862b17f02ee13c9fe1a1$__63d8916bb9600280600a8111156121d1577f4e487b7100000000000000000000000000000000000000000000000000000000600052602160045260246000fd5b81548110612208577f4e487b7100000000000000000000000000000000000000000000000000000000600052603260045260246000fd5b9060005260206000209060040201600101546040518263ffffffff1660e01b815260040161223691906139d6565b60206040518083038186803b15801561224e57600080fd5b505af4158015612262573d6000803e3d6000fd5b505050506040513d601f19601f820116820180604052508101906122869190613471565b905080600183815481106122c3577f4e487b7100000000000000000000000000000000000000000000000000000000600052603260045260246000fd5b906000526020600020906002020160010160008282546122e39190613a51565b925050819055507fe17681b714b3e85dd366451bd41d7a8ddb22b3c20575cb55fb96dfc3e14411a283600001518260006001868154811061234d577f4e487b7100000000000000000000000000000000000000000000000000000000600052603260045260246000fd5b906000526020600020906002020160010154600188604001516040516123789695949392919061375a565b60405180910390a150505050565b60005b60018054905081101561286f57600073__$e84fd790a222e3862b17f02ee13c9fe1a1$__63d8916bb960026008600a8111156123ee577f4e487b7100000000000000000000000000000000000000000000000000000000600052602160045260246000fd5b81548110612425577f4e487b7100000000000000000000000000000000000000000000000000000000600052603260045260246000fd5b9060005260206000209060040201600101546040518263ffffffff1660e01b815260040161245391906139d6565b60206040518083038186803b15801561246b57600080fd5b505af415801561247f573d6000803e3d6000fd5b505050506040513d601f19601f820116820180604052508101906124a39190613471565b9050600060026007600a8111156124e3577f4e487b7100000000000000000000000000000000000000000000000000000000600052602160045260246000fd5b8154811061251a577f4e487b7100000000000000000000000000000000000000000000000000000000600052603260045260246000fd5b906000526020600020906004020160010154111561285b576001828154811061256c577f4e487b7100000000000000000000000000000000000000000000000000000000600052603260045260246000fd5b90600052602060002090600202016001015481101561285a57600081600184815481106125c2577f4e487b7100000000000000000000000000000000000000000000000000000000600052603260045260246000fd5b9060005260206000209060020201600101546125de9190613b32565b90506000606460026007600a811115612620577f4e487b7100000000000000000000000000000000000000000000000000000000600052602160045260246000fd5b81548110612657577f4e487b7100000000000000000000000000000000000000000000000000000000600052603260045260246000fd5b906000526020600020906004020160010154836126749190613ad8565b61267e9190613aa7565b905080600185815481106126bb577f4e487b7100000000000000000000000000000000000000000000000000000000600052603260045260246000fd5b9060005260206000209060020201600101546126d79190613b32565b60018581548110612711577f4e487b7100000000000000000000000000000000000000000000000000000000600052603260045260246000fd5b9060005260206000209060020201600101819055507fe17681b714b3e85dd366451bd41d7a8ddb22b3c20575cb55fb96dfc3e14411a260018581548110612781577f4e487b7100000000000000000000000000000000000000000000000000000000600052603260045260246000fd5b906000526020600020906002020160000160009054906101000a900473ffffffffffffffffffffffffffffffffffffffff168260018088815481106127ef577f4e487b7100000000000000000000000000000000000000000000000000000000600052603260045260246000fd5b90600052602060002090600202016001015460006007600a81111561283d577f4e487b7100000000000000000000000000000000000000000000000000000000600052602160045260246000fd5b60405161284f9695949392919061375a565b60405180910390a150505b5b50808061286790613c20565b915050612389565b50565b60005b600180549050811015612bec57600073__$e84fd790a222e3862b17f02ee13c9fe1a1$__63d8916bb960026006600a8111156128da577f4e487b7100000000000000000000000000000000000000000000000000000000600052602160045260246000fd5b81548110612911577f4e487b7100000000000000000000000000000000000000000000000000000000600052603260045260246000fd5b9060005260206000209060040201600101546040518263ffffffff1660e01b815260040161293f91906139d6565b60206040518083038186803b15801561295757600080fd5b505af415801561296b573d6000803e3d6000fd5b505050506040513d601f19601f8201168201806040525081019061298f9190613471565b90506000811115612bd857600182815481106129d4577f4e487b7100000000000000000000000000000000000000000000000000000000600052603260045260246000fd5b906000526020600020906002020160010154811115612a4357600060018381548110612a29577f4e487b7100000000000000000000000000000000000000000000000000000000600052603260045260246000fd5b906000526020600020906002020160010181905550612aa6565b8060018381548110612a7e577f4e487b7100000000000000000000000000000000000000000000000000000000600052603260045260246000fd5b90600052602060002090600202016001016000828254612a9e9190613b32565b925050819055505b7fe17681b714b3e85dd366451bd41d7a8ddb22b3c20575cb55fb96dfc3e14411a260018381548110612b01577f4e487b7100000000000000000000000000000000000000000000000000000000600052603260045260246000fd5b906000526020600020906002020160000160009054906101000a900473ffffffffffffffffffffffffffffffffffffffff16826001808681548110612b6f577f4e487b7100000000000000000000000000000000000000000000000000000000600052603260045260246000fd5b90600052602060002090600202016001015460006006600a811115612bbd577f4e487b7100000000000000000000000000000000000000000000000000000000600052602160045260246000fd5b604051612bcf9695949392919061375a565b60405180910390a15b508080612be490613c20565b915050612875565b50565b600073__$e84fd790a222e3862b17f02ee13c9fe1a1$__63d8916bb96002600a80811115612c46577f4e487b7100000000000000000000000000000000000000000000000000000000600052602160045260246000fd5b81548110612c7d577f4e487b7100000000000000000000000000000000000000000000000000000000600052603260045260246000fd5b9060005260206000209060040201600101546040518263ffffffff1660e01b8152600401612cab91906139d6565b60206040518083038186803b158015612cc357600080fd5b505af4158015612cd7573d6000803e3d6000fd5b505050506040513d601f19601f82011682018060405250810190612cfb9190613471565b905060005b600180549050811015612ebd578160018281548110612d48577f4e487b7100000000000000000000000000000000000000000000000000000000600052603260045260246000fd5b90600052602060002090600202016001016000828254612d689190613a51565b925050819055506000821115612eaa577fe17681b714b3e85dd366451bd41d7a8ddb22b3c20575cb55fb96dfc3e14411a260018281548110612dd3577f4e487b7100000000000000000000000000000000000000000000000000000000600052603260045260246000fd5b906000526020600020906002020160000160009054906101000a900473ffffffffffffffffffffffffffffffffffffffff1683600060018581548110612e42577f4e487b7100000000000000000000000000000000000000000000000000000000600052603260045260246000fd5b9060005260206000209060020201600101546000600a80811115612e8f577f4e487b7100000000000000000000000000000000000000000000000000000000600052602160045260246000fd5b604051612ea19695949392919061375a565b60405180910390a15b8080612eb590613c20565b915050612d00565b5050565b60026005600a811115612efd577f4e487b7100000000000000000000000000000000000000000000000000000000600052602160045260246000fd5b81548110612f34577f4e487b7100000000000000000000000000000000000000000000000000000000600052603260045260246000fd5b906000526020600020906004020160010154600380549050106133305742600081905550600080479050600060018054905067ffffffffffffffff811115612fa5577f4e487b7100000000000000000000000000000000000000000000000000000000600052604160045260246000fd5b604051908082528060200260200182016040528015612fd35781602001602082028036833780820191505090505b50905060005b6001805490508110156130d85760018181548110613020577f4e487b7100000000000000000000000000000000000000000000000000000000600052603260045260246000fd5b90600052602060002090600202016001015482828151811061306b577f4e487b7100000000000000000000000000000000000000000000000000000000600052603260045260246000fd5b6020026020010181815250508181815181106130b0577f4e487b7100000000000000000000000000000000000000000000000000000000600052603260045260246000fd5b6020026020010151846130c39190613a51565b935080806130d090613c20565b915050612fd9565b5060008314156131ab5760005b6001805490508110156131a957600182828151811061312d577f4e487b7100000000000000000000000000000000000000000000000000000000600052603260045260246000fd5b602002602001018181516131419190613a51565b91508181525050818181518110613181577f4e487b7100000000000000000000000000000000000000000000000000000000600052603260045260246000fd5b6020026020010151846131949190613a51565b935080806131a190613c20565b9150506130e5565b505b60005b60018054905081101561332b5760008282815181106131f6577f4e487b7100000000000000000000000000000000000000000000000000000000600052603260045260246000fd5b6020026020010151141561320957613318565b60008484848481518110613246577f4e487b7100000000000000000000000000000000000000000000000000000000600052603260045260246000fd5b60200260200101516132589190613ad8565b6132629190613aa7565b90506001828154811061329e577f4e487b7100000000000000000000000000000000000000000000000000000000600052603260045260246000fd5b906000526020600020906002020160000160009054906101000a900473ffffffffffffffffffffffffffffffffffffffff1673ffffffffffffffffffffffffffffffffffffffff166108fc829081150290604051600060405180830381858888f19350505050158015613315573d6000803e3d6000fd5b50505b808061332390613c20565b9150506131ae565b505050505b565b600080600090505b600180549050811015613402578273ffffffffffffffffffffffffffffffffffffffff1660018281548110613398577f4e487b7100000000000000000000000000000000000000000000000000000000600052603260045260246000fd5b906000526020600020906002020160000160009054906101000a900473ffffffffffffffffffffffffffffffffffffffff1673ffffffffffffffffffffffffffffffffffffffff1614156133ef5780915050613404565b80806133fa90613c20565b91505061333a565b505b919050565b60008135905061341881614024565b92915050565b60008135905061342d8161403b565b92915050565b6000815190506134428161403b565b92915050565b60006020828403121561345a57600080fd5b60006134688482850161341e565b91505092915050565b60006020828403121561348357600080fd5b600061349184828501613433565b91505092915050565b600080604083850312156134ad57600080fd5b60006134bb8582860161341e565b92505060206134cc85828601613409565b9150509250929050565b600080604083850312156134e957600080fd5b60006134f78582860161341e565b92505060206135088582860161341e565b9150509250929050565b61351b81613b66565b82525050565b61352a81613b78565b82525050565b600061353b82613a35565b6135458185613a40565b9350613555818560208601613bbb565b61355e81613d20565b840191505092915050565b6000613576602983613a40565b915061358182613d31565b604082019050919050565b6000613599602783613a40565b91506135a482613d80565b604082019050919050565b60006135bc601f83613a40565b91506135c782613dcf565b602082019050919050565b60006135df603183613a40565b91506135ea82613df8565b604082019050919050565b6000613602603383613a40565b915061360d82613e47565b604082019050919050565b6000613625602783613a40565b915061363082613e96565b604082019050919050565b6000613648601b83613a40565b915061365382613ee5565b602082019050919050565b600061366b601e83613a40565b915061367682613f0e565b602082019050919050565b600061368e603783613a40565b915061369982613f37565b604082019050919050565b60006136b1602183613a40565b91506136bc82613f86565b604082019050919050565b60006136d4602683613a40565b91506136df82613fd5565b604082019050919050565b6136f381613ba4565b82525050565b61370281613ba4565b82525050565b600060408201905061371d6000830185613512565b61372a6020830184613521565b9392505050565b60006040820190506137466000830185613512565b61375360208301846136ea565b9392505050565b600060c08201905061376f6000830189613512565b61377c60208301886136ea565b6137896040830187613521565b61379660608301866136ea565b6137a36080830185613521565b6137b060a08301846136ea565b979650505050505050565b600060e0820190506137d0600083018a613512565b6137dd60208301896136ea565b6137ea60408301886136ea565b6137f76060830187613521565b6138046080830186613521565b61381160a0830185613521565b61381e60c0830184613521565b98975050505050505050565b600060808201905081810360008301526138448187613530565b905061385360208301866136ea565b61386060408301856136ea565b61386d60608301846136ea565b95945050505050565b6000602082019050818103600083015261388f81613569565b9050919050565b600060208201905081810360008301526138af8161358c565b9050919050565b600060208201905081810360008301526138cf816135af565b9050919050565b600060208201905081810360008301526138ef816135d2565b9050919050565b6000602082019050818103600083015261390f816135f5565b9050919050565b6000602082019050818103600083015261392f81613618565b9050919050565b6000602082019050818103600083015261394f8161363b565b9050919050565b6000602082019050818103600083015261396f8161365e565b9050919050565b6000602082019050818103600083015261398f81613681565b9050919050565b600060208201905081810360008301526139af816136a4565b9050919050565b600060208201905081810360008301526139cf816136c7565b9050919050565b60006020820190506139eb60008301846136f9565b92915050565b6000602082019050613a0660008301846136ea565b92915050565b6000604082019050613a2160008301856136f9565b613a2e60208301846136f9565b9392505050565b600081519050919050565b600082825260208201905092915050565b6000613a5c82613ba4565b9150613a6783613ba4565b9250827fffffffffffffffffffffffffffffffffffffffffffffffffffffffffffffffff03821115613a9c57613a9b613c93565b5b828201905092915050565b6000613ab282613ba4565b9150613abd83613ba4565b925082613acd57613acc613cc2565b5b828204905092915050565b6000613ae382613ba4565b9150613aee83613ba4565b9250817fffffffffffffffffffffffffffffffffffffffffffffffffffffffffffffffff0483118215151615613b2757613b26613c93565b5b828202905092915050565b6000613b3d82613ba4565b9150613b4883613ba4565b925082821015613b5b57613b5a613c93565b5b828203905092915050565b6000613b7182613b84565b9050919050565b60008115159050919050565b600073ffffffffffffffffffffffffffffffffffffffff82169050919050565b6000819050919050565b600060ff82169050919050565b60005b83811015613bd9578082015181840152602081019050613bbe565b83811115613be8576000848401525b50505050565b60006002820490506001821680613c0657607f821691505b60208210811415613c1a57613c19613cf1565b5b50919050565b6000613c2b82613ba4565b91507fffffffffffffffffffffffffffffffffffffffffffffffffffffffffffffffff821415613c5e57613c5d613c93565b5b600182019050919050565b6000613c7482613bae565b915060ff821415613c8857613c87613c93565b5b600182019050919050565b7f4e487b7100000000000000000000000000000000000000000000000000000000600052601160045260246000fd5b7f4e487b7100000000000000000000000000000000000000000000000000000000600052601260045260246000fd5b7f4e487b7100000000000000000000000000000000000000000000000000000000600052602260045260246000fd5b6000601f19601f8301169050919050565b7f50726f706f73616c2076616c7565206d7573742062652077697468696e20727560008201527f6c6520626f756e64730000000000000000000000000000000000000000000000602082015250565b7f50726f706f73616c206d757374206170706c7920746f20616e2065786973746960008201527f6e672072756c6500000000000000000000000000000000000000000000000000602082015250565b7f50726f706f73616c20696e646578206d75737420626520696e2072616e676500600082015250565b7f596f75206d7573742073656e6420726571756972656420656e7472792066656560008201527f20746f206a6f696e207468652067616d65000000000000000000000000000000602082015250565b7f596f75206d7573742068617665206a6f696e6564207468652067616d6520746f60008201527f2063616c6c20746869732066756e6374696f6e00000000000000000000000000602082015250565b7f596f75206861766520616c726561647920766f746564206f6e2074686973207060008201527f726f706f73616c00000000000000000000000000000000000000000000000000602082015250565b7f566f746520696e646578206d75737420626520696e2072616e67650000000000600082015250565b7f566f746564206f6e206e6f6e2d6578697374656e742070726f706f73616c0000600082015250565b7f596f752063616e6e6f7420696e7465726163742077697468207468697320676160008201527f6d6520626563617573652069742068617320656e646564000000000000000000602082015250565b7f596f75206861766520616c7265616479206a6f696e656420746869732067616d60008201527f6500000000000000000000000000000000000000000000000000000000000000602082015250565b7f596f75206d6179206e6f7420766f7465206f6e20636f6d706c6574656420707260008201527f6f706f73616c0000000000000000000000000000000000000000000000000000602082015250565b61402d81613b78565b811461403857600080fd5b50565b61404481613ba4565b811461404f57600080fd5b5056fea2646970667358221220f0be1ebb79ce6309043742b73ea00e37d8aa0dee8851a22adcb5bdfec551518764736f6c63430008010033a2646970667358221220e999da01b1c88fcdfe41b7939efb4f3e4584c5563018e59313b65419e5a37ba464736f6c63430008010033",
  "linkReferences": {
    "contracts/Game.sol": {
      "Calculations": [
        {
          "length": 20,
          "start": 299
        },
        {
          "length": 20,
          "start": 11366
        },
        {
          "length": 20,
          "start": 12327
        },
        {
          "length": 20,
          "start": 12743
        },
        {
          "length": 20,
          "start": 14742
        },
        {
          "length": 20,
          "start": 15282
        },
        {
          "length": 20,
          "start": 16542
        },
        {
          "length": 20,
          "start": 17419
        }
      ]
    }
  },
  "deployedLinkReferences": {
    "contracts/Game.sol": {
      "Calculations": [
        {
          "length": 20,
          "start": 267
        },
        {
          "length": 20,
          "start": 11334
        },
        {
          "length": 20,
          "start": 12295
        },
        {
          "length": 20,
          "start": 12711
        },
        {
          "length": 20,
          "start": 14710
        },
        {
          "length": 20,
          "start": 15250
        },
        {
          "length": 20,
          "start": 16510
        },
        {
          "length": 20,
          "start": 17387
        }
      ]
    }
  }
}