{
  "_format": "hh-sol-artifact-1",
  "contractName": "Game",
  "sourceName": "contracts/Game.sol",
  "abi": [
    {
      "inputs": [
        {
          "internalType": "address",
          "name": "firstPlayer",
          "type": "address"
        },
        {
          "internalType": "uint256",
          "name": "entryFee",
          "type": "uint256"
        },
        {
          "internalType": "uint256",
          "name": "startBalance",
          "type": "uint256"
        },
        {
          "internalType": "uint256",
          "name": "rewardValue",
          "type": "uint256"
        },
        {
          "internalType": "uint256",
          "name": "majorityValue",
          "type": "uint256"
        },
        {
          "internalType": "uint256",
          "name": "quorumValue",
          "type": "uint256"
        },
        {
          "internalType": "uint256",
          "name": "maxProposalsValue",
          "type": "uint256"
        },
        {
          "internalType": "uint256",
          "name": "pollTaxValue",
          "type": "uint256"
        },
        {
          "internalType": "uint256",
          "name": "wealthTaxValue",
          "type": "uint256"
        },
        {
          "internalType": "uint256",
          "name": "wealthTaxThreshold",
          "type": "uint256"
        },
        {
          "internalType": "uint256",
          "name": "proposalCost",
          "type": "uint256"
        }
      ],
      "stateMutability": "payable",
      "type": "constructor"
    },
    {
      "anonymous": false,
      "inputs": [
        {
          "indexed": false,
          "internalType": "uint256",
          "name": "playerIndex",
          "type": "uint256"
        },
        {
          "indexed": false,
          "internalType": "address",
          "name": "playerAddress",
          "type": "address"
        },
        {
          "indexed": false,
          "internalType": "uint256",
          "name": "balance",
          "type": "uint256"
        }
      ],
      "name": "PlayerUpdate",
      "type": "event"
    },
    {
      "anonymous": false,
      "inputs": [
        {
          "indexed": false,
          "internalType": "uint256",
          "name": "proposalIndex",
          "type": "uint256"
        },
        {
          "indexed": false,
          "internalType": "address",
          "name": "proposer",
          "type": "address"
        },
        {
          "indexed": false,
          "internalType": "uint256",
          "name": "ruleIndex",
          "type": "uint256"
        },
        {
          "indexed": false,
          "internalType": "uint256",
          "name": "value",
          "type": "uint256"
        },
        {
          "indexed": false,
          "internalType": "bool",
          "name": "complete",
          "type": "bool"
        },
        {
          "indexed": false,
          "internalType": "bool",
          "name": "successful",
          "type": "bool"
        }
      ],
      "name": "ProposalUpdate",
      "type": "event"
    },
    {
      "anonymous": false,
      "inputs": [
        {
          "indexed": false,
          "internalType": "uint256",
          "name": "ruleIndex",
          "type": "uint256"
        },
        {
          "indexed": false,
          "internalType": "uint256",
          "name": "value",
          "type": "uint256"
        }
      ],
      "name": "RuleUpdate",
      "type": "event"
    },
    {
      "anonymous": false,
      "inputs": [
        {
          "indexed": false,
          "internalType": "uint256",
          "name": "proposalIndex",
          "type": "uint256"
        },
        {
          "indexed": false,
          "internalType": "uint256",
          "name": "voteIndex",
          "type": "uint256"
        },
        {
          "indexed": false,
          "internalType": "address",
          "name": "player",
          "type": "address"
        },
        {
          "indexed": false,
          "internalType": "uint256",
          "name": "vote",
          "type": "uint256"
        }
      ],
      "name": "VoteUpdate",
      "type": "event"
    },
    {
      "inputs": [
        {
          "internalType": "uint256",
          "name": "ruleIndex",
          "type": "uint256"
        },
        {
          "internalType": "uint256",
          "name": "value",
          "type": "uint256"
        }
      ],
      "name": "createProposal",
      "outputs": [],
      "stateMutability": "nonpayable",
      "type": "function"
    },
    {
      "inputs": [],
      "name": "getPlayersLength",
      "outputs": [
        {
          "internalType": "uint256",
          "name": "",
          "type": "uint256"
        }
      ],
      "stateMutability": "view",
      "type": "function"
    },
    {
      "inputs": [],
      "name": "getProposalsLength",
      "outputs": [
        {
          "internalType": "uint256",
          "name": "",
          "type": "uint256"
        }
      ],
      "stateMutability": "view",
      "type": "function"
    },
    {
      "inputs": [],
      "name": "getRulesLength",
      "outputs": [
        {
          "internalType": "uint256",
          "name": "",
          "type": "uint256"
        }
      ],
      "stateMutability": "view",
      "type": "function"
    },
    {
      "inputs": [
        {
          "internalType": "uint256",
          "name": "proposalIndex",
          "type": "uint256"
        },
        {
          "internalType": "uint256",
          "name": "voteIndex",
          "type": "uint256"
        }
      ],
      "name": "getVote",
      "outputs": [
        {
          "internalType": "address",
          "name": "playerAddress",
          "type": "address"
        },
        {
          "internalType": "bool",
          "name": "vote",
          "type": "bool"
        }
      ],
      "stateMutability": "view",
      "type": "function"
    },
    {
      "inputs": [
        {
          "internalType": "uint256",
          "name": "proposalIndex",
          "type": "uint256"
        }
      ],
      "name": "getVotesLength",
      "outputs": [
        {
          "internalType": "uint256",
          "name": "",
          "type": "uint256"
        }
      ],
      "stateMutability": "view",
      "type": "function"
    },
    {
      "inputs": [],
      "name": "joinGame",
      "outputs": [],
      "stateMutability": "payable",
      "type": "function"
    },
    {
      "inputs": [
        {
          "internalType": "uint256",
          "name": "",
          "type": "uint256"
        }
      ],
      "name": "players",
      "outputs": [
        {
          "internalType": "address",
          "name": "playerAddress",
          "type": "address"
        },
        {
          "internalType": "uint256",
          "name": "balance",
          "type": "uint256"
        }
      ],
      "stateMutability": "view",
      "type": "function"
    },
    {
      "inputs": [
        {
          "internalType": "uint256",
          "name": "",
          "type": "uint256"
        }
      ],
      "name": "proposals",
      "outputs": [
        {
          "internalType": "address",
          "name": "proposer",
          "type": "address"
        },
        {
          "internalType": "uint256",
          "name": "value",
          "type": "uint256"
        },
        {
          "internalType": "uint256",
          "name": "ruleIndex",
          "type": "uint256"
        },
        {
          "internalType": "bool",
          "name": "mutabilityChange",
          "type": "bool"
        },
        {
          "internalType": "bool",
          "name": "proposedMutability",
          "type": "bool"
        },
        {
          "internalType": "bool",
          "name": "complete",
          "type": "bool"
        },
        {
          "internalType": "bool",
          "name": "successful",
          "type": "bool"
        }
      ],
      "stateMutability": "view",
      "type": "function"
    },
    {
      "inputs": [
        {
          "internalType": "uint256",
          "name": "",
          "type": "uint256"
        }
      ],
      "name": "rules",
      "outputs": [
        {
          "internalType": "string",
          "name": "name",
          "type": "string"
        },
        {
          "internalType": "uint256",
          "name": "value",
          "type": "uint256"
        },
        {
          "internalType": "uint256",
          "name": "lowerBound",
          "type": "uint256"
        },
        {
          "internalType": "uint256",
          "name": "upperBound",
          "type": "uint256"
        }
      ],
      "stateMutability": "view",
      "type": "function"
    },
    {
      "inputs": [
        {
          "internalType": "uint256",
          "name": "proposalIndex",
          "type": "uint256"
        },
        {
          "internalType": "bool",
          "name": "vote",
          "type": "bool"
        }
      ],
      "name": "voteOnProposal",
      "outputs": [],
      "stateMutability": "nonpayable",
      "type": "function"
    }
  ],
  "bytecode": "0x608060405260405162004bf538038062004bf5833981810160405281019062000029919062000b46565b600160405180608001604052806040518060400160405280600981526020017f456e74727920666565000000000000000000000000000000000000000000000081525081526020018c8152602001600081526020016103e881525090806001815401808255809150506001900390600052602060002090600402016000909190919091506000820151816000019080519060200190620000cb92919062000a68565b506020820151816001015560408201518160020155606082015181600301555050600160405180608001604052806040518060400160405280600d81526020017f53746172742062616c616e63650000000000000000000000000000000000000081525081526020018b8152602001600081526020016103e8815250908060018154018082558091505060019003906000526020600020906004020160009091909190915060008201518160000190805190602001906200018e92919062000a68565b506020820151816001015560408201518160020155606082015181600301555050600160405180608001604052806040518060400160405280600f81526020017f50726f706f73616c20726577617264000000000000000000000000000000000081525081526020018a8152602001600081526020016103e8815250908060018154018082558091505060019003906000526020600020906004020160009091909190915060008201518160000190805190602001906200025192919062000a68565b506020820151816001015560408201518160020155606082015181600301555050600160405180608001604052806040518060400160405280600881526020017f4d616a6f726974790000000000000000000000000000000000000000000000008152508152602001898152602001600081526020016064815250908060018154018082558091505060019003906000526020600020906004020160009091909190915060008201518160000190805190602001906200031392919062000a68565b506020820151816001015560408201518160020155606082015181600301555050600160405180608001604052806040518060400160405280600681526020017f51756f72756d0000000000000000000000000000000000000000000000000000815250815260200188815260200160008152602001606481525090806001815401808255809150506001900390600052602060002090600402016000909190919091506000820151816000019080519060200190620003d592919062000a68565b506020820151816001015560408201518160020155606082015181600301555050600160405180608001604052806040518060400160405280600d81526020017f4d61782070726f706f73616c73000000000000000000000000000000000000008152508152602001878152602001600181526020016064815250908060018154018082558091505060019003906000526020600020906004020160009091909190915060008201518160000190805190602001906200049792919062000a68565b506020820151816001015560408201518160020155606082015181600301555050600160405180608001604052806040518060400160405280600881526020017f506f6c6c207461780000000000000000000000000000000000000000000000008152508152602001868152602001600181526020016103e8815250908060018154018082558091505060019003906000526020600020906004020160009091909190915060008201518160000190805190602001906200055a92919062000a68565b506020820151816001015560408201518160020155606082015181600301555050600160405180608001604052806040518060400160405280600a81526020017f5765616c746820746178000000000000000000000000000000000000000000008152508152602001858152602001600181526020016064815250908060018154018082558091505060019003906000526020600020906004020160009091909190915060008201518160000190805190602001906200061c92919062000a68565b506020820151816001015560408201518160020155606082015181600301555050600160405180608001604052806040518060400160405280601481526020017f5765616c746820746178207468726573686f6c640000000000000000000000008152508152602001848152602001600081526020016103e881525090806001815401808255809150506001900390600052602060002090600402016000909190919091506000820151816000019080519060200190620006df92919062000a68565b506020820151816001015560408201518160020155606082015181600301555050600160405180608001604052806040518060400160405280600c81526020017f50726f706f73616c2066656500000000000000000000000000000000000000008152508152602001838152602001600081526020016103e881525090806001815401808255809150506001900390600052602060002090600402016000909190919091506000820151816000019080519060200190620007a292919062000a68565b506020820151816001015560408201518160020155606082015181600301555050620007d3620007f560201b60201c565b620007e48b620008dd60201b60201c565b505050505050505050505062000ef7565b6000670de0b6b3a764000090508060016000600981111562000840577f4e487b7100000000000000000000000000000000000000000000000000000000600052602160045260246000fd5b8154811062000878577f4e487b7100000000000000000000000000000000000000000000000000000000600052603260045260246000fd5b90600052602060002090600402016001015462000896919062000d06565b3414620008da576040517f08c379a0000000000000000000000000000000000000000000000000000000008152600401620008d19062000c96565b60405180910390fd5b50565b6000670de0b6b3a764000090506000806001816001815401808255809150500390600052602060002090600202019050828160000160006101000a81548173ffffffffffffffffffffffffffffffffffffffff021916908373ffffffffffffffffffffffffffffffffffffffff1602179055508160018060098111156200098d577f4e487b7100000000000000000000000000000000000000000000000000000000600052602160045260246000fd5b81548110620009c5577f4e487b7100000000000000000000000000000000000000000000000000000000600052603260045260246000fd5b906000526020600020906004020160010154620009e3919062000d06565b81600101819055507f47cf72a1319b630ec3083d16054ea77c907fc0b1d6214c3c99fcc34c71c67052600160008054905062000a20919062000d67565b8260000160009054906101000a900473ffffffffffffffffffffffffffffffffffffffff16836001015460405162000a5b9392919062000cb8565b60405180910390a1505050565b82805462000a769062000de0565b90600052602060002090601f01602090048101928262000a9a576000855562000ae6565b82601f1062000ab557805160ff191683800117855562000ae6565b8280016001018555821562000ae6579182015b8281111562000ae557825182559160200191906001019062000ac8565b5b50905062000af5919062000af9565b5090565b5b8082111562000b1457600081600090555060010162000afa565b5090565b60008151905062000b298162000ec3565b92915050565b60008151905062000b408162000edd565b92915050565b60008060008060008060008060008060006101608c8e03121562000b6957600080fd5b600062000b798e828f0162000b18565b9b5050602062000b8c8e828f0162000b2f565b9a5050604062000b9f8e828f0162000b2f565b995050606062000bb28e828f0162000b2f565b985050608062000bc58e828f0162000b2f565b97505060a062000bd88e828f0162000b2f565b96505060c062000beb8e828f0162000b2f565b95505060e062000bfe8e828f0162000b2f565b94505061010062000c128e828f0162000b2f565b93505061012062000c268e828f0162000b2f565b92505061014062000c3a8e828f0162000b2f565b9150509295989b509295989b9093969950565b62000c588162000da2565b82525050565b600062000c6d60318362000cf5565b915062000c7a8262000e74565b604082019050919050565b62000c908162000dd6565b82525050565b6000602082019050818103600083015262000cb18162000c5e565b9050919050565b600060608201905062000ccf600083018662000c85565b62000cde602083018562000c4d565b62000ced604083018462000c85565b949350505050565b600082825260208201905092915050565b600062000d138262000dd6565b915062000d208362000dd6565b9250817fffffffffffffffffffffffffffffffffffffffffffffffffffffffffffffffff048311821515161562000d5c5762000d5b62000e16565b5b828202905092915050565b600062000d748262000dd6565b915062000d818362000dd6565b92508282101562000d975762000d9662000e16565b5b828203905092915050565b600062000daf8262000db6565b9050919050565b600073ffffffffffffffffffffffffffffffffffffffff82169050919050565b6000819050919050565b6000600282049050600182168062000df957607f821691505b6020821081141562000e105762000e0f62000e45565b5b50919050565b7f4e487b7100000000000000000000000000000000000000000000000000000000600052601160045260246000fd5b7f4e487b7100000000000000000000000000000000000000000000000000000000600052602260045260246000fd5b7f596f75206d7573742073656e6420726571756972656420656e7472792066656560008201527f20746f206a6f696e207468652067616d65000000000000000000000000000000602082015250565b62000ece8162000da2565b811462000eda57600080fd5b50565b62000ee88162000dd6565b811462000ef457600080fd5b50565b613cee8062000f076000396000f3fe60806040526004361061009c5760003560e01c8063bc378a7311610064578063bc378a73146101b4578063cd61386d146101df578063d4f77b1c1461020a578063d5b60c6414610214578063f71d96cb1461023f578063fa06ab7f1461027d5761009c565b8063013cf08b146100a157806304d6ded4146100e45780631614665c1461012457806349330cb81461014d5780636935bda61461018b575b600080fd5b3480156100ad57600080fd5b506100c860048036038101906100c39190612f8c565b6102ba565b6040516100db97969594939291906132c1565b60405180910390f35b3480156100f057600080fd5b5061010b60048036038101906101069190612f8c565b610360565b60405161011b9493929190613360565b60405180910390f35b34801561013057600080fd5b5061014b60048036038101906101469190612fde565b610428565b005b34801561015957600080fd5b50610174600480360381019061016f919061301a565b610a19565b60405161018292919061326f565b60405180910390f35b34801561019757600080fd5b506101b260048036038101906101ad919061301a565b610c4d565b005b3480156101c057600080fd5b506101c96110f0565b6040516101d69190613547565b60405180910390f35b3480156101eb57600080fd5b506101f46110fd565b6040516102019190613547565b60405180910390f35b610212611109565b005b34801561022057600080fd5b5061022961137a565b6040516102369190613547565b60405180910390f35b34801561024b57600080fd5b5061026660048036038101906102619190612f8c565b611387565b604051610274929190613298565b60405180910390f35b34801561028957600080fd5b506102a4600480360381019061029f9190612f8c565b6113db565b6040516102b19190613547565b60405180910390f35b600281815481106102ca57600080fd5b90600052602060002090600502016000915090508060000160009054906101000a900473ffffffffffffffffffffffffffffffffffffffff16908060010154908060020154908060040160009054906101000a900460ff16908060040160019054906101000a900460ff16908060040160029054906101000a900460ff16908060040160039054906101000a900460ff16905087565b6001818154811061037057600080fd5b906000526020600020906004020160009150905080600001805461039390613805565b80601f01602080910402602001604051908101604052809291908181526020018280546103bf90613805565b801561040c5780601f106103e15761010080835404028352916020019161040c565b820191906000526020600020905b8154815290600101906020018083116103ef57829003601f168201915b5050505050908060010154908060020154908060030154905084565b600080600090505b6000805490508110156104f85760008181548110610477577f4e487b7100000000000000000000000000000000000000000000000000000000600052603260045260246000fd5b906000526020600020906002020160000160009054906101000a900473ffffffffffffffffffffffffffffffffffffffff1673ffffffffffffffffffffffffffffffffffffffff163373ffffffffffffffffffffffffffffffffffffffff1614156104e557600191506104f8565b80806104f090613837565b915050610430565b5080610539576040517f08c379a00000000000000000000000000000000000000000000000000000000081526004016105309061342c565b60405180910390fd5b600080600090505b6002805490508110156105ce5760028181548110610588577f4e487b7100000000000000000000000000000000000000000000000000000000600052603260045260246000fd5b906000526020600020906005020160040160029054906101000a900460ff16156105bb5781806105b790613880565b9250505b80806105c690613837565b915050610541565b5060016005600981111561060b577f4e487b7100000000000000000000000000000000000000000000000000000000600052602160045260246000fd5b81548110610642577f4e487b7100000000000000000000000000000000000000000000000000000000600052603260045260246000fd5b9060005260206000209060040201600101548160ff1610610698576040517f08c379a000000000000000000000000000000000000000000000000000000000815260040161068f906134cc565b60405180910390fd5b60028054905084106106df576040517f08c379a00000000000000000000000000000000000000000000000000000000081526004016106d69061348c565b60405180910390fd5b60028481548110610719577f4e487b7100000000000000000000000000000000000000000000000000000000600052603260045260246000fd5b906000526020600020906005020160040160029054906101000a900460ff1615610778576040517f08c379a000000000000000000000000000000000000000000000000000000000815260040161076f9061350c565b60405180910390fd5b60005b600285815481106107b5577f4e487b7100000000000000000000000000000000000000000000000000000000600052603260045260246000fd5b906000526020600020906005020160030180549050811015610903573373ffffffffffffffffffffffffffffffffffffffff1660028681548110610822577f4e487b7100000000000000000000000000000000000000000000000000000000600052603260045260246000fd5b9060005260206000209060050201600301828154811061086b577f4e487b7100000000000000000000000000000000000000000000000000000000600052603260045260246000fd5b9060005260206000200160000160009054906101000a900473ffffffffffffffffffffffffffffffffffffffff1673ffffffffffffffffffffffffffffffffffffffff1614156108f0576040517f08c379a00000000000000000000000000000000000000000000000000000000081526004016108e79061344c565b60405180910390fd5b80806108fb90613837565b91505061077b565b506002848154811061093e577f4e487b7100000000000000000000000000000000000000000000000000000000600052603260045260246000fd5b906000526020600020906005020160030160405180604001604052803373ffffffffffffffffffffffffffffffffffffffff1681526020018515158152509080600181540180825580915050600190039060005260206000200160009091909190915060008201518160000160006101000a81548173ffffffffffffffffffffffffffffffffffffffff021916908373ffffffffffffffffffffffffffffffffffffffff16021790555060208201518160000160146101000a81548160ff0219169083151502179055505050610a1384611433565b50505050565b6000806002805490508410610a63576040517f08c379a0000000000000000000000000000000000000000000000000000000008152600401610a5a906133ec565b60405180910390fd5b60028481548110610a9d577f4e487b7100000000000000000000000000000000000000000000000000000000600052603260045260246000fd5b9060005260206000209060050201600301805490508310610af3576040517f08c379a0000000000000000000000000000000000000000000000000000000008152600401610aea9061346c565b60405180910390fd5b60028481548110610b2d577f4e487b7100000000000000000000000000000000000000000000000000000000600052603260045260246000fd5b90600052602060002090600502016003018381548110610b76577f4e487b7100000000000000000000000000000000000000000000000000000000600052603260045260246000fd5b9060005260206000200160000160009054906101000a900473ffffffffffffffffffffffffffffffffffffffff1660028581548110610bde577f4e487b7100000000000000000000000000000000000000000000000000000000600052603260045260246000fd5b90600052602060002090600502016003018481548110610c27577f4e487b7100000000000000000000000000000000000000000000000000000000600052603260045260246000fd5b9060005260206000200160000160149054906101000a900460ff16915091509250929050565b600080600090505b600280549050811015610ce25760028181548110610c9c577f4e487b7100000000000000000000000000000000000000000000000000000000600052603260045260246000fd5b906000526020600020906005020160040160029054906101000a900460ff1615610ccf578180610ccb90613880565b9250505b8080610cda90613837565b915050610c55565b50600160056009811115610d1f577f4e487b7100000000000000000000000000000000000000000000000000000000600052602160045260246000fd5b81548110610d56577f4e487b7100000000000000000000000000000000000000000000000000000000600052603260045260246000fd5b9060005260206000209060040201600101548160ff1610610dac576040517f08c379a0000000000000000000000000000000000000000000000000000000008152600401610da3906134cc565b60405180910390fd5b600080600090505b600080549050811015610e7c5760008181548110610dfb577f4e487b7100000000000000000000000000000000000000000000000000000000600052603260045260246000fd5b906000526020600020906002020160000160009054906101000a900473ffffffffffffffffffffffffffffffffffffffff1673ffffffffffffffffffffffffffffffffffffffff163373ffffffffffffffffffffffffffffffffffffffff161415610e695760019150610e7c565b8080610e7490613837565b915050610db4565b5080610ebd576040517f08c379a0000000000000000000000000000000000000000000000000000000008152600401610eb49061342c565b60405180910390fd5b6001805490508410610f04576040517f08c379a0000000000000000000000000000000000000000000000000000000008152600401610efb906133cc565b60405180910390fd5b60018481548110610f3e577f4e487b7100000000000000000000000000000000000000000000000000000000600052603260045260246000fd5b9060005260206000209060040201600301548311158015610faa575060018481548110610f94577f4e487b7100000000000000000000000000000000000000000000000000000000600052603260045260246000fd5b9060005260206000209060040201600201548310155b610fe9576040517f08c379a0000000000000000000000000000000000000000000000000000000008152600401610fe0906133ac565b60405180910390fd5b610ff16119ff565b600060026001816001815401808255809150500390600052602060002090600502019050338160000160006101000a81548173ffffffffffffffffffffffffffffffffffffffff021916908373ffffffffffffffffffffffffffffffffffffffff1602179055508481600201819055508381600101819055507fd4743de435a414428065ef5daa1f8015fabaac9920b880ef40bab2abc46ea16a600160028054905061109d9190613749565b8260000160009054906101000a900473ffffffffffffffffffffffffffffffffffffffff16836002015484600101546000806040516110e196959493929190613599565b60405180910390a15050505050565b6000600280549050905090565b60008080549050905090565b600080600090505b60028054905081101561119e5760028181548110611158577f4e487b7100000000000000000000000000000000000000000000000000000000600052603260045260246000fd5b906000526020600020906005020160040160029054906101000a900460ff161561118b57818061118790613880565b9250505b808061119690613837565b915050611111565b506001600560098111156111db577f4e487b7100000000000000000000000000000000000000000000000000000000600052602160045260246000fd5b81548110611212577f4e487b7100000000000000000000000000000000000000000000000000000000600052603260045260246000fd5b9060005260206000209060040201600101548160ff1610611268576040517f08c379a000000000000000000000000000000000000000000000000000000000815260040161125f906134cc565b60405180910390fd5b611270611cb7565b60005b60008054905081101561136d57600081815481106112ba577f4e487b7100000000000000000000000000000000000000000000000000000000600052603260045260246000fd5b906000526020600020906002020160000160009054906101000a900473ffffffffffffffffffffffffffffffffffffffff1673ffffffffffffffffffffffffffffffffffffffff163373ffffffffffffffffffffffffffffffffffffffff16141561135a576040517f08c379a0000000000000000000000000000000000000000000000000000000008152600401611351906134ec565b60405180910390fd5b808061136590613837565b915050611273565b5061137733611d98565b50565b6000600180549050905090565b6000818154811061139757600080fd5b90600052602060002090600202016000915090508060000160009054906101000a900473ffffffffffffffffffffffffffffffffffffffff16908060010154905082565b600060028281548110611417577f4e487b7100000000000000000000000000000000000000000000000000000000600052603260045260246000fd5b9060005260206000209060050201600301805490509050919050565b600073__$e84fd790a222e3862b17f02ee13c9fe1a1$__63656fa32e60016004600981111561148b577f4e487b7100000000000000000000000000000000000000000000000000000000600052602160045260246000fd5b815481106114c2577f4e487b7100000000000000000000000000000000000000000000000000000000600052603260045260246000fd5b9060005260206000209060040201600101546000805490506040518363ffffffff1660e01b81526004016114f79291906135fa565b60206040518083038186803b15801561150f57600080fd5b505af4158015611523573d6000803e3d6000fd5b505050506040513d601f19601f820116820180604052508101906115479190612fb5565b90508060028381548110611584577f4e487b7100000000000000000000000000000000000000000000000000000000600052603260045260246000fd5b906000526020600020906005020160030180549050106119fb576001600283815481106115da577f4e487b7100000000000000000000000000000000000000000000000000000000600052603260045260246000fd5b906000526020600020906005020160040160026101000a81548160ff021916908315150217905550600080600090505b60028481548110611644577f4e487b7100000000000000000000000000000000000000000000000000000000600052603260045260246000fd5b906000526020600020906005020160030180549050811015611725576002848154811061169a577f4e487b7100000000000000000000000000000000000000000000000000000000600052603260045260246000fd5b906000526020600020906005020160030181815481106116e3577f4e487b7100000000000000000000000000000000000000000000000000000000600052603260045260246000fd5b9060005260206000200160000160149054906101000a900460ff161561171257818061170e90613837565b9250505b808061171d90613837565b91505061160a565b50600073__$e84fd790a222e3862b17f02ee13c9fe1a1$__6384f37fd260016003600981111561177e577f4e487b7100000000000000000000000000000000000000000000000000000000600052602160045260246000fd5b815481106117b5577f4e487b7100000000000000000000000000000000000000000000000000000000600052603260045260246000fd5b90600052602060002090600402016001015460028781548110611801577f4e487b7100000000000000000000000000000000000000000000000000000000600052603260045260246000fd5b9060005260206000209060050201600301805490506040518363ffffffff1660e01b81526004016118339291906135fa565b60206040518083038186803b15801561184b57600080fd5b505af415801561185f573d6000803e3d6000fd5b505050506040513d601f19601f820116820180604052508101906118839190612fb5565b905060008183119050801561189c5761189b85611f1b565b5b6118a4612424565b6118ac612665565b7fd4743de435a414428065ef5daa1f8015fabaac9920b880ef40bab2abc46ea16a8560028781548110611908577f4e487b7100000000000000000000000000000000000000000000000000000000600052603260045260246000fd5b906000526020600020906005020160000160009054906101000a900473ffffffffffffffffffffffffffffffffffffffff1660028881548110611974577f4e487b7100000000000000000000000000000000000000000000000000000000600052603260045260246000fd5b906000526020600020906005020160020154600289815481106119c0577f4e487b7100000000000000000000000000000000000000000000000000000000600052603260045260246000fd5b9060005260206000209060050201600101546001866040516119e796959493929190613599565b60405180910390a16119f761298c565b5050505b5050565b600073__$e84fd790a222e3862b17f02ee13c9fe1a1$__63d8916bb96001600980811115611a56577f4e487b7100000000000000000000000000000000000000000000000000000000600052602160045260246000fd5b81548110611a8d577f4e487b7100000000000000000000000000000000000000000000000000000000600052603260045260246000fd5b9060005260206000209060040201600101546040518263ffffffff1660e01b8152600401611abb919061352c565b60206040518083038186803b158015611ad357600080fd5b505af4158015611ae7573d6000803e3d6000fd5b505050506040513d601f19601f82011682018060405250810190611b0b9190612fb5565b90506000611b1833612d0f565b90508160008281548110611b55577f4e487b7100000000000000000000000000000000000000000000000000000000600052603260045260246000fd5b9060005260206000209060020201600101541015611ba8576040517f08c379a0000000000000000000000000000000000000000000000000000000008152600401611b9f906134ac565b60405180910390fd5b60008181548110611be2577f4e487b7100000000000000000000000000000000000000000000000000000000600052603260045260246000fd5b906000526020600020906002020160010154821115611c50576000808281548110611c36577f4e487b7100000000000000000000000000000000000000000000000000000000600052603260045260246000fd5b906000526020600020906002020160010181905550611cb3565b8160008281548110611c8b577f4e487b7100000000000000000000000000000000000000000000000000000000600052603260045260246000fd5b90600052602060002090600202016001016000828254611cab9190613749565b925050819055505b5050565b6000670de0b6b3a7640000905080600160006009811115611d01577f4e487b7100000000000000000000000000000000000000000000000000000000600052602160045260246000fd5b81548110611d38577f4e487b7100000000000000000000000000000000000000000000000000000000600052603260045260246000fd5b906000526020600020906004020160010154611d5491906136ef565b3414611d95576040517f08c379a0000000000000000000000000000000000000000000000000000000008152600401611d8c9061340c565b60405180910390fd5b50565b6000670de0b6b3a764000090506000806001816001815401808255809150500390600052602060002090600202019050828160000160006101000a81548173ffffffffffffffffffffffffffffffffffffffff021916908373ffffffffffffffffffffffffffffffffffffffff160217905550816001806009811115611e47577f4e487b7100000000000000000000000000000000000000000000000000000000600052602160045260246000fd5b81548110611e7e577f4e487b7100000000000000000000000000000000000000000000000000000000600052603260045260246000fd5b906000526020600020906004020160010154611e9a91906136ef565b81600101819055507f47cf72a1319b630ec3083d16054ea77c907fc0b1d6214c3c99fcc34c71c670526001600080549050611ed59190613749565b8260000160009054906101000a900473ffffffffffffffffffffffffffffffffffffffff168360010154604051611f0e93929190613562565b60405180910390a1505050565b600160028281548110611f57577f4e487b7100000000000000000000000000000000000000000000000000000000600052603260045260246000fd5b906000526020600020906005020160040160036101000a81548160ff021916908315150217905550600060028281548110611fbb577f4e487b7100000000000000000000000000000000000000000000000000000000600052603260045260246000fd5b9060005260206000209060050201604051806101000160405290816000820160009054906101000a900473ffffffffffffffffffffffffffffffffffffffff1673ffffffffffffffffffffffffffffffffffffffff1673ffffffffffffffffffffffffffffffffffffffff168152602001600182015481526020016002820154815260200160038201805480602002602001604051908101604052809291908181526020016000905b82821015612103578382906000526020600020016040518060400160405290816000820160009054906101000a900473ffffffffffffffffffffffffffffffffffffffff1673ffffffffffffffffffffffffffffffffffffffff1673ffffffffffffffffffffffffffffffffffffffff1681526020016000820160149054906101000a900460ff16151515158152505081526020019060010190612064565b5050505081526020016004820160009054906101000a900460ff161515151581526020016004820160019054906101000a900460ff161515151581526020016004820160029054906101000a900460ff161515151581526020016004820160039054906101000a900460ff1615151515815250509050806020015160018260400151815481106121bc577f4e487b7100000000000000000000000000000000000000000000000000000000600052603260045260246000fd5b90600052602060002090600402016001018190555060006121e08260000151612d0f565b9050600073__$e84fd790a222e3862b17f02ee13c9fe1a1$__63d8916bb960016002600981111561223a577f4e487b7100000000000000000000000000000000000000000000000000000000600052602160045260246000fd5b81548110612271577f4e487b7100000000000000000000000000000000000000000000000000000000600052603260045260246000fd5b9060005260206000209060040201600101546040518263ffffffff1660e01b815260040161229f919061352c565b60206040518083038186803b1580156122b757600080fd5b505af41580156122cb573d6000803e3d6000fd5b505050506040513d601f19601f820116820180604052508101906122ef9190612fb5565b9050806000838154811061232c577f4e487b7100000000000000000000000000000000000000000000000000000000600052603260045260246000fd5b9060005260206000209060020201600101600082825461234c9190613668565b925050819055507f47cf72a1319b630ec3083d16054ea77c907fc0b1d6214c3c99fcc34c71c67052828460000151600085815481106123b4577f4e487b7100000000000000000000000000000000000000000000000000000000600052603260045260246000fd5b9060005260206000209060020201600101546040516123d593929190613562565b60405180910390a17f5944fa0810cbd352342aab6f3e0ddb95ef2c75161835113fc1b703b76ce69eef83604001518460200151604051612416929190613623565b60405180910390a150505050565b60005b60008054905081101561266257600073__$e84fd790a222e3862b17f02ee13c9fe1a1$__63d8916bb960016006600981111561248c577f4e487b7100000000000000000000000000000000000000000000000000000000600052602160045260246000fd5b815481106124c3577f4e487b7100000000000000000000000000000000000000000000000000000000600052603260045260246000fd5b9060005260206000209060040201600101546040518263ffffffff1660e01b81526004016124f1919061352c565b60206040518083038186803b15801561250957600080fd5b505af415801561251d573d6000803e3d6000fd5b505050506040513d601f19601f820116820180604052508101906125419190612fb5565b90506000828154811061257d577f4e487b7100000000000000000000000000000000000000000000000000000000600052603260045260246000fd5b9060005260206000209060020201600101548111156125eb5760008083815481106125d1577f4e487b7100000000000000000000000000000000000000000000000000000000600052603260045260246000fd5b90600052602060002090600202016001018190555061264e565b8060008381548110612626577f4e487b7100000000000000000000000000000000000000000000000000000000600052603260045260246000fd5b906000526020600020906002020160010160008282546126469190613749565b925050819055505b50808061265a90613837565b915050612427565b50565b60005b60008054905081101561298957600073__$e84fd790a222e3862b17f02ee13c9fe1a1$__63d8916bb96001600860098111156126cd577f4e487b7100000000000000000000000000000000000000000000000000000000600052602160045260246000fd5b81548110612704577f4e487b7100000000000000000000000000000000000000000000000000000000600052603260045260246000fd5b9060005260206000209060040201600101546040518263ffffffff1660e01b8152600401612732919061352c565b60206040518083038186803b15801561274a57600080fd5b505af415801561275e573d6000803e3d6000fd5b505050506040513d601f19601f820116820180604052508101906127829190612fb5565b9050600082815481106127be577f4e487b7100000000000000000000000000000000000000000000000000000000600052603260045260246000fd5b9060005260206000209060020201600101548110156129755760008160008481548110612814577f4e487b7100000000000000000000000000000000000000000000000000000000600052603260045260246000fd5b9060005260206000209060020201600101546128309190613749565b90506064600160076009811115612870577f4e487b7100000000000000000000000000000000000000000000000000000000600052602160045260246000fd5b815481106128a7577f4e487b7100000000000000000000000000000000000000000000000000000000600052603260045260246000fd5b906000526020600020906004020160010154826128c491906136ef565b6128ce91906136be565b60008481548110612908577f4e487b7100000000000000000000000000000000000000000000000000000000600052603260045260246000fd5b9060005260206000209060020201600101546129249190613749565b6000848154811061295e577f4e487b7100000000000000000000000000000000000000000000000000000000600052603260045260246000fd5b906000526020600020906002020160010181905550505b50808061298190613837565b915050612668565b50565b6001600560098111156129c8577f4e487b7100000000000000000000000000000000000000000000000000000000600052602160045260246000fd5b815481106129ff577f4e487b7100000000000000000000000000000000000000000000000000000000600052603260045260246000fd5b90600052602060002090600402016001015460028054905010612d0d5760008047905060005b600080549050811015612b0157600160008281548110612a6e577f4e487b7100000000000000000000000000000000000000000000000000000000600052603260045260246000fd5b90600052602060002090600202016001016000828254612a8e9190613668565b9250508190555060008181548110612acf577f4e487b7100000000000000000000000000000000000000000000000000000000600052603260045260246000fd5b90600052602060002090600202016001015483612aec9190613668565b92508080612af990613837565b915050612a25565b5060005b600080549050811015612d0957612b9e6040518060400160405280600881526020017f77696c6c2070617900000000000000000000000000000000000000000000000081525060008381548110612b85577f4e487b7100000000000000000000000000000000000000000000000000000000600052603260045260246000fd5b9060005260206000209060020201600101548486612de6565b6000838360008481548110612bdc577f4e487b7100000000000000000000000000000000000000000000000000000000600052603260045260246000fd5b906000526020600020906002020160010154612bf891906136ef565b612c0291906136be565b9050612c436040518060400160405280600681526020017f706179696e67000000000000000000000000000000000000000000000000000081525082612e88565b60008281548110612c7d577f4e487b7100000000000000000000000000000000000000000000000000000000600052603260045260246000fd5b906000526020600020906002020160000160009054906101000a900473ffffffffffffffffffffffffffffffffffffffff1673ffffffffffffffffffffffffffffffffffffffff166108fc829081150290604051600060405180830381858888f19350505050158015612cf4573d6000803e3d6000fd5b50508080612d0190613837565b915050612b05565b5050505b565b600080600090505b600080549050811015612ddf578273ffffffffffffffffffffffffffffffffffffffff1660008281548110612d75577f4e487b7100000000000000000000000000000000000000000000000000000000600052603260045260246000fd5b906000526020600020906002020160000160009054906101000a900473ffffffffffffffffffffffffffffffffffffffff1673ffffffffffffffffffffffffffffffffffffffff161415612dcc5780915050612de1565b8080612dd790613837565b915050612d17565b505b919050565b612e8284848484604051602401612e009493929190613360565b6040516020818303038152906040527f08ee5666000000000000000000000000000000000000000000000000000000007bffffffffffffffffffffffffffffffffffffffffffffffffffffffff19166020820180517bffffffffffffffffffffffffffffffffffffffffffffffffffffffff8381831617835250505050612f24565b50505050565b612f208282604051602401612e9e929190613330565b6040516020818303038152906040527f9710a9d0000000000000000000000000000000000000000000000000000000007bffffffffffffffffffffffffffffffffffffffffffffffffffffffff19166020820180517bffffffffffffffffffffffffffffffffffffffffffffffffffffffff8381831617835250505050612f24565b5050565b60008151905060006a636f6e736f6c652e6c6f679050602083016000808483855afa5050505050565b600081359050612f5c81613c8a565b92915050565b600081359050612f7181613ca1565b92915050565b600081519050612f8681613ca1565b92915050565b600060208284031215612f9e57600080fd5b6000612fac84828501612f62565b91505092915050565b600060208284031215612fc757600080fd5b6000612fd584828501612f77565b91505092915050565b60008060408385031215612ff157600080fd5b6000612fff85828601612f62565b925050602061301085828601612f4d565b9150509250929050565b6000806040838503121561302d57600080fd5b600061303b85828601612f62565b925050602061304c85828601612f62565b9150509250929050565b61305f8161377d565b82525050565b61306e8161378f565b82525050565b600061307f8261364c565b6130898185613657565b93506130998185602086016137d2565b6130a281613937565b840191505092915050565b60006130ba602983613657565b91506130c582613948565b604082019050919050565b60006130dd602783613657565b91506130e882613997565b604082019050919050565b6000613100601f83613657565b915061310b826139e6565b602082019050919050565b6000613123603183613657565b915061312e82613a0f565b604082019050919050565b6000613146603383613657565b915061315182613a5e565b604082019050919050565b6000613169602783613657565b915061317482613aad565b604082019050919050565b600061318c601b83613657565b915061319782613afc565b602082019050919050565b60006131af601e83613657565b91506131ba82613b25565b602082019050919050565b60006131d2603a83613657565b91506131dd82613b4e565b604082019050919050565b60006131f5603783613657565b915061320082613b9d565b604082019050919050565b6000613218602183613657565b915061322382613bec565b604082019050919050565b600061323b602683613657565b915061324682613c3b565b604082019050919050565b61325a816137bb565b82525050565b613269816137bb565b82525050565b60006040820190506132846000830185613056565b6132916020830184613065565b9392505050565b60006040820190506132ad6000830185613056565b6132ba6020830184613251565b9392505050565b600060e0820190506132d6600083018a613056565b6132e36020830189613251565b6132f06040830188613251565b6132fd6060830187613065565b61330a6080830186613065565b61331760a0830185613065565b61332460c0830184613065565b98975050505050505050565b6000604082019050818103600083015261334a8185613074565b90506133596020830184613251565b9392505050565b6000608082019050818103600083015261337a8187613074565b90506133896020830186613251565b6133966040830185613251565b6133a36060830184613251565b95945050505050565b600060208201905081810360008301526133c5816130ad565b9050919050565b600060208201905081810360008301526133e5816130d0565b9050919050565b60006020820190508181036000830152613405816130f3565b9050919050565b6000602082019050818103600083015261342581613116565b9050919050565b6000602082019050818103600083015261344581613139565b9050919050565b600060208201905081810360008301526134658161315c565b9050919050565b600060208201905081810360008301526134858161317f565b9050919050565b600060208201905081810360008301526134a5816131a2565b9050919050565b600060208201905081810360008301526134c5816131c5565b9050919050565b600060208201905081810360008301526134e5816131e8565b9050919050565b600060208201905081810360008301526135058161320b565b9050919050565b600060208201905081810360008301526135258161322e565b9050919050565b60006020820190506135416000830184613260565b92915050565b600060208201905061355c6000830184613251565b92915050565b60006060820190506135776000830186613251565b6135846020830185613056565b6135916040830184613251565b949350505050565b600060c0820190506135ae6000830189613251565b6135bb6020830188613056565b6135c86040830187613251565b6135d56060830186613251565b6135e26080830185613065565b6135ef60a0830184613065565b979650505050505050565b600060408201905061360f6000830185613260565b61361c6020830184613260565b9392505050565b60006040820190506136386000830185613251565b6136456020830184613251565b9392505050565b600081519050919050565b600082825260208201905092915050565b6000613673826137bb565b915061367e836137bb565b9250827fffffffffffffffffffffffffffffffffffffffffffffffffffffffffffffffff038211156136b3576136b26138aa565b5b828201905092915050565b60006136c9826137bb565b91506136d4836137bb565b9250826136e4576136e36138d9565b5b828204905092915050565b60006136fa826137bb565b9150613705836137bb565b9250817fffffffffffffffffffffffffffffffffffffffffffffffffffffffffffffffff048311821515161561373e5761373d6138aa565b5b828202905092915050565b6000613754826137bb565b915061375f836137bb565b925082821015613772576137716138aa565b5b828203905092915050565b60006137888261379b565b9050919050565b60008115159050919050565b600073ffffffffffffffffffffffffffffffffffffffff82169050919050565b6000819050919050565b600060ff82169050919050565b60005b838110156137f05780820151818401526020810190506137d5565b838111156137ff576000848401525b50505050565b6000600282049050600182168061381d57607f821691505b6020821081141561383157613830613908565b5b50919050565b6000613842826137bb565b91507fffffffffffffffffffffffffffffffffffffffffffffffffffffffffffffffff821415613875576138746138aa565b5b600182019050919050565b600061388b826137c5565b915060ff82141561389f5761389e6138aa565b5b600182019050919050565b7f4e487b7100000000000000000000000000000000000000000000000000000000600052601160045260246000fd5b7f4e487b7100000000000000000000000000000000000000000000000000000000600052601260045260246000fd5b7f4e487b7100000000000000000000000000000000000000000000000000000000600052602260045260246000fd5b6000601f19601f8301169050919050565b7f50726f706f73616c2076616c7565206d7573742062652077697468696e20727560008201527f6c6520626f756e64730000000000000000000000000000000000000000000000602082015250565b7f50726f706f73616c206d757374206170706c7920746f20616e2065786973746960008201527f6e672072756c6500000000000000000000000000000000000000000000000000602082015250565b7f50726f706f73616c20696e646578206d75737420626520696e2072616e676500600082015250565b7f596f75206d7573742073656e6420726571756972656420656e7472792066656560008201527f20746f206a6f696e207468652067616d65000000000000000000000000000000602082015250565b7f596f75206d7573742068617665206a6f696e6564207468652067616d6520746f60008201527f2063616c6c20746869732066756e6374696f6e00000000000000000000000000602082015250565b7f596f75206861766520616c726561647920766f746564206f6e2074686973207060008201527f726f706f73616c00000000000000000000000000000000000000000000000000602082015250565b7f566f746520696e646578206d75737420626520696e2072616e67650000000000600082015250565b7f566f746564206f6e206e6f6e2d6578697374656e742070726f706f73616c0000600082015250565b7f596f7520646f206e6f74206861766520656e6f7567682067616d652066756e6460008201527f7320746f20706179207468652070726f706f73616c20636f7374000000000000602082015250565b7f596f752063616e6e6f7420696e7465726163742077697468207468697320676160008201527f6d6520626563617573652069742068617320656e646564000000000000000000602082015250565b7f596f75206861766520616c7265616479206a6f696e656420746869732067616d60008201527f6500000000000000000000000000000000000000000000000000000000000000602082015250565b7f596f75206d6179206e6f7420766f7465206f6e20636f6d706c6574656420707260008201527f6f706f73616c0000000000000000000000000000000000000000000000000000602082015250565b613c938161378f565b8114613c9e57600080fd5b50565b613caa816137bb565b8114613cb557600080fd5b5056fea264697066735822122075009e0f5a513c7ea2dd4ce875f6a4f8cad6c700438412048d90265ac95d965f64736f6c63430008010033",
  "linkReferences": {
    "contracts/Game.sol": {
      "Calculations": [
        {
          "length": 20,
          "start": 9022
        },
        {
          "length": 20,
          "start": 9777
        },
        {
          "length": 20,
          "start": 10506
        },
        {
          "length": 20,
          "start": 12525
        },
        {
          "length": 20,
          "start": 13119
        },
        {
          "length": 20,
          "start": 13696
        }
      ]
    }
  },
  "deployedLinkReferences": {
    "contracts/Game.sol": {
      "Calculations": [
        {
          "length": 20,
          "start": 5175
        },
        {
          "length": 20,
          "start": 5930
        },
        {
          "length": 20,
          "start": 6659
        },
        {
          "length": 20,
          "start": 8678
        },
        {
          "length": 20,
          "start": 9272
        },
        {
          "length": 20,
          "start": 9849
        }
      ]
    }
  }
}