{
  "_format": "hh-sol-artifact-1",
  "contractName": "Game",
  "sourceName": "contracts/Game.sol",
  "abi": [
    {
      "inputs": [],
      "stateMutability": "nonpayable",
      "type": "constructor"
    },
    {
      "anonymous": false,
      "inputs": [
        {
          "indexed": false,
          "internalType": "address",
          "name": "player",
          "type": "address"
        }
      ],
      "name": "NewPlayer",
      "type": "event"
    },
    {
      "anonymous": false,
      "inputs": [
        {
          "indexed": false,
          "internalType": "address",
          "name": "proposer",
          "type": "address"
        },
        {
          "indexed": false,
          "internalType": "uint256",
          "name": "quantity",
          "type": "uint256"
        }
      ],
      "name": "NewProposal",
      "type": "event"
    },
    {
      "inputs": [
        {
          "internalType": "address",
          "name": "",
          "type": "address"
        }
      ],
      "name": "balances",
      "outputs": [
        {
          "internalType": "uint256",
          "name": "",
          "type": "uint256"
        }
      ],
      "stateMutability": "view",
      "type": "function"
    },
    {
      "inputs": [
        {
          "internalType": "uint256",
          "name": "quantity",
          "type": "uint256"
        }
      ],
      "name": "createProposal",
      "outputs": [],
      "stateMutability": "nonpayable",
      "type": "function"
    },
    {
      "inputs": [],
      "name": "endTheGame",
      "outputs": [],
      "stateMutability": "nonpayable",
      "type": "function"
    },
    {
      "inputs": [],
      "name": "entranceFee",
      "outputs": [
        {
          "internalType": "uint256",
          "name": "",
          "type": "uint256"
        }
      ],
      "stateMutability": "view",
      "type": "function"
    },
    {
      "inputs": [
        {
          "internalType": "address",
          "name": "_owner",
          "type": "address"
        },
        {
          "internalType": "string",
          "name": "_name",
          "type": "string"
        }
      ],
      "name": "gameSetup",
      "outputs": [],
      "stateMutability": "nonpayable",
      "type": "function"
    },
    {
      "inputs": [],
      "name": "getNumPlayers",
      "outputs": [
        {
          "internalType": "uint256",
          "name": "",
          "type": "uint256"
        }
      ],
      "stateMutability": "view",
      "type": "function"
    },
    {
      "inputs": [],
      "name": "getPlayersLength",
      "outputs": [
        {
          "internalType": "uint256",
          "name": "",
          "type": "uint256"
        }
      ],
      "stateMutability": "view",
      "type": "function"
    },
    {
      "inputs": [],
      "name": "getProposalsLength",
      "outputs": [
        {
          "internalType": "uint256",
          "name": "",
          "type": "uint256"
        }
      ],
      "stateMutability": "view",
      "type": "function"
    },
    {
      "inputs": [],
      "name": "joinGame",
      "outputs": [],
      "stateMutability": "payable",
      "type": "function"
    },
    {
      "inputs": [],
      "name": "maxPlayers",
      "outputs": [
        {
          "internalType": "uint8",
          "name": "",
          "type": "uint8"
        }
      ],
      "stateMutability": "view",
      "type": "function"
    },
    {
      "inputs": [],
      "name": "name",
      "outputs": [
        {
          "internalType": "string",
          "name": "",
          "type": "string"
        }
      ],
      "stateMutability": "view",
      "type": "function"
    },
    {
      "inputs": [],
      "name": "numPlayers",
      "outputs": [
        {
          "internalType": "uint256",
          "name": "",
          "type": "uint256"
        }
      ],
      "stateMutability": "view",
      "type": "function"
    },
    {
      "inputs": [],
      "name": "playDirection",
      "outputs": [
        {
          "internalType": "uint256",
          "name": "",
          "type": "uint256"
        }
      ],
      "stateMutability": "view",
      "type": "function"
    },
    {
      "inputs": [
        {
          "internalType": "uint256",
          "name": "",
          "type": "uint256"
        }
      ],
      "name": "players",
      "outputs": [
        {
          "internalType": "address",
          "name": "",
          "type": "address"
        }
      ],
      "stateMutability": "view",
      "type": "function"
    },
    {
      "inputs": [
        {
          "internalType": "uint256",
          "name": "",
          "type": "uint256"
        }
      ],
      "name": "proposals",
      "outputs": [
        {
          "internalType": "address",
          "name": "proposer",
          "type": "address"
        },
        {
          "internalType": "uint256",
          "name": "proposalType",
          "type": "uint256"
        },
        {
          "internalType": "uint256",
          "name": "quantity",
          "type": "uint256"
        },
        {
          "internalType": "bool",
          "name": "complete",
          "type": "bool"
        },
        {
          "internalType": "bool",
          "name": "successful",
          "type": "bool"
        }
      ],
      "stateMutability": "view",
      "type": "function"
    },
    {
      "inputs": [],
      "name": "quorum",
      "outputs": [
        {
          "internalType": "uint256",
          "name": "",
          "type": "uint256"
        }
      ],
      "stateMutability": "view",
      "type": "function"
    },
    {
      "inputs": [],
      "name": "reward",
      "outputs": [
        {
          "internalType": "uint256",
          "name": "",
          "type": "uint256"
        }
      ],
      "stateMutability": "view",
      "type": "function"
    },
    {
      "inputs": [
        {
          "internalType": "uint256",
          "name": "proposalIndex",
          "type": "uint256"
        },
        {
          "internalType": "bool",
          "name": "vote",
          "type": "bool"
        }
      ],
      "name": "voteOnProposal",
      "outputs": [],
      "stateMutability": "nonpayable",
      "type": "function"
    },
    {
      "inputs": [
        {
          "internalType": "address",
          "name": "",
          "type": "address"
        }
      ],
      "name": "vote_share",
      "outputs": [
        {
          "internalType": "uint256",
          "name": "",
          "type": "uint256"
        }
      ],
      "stateMutability": "view",
      "type": "function"
    },
    {
      "inputs": [],
      "name": "withdraw",
      "outputs": [],
      "stateMutability": "nonpayable",
      "type": "function"
    }
  ],
  "bytecode": "0x60806040526040518060400160405280600981526020017f626c616864746f776e0000000000000000000000000000000000000000000000815250600190805190602001906200005192919062000086565b5060016005556002600162000067919062000136565b60ff16600655600a6008553480156200007f57600080fd5b506200020f565b82805462000094906200017b565b90600052602060002090601f016020900481019282620000b8576000855562000104565b82601f10620000d357805160ff191683800117855562000104565b8280016001018555821562000104579182015b8281111562000103578251825591602001919060010190620000e6565b5b50905062000113919062000117565b5090565b5b808211156200013257600081600090555060010162000118565b5090565b600062000143826200016e565b915062000150836200016e565b925082620001635762000162620001b1565b5b828204905092915050565b600060ff82169050919050565b600060028204905060018216806200019457607f821691505b60208210811415620001ab57620001aa620001e0565b5b50919050565b7f4e487b7100000000000000000000000000000000000000000000000000000000600052601260045260246000fd5b7f4e487b7100000000000000000000000000000000000000000000000000000000600052602260045260246000fd5b611835806200021f6000396000f3fe60806040526004361061011f5760003560e01c80635a43dc00116100a0578063cd61386d11610064578063cd61386d146103b7578063d4f77b1c146103e2578063e3c78629146103ec578063e4c172a014610429578063f71d96cb146104405761011f565b80635a43dc00146102e2578063649677e11461030b57806368dd63311461033657806397b2f55614610361578063bc378a731461038c5761011f565b8063228cb733116100e7578063228cb7331461020d57806327e235e3146102385780633ccfd60b146102755780634c2412a21461028c57806355c9e926146102b75761011f565b8063013cf08b1461012457806306fdde03146101655780630976c138146101905780631614665c146101b95780631703a018146101e2575b600080fd5b34801561013057600080fd5b5061014b600480360381019061014691906111e9565b61047d565b60405161015c959493929190611370565b60405180910390f35b34801561017157600080fd5b5061017a6104fd565b60405161018791906113de565b60405180910390f35b34801561019c57600080fd5b506101b760048036038101906101b29190611195565b61058b565b005b3480156101c557600080fd5b506101e060048036038101906101db9190611212565b6105e6565b005b3480156101ee57600080fd5b506101f7610959565b6040516102049190611460565b60405180910390f35b34801561021957600080fd5b5061022261095f565b60405161022f9190611460565b60405180910390f35b34801561024457600080fd5b5061025f600480360381019061025a919061116c565b610965565b60405161026c9190611460565b60405180910390f35b34801561028157600080fd5b5061028a61097d565b005b34801561029857600080fd5b506102a161097f565b6040516102ae919061147b565b60405180910390f35b3480156102c357600080fd5b506102cc610984565b6040516102d99190611460565b60405180910390f35b3480156102ee57600080fd5b50610309600480360381019061030491906111e9565b61098e565b005b34801561031757600080fd5b50610320610a83565b60405161032d9190611460565b60405180910390f35b34801561034257600080fd5b5061034b610a89565b6040516103589190611460565b60405180910390f35b34801561036d57600080fd5b50610376610a8f565b6040516103839190611460565b60405180910390f35b34801561039857600080fd5b506103a1610a95565b6040516103ae9190611460565b60405180910390f35b3480156103c357600080fd5b506103cc610aa2565b6040516103d99190611460565b60405180910390f35b6103ea610aaf565b005b3480156103f857600080fd5b50610413600480360381019061040e919061116c565b610c34565b6040516104209190611460565b60405180910390f35b34801561043557600080fd5b5061043e610c4c565b005b34801561044c57600080fd5b50610467600480360381019061046291906111e9565b610c4e565b604051610474919061132c565b60405180910390f35b6009818154811061048d57600080fd5b90600052602060002090600502016000915090508060000160009054906101000a900473ffffffffffffffffffffffffffffffffffffffff16908060010154908060020154908060030160009054906101000a900460ff16908060030160019054906101000a900460ff16905085565b6001805461050a906115f5565b80601f0160208091040260200160405190810160405280929190818152602001828054610536906115f5565b80156105835780601f1061055857610100808354040283529160200191610583565b820191906000526020600020905b81548152906001019060200180831161056657829003601f168201915b505050505081565b816000806101000a81548173ffffffffffffffffffffffffffffffffffffffff021916908373ffffffffffffffffffffffffffffffffffffffff16021790555080600190805190602001906105e1929190611022565b505050565b6000151560098381548110610624577f4e487b7100000000000000000000000000000000000000000000000000000000600052603260045260246000fd5b906000526020600020906005020160030160009054906101000a900460ff1615151461064f57600080fd5b600060405180604001604052803373ffffffffffffffffffffffffffffffffffffffff1681526020018315158152509050600983815481106106ba577f4e487b7100000000000000000000000000000000000000000000000000000000600052603260045260246000fd5b9060005260206000209060050201600401819080600181540180825580915050600190039060005260206000200160009091909190915060008201518160000160006101000a81548173ffffffffffffffffffffffffffffffffffffffff021916908373ffffffffffffffffffffffffffffffffffffffff16021790555060208201518160000160146101000a81548160ff021916908315150217905550505060065460098481548110610797577f4e487b7100000000000000000000000000000000000000000000000000000000600052603260045260246000fd5b90600052602060002090600502016004018054905010610954576001600984815481106107ed577f4e487b7100000000000000000000000000000000000000000000000000000000600052603260045260246000fd5b906000526020600020906005020160030160006101000a81548160ff021916908315150217905550600061082084610c8d565b9050806009858154811061085d577f4e487b7100000000000000000000000000000000000000000000000000000000600052603260045260246000fd5b906000526020600020906005020160030160016101000a81548160ff0219169083151502179055508015610952576108ff600985815481106108c8577f4e487b7100000000000000000000000000000000000000000000000000000000600052603260045260246000fd5b906000526020600020906005020160000160009054906101000a900473ffffffffffffffffffffffffffffffffffffffff16610e6c565b60098481548110610939577f4e487b7100000000000000000000000000000000000000000000000000000000600052603260045260246000fd5b9060005260206000209060050201600201546008819055505b505b505050565b60065481565b60085481565b60036020528060005260406000206000915090505481565b565b600181565b6000600454905090565b600160ff16600454146109d6576040517f08c379a00000000000000000000000000000000000000000000000000000000081526004016109cd90611420565b60405180910390fd5b7f8dfa4a39b973cacc42c5d14d9461d66fd1fda5ea696f7d2a3c44fd9d7f11d04f3382604051610a07929190611347565b60405180910390a1600060096001816001815401808255809150500390600052602060002090600502019050338160000160006101000a81548173ffffffffffffffffffffffffffffffffffffffff021916908373ffffffffffffffffffffffffffffffffffffffff1602179055508181600201819055505050565b6103e881565b60055481565b60045481565b6000600980549050905090565b6000600280549050905090565b600160ff1660045410610af7576040517f08c379a0000000000000000000000000000000000000000000000000000000008152600401610aee90611400565b60405180910390fd5b6103e83411610b3b576040517f08c379a0000000000000000000000000000000000000000000000000000000008152600401610b3290611440565b60405180910390fd5b60046000815480929190610b4e90611658565b91905055506002339080600181540180825580915050600190039060005260206000200160009091909190916101000a81548173ffffffffffffffffffffffffffffffffffffffff021916908373ffffffffffffffffffffffffffffffffffffffff1602179055506064600360003373ffffffffffffffffffffffffffffffffffffffff1673ffffffffffffffffffffffffffffffffffffffff168152602001908152602001600020819055507f52e92d4898337244a39bd42674ac561eadfd3959e947deec1c0ab82dd58b5a7533604051610c2a919061132c565b60405180910390a1565b60076020528060005260406000206000915090505481565b565b60028181548110610c5e57600080fd5b906000526020600020016000915054906101000a900473ffffffffffffffffffffffffffffffffffffffff1681565b60008060005b60098481548110610ccd577f4e487b7100000000000000000000000000000000000000000000000000000000600052603260045260246000fd5b906000526020600020906005020160040180549050811015610e5457610d8f60098581548110610d26577f4e487b7100000000000000000000000000000000000000000000000000000000600052603260045260246000fd5b90600052602060002090600502016004018281548110610d6f577f4e487b7100000000000000000000000000000000000000000000000000000000600052603260045260246000fd5b9060005260206000200160000160149054906101000a900460ff16610ec7565b60098481548110610dc9577f4e487b7100000000000000000000000000000000000000000000000000000000600052603260045260246000fd5b90600052602060002090600502016004018181548110610e12577f4e487b7100000000000000000000000000000000000000000000000000000000600052603260045260246000fd5b9060005260206000200160000160149054906101000a900460ff1615610e41578180610e3d90611658565b9250505b8080610e4c90611658565b915050610c93565b50610e5e81610f60565b600654811015915050919050565b600854600360008373ffffffffffffffffffffffffffffffffffffffff1673ffffffffffffffffffffffffffffffffffffffff1681526020019081526020016000206000828254610ebd9190611508565b9250508190555050565b610f5d81604051602401610edb91906113c3565b6040516020818303038152906040527f32458eed000000000000000000000000000000000000000000000000000000007bffffffffffffffffffffffffffffffffffffffffffffffffffffffff19166020820180517bffffffffffffffffffffffffffffffffffffffffffffffffffffffff8381831617835250505050610ff9565b50565b610ff681604051602401610f749190611460565b6040516020818303038152906040527ff5b1bba9000000000000000000000000000000000000000000000000000000007bffffffffffffffffffffffffffffffffffffffffffffffffffffffff19166020820180517bffffffffffffffffffffffffffffffffffffffffffffffffffffffff8381831617835250505050610ff9565b50565b60008151905060006a636f6e736f6c652e6c6f679050602083016000808483855afa5050505050565b82805461102e906115f5565b90600052602060002090601f0160209004810192826110505760008555611097565b82601f1061106957805160ff1916838001178555611097565b82800160010185558215611097579182015b8281111561109657825182559160200191906001019061107b565b5b5090506110a491906110a8565b5090565b5b808211156110c15760008160009055506001016110a9565b5090565b60006110d86110d3846114bb565b611496565b9050828152602081018484840111156110f057600080fd5b6110fb8482856115b3565b509392505050565b600081359050611112816117ba565b92915050565b600081359050611127816117d1565b92915050565b600082601f83011261113e57600080fd5b813561114e8482602086016110c5565b91505092915050565b600081359050611166816117e8565b92915050565b60006020828403121561117e57600080fd5b600061118c84828501611103565b91505092915050565b600080604083850312156111a857600080fd5b60006111b685828601611103565b925050602083013567ffffffffffffffff8111156111d357600080fd5b6111df8582860161112d565b9150509250929050565b6000602082840312156111fb57600080fd5b600061120984828501611157565b91505092915050565b6000806040838503121561122557600080fd5b600061123385828601611157565b925050602061124485828601611118565b9150509250929050565b6112578161155e565b82525050565b61126681611570565b82525050565b6000611277826114ec565b61128181856114f7565b93506112918185602086016115c2565b61129a8161172e565b840191505092915050565b60006112b2600c836114f7565b91506112bd8261173f565b602082019050919050565b60006112d5601d836114f7565b91506112e082611768565b602082019050919050565b60006112f86015836114f7565b915061130382611791565b602082019050919050565b6113178161159c565b82525050565b611326816115a6565b82525050565b6000602082019050611341600083018461124e565b92915050565b600060408201905061135c600083018561124e565b611369602083018461130e565b9392505050565b600060a082019050611385600083018861124e565b611392602083018761130e565b61139f604083018661130e565b6113ac606083018561125d565b6113b9608083018461125d565b9695505050505050565b60006020820190506113d8600083018461125d565b92915050565b600060208201905081810360008301526113f8818461126c565b905092915050565b60006020820190508181036000830152611419816112a5565b9050919050565b60006020820190508181036000830152611439816112c8565b9050919050565b60006020820190508181036000830152611459816112eb565b9050919050565b6000602082019050611475600083018461130e565b92915050565b6000602082019050611490600083018461131d565b92915050565b60006114a06114b1565b90506114ac8282611627565b919050565b6000604051905090565b600067ffffffffffffffff8211156114d6576114d56116ff565b5b6114df8261172e565b9050602081019050919050565b600081519050919050565b600082825260208201905092915050565b60006115138261159c565b915061151e8361159c565b9250827fffffffffffffffffffffffffffffffffffffffffffffffffffffffffffffffff03821115611553576115526116a1565b5b828201905092915050565b60006115698261157c565b9050919050565b60008115159050919050565b600073ffffffffffffffffffffffffffffffffffffffff82169050919050565b6000819050919050565b600060ff82169050919050565b82818337600083830152505050565b60005b838110156115e05780820151818401526020810190506115c5565b838111156115ef576000848401525b50505050565b6000600282049050600182168061160d57607f821691505b60208210811415611621576116206116d0565b5b50919050565b6116308261172e565b810181811067ffffffffffffffff8211171561164f5761164e6116ff565b5b80604052505050565b60006116638261159c565b91507fffffffffffffffffffffffffffffffffffffffffffffffffffffffffffffffff821415611696576116956116a1565b5b600182019050919050565b7f4e487b7100000000000000000000000000000000000000000000000000000000600052601160045260246000fd5b7f4e487b7100000000000000000000000000000000000000000000000000000000600052602260045260246000fd5b7f4e487b7100000000000000000000000000000000000000000000000000000000600052604160045260246000fd5b6000601f19601f8301169050919050565b7f47616d652069732066756c6c0000000000000000000000000000000000000000600082015250565b7f4e6f7420656e6f7567682070656f706c6520696e2067616d6520796574000000600082015250565b7f546865207374616b652069732031303030207765690000000000000000000000600082015250565b6117c38161155e565b81146117ce57600080fd5b50565b6117da81611570565b81146117e557600080fd5b50565b6117f18161159c565b81146117fc57600080fd5b5056fea26469706673582212201d50a8a49270d95833558c0d69ea0ea03aecf005ca4eddaa540c94935b4ee28564736f6c63430008010033",
  "linkReferences": {},
  "deployedLinkReferences": {}
}