{
  "_format": "hh-sol-artifact-1",
  "contractName": "GameFactory",
  "sourceName": "contracts/Game.sol",
  "abi": [
    {
      "anonymous": false,
      "inputs": [
        {
          "indexed": false,
          "internalType": "uint256",
          "name": "gameIndex",
          "type": "uint256"
        },
        {
          "indexed": false,
          "internalType": "address",
          "name": "gameAddress",
          "type": "address"
        }
      ],
      "name": "NewGame",
      "type": "event"
    },
    {
      "inputs": [
        {
          "internalType": "uint256",
          "name": "",
          "type": "uint256"
        }
      ],
      "name": "games",
      "outputs": [
        {
          "internalType": "contract Game",
          "name": "",
          "type": "address"
        }
      ],
      "stateMutability": "view",
      "type": "function"
    },
    {
      "inputs": [],
      "name": "getGamesLength",
      "outputs": [
        {
          "internalType": "uint256",
          "name": "",
          "type": "uint256"
        }
      ],
      "stateMutability": "view",
      "type": "function"
    },
    {
      "inputs": [],
      "name": "newGame",
      "outputs": [],
      "stateMutability": "payable",
      "type": "function"
    }
  ],
  "bytecode": "0x608060405234801561001057600080fd5b50615151806100206000396000f3fe608060405260043610620000385760003560e01c8063117a5b90146200003d578063654f1ccb14620000815780637d03f5f314620000b1575b600080fd5b3480156200004a57600080fd5b5062000069600480360381019062000063919062000328565b620000bd565b60405162000078919062000512565b60405180910390f35b3480156200008e57600080fd5b5062000099620000fd565b604051620000a891906200056e565b60405180910390f35b620000bb62000109565b005b60008181548110620000ce57600080fd5b906000526020600020016000915054906101000a900473ffffffffffffffffffffffffffffffffffffffff1681565b60008080549050905090565b73__$e84fd790a222e3862b17f02ee13c9fe1a1$__63d8916bb9600a6040518263ffffffff1660e01b81526004016200014391906200052f565b60206040518083038186803b1580156200015c57600080fd5b505af415801562000171573d6000803e3d6000fd5b505050506040513d601f19601f8201168201806040525081019062000197919062000354565b3414620001db576040517f08c379a0000000000000000000000000000000000000000000000000000000008152600401620001d2906200054c565b60405180910390fd5b60003433600a6103e8600a603280601e6001600a600360016040516200020190620002ec565b620002179b9a9998979695949392919062000451565b6040518091039082f090508015801562000235573d6000803e3d6000fd5b5090506000819080600181540180825580915050600190039060005260206000200160009091909190916101000a81548173ffffffffffffffffffffffffffffffffffffffff021916908373ffffffffffffffffffffffffffffffffffffffff1602179055507fb4ab36f4d2fee8698466065c4ee831b4748994cdd8de1c10a834a1d9b94523376001600080549050620002d09190620005c9565b82604051620002e19291906200058b565b60405180910390a150565b6149a1806200077b83390190565b6000813590506200030b8162000760565b92915050565b600081519050620003228162000760565b92915050565b6000602082840312156200033b57600080fd5b60006200034b84828501620002fa565b91505092915050565b6000602082840312156200036757600080fd5b6000620003778482850162000311565b91505092915050565b6200038b8162000604565b82525050565b6200039c8162000642565b82525050565b620003ad816200066a565b82525050565b620003be816200067e565b82525050565b620003cf816200067e565b82525050565b620003e08162000692565b82525050565b620003f181620006a6565b82525050565b6200040281620006ba565b82525050565b6200041381620006ce565b82525050565b600062000428603183620005b8565b9150620004358262000711565b604082019050919050565b6200044b8162000638565b82525050565b60006101608201905062000469600083018e62000380565b62000478602083018d620003b3565b62000487604083018c620003a2565b62000496606083018b620003b3565b620004a5608083018a62000408565b620004b460a083018962000408565b620004c360c0830188620003e6565b620004d260e0830187620003d5565b620004e2610100830186620003b3565b620004f2610120830185620003f7565b62000502610140830184620003d5565b9c9b505050505050505050505050565b600060208201905062000529600083018462000391565b92915050565b6000602082019050620005466000830184620003c4565b92915050565b60006020820190508181036000830152620005678162000419565b9050919050565b600060208201905062000585600083018462000440565b92915050565b6000604082019050620005a2600083018562000440565b620005b1602083018462000380565b9392505050565b600082825260208201905092915050565b6000620005d68262000638565b9150620005e38362000638565b925082821015620005f957620005f8620006e2565b5b828203905092915050565b6000620006118262000618565b9050919050565b600073ffffffffffffffffffffffffffffffffffffffff82169050919050565b6000819050919050565b60006200064f8262000656565b9050919050565b6000620006638262000618565b9050919050565b6000620006778262000638565b9050919050565b60006200068b8262000638565b9050919050565b60006200069f8262000638565b9050919050565b6000620006b38262000638565b9050919050565b6000620006c78262000638565b9050919050565b6000620006db8262000638565b9050919050565b7f4e487b7100000000000000000000000000000000000000000000000000000000600052601160045260246000fd5b7f596f75206d7573742073656e642074686520656e74727920666565202831302960008201527f20746f2063726561746520612067616d65000000000000000000000000000000602082015250565b6200076b8162000638565b81146200077757600080fd5b5056fe60806040526104d2600055604051620049a1380380620049a183398181016040528101906200002f919062000b4c565b600260405180608001604052806040518060400160405280600981526020017f456e74727920666565000000000000000000000000000000000000000000000081525081526020018c8152602001600081526020016103e881525090806001815401808255809150506001900390600052602060002090600402016000909190919091506000820151816000019080519060200190620000d192919062000a6e565b506020820151816001015560408201518160020155606082015181600301555050600260405180608001604052806040518060400160405280600d81526020017f53746172742062616c616e63650000000000000000000000000000000000000081525081526020018b8152602001600081526020016103e8815250908060018154018082558091505060019003906000526020600020906004020160009091909190915060008201518160000190805190602001906200019492919062000a6e565b506020820151816001015560408201518160020155606082015181600301555050600260405180608001604052806040518060400160405280600f81526020017f50726f706f73616c20726577617264000000000000000000000000000000000081525081526020018a8152602001600081526020016103e8815250908060018154018082558091505060019003906000526020600020906004020160009091909190915060008201518160000190805190602001906200025792919062000a6e565b506020820151816001015560408201518160020155606082015181600301555050600260405180608001604052806040518060400160405280600881526020017f4d616a6f726974790000000000000000000000000000000000000000000000008152508152602001898152602001600081526020016064815250908060018154018082558091505060019003906000526020600020906004020160009091909190915060008201518160000190805190602001906200031992919062000a6e565b506020820151816001015560408201518160020155606082015181600301555050600260405180608001604052806040518060400160405280600681526020017f51756f72756d0000000000000000000000000000000000000000000000000000815250815260200188815260200160008152602001606481525090806001815401808255809150506001900390600052602060002090600402016000909190919091506000820151816000019080519060200190620003db92919062000a6e565b506020820151816001015560408201518160020155606082015181600301555050600260405180608001604052806040518060400160405280600d81526020017f4d61782070726f706f73616c73000000000000000000000000000000000000008152508152602001878152602001600181526020016064815250908060018154018082558091505060019003906000526020600020906004020160009091909190915060008201518160000190805190602001906200049d92919062000a6e565b506020820151816001015560408201518160020155606082015181600301555050600260405180608001604052806040518060400160405280600881526020017f506f6c6c207461780000000000000000000000000000000000000000000000008152508152602001868152602001600181526020016103e8815250908060018154018082558091505060019003906000526020600020906004020160009091909190915060008201518160000190805190602001906200056092919062000a6e565b506020820151816001015560408201518160020155606082015181600301555050600260405180608001604052806040518060400160405280600a81526020017f5765616c746820746178000000000000000000000000000000000000000000008152508152602001858152602001600181526020016064815250908060018154018082558091505060019003906000526020600020906004020160009091909190915060008201518160000190805190602001906200062292919062000a6e565b506020820151816001015560408201518160020155606082015181600301555050600260405180608001604052806040518060400160405280601481526020017f5765616c746820746178207468726573686f6c640000000000000000000000008152508152602001848152602001600081526020016103e881525090806001815401808255809150506001900390600052602060002090600402016000909190919091506000820151816000019080519060200190620006e592919062000a6e565b506020820151816001015560408201518160020155606082015181600301555050600260405180608001604052806040518060400160405280600c81526020017f50726f706f73616c2066656500000000000000000000000000000000000000008152508152602001838152602001600081526020016103e881525090806001815401808255809150506001900390600052602060002090600402016000909190919091506000820151816000019080519060200190620007a892919062000a6e565b506020820151816001015560408201518160020155606082015181600301555050620007d9620007fb60201b60201c565b620007ea8b620008e360201b60201c565b505050505050505050505062000efd565b6000670de0b6b3a764000090508060026000600981111562000846577f4e487b7100000000000000000000000000000000000000000000000000000000600052602160045260246000fd5b815481106200087e577f4e487b7100000000000000000000000000000000000000000000000000000000600052603260045260246000fd5b9060005260206000209060040201600101546200089c919062000d0c565b3414620008e0576040517f08c379a0000000000000000000000000000000000000000000000000000000008152600401620008d79062000c9c565b60405180910390fd5b50565b6000670de0b6b3a764000090506000600180816001815401808255809150500390600052602060002090600202019050828160000160006101000a81548173ffffffffffffffffffffffffffffffffffffffff021916908373ffffffffffffffffffffffffffffffffffffffff1602179055508160026001600981111562000994577f4e487b7100000000000000000000000000000000000000000000000000000000600052602160045260246000fd5b81548110620009cc577f4e487b7100000000000000000000000000000000000000000000000000000000600052603260045260246000fd5b906000526020600020906004020160010154620009ea919062000d0c565b81600101819055507f47cf72a1319b630ec3083d16054ea77c907fc0b1d6214c3c99fcc34c71c670526001808054905062000a26919062000d6d565b8260000160009054906101000a900473ffffffffffffffffffffffffffffffffffffffff16836001015460405162000a619392919062000cbe565b60405180910390a1505050565b82805462000a7c9062000de6565b90600052602060002090601f01602090048101928262000aa0576000855562000aec565b82601f1062000abb57805160ff191683800117855562000aec565b8280016001018555821562000aec579182015b8281111562000aeb57825182559160200191906001019062000ace565b5b50905062000afb919062000aff565b5090565b5b8082111562000b1a57600081600090555060010162000b00565b5090565b60008151905062000b2f8162000ec9565b92915050565b60008151905062000b468162000ee3565b92915050565b60008060008060008060008060008060006101608c8e03121562000b6f57600080fd5b600062000b7f8e828f0162000b1e565b9b5050602062000b928e828f0162000b35565b9a5050604062000ba58e828f0162000b35565b995050606062000bb88e828f0162000b35565b985050608062000bcb8e828f0162000b35565b97505060a062000bde8e828f0162000b35565b96505060c062000bf18e828f0162000b35565b95505060e062000c048e828f0162000b35565b94505061010062000c188e828f0162000b35565b93505061012062000c2c8e828f0162000b35565b92505061014062000c408e828f0162000b35565b9150509295989b509295989b9093969950565b62000c5e8162000da8565b82525050565b600062000c7360318362000cfb565b915062000c808262000e7a565b604082019050919050565b62000c968162000ddc565b82525050565b6000602082019050818103600083015262000cb78162000c64565b9050919050565b600060608201905062000cd5600083018662000c8b565b62000ce4602083018562000c53565b62000cf3604083018462000c8b565b949350505050565b600082825260208201905092915050565b600062000d198262000ddc565b915062000d268362000ddc565b9250817fffffffffffffffffffffffffffffffffffffffffffffffffffffffffffffffff048311821515161562000d625762000d6162000e1c565b5b828202905092915050565b600062000d7a8262000ddc565b915062000d878362000ddc565b92508282101562000d9d5762000d9c62000e1c565b5b828203905092915050565b600062000db58262000dbc565b9050919050565b600073ffffffffffffffffffffffffffffffffffffffff82169050919050565b6000819050919050565b6000600282049050600182168062000dff57607f821691505b6020821081141562000e165762000e1562000e4b565b5b50919050565b7f4e487b7100000000000000000000000000000000000000000000000000000000600052601160045260246000fd5b7f4e487b7100000000000000000000000000000000000000000000000000000000600052602260045260246000fd5b7f596f75206d7573742073656e6420726571756972656420656e7472792066656560008201527f20746f206a6f696e207468652067616d65000000000000000000000000000000602082015250565b62000ed48162000da8565b811462000ee057600080fd5b50565b62000eee8162000ddc565b811462000efa57600080fd5b50565b613a948062000f0d6000396000f3fe60806040526004361061009c5760003560e01c8063bc378a7311610064578063bc378a73146101b4578063cd61386d146101df578063d4f77b1c1461020a578063d5b60c6414610214578063f71d96cb1461023f578063fa06ab7f1461027d5761009c565b8063013cf08b146100a157806304d6ded4146100e45780631614665c1461012457806349330cb81461014d5780636935bda61461018b575b600080fd5b3480156100ad57600080fd5b506100c860048036038101906100c39190612d62565b6102ba565b6040516100db9796959493929190613097565b60405180910390f35b3480156100f057600080fd5b5061010b60048036038101906101069190612d62565b610360565b60405161011b9493929190613106565b60405180910390f35b34801561013057600080fd5b5061014b60048036038101906101469190612db4565b610428565b005b34801561015957600080fd5b50610174600480360381019061016f9190612df0565b610a19565b604051610182929190613045565b60405180910390f35b34801561019757600080fd5b506101b260048036038101906101ad9190612df0565b610c4d565b005b3480156101c057600080fd5b506101c96110f0565b6040516101d691906132ed565b60405180910390f35b3480156101eb57600080fd5b506101f46110fd565b60405161020191906132ed565b60405180910390f35b61021261110a565b005b34801561022057600080fd5b5061022961137b565b60405161023691906132ed565b60405180910390f35b34801561024b57600080fd5b5061026660048036038101906102619190612d62565b611388565b60405161027492919061306e565b60405180910390f35b34801561028957600080fd5b506102a4600480360381019061029f9190612d62565b6113dc565b6040516102b191906132ed565b60405180910390f35b600381815481106102ca57600080fd5b90600052602060002090600502016000915090508060000160009054906101000a900473ffffffffffffffffffffffffffffffffffffffff16908060010154908060020154908060040160009054906101000a900460ff16908060040160019054906101000a900460ff16908060040160029054906101000a900460ff16908060040160039054906101000a900460ff16905087565b6002818154811061037057600080fd5b9060005260206000209060040201600091509050806000018054610393906135ab565b80601f01602080910402602001604051908101604052809291908181526020018280546103bf906135ab565b801561040c5780601f106103e15761010080835404028352916020019161040c565b820191906000526020600020905b8154815290600101906020018083116103ef57829003601f168201915b5050505050908060010154908060020154908060030154905084565b600080600090505b6001805490508110156104f85760018181548110610477577f4e487b7100000000000000000000000000000000000000000000000000000000600052603260045260246000fd5b906000526020600020906002020160000160009054906101000a900473ffffffffffffffffffffffffffffffffffffffff1673ffffffffffffffffffffffffffffffffffffffff163373ffffffffffffffffffffffffffffffffffffffff1614156104e557600191506104f8565b80806104f0906135dd565b915050610430565b5080610539576040517f08c379a0000000000000000000000000000000000000000000000000000000008152600401610530906131d2565b60405180910390fd5b600080600090505b6003805490508110156105ce5760038181548110610588577f4e487b7100000000000000000000000000000000000000000000000000000000600052603260045260246000fd5b906000526020600020906005020160040160029054906101000a900460ff16156105bb5781806105b790613626565b9250505b80806105c6906135dd565b915050610541565b5060026005600981111561060b577f4e487b7100000000000000000000000000000000000000000000000000000000600052602160045260246000fd5b81548110610642577f4e487b7100000000000000000000000000000000000000000000000000000000600052603260045260246000fd5b9060005260206000209060040201600101548160ff1610610698576040517f08c379a000000000000000000000000000000000000000000000000000000000815260040161068f90613272565b60405180910390fd5b60038054905084106106df576040517f08c379a00000000000000000000000000000000000000000000000000000000081526004016106d690613232565b60405180910390fd5b60038481548110610719577f4e487b7100000000000000000000000000000000000000000000000000000000600052603260045260246000fd5b906000526020600020906005020160040160029054906101000a900460ff1615610778576040517f08c379a000000000000000000000000000000000000000000000000000000000815260040161076f906132b2565b60405180910390fd5b60005b600385815481106107b5577f4e487b7100000000000000000000000000000000000000000000000000000000600052603260045260246000fd5b906000526020600020906005020160030180549050811015610903573373ffffffffffffffffffffffffffffffffffffffff1660038681548110610822577f4e487b7100000000000000000000000000000000000000000000000000000000600052603260045260246000fd5b9060005260206000209060050201600301828154811061086b577f4e487b7100000000000000000000000000000000000000000000000000000000600052603260045260246000fd5b9060005260206000200160000160009054906101000a900473ffffffffffffffffffffffffffffffffffffffff1673ffffffffffffffffffffffffffffffffffffffff1614156108f0576040517f08c379a00000000000000000000000000000000000000000000000000000000081526004016108e7906131f2565b60405180910390fd5b80806108fb906135dd565b91505061077b565b506003848154811061093e577f4e487b7100000000000000000000000000000000000000000000000000000000600052603260045260246000fd5b906000526020600020906005020160030160405180604001604052803373ffffffffffffffffffffffffffffffffffffffff1681526020018515158152509080600181540180825580915050600190039060005260206000200160009091909190915060008201518160000160006101000a81548173ffffffffffffffffffffffffffffffffffffffff021916908373ffffffffffffffffffffffffffffffffffffffff16021790555060208201518160000160146101000a81548160ff0219169083151502179055505050610a1384611434565b50505050565b6000806003805490508410610a63576040517f08c379a0000000000000000000000000000000000000000000000000000000008152600401610a5a90613192565b60405180910390fd5b60038481548110610a9d577f4e487b7100000000000000000000000000000000000000000000000000000000600052603260045260246000fd5b9060005260206000209060050201600301805490508310610af3576040517f08c379a0000000000000000000000000000000000000000000000000000000008152600401610aea90613212565b60405180910390fd5b60038481548110610b2d577f4e487b7100000000000000000000000000000000000000000000000000000000600052603260045260246000fd5b90600052602060002090600502016003018381548110610b76577f4e487b7100000000000000000000000000000000000000000000000000000000600052603260045260246000fd5b9060005260206000200160000160009054906101000a900473ffffffffffffffffffffffffffffffffffffffff1660038581548110610bde577f4e487b7100000000000000000000000000000000000000000000000000000000600052603260045260246000fd5b90600052602060002090600502016003018481548110610c27577f4e487b7100000000000000000000000000000000000000000000000000000000600052603260045260246000fd5b9060005260206000200160000160149054906101000a900460ff16915091509250929050565b600080600090505b600380549050811015610ce25760038181548110610c9c577f4e487b7100000000000000000000000000000000000000000000000000000000600052603260045260246000fd5b906000526020600020906005020160040160029054906101000a900460ff1615610ccf578180610ccb90613626565b9250505b8080610cda906135dd565b915050610c55565b50600260056009811115610d1f577f4e487b7100000000000000000000000000000000000000000000000000000000600052602160045260246000fd5b81548110610d56577f4e487b7100000000000000000000000000000000000000000000000000000000600052603260045260246000fd5b9060005260206000209060040201600101548160ff1610610dac576040517f08c379a0000000000000000000000000000000000000000000000000000000008152600401610da390613272565b60405180910390fd5b600080600090505b600180549050811015610e7c5760018181548110610dfb577f4e487b7100000000000000000000000000000000000000000000000000000000600052603260045260246000fd5b906000526020600020906002020160000160009054906101000a900473ffffffffffffffffffffffffffffffffffffffff1673ffffffffffffffffffffffffffffffffffffffff163373ffffffffffffffffffffffffffffffffffffffff161415610e695760019150610e7c565b8080610e74906135dd565b915050610db4565b5080610ebd576040517f08c379a0000000000000000000000000000000000000000000000000000000008152600401610eb4906131d2565b60405180910390fd5b6002805490508410610f04576040517f08c379a0000000000000000000000000000000000000000000000000000000008152600401610efb90613172565b60405180910390fd5b60028481548110610f3e577f4e487b7100000000000000000000000000000000000000000000000000000000600052603260045260246000fd5b9060005260206000209060040201600301548311158015610faa575060028481548110610f94577f4e487b7100000000000000000000000000000000000000000000000000000000600052603260045260246000fd5b9060005260206000209060040201600201548310155b610fe9576040517f08c379a0000000000000000000000000000000000000000000000000000000008152600401610fe090613152565b60405180910390fd5b610ff1611a00565b600060036001816001815401808255809150500390600052602060002090600502019050338160000160006101000a81548173ffffffffffffffffffffffffffffffffffffffff021916908373ffffffffffffffffffffffffffffffffffffffff1602179055508481600201819055508381600101819055507fd4743de435a414428065ef5daa1f8015fabaac9920b880ef40bab2abc46ea16a600160038054905061109d91906134ef565b8260000160009054906101000a900473ffffffffffffffffffffffffffffffffffffffff16836002015484600101546000806040516110e19695949392919061333f565b60405180910390a15050505050565b6000600380549050905090565b6000600180549050905090565b600080600090505b60038054905081101561119f5760038181548110611159577f4e487b7100000000000000000000000000000000000000000000000000000000600052603260045260246000fd5b906000526020600020906005020160040160029054906101000a900460ff161561118c57818061118890613626565b9250505b8080611197906135dd565b915050611112565b506002600560098111156111dc577f4e487b7100000000000000000000000000000000000000000000000000000000600052602160045260246000fd5b81548110611213577f4e487b7100000000000000000000000000000000000000000000000000000000600052603260045260246000fd5b9060005260206000209060040201600101548160ff1610611269576040517f08c379a000000000000000000000000000000000000000000000000000000000815260040161126090613272565b60405180910390fd5b611271611cb9565b60005b60018054905081101561136e57600181815481106112bb577f4e487b7100000000000000000000000000000000000000000000000000000000600052603260045260246000fd5b906000526020600020906002020160000160009054906101000a900473ffffffffffffffffffffffffffffffffffffffff1673ffffffffffffffffffffffffffffffffffffffff163373ffffffffffffffffffffffffffffffffffffffff16141561135b576040517f08c379a000000000000000000000000000000000000000000000000000000000815260040161135290613292565b60405180910390fd5b8080611366906135dd565b915050611274565b5061137833611d9a565b50565b6000600280549050905090565b6001818154811061139857600080fd5b90600052602060002090600202016000915090508060000160009054906101000a900473ffffffffffffffffffffffffffffffffffffffff16908060010154905082565b600060038281548110611418577f4e487b7100000000000000000000000000000000000000000000000000000000600052603260045260246000fd5b9060005260206000209060050201600301805490509050919050565b600073__$e84fd790a222e3862b17f02ee13c9fe1a1$__63656fa32e60026004600981111561148c577f4e487b7100000000000000000000000000000000000000000000000000000000600052602160045260246000fd5b815481106114c3577f4e487b7100000000000000000000000000000000000000000000000000000000600052603260045260246000fd5b9060005260206000209060040201600101546001805490506040518363ffffffff1660e01b81526004016114f89291906133a0565b60206040518083038186803b15801561151057600080fd5b505af4158015611524573d6000803e3d6000fd5b505050506040513d601f19601f820116820180604052508101906115489190612d8b565b90508060038381548110611585577f4e487b7100000000000000000000000000000000000000000000000000000000600052603260045260246000fd5b906000526020600020906005020160030180549050106119fc576001600383815481106115db577f4e487b7100000000000000000000000000000000000000000000000000000000600052603260045260246000fd5b906000526020600020906005020160040160026101000a81548160ff021916908315150217905550600080600090505b60038481548110611645577f4e487b7100000000000000000000000000000000000000000000000000000000600052603260045260246000fd5b906000526020600020906005020160030180549050811015611726576003848154811061169b577f4e487b7100000000000000000000000000000000000000000000000000000000600052603260045260246000fd5b906000526020600020906005020160030181815481106116e4577f4e487b7100000000000000000000000000000000000000000000000000000000600052603260045260246000fd5b9060005260206000200160000160149054906101000a900460ff161561171357818061170f906135dd565b9250505b808061171e906135dd565b91505061160b565b50600073__$e84fd790a222e3862b17f02ee13c9fe1a1$__6384f37fd260026003600981111561177f577f4e487b7100000000000000000000000000000000000000000000000000000000600052602160045260246000fd5b815481106117b6577f4e487b7100000000000000000000000000000000000000000000000000000000600052603260045260246000fd5b90600052602060002090600402016001015460038781548110611802577f4e487b7100000000000000000000000000000000000000000000000000000000600052603260045260246000fd5b9060005260206000209060050201600301805490506040518363ffffffff1660e01b81526004016118349291906133a0565b60206040518083038186803b15801561184c57600080fd5b505af4158015611860573d6000803e3d6000fd5b505050506040513d601f19601f820116820180604052508101906118849190612d8b565b905060008183119050801561189d5761189c85611f1d565b5b6118a5612425565b6118ad612667565b7fd4743de435a414428065ef5daa1f8015fabaac9920b880ef40bab2abc46ea16a8560038781548110611909577f4e487b7100000000000000000000000000000000000000000000000000000000600052603260045260246000fd5b906000526020600020906005020160000160009054906101000a900473ffffffffffffffffffffffffffffffffffffffff1660038881548110611975577f4e487b7100000000000000000000000000000000000000000000000000000000600052603260045260246000fd5b906000526020600020906005020160020154600389815481106119c1577f4e487b7100000000000000000000000000000000000000000000000000000000600052603260045260246000fd5b9060005260206000209060050201600101546001866040516119e89695949392919061333f565b60405180910390a16119f861298e565b5050505b5050565b600073__$e84fd790a222e3862b17f02ee13c9fe1a1$__63d8916bb96002600980811115611a57577f4e487b7100000000000000000000000000000000000000000000000000000000600052602160045260246000fd5b81548110611a8e577f4e487b7100000000000000000000000000000000000000000000000000000000600052603260045260246000fd5b9060005260206000209060040201600101546040518263ffffffff1660e01b8152600401611abc91906132d2565b60206040518083038186803b158015611ad457600080fd5b505af4158015611ae8573d6000803e3d6000fd5b505050506040513d601f19601f82011682018060405250810190611b0c9190612d8b565b90506000611b1933612c4c565b90508160018281548110611b56577f4e487b7100000000000000000000000000000000000000000000000000000000600052603260045260246000fd5b9060005260206000209060020201600101541015611ba9576040517f08c379a0000000000000000000000000000000000000000000000000000000008152600401611ba090613252565b60405180910390fd5b60018181548110611be3577f4e487b7100000000000000000000000000000000000000000000000000000000600052603260045260246000fd5b906000526020600020906002020160010154821115611c5257600060018281548110611c38577f4e487b7100000000000000000000000000000000000000000000000000000000600052603260045260246000fd5b906000526020600020906002020160010181905550611cb5565b8160018281548110611c8d577f4e487b7100000000000000000000000000000000000000000000000000000000600052603260045260246000fd5b90600052602060002090600202016001016000828254611cad91906134ef565b925050819055505b5050565b6000670de0b6b3a7640000905080600260006009811115611d03577f4e487b7100000000000000000000000000000000000000000000000000000000600052602160045260246000fd5b81548110611d3a577f4e487b7100000000000000000000000000000000000000000000000000000000600052603260045260246000fd5b906000526020600020906004020160010154611d569190613495565b3414611d97576040517f08c379a0000000000000000000000000000000000000000000000000000000008152600401611d8e906131b2565b60405180910390fd5b50565b6000670de0b6b3a764000090506000600180816001815401808255809150500390600052602060002090600202019050828160000160006101000a81548173ffffffffffffffffffffffffffffffffffffffff021916908373ffffffffffffffffffffffffffffffffffffffff16021790555081600260016009811115611e4a577f4e487b7100000000000000000000000000000000000000000000000000000000600052602160045260246000fd5b81548110611e81577f4e487b7100000000000000000000000000000000000000000000000000000000600052603260045260246000fd5b906000526020600020906004020160010154611e9d9190613495565b81600101819055507f47cf72a1319b630ec3083d16054ea77c907fc0b1d6214c3c99fcc34c71c6705260018080549050611ed791906134ef565b8260000160009054906101000a900473ffffffffffffffffffffffffffffffffffffffff168360010154604051611f1093929190613308565b60405180910390a1505050565b600160038281548110611f59577f4e487b7100000000000000000000000000000000000000000000000000000000600052603260045260246000fd5b906000526020600020906005020160040160036101000a81548160ff021916908315150217905550600060038281548110611fbd577f4e487b7100000000000000000000000000000000000000000000000000000000600052603260045260246000fd5b9060005260206000209060050201604051806101000160405290816000820160009054906101000a900473ffffffffffffffffffffffffffffffffffffffff1673ffffffffffffffffffffffffffffffffffffffff1673ffffffffffffffffffffffffffffffffffffffff168152602001600182015481526020016002820154815260200160038201805480602002602001604051908101604052809291908181526020016000905b82821015612105578382906000526020600020016040518060400160405290816000820160009054906101000a900473ffffffffffffffffffffffffffffffffffffffff1673ffffffffffffffffffffffffffffffffffffffff1673ffffffffffffffffffffffffffffffffffffffff1681526020016000820160149054906101000a900460ff16151515158152505081526020019060010190612066565b5050505081526020016004820160009054906101000a900460ff161515151581526020016004820160019054906101000a900460ff161515151581526020016004820160029054906101000a900460ff161515151581526020016004820160039054906101000a900460ff1615151515815250509050806020015160028260400151815481106121be577f4e487b7100000000000000000000000000000000000000000000000000000000600052603260045260246000fd5b90600052602060002090600402016001018190555060006121e28260000151612c4c565b9050600073__$e84fd790a222e3862b17f02ee13c9fe1a1$__63d8916bb9600280600981111561223b577f4e487b7100000000000000000000000000000000000000000000000000000000600052602160045260246000fd5b81548110612272577f4e487b7100000000000000000000000000000000000000000000000000000000600052603260045260246000fd5b9060005260206000209060040201600101546040518263ffffffff1660e01b81526004016122a091906132d2565b60206040518083038186803b1580156122b857600080fd5b505af41580156122cc573d6000803e3d6000fd5b505050506040513d601f19601f820116820180604052508101906122f09190612d8b565b9050806001838154811061232d577f4e487b7100000000000000000000000000000000000000000000000000000000600052603260045260246000fd5b9060005260206000209060020201600101600082825461234d919061340e565b925050819055507f47cf72a1319b630ec3083d16054ea77c907fc0b1d6214c3c99fcc34c71c67052828460000151600185815481106123b5577f4e487b7100000000000000000000000000000000000000000000000000000000600052603260045260246000fd5b9060005260206000209060020201600101546040516123d693929190613308565b60405180910390a17f5944fa0810cbd352342aab6f3e0ddb95ef2c75161835113fc1b703b76ce69eef836040015184602001516040516124179291906133c9565b60405180910390a150505050565b60005b60018054905081101561266457600073__$e84fd790a222e3862b17f02ee13c9fe1a1$__63d8916bb960026006600981111561248d577f4e487b7100000000000000000000000000000000000000000000000000000000600052602160045260246000fd5b815481106124c4577f4e487b7100000000000000000000000000000000000000000000000000000000600052603260045260246000fd5b9060005260206000209060040201600101546040518263ffffffff1660e01b81526004016124f291906132d2565b60206040518083038186803b15801561250a57600080fd5b505af415801561251e573d6000803e3d6000fd5b505050506040513d601f19601f820116820180604052508101906125429190612d8b565b90506001828154811061257e577f4e487b7100000000000000000000000000000000000000000000000000000000600052603260045260246000fd5b9060005260206000209060020201600101548111156125ed576000600183815481106125d3577f4e487b7100000000000000000000000000000000000000000000000000000000600052603260045260246000fd5b906000526020600020906002020160010181905550612650565b8060018381548110612628577f4e487b7100000000000000000000000000000000000000000000000000000000600052603260045260246000fd5b9060005260206000209060020201600101600082825461264891906134ef565b925050819055505b50808061265c906135dd565b915050612428565b50565b60005b60018054905081101561298b57600073__$e84fd790a222e3862b17f02ee13c9fe1a1$__63d8916bb96002600860098111156126cf577f4e487b7100000000000000000000000000000000000000000000000000000000600052602160045260246000fd5b81548110612706577f4e487b7100000000000000000000000000000000000000000000000000000000600052603260045260246000fd5b9060005260206000209060040201600101546040518263ffffffff1660e01b815260040161273491906132d2565b60206040518083038186803b15801561274c57600080fd5b505af4158015612760573d6000803e3d6000fd5b505050506040513d601f19601f820116820180604052508101906127849190612d8b565b9050600182815481106127c0577f4e487b7100000000000000000000000000000000000000000000000000000000600052603260045260246000fd5b9060005260206000209060020201600101548110156129775760008160018481548110612816577f4e487b7100000000000000000000000000000000000000000000000000000000600052603260045260246000fd5b90600052602060002090600202016001015461283291906134ef565b90506064600260076009811115612872577f4e487b7100000000000000000000000000000000000000000000000000000000600052602160045260246000fd5b815481106128a9577f4e487b7100000000000000000000000000000000000000000000000000000000600052603260045260246000fd5b906000526020600020906004020160010154826128c69190613495565b6128d09190613464565b6001848154811061290a577f4e487b7100000000000000000000000000000000000000000000000000000000600052603260045260246000fd5b90600052602060002090600202016001015461292691906134ef565b60018481548110612960577f4e487b7100000000000000000000000000000000000000000000000000000000600052603260045260246000fd5b906000526020600020906002020160010181905550505b508080612983906135dd565b91505061266a565b50565b6002600560098111156129ca577f4e487b7100000000000000000000000000000000000000000000000000000000600052602160045260246000fd5b81548110612a01577f4e487b7100000000000000000000000000000000000000000000000000000000600052603260045260246000fd5b90600052602060002090600402016001015460038054905010612c4a574260008190555060008047905060005b600180549050811015612b09576001808281548110612a76577f4e487b7100000000000000000000000000000000000000000000000000000000600052603260045260246000fd5b90600052602060002090600202016001016000828254612a96919061340e565b9250508190555060018181548110612ad7577f4e487b7100000000000000000000000000000000000000000000000000000000600052603260045260246000fd5b90600052602060002090600202016001015483612af4919061340e565b92508080612b01906135dd565b915050612a2e565b5060005b600180549050811015612c46576000838360018481548110612b58577f4e487b7100000000000000000000000000000000000000000000000000000000600052603260045260246000fd5b906000526020600020906002020160010154612b749190613495565b612b7e9190613464565b905060018281548110612bba577f4e487b7100000000000000000000000000000000000000000000000000000000600052603260045260246000fd5b906000526020600020906002020160000160009054906101000a900473ffffffffffffffffffffffffffffffffffffffff1673ffffffffffffffffffffffffffffffffffffffff166108fc829081150290604051600060405180830381858888f19350505050158015612c31573d6000803e3d6000fd5b50508080612c3e906135dd565b915050612b0d565b5050505b565b600080600090505b600180549050811015612d1c578273ffffffffffffffffffffffffffffffffffffffff1660018281548110612cb2577f4e487b7100000000000000000000000000000000000000000000000000000000600052603260045260246000fd5b906000526020600020906002020160000160009054906101000a900473ffffffffffffffffffffffffffffffffffffffff1673ffffffffffffffffffffffffffffffffffffffff161415612d095780915050612d1e565b8080612d14906135dd565b915050612c54565b505b919050565b600081359050612d3281613a30565b92915050565b600081359050612d4781613a47565b92915050565b600081519050612d5c81613a47565b92915050565b600060208284031215612d7457600080fd5b6000612d8284828501612d38565b91505092915050565b600060208284031215612d9d57600080fd5b6000612dab84828501612d4d565b91505092915050565b60008060408385031215612dc757600080fd5b6000612dd585828601612d38565b9250506020612de685828601612d23565b9150509250929050565b60008060408385031215612e0357600080fd5b6000612e1185828601612d38565b9250506020612e2285828601612d38565b9150509250929050565b612e3581613523565b82525050565b612e4481613535565b82525050565b6000612e55826133f2565b612e5f81856133fd565b9350612e6f818560208601613578565b612e78816136dd565b840191505092915050565b6000612e906029836133fd565b9150612e9b826136ee565b604082019050919050565b6000612eb36027836133fd565b9150612ebe8261373d565b604082019050919050565b6000612ed6601f836133fd565b9150612ee18261378c565b602082019050919050565b6000612ef96031836133fd565b9150612f04826137b5565b604082019050919050565b6000612f1c6033836133fd565b9150612f2782613804565b604082019050919050565b6000612f3f6027836133fd565b9150612f4a82613853565b604082019050919050565b6000612f62601b836133fd565b9150612f6d826138a2565b602082019050919050565b6000612f85601e836133fd565b9150612f90826138cb565b602082019050919050565b6000612fa8603a836133fd565b9150612fb3826138f4565b604082019050919050565b6000612fcb6037836133fd565b9150612fd682613943565b604082019050919050565b6000612fee6021836133fd565b9150612ff982613992565b604082019050919050565b60006130116026836133fd565b915061301c826139e1565b604082019050919050565b61303081613561565b82525050565b61303f81613561565b82525050565b600060408201905061305a6000830185612e2c565b6130676020830184612e3b565b9392505050565b60006040820190506130836000830185612e2c565b6130906020830184613027565b9392505050565b600060e0820190506130ac600083018a612e2c565b6130b96020830189613027565b6130c66040830188613027565b6130d36060830187612e3b565b6130e06080830186612e3b565b6130ed60a0830185612e3b565b6130fa60c0830184612e3b565b98975050505050505050565b600060808201905081810360008301526131208187612e4a565b905061312f6020830186613027565b61313c6040830185613027565b6131496060830184613027565b95945050505050565b6000602082019050818103600083015261316b81612e83565b9050919050565b6000602082019050818103600083015261318b81612ea6565b9050919050565b600060208201905081810360008301526131ab81612ec9565b9050919050565b600060208201905081810360008301526131cb81612eec565b9050919050565b600060208201905081810360008301526131eb81612f0f565b9050919050565b6000602082019050818103600083015261320b81612f32565b9050919050565b6000602082019050818103600083015261322b81612f55565b9050919050565b6000602082019050818103600083015261324b81612f78565b9050919050565b6000602082019050818103600083015261326b81612f9b565b9050919050565b6000602082019050818103600083015261328b81612fbe565b9050919050565b600060208201905081810360008301526132ab81612fe1565b9050919050565b600060208201905081810360008301526132cb81613004565b9050919050565b60006020820190506132e76000830184613036565b92915050565b60006020820190506133026000830184613027565b92915050565b600060608201905061331d6000830186613027565b61332a6020830185612e2c565b6133376040830184613027565b949350505050565b600060c0820190506133546000830189613027565b6133616020830188612e2c565b61336e6040830187613027565b61337b6060830186613027565b6133886080830185612e3b565b61339560a0830184612e3b565b979650505050505050565b60006040820190506133b56000830185613036565b6133c26020830184613036565b9392505050565b60006040820190506133de6000830185613027565b6133eb6020830184613027565b9392505050565b600081519050919050565b600082825260208201905092915050565b600061341982613561565b915061342483613561565b9250827fffffffffffffffffffffffffffffffffffffffffffffffffffffffffffffffff0382111561345957613458613650565b5b828201905092915050565b600061346f82613561565b915061347a83613561565b92508261348a5761348961367f565b5b828204905092915050565b60006134a082613561565b91506134ab83613561565b9250817fffffffffffffffffffffffffffffffffffffffffffffffffffffffffffffffff04831182151516156134e4576134e3613650565b5b828202905092915050565b60006134fa82613561565b915061350583613561565b92508282101561351857613517613650565b5b828203905092915050565b600061352e82613541565b9050919050565b60008115159050919050565b600073ffffffffffffffffffffffffffffffffffffffff82169050919050565b6000819050919050565b600060ff82169050919050565b60005b8381101561359657808201518184015260208101905061357b565b838111156135a5576000848401525b50505050565b600060028204905060018216806135c357607f821691505b602082108114156135d7576135d66136ae565b5b50919050565b60006135e882613561565b91507fffffffffffffffffffffffffffffffffffffffffffffffffffffffffffffffff82141561361b5761361a613650565b5b600182019050919050565b60006136318261356b565b915060ff82141561364557613644613650565b5b600182019050919050565b7f4e487b7100000000000000000000000000000000000000000000000000000000600052601160045260246000fd5b7f4e487b7100000000000000000000000000000000000000000000000000000000600052601260045260246000fd5b7f4e487b7100000000000000000000000000000000000000000000000000000000600052602260045260246000fd5b6000601f19601f8301169050919050565b7f50726f706f73616c2076616c7565206d7573742062652077697468696e20727560008201527f6c6520626f756e64730000000000000000000000000000000000000000000000602082015250565b7f50726f706f73616c206d757374206170706c7920746f20616e2065786973746960008201527f6e672072756c6500000000000000000000000000000000000000000000000000602082015250565b7f50726f706f73616c20696e646578206d75737420626520696e2072616e676500600082015250565b7f596f75206d7573742073656e6420726571756972656420656e7472792066656560008201527f20746f206a6f696e207468652067616d65000000000000000000000000000000602082015250565b7f596f75206d7573742068617665206a6f696e6564207468652067616d6520746f60008201527f2063616c6c20746869732066756e6374696f6e00000000000000000000000000602082015250565b7f596f75206861766520616c726561647920766f746564206f6e2074686973207060008201527f726f706f73616c00000000000000000000000000000000000000000000000000602082015250565b7f566f746520696e646578206d75737420626520696e2072616e67650000000000600082015250565b7f566f746564206f6e206e6f6e2d6578697374656e742070726f706f73616c0000600082015250565b7f596f7520646f206e6f74206861766520656e6f7567682067616d652066756e6460008201527f7320746f20706179207468652070726f706f73616c20636f7374000000000000602082015250565b7f596f752063616e6e6f7420696e7465726163742077697468207468697320676160008201527f6d6520626563617573652069742068617320656e646564000000000000000000602082015250565b7f596f75206861766520616c7265616479206a6f696e656420746869732067616d60008201527f6500000000000000000000000000000000000000000000000000000000000000602082015250565b7f596f75206d6179206e6f7420766f7465206f6e20636f6d706c6574656420707260008201527f6f706f73616c0000000000000000000000000000000000000000000000000000602082015250565b613a3981613535565b8114613a4457600080fd5b50565b613a5081613561565b8114613a5b57600080fd5b5056fea2646970667358221220cbe2c4271f19e7fde34e089eab320b4ecc232f329158994b4f98a4404db3213a64736f6c63430008010033a2646970667358221220c000c865530ae8f724558ae46378035f0a768526e37ccb2e1572cde5c0e97e4a64736f6c63430008010033",
  "linkReferences": {
    "contracts/Game.sol": {
      "Calculations": [
        {
          "length": 20,
          "start": 299
        },
        {
          "length": 20,
          "start": 10976
        },
        {
          "length": 20,
          "start": 11731
        },
        {
          "length": 20,
          "start": 12460
        },
        {
          "length": 20,
          "start": 14480
        },
        {
          "length": 20,
          "start": 15073
        },
        {
          "length": 20,
          "start": 15651
        }
      ]
    }
  },
  "deployedLinkReferences": {
    "contracts/Game.sol": {
      "Calculations": [
        {
          "length": 20,
          "start": 267
        },
        {
          "length": 20,
          "start": 10944
        },
        {
          "length": 20,
          "start": 11699
        },
        {
          "length": 20,
          "start": 12428
        },
        {
          "length": 20,
          "start": 14448
        },
        {
          "length": 20,
          "start": 15041
        },
        {
          "length": 20,
          "start": 15619
        }
      ]
    }
  }
}