{
  "_format": "hh-sol-artifact-1",
  "contractName": "Game",
  "sourceName": "contracts/Game.sol",
  "abi": [
    {
      "inputs": [
        {
          "internalType": "address",
          "name": "firstPlayer",
          "type": "address"
        },
        {
          "internalType": "uint256",
          "name": "entryFee",
          "type": "uint256"
        },
        {
          "internalType": "uint256",
          "name": "startBalance",
          "type": "uint256"
        },
        {
          "internalType": "uint256",
          "name": "rewardValue",
          "type": "uint256"
        },
        {
          "internalType": "uint256",
          "name": "majorityValue",
          "type": "uint256"
        },
        {
          "internalType": "uint256",
          "name": "quorumValue",
          "type": "uint256"
        },
        {
          "internalType": "uint256",
          "name": "maxProposalsValue",
          "type": "uint256"
        },
        {
          "internalType": "uint256",
          "name": "pollTaxValue",
          "type": "uint256"
        },
        {
          "internalType": "uint256",
          "name": "wealthTaxValue",
          "type": "uint256"
        },
        {
          "internalType": "uint256",
          "name": "wealthTaxThreshold",
          "type": "uint256"
        },
        {
          "internalType": "uint256",
          "name": "proposalFee",
          "type": "uint256"
        }
      ],
      "stateMutability": "payable",
      "type": "constructor"
    },
    {
      "anonymous": false,
      "inputs": [
        {
          "indexed": false,
          "internalType": "address",
          "name": "playerAddress",
          "type": "address"
        },
        {
          "indexed": false,
          "internalType": "uint256",
          "name": "amount",
          "type": "uint256"
        },
        {
          "indexed": false,
          "internalType": "bool",
          "name": "isDeduction",
          "type": "bool"
        },
        {
          "indexed": false,
          "internalType": "uint256",
          "name": "balance",
          "type": "uint256"
        },
        {
          "indexed": false,
          "internalType": "bool",
          "name": "successfulProposal",
          "type": "bool"
        },
        {
          "indexed": false,
          "internalType": "uint256",
          "name": "ruleIndex",
          "type": "uint256"
        }
      ],
      "name": "LedgerEntry",
      "type": "event"
    },
    {
      "inputs": [
        {
          "internalType": "uint256",
          "name": "ruleIndex",
          "type": "uint256"
        },
        {
          "internalType": "uint256",
          "name": "value",
          "type": "uint256"
        }
      ],
      "name": "createProposal",
      "outputs": [],
      "stateMutability": "nonpayable",
      "type": "function"
    },
    {
      "inputs": [],
      "name": "gameEndTime",
      "outputs": [
        {
          "internalType": "uint256",
          "name": "",
          "type": "uint256"
        }
      ],
      "stateMutability": "view",
      "type": "function"
    },
    {
      "inputs": [],
      "name": "getPlayersLength",
      "outputs": [
        {
          "internalType": "uint256",
          "name": "",
          "type": "uint256"
        }
      ],
      "stateMutability": "view",
      "type": "function"
    },
    {
      "inputs": [],
      "name": "getProposalsLength",
      "outputs": [
        {
          "internalType": "uint256",
          "name": "",
          "type": "uint256"
        }
      ],
      "stateMutability": "view",
      "type": "function"
    },
    {
      "inputs": [],
      "name": "getRulesLength",
      "outputs": [
        {
          "internalType": "uint256",
          "name": "",
          "type": "uint256"
        }
      ],
      "stateMutability": "view",
      "type": "function"
    },
    {
      "inputs": [
        {
          "internalType": "uint256",
          "name": "proposalIndex",
          "type": "uint256"
        },
        {
          "internalType": "uint256",
          "name": "voteIndex",
          "type": "uint256"
        }
      ],
      "name": "getVote",
      "outputs": [
        {
          "internalType": "address",
          "name": "playerAddress",
          "type": "address"
        },
        {
          "internalType": "bool",
          "name": "vote",
          "type": "bool"
        }
      ],
      "stateMutability": "view",
      "type": "function"
    },
    {
      "inputs": [
        {
          "internalType": "uint256",
          "name": "proposalIndex",
          "type": "uint256"
        }
      ],
      "name": "getVotesLength",
      "outputs": [
        {
          "internalType": "uint256",
          "name": "",
          "type": "uint256"
        }
      ],
      "stateMutability": "view",
      "type": "function"
    },
    {
      "inputs": [],
      "name": "joinGame",
      "outputs": [],
      "stateMutability": "payable",
      "type": "function"
    },
    {
      "inputs": [
        {
          "internalType": "uint256",
          "name": "",
          "type": "uint256"
        }
      ],
      "name": "players",
      "outputs": [
        {
          "internalType": "address",
          "name": "playerAddress",
          "type": "address"
        },
        {
          "internalType": "uint256",
          "name": "balance",
          "type": "uint256"
        }
      ],
      "stateMutability": "view",
      "type": "function"
    },
    {
      "inputs": [
        {
          "internalType": "uint256",
          "name": "",
          "type": "uint256"
        }
      ],
      "name": "proposals",
      "outputs": [
        {
          "internalType": "address",
          "name": "proposer",
          "type": "address"
        },
        {
          "internalType": "uint256",
          "name": "value",
          "type": "uint256"
        },
        {
          "internalType": "uint256",
          "name": "ruleIndex",
          "type": "uint256"
        },
        {
          "internalType": "bool",
          "name": "mutabilityChange",
          "type": "bool"
        },
        {
          "internalType": "bool",
          "name": "proposedMutability",
          "type": "bool"
        },
        {
          "internalType": "bool",
          "name": "complete",
          "type": "bool"
        },
        {
          "internalType": "bool",
          "name": "successful",
          "type": "bool"
        }
      ],
      "stateMutability": "view",
      "type": "function"
    },
    {
      "inputs": [
        {
          "internalType": "uint256",
          "name": "",
          "type": "uint256"
        }
      ],
      "name": "rules",
      "outputs": [
        {
          "internalType": "string",
          "name": "name",
          "type": "string"
        },
        {
          "internalType": "uint256",
          "name": "value",
          "type": "uint256"
        },
        {
          "internalType": "uint256",
          "name": "lowerBound",
          "type": "uint256"
        },
        {
          "internalType": "uint256",
          "name": "upperBound",
          "type": "uint256"
        }
      ],
      "stateMutability": "view",
      "type": "function"
    },
    {
      "inputs": [
        {
          "internalType": "uint256",
          "name": "proposalIndex",
          "type": "uint256"
        },
        {
          "internalType": "bool",
          "name": "vote",
          "type": "bool"
        }
      ],
      "name": "voteOnProposal",
      "outputs": [],
      "stateMutability": "nonpayable",
      "type": "function"
    }
  ],
  "bytecode": "0x608060405260405162004adc38038062004adc833981810160405281019062000029919062000acf565b600260405180608001604052806040518060400160405280600981526020017f456e74727920666565000000000000000000000000000000000000000000000081525081526020018c8152602001600081526020016103e881525090806001815401808255809150506001900390600052602060002090600402016000909190919091506000820151816000019080519060200190620000cb929190620009f1565b506020820151816001015560408201518160020155606082015181600301555050600260405180608001604052806040518060400160405280600d81526020017f53746172742062616c616e63650000000000000000000000000000000000000081525081526020018b8152602001600081526020016103e8815250908060018154018082558091505060019003906000526020600020906004020160009091909190915060008201518160000190805190602001906200018e929190620009f1565b506020820151816001015560408201518160020155606082015181600301555050600260405180608001604052806040518060400160405280600f81526020017f50726f706f73616c20726577617264000000000000000000000000000000000081525081526020018a8152602001600081526020016103e88152509080600181540180825580915050600190039060005260206000209060040201600090919091909150600082015181600001908051906020019062000251929190620009f1565b506020820151816001015560408201518160020155606082015181600301555050600260405180608001604052806040518060400160405280600881526020017f4d616a6f7269747900000000000000000000000000000000000000000000000081525081526020018981526020016000815260200160648152509080600181540180825580915050600190039060005260206000209060040201600090919091909150600082015181600001908051906020019062000313929190620009f1565b506020820151816001015560408201518160020155606082015181600301555050600260405180608001604052806040518060400160405280600681526020017f51756f72756d0000000000000000000000000000000000000000000000000000815250815260200188815260200160008152602001606481525090806001815401808255809150506001900390600052602060002090600402016000909190919091506000820151816000019080519060200190620003d5929190620009f1565b506020820151816001015560408201518160020155606082015181600301555050600260405180608001604052806040518060400160405280600d81526020017f4d61782070726f706f73616c730000000000000000000000000000000000000081525081526020018781526020016001815260200160648152509080600181540180825580915050600190039060005260206000209060040201600090919091909150600082015181600001908051906020019062000497929190620009f1565b506020820151816001015560408201518160020155606082015181600301555050600260405180608001604052806040518060400160405280600881526020017f506f6c6c207461780000000000000000000000000000000000000000000000008152508152602001868152602001600181526020016103e8815250908060018154018082558091505060019003906000526020600020906004020160009091909190915060008201518160000190805190602001906200055a929190620009f1565b506020820151816001015560408201518160020155606082015181600301555050600260405180608001604052806040518060400160405280600a81526020017f5765616c746820746178000000000000000000000000000000000000000000008152508152602001858152602001600181526020016064815250908060018154018082558091505060019003906000526020600020906004020160009091909190915060008201518160000190805190602001906200061c929190620009f1565b506020820151816001015560408201518160020155606082015181600301555050600260405180608001604052806040518060400160405280601481526020017f5765616c746820746178207468726573686f6c640000000000000000000000008152508152602001848152602001600081526020016103e881525090806001815401808255809150506001900390600052602060002090600402016000909190919091506000820151816000019080519060200190620006df929190620009f1565b506020820151816001015560408201518160020155606082015181600301555050600260405180608001604052806040518060400160405280600c81526020017f50726f706f73616c2066656500000000000000000000000000000000000000008152508152602001838152602001600081526020016103e881525090806001815401808255809150506001900390600052602060002090600402016000909190919091506000820151816000019080519060200190620007a2929190620009f1565b506020820151816001015560408201518160020155606082015181600301555050620007d3620007f560201b60201c565b620007e48b620008dd60201b60201c565b505050505050505050505062000de6565b6000670de0b6b3a764000090508060026000600981111562000840577f4e487b7100000000000000000000000000000000000000000000000000000000600052602160045260246000fd5b8154811062000878577f4e487b7100000000000000000000000000000000000000000000000000000000600052603260045260246000fd5b90600052602060002090600402016001015462000896919062000c30565b3414620008da576040517f08c379a0000000000000000000000000000000000000000000000000000000008152600401620008d19062000bfd565b60405180910390fd5b50565b6000670de0b6b3a764000090506000600180816001815401808255809150500390600052602060002090600202019050828160000160006101000a81548173ffffffffffffffffffffffffffffffffffffffff021916908373ffffffffffffffffffffffffffffffffffffffff160217905550816002600160098111156200098e577f4e487b7100000000000000000000000000000000000000000000000000000000600052602160045260246000fd5b81548110620009c6577f4e487b7100000000000000000000000000000000000000000000000000000000600052603260045260246000fd5b906000526020600020906004020160010154620009e4919062000c30565b8160010181905550505050565b828054620009ff9062000ccf565b90600052602060002090601f01602090048101928262000a23576000855562000a6f565b82601f1062000a3e57805160ff191683800117855562000a6f565b8280016001018555821562000a6f579182015b8281111562000a6e57825182559160200191906001019062000a51565b5b50905062000a7e919062000a82565b5090565b5b8082111562000a9d57600081600090555060010162000a83565b5090565b60008151905062000ab28162000db2565b92915050565b60008151905062000ac98162000dcc565b92915050565b60008060008060008060008060008060006101608c8e03121562000af257600080fd5b600062000b028e828f0162000aa1565b9b5050602062000b158e828f0162000ab8565b9a5050604062000b288e828f0162000ab8565b995050606062000b3b8e828f0162000ab8565b985050608062000b4e8e828f0162000ab8565b97505060a062000b618e828f0162000ab8565b96505060c062000b748e828f0162000ab8565b95505060e062000b878e828f0162000ab8565b94505061010062000b9b8e828f0162000ab8565b93505061012062000baf8e828f0162000ab8565b92505061014062000bc38e828f0162000ab8565b9150509295989b509295989b9093969950565b600062000be560318362000c1f565b915062000bf28262000d63565b604082019050919050565b6000602082019050818103600083015262000c188162000bd6565b9050919050565b600082825260208201905092915050565b600062000c3d8262000cc5565b915062000c4a8362000cc5565b9250817fffffffffffffffffffffffffffffffffffffffffffffffffffffffffffffffff048311821515161562000c865762000c8562000d05565b5b828202905092915050565b600062000c9e8262000ca5565b9050919050565b600073ffffffffffffffffffffffffffffffffffffffff82169050919050565b6000819050919050565b6000600282049050600182168062000ce857607f821691505b6020821081141562000cff5762000cfe62000d34565b5b50919050565b7f4e487b7100000000000000000000000000000000000000000000000000000000600052601160045260246000fd5b7f4e487b7100000000000000000000000000000000000000000000000000000000600052602260045260246000fd5b7f596f75206d7573742073656e6420726571756972656420656e7472792066656560008201527f20746f206a6f696e207468652067616d65000000000000000000000000000000602082015250565b62000dbd8162000c91565b811462000dc957600080fd5b50565b62000dd78162000cc5565b811462000de357600080fd5b50565b613ce68062000df66000396000f3fe6080604052600436106100a75760003560e01c8063bc378a7311610064578063bc378a73146101ea578063cd61386d14610215578063d4f77b1c14610240578063d5b60c641461024a578063f71d96cb14610275578063fa06ab7f146102b3576100a7565b8063013cf08b146100ac57806304d6ded4146100ef5780631614665c1461012f57806344d9bc5f1461015857806349330cb8146101835780636935bda6146101c1575b600080fd5b3480156100b857600080fd5b506100d360048036038101906100ce9190613014565b6102f0565b6040516100e697969594939291906133aa565b60405180910390f35b3480156100fb57600080fd5b5061011660048036038101906101119190613014565b610396565b6040516101269493929190613419565b60405180910390f35b34801561013b57600080fd5b5061015660048036038101906101519190613066565b61045e565b005b34801561016457600080fd5b5061016d610a4f565b60405161017a9190613600565b60405180910390f35b34801561018f57600080fd5b506101aa60048036038101906101a591906130a2565b610a55565b6040516101b89291906132f7565b60405180910390f35b3480156101cd57600080fd5b506101e860048036038101906101e391906130a2565b610c89565b005b3480156101f657600080fd5b506101ff6110ad565b60405161020c9190613600565b60405180910390f35b34801561022157600080fd5b5061022a6110ba565b6040516102379190613600565b60405180910390f35b6102486110c7565b005b34801561025657600080fd5b5061025f611338565b60405161026c9190613600565b60405180910390f35b34801561028157600080fd5b5061029c60048036038101906102979190613014565b611345565b6040516102aa929190613320565b60405180910390f35b3480156102bf57600080fd5b506102da60048036038101906102d59190613014565b611399565b6040516102e79190613600565b60405180910390f35b6003818154811061030057600080fd5b90600052602060002090600502016000915090508060000160009054906101000a900473ffffffffffffffffffffffffffffffffffffffff16908060010154908060020154908060040160009054906101000a900460ff16908060040160019054906101000a900460ff16908060040160029054906101000a900460ff16908060040160039054906101000a900460ff16905087565b600281815481106103a657600080fd5b90600052602060002090600402016000915090508060000180546103c9906137fd565b80601f01602080910402602001604051908101604052809291908181526020018280546103f5906137fd565b80156104425780601f1061041757610100808354040283529160200191610442565b820191906000526020600020905b81548152906001019060200180831161042557829003601f168201915b5050505050908060010154908060020154908060030154905084565b600080600090505b60018054905081101561052e57600181815481106104ad577f4e487b7100000000000000000000000000000000000000000000000000000000600052603260045260246000fd5b906000526020600020906002020160000160009054906101000a900473ffffffffffffffffffffffffffffffffffffffff1673ffffffffffffffffffffffffffffffffffffffff163373ffffffffffffffffffffffffffffffffffffffff16141561051b576001915061052e565b80806105269061382f565b915050610466565b508061056f576040517f08c379a0000000000000000000000000000000000000000000000000000000008152600401610566906134e5565b60405180910390fd5b600080600090505b60038054905081101561060457600381815481106105be577f4e487b7100000000000000000000000000000000000000000000000000000000600052603260045260246000fd5b906000526020600020906005020160040160029054906101000a900460ff16156105f15781806105ed90613878565b9250505b80806105fc9061382f565b915050610577565b50600260056009811115610641577f4e487b7100000000000000000000000000000000000000000000000000000000600052602160045260246000fd5b81548110610678577f4e487b7100000000000000000000000000000000000000000000000000000000600052603260045260246000fd5b9060005260206000209060040201600101548160ff16106106ce576040517f08c379a00000000000000000000000000000000000000000000000000000000081526004016106c590613585565b60405180910390fd5b6003805490508410610715576040517f08c379a000000000000000000000000000000000000000000000000000000000815260040161070c90613545565b60405180910390fd5b6003848154811061074f577f4e487b7100000000000000000000000000000000000000000000000000000000600052603260045260246000fd5b906000526020600020906005020160040160029054906101000a900460ff16156107ae576040517f08c379a00000000000000000000000000000000000000000000000000000000081526004016107a5906135c5565b60405180910390fd5b60005b600385815481106107eb577f4e487b7100000000000000000000000000000000000000000000000000000000600052603260045260246000fd5b906000526020600020906005020160030180549050811015610939573373ffffffffffffffffffffffffffffffffffffffff1660038681548110610858577f4e487b7100000000000000000000000000000000000000000000000000000000600052603260045260246000fd5b906000526020600020906005020160030182815481106108a1577f4e487b7100000000000000000000000000000000000000000000000000000000600052603260045260246000fd5b9060005260206000200160000160009054906101000a900473ffffffffffffffffffffffffffffffffffffffff1673ffffffffffffffffffffffffffffffffffffffff161415610926576040517f08c379a000000000000000000000000000000000000000000000000000000000815260040161091d90613505565b60405180910390fd5b80806109319061382f565b9150506107b1565b5060038481548110610974577f4e487b7100000000000000000000000000000000000000000000000000000000600052603260045260246000fd5b906000526020600020906005020160030160405180604001604052803373ffffffffffffffffffffffffffffffffffffffff1681526020018515158152509080600181540180825580915050600190039060005260206000200160009091909190915060008201518160000160006101000a81548173ffffffffffffffffffffffffffffffffffffffff021916908373ffffffffffffffffffffffffffffffffffffffff16021790555060208201518160000160146101000a81548160ff0219169083151502179055505050610a49846113f1565b50505050565b60005481565b6000806003805490508410610a9f576040517f08c379a0000000000000000000000000000000000000000000000000000000008152600401610a96906134a5565b60405180910390fd5b60038481548110610ad9577f4e487b7100000000000000000000000000000000000000000000000000000000600052603260045260246000fd5b9060005260206000209060050201600301805490508310610b2f576040517f08c379a0000000000000000000000000000000000000000000000000000000008152600401610b2690613525565b60405180910390fd5b60038481548110610b69577f4e487b7100000000000000000000000000000000000000000000000000000000600052603260045260246000fd5b90600052602060002090600502016003018381548110610bb2577f4e487b7100000000000000000000000000000000000000000000000000000000600052603260045260246000fd5b9060005260206000200160000160009054906101000a900473ffffffffffffffffffffffffffffffffffffffff1660038581548110610c1a577f4e487b7100000000000000000000000000000000000000000000000000000000600052603260045260246000fd5b90600052602060002090600502016003018481548110610c63577f4e487b7100000000000000000000000000000000000000000000000000000000600052603260045260246000fd5b9060005260206000200160000160149054906101000a900460ff16915091509250929050565b600080600090505b600380549050811015610d1e5760038181548110610cd8577f4e487b7100000000000000000000000000000000000000000000000000000000600052603260045260246000fd5b906000526020600020906005020160040160029054906101000a900460ff1615610d0b578180610d0790613878565b9250505b8080610d169061382f565b915050610c91565b50600260056009811115610d5b577f4e487b7100000000000000000000000000000000000000000000000000000000600052602160045260246000fd5b81548110610d92577f4e487b7100000000000000000000000000000000000000000000000000000000600052603260045260246000fd5b9060005260206000209060040201600101548160ff1610610de8576040517f08c379a0000000000000000000000000000000000000000000000000000000008152600401610ddf90613585565b60405180910390fd5b600080600090505b600180549050811015610eb85760018181548110610e37577f4e487b7100000000000000000000000000000000000000000000000000000000600052603260045260246000fd5b906000526020600020906002020160000160009054906101000a900473ffffffffffffffffffffffffffffffffffffffff1673ffffffffffffffffffffffffffffffffffffffff163373ffffffffffffffffffffffffffffffffffffffff161415610ea55760019150610eb8565b8080610eb09061382f565b915050610df0565b5080610ef9576040517f08c379a0000000000000000000000000000000000000000000000000000000008152600401610ef0906134e5565b60405180910390fd5b6002805490508410610f40576040517f08c379a0000000000000000000000000000000000000000000000000000000008152600401610f3790613485565b60405180910390fd5b60028481548110610f7a577f4e487b7100000000000000000000000000000000000000000000000000000000600052603260045260246000fd5b9060005260206000209060040201600301548311158015610fe6575060028481548110610fd0577f4e487b7100000000000000000000000000000000000000000000000000000000600052603260045260246000fd5b9060005260206000209060040201600201548310155b611025576040517f08c379a000000000000000000000000000000000000000000000000000000000815260040161101c90613465565b60405180910390fd5b61102d61187a565b600060036001816001815401808255809150500390600052602060002090600502019050338160000160006101000a81548173ffffffffffffffffffffffffffffffffffffffff021916908373ffffffffffffffffffffffffffffffffffffffff1602179055508481600201819055508381600101819055505050505050565b6000600380549050905090565b6000600180549050905090565b600080600090505b60038054905081101561115c5760038181548110611116577f4e487b7100000000000000000000000000000000000000000000000000000000600052603260045260246000fd5b906000526020600020906005020160040160029054906101000a900460ff161561114957818061114590613878565b9250505b80806111549061382f565b9150506110cf565b50600260056009811115611199577f4e487b7100000000000000000000000000000000000000000000000000000000600052602160045260246000fd5b815481106111d0577f4e487b7100000000000000000000000000000000000000000000000000000000600052603260045260246000fd5b9060005260206000209060040201600101548160ff1610611226576040517f08c379a000000000000000000000000000000000000000000000000000000000815260040161121d90613585565b60405180910390fd5b61122e611bf8565b60005b60018054905081101561132b5760018181548110611278577f4e487b7100000000000000000000000000000000000000000000000000000000600052603260045260246000fd5b906000526020600020906002020160000160009054906101000a900473ffffffffffffffffffffffffffffffffffffffff1673ffffffffffffffffffffffffffffffffffffffff163373ffffffffffffffffffffffffffffffffffffffff161415611318576040517f08c379a000000000000000000000000000000000000000000000000000000000815260040161130f906135a5565b60405180910390fd5b80806113239061382f565b915050611231565b5061133533611cd9565b50565b6000600280549050905090565b6001818154811061135557600080fd5b90600052602060002090600202016000915090508060000160009054906101000a900473ffffffffffffffffffffffffffffffffffffffff16908060010154905082565b6000600382815481106113d5577f4e487b7100000000000000000000000000000000000000000000000000000000600052603260045260246000fd5b9060005260206000209060050201600301805490509050919050565b600073__$e84fd790a222e3862b17f02ee13c9fe1a1$__63656fa32e600260046009811115611449577f4e487b7100000000000000000000000000000000000000000000000000000000600052602160045260246000fd5b81548110611480577f4e487b7100000000000000000000000000000000000000000000000000000000600052603260045260246000fd5b9060005260206000209060040201600101546001805490506040518363ffffffff1660e01b81526004016114b592919061361b565b60206040518083038186803b1580156114cd57600080fd5b505af41580156114e1573d6000803e3d6000fd5b505050506040513d601f19601f82011682018060405250810190611505919061303d565b90508060038381548110611542577f4e487b7100000000000000000000000000000000000000000000000000000000600052603260045260246000fd5b9060005260206000209060050201600301805490501061187657600160038381548110611598577f4e487b7100000000000000000000000000000000000000000000000000000000600052603260045260246000fd5b906000526020600020906005020160040160026101000a81548160ff021916908315150217905550600080600090505b60038481548110611602577f4e487b7100000000000000000000000000000000000000000000000000000000600052603260045260246000fd5b9060005260206000209060050201600301805490508110156116e35760038481548110611658577f4e487b7100000000000000000000000000000000000000000000000000000000600052603260045260246000fd5b906000526020600020906005020160030181815481106116a1577f4e487b7100000000000000000000000000000000000000000000000000000000600052603260045260246000fd5b9060005260206000200160000160149054906101000a900460ff16156116d05781806116cc9061382f565b9250505b80806116db9061382f565b9150506115c8565b50600073__$e84fd790a222e3862b17f02ee13c9fe1a1$__6384f37fd260026003600981111561173c577f4e487b7100000000000000000000000000000000000000000000000000000000600052602160045260246000fd5b81548110611773577f4e487b7100000000000000000000000000000000000000000000000000000000600052603260045260246000fd5b906000526020600020906004020160010154600387815481106117bf577f4e487b7100000000000000000000000000000000000000000000000000000000600052603260045260246000fd5b9060005260206000209060050201600301805490506040518363ffffffff1660e01b81526004016117f192919061361b565b60206040518083038186803b15801561180957600080fd5b505af415801561181d573d6000803e3d6000fd5b505050506040513d601f19601f82011682018060405250810190611841919061303d565b905060008183119050801561185a5761185985611de9565b5b6118626122bc565b61186a61262f565b611872612a8d565b5050505b5050565b600073__$e84fd790a222e3862b17f02ee13c9fe1a1$__63d8916bb960026009808111156118d1577f4e487b7100000000000000000000000000000000000000000000000000000000600052602160045260246000fd5b81548110611908577f4e487b7100000000000000000000000000000000000000000000000000000000600052603260045260246000fd5b9060005260206000209060040201600101546040518263ffffffff1660e01b815260040161193691906135e5565b60206040518083038186803b15801561194e57600080fd5b505af4158015611962573d6000803e3d6000fd5b505050506040513d601f19601f82011682018060405250810190611986919061303d565b9050600061199333612efe565b905081600182815481106119d0577f4e487b7100000000000000000000000000000000000000000000000000000000600052603260045260246000fd5b9060005260206000209060020201600101541015611a23576040517f08c379a0000000000000000000000000000000000000000000000000000000008152600401611a1a90613565565b60405180910390fd5b60018181548110611a5d577f4e487b7100000000000000000000000000000000000000000000000000000000600052603260045260246000fd5b906000526020600020906002020160010154821115611acc57600060018281548110611ab2577f4e487b7100000000000000000000000000000000000000000000000000000000600052603260045260246000fd5b906000526020600020906002020160010181905550611b2f565b8160018281548110611b07577f4e487b7100000000000000000000000000000000000000000000000000000000600052603260045260246000fd5b90600052602060002090600202016001016000828254611b279190613741565b925050819055505b7fe17681b714b3e85dd366451bd41d7a8ddb22b3c20575cb55fb96dfc3e14411a233836001808581548110611b8d577f4e487b7100000000000000000000000000000000000000000000000000000000600052603260045260246000fd5b9060005260206000209060020201600101546000600980811115611bda577f4e487b7100000000000000000000000000000000000000000000000000000000600052602160045260246000fd5b604051611bec96959493929190613349565b60405180910390a15050565b6000670de0b6b3a7640000905080600260006009811115611c42577f4e487b7100000000000000000000000000000000000000000000000000000000600052602160045260246000fd5b81548110611c79577f4e487b7100000000000000000000000000000000000000000000000000000000600052603260045260246000fd5b906000526020600020906004020160010154611c9591906136e7565b3414611cd6576040517f08c379a0000000000000000000000000000000000000000000000000000000008152600401611ccd906134c5565b60405180910390fd5b50565b6000670de0b6b3a764000090506000600180816001815401808255809150500390600052602060002090600202019050828160000160006101000a81548173ffffffffffffffffffffffffffffffffffffffff021916908373ffffffffffffffffffffffffffffffffffffffff16021790555081600260016009811115611d89577f4e487b7100000000000000000000000000000000000000000000000000000000600052602160045260246000fd5b81548110611dc0577f4e487b7100000000000000000000000000000000000000000000000000000000600052603260045260246000fd5b906000526020600020906004020160010154611ddc91906136e7565b8160010181905550505050565b600160038281548110611e25577f4e487b7100000000000000000000000000000000000000000000000000000000600052603260045260246000fd5b906000526020600020906005020160040160036101000a81548160ff021916908315150217905550600060038281548110611e89577f4e487b7100000000000000000000000000000000000000000000000000000000600052603260045260246000fd5b9060005260206000209060050201604051806101000160405290816000820160009054906101000a900473ffffffffffffffffffffffffffffffffffffffff1673ffffffffffffffffffffffffffffffffffffffff1673ffffffffffffffffffffffffffffffffffffffff168152602001600182015481526020016002820154815260200160038201805480602002602001604051908101604052809291908181526020016000905b82821015611fd1578382906000526020600020016040518060400160405290816000820160009054906101000a900473ffffffffffffffffffffffffffffffffffffffff1673ffffffffffffffffffffffffffffffffffffffff1673ffffffffffffffffffffffffffffffffffffffff1681526020016000820160149054906101000a900460ff16151515158152505081526020019060010190611f32565b5050505081526020016004820160009054906101000a900460ff161515151581526020016004820160019054906101000a900460ff161515151581526020016004820160029054906101000a900460ff161515151581526020016004820160039054906101000a900460ff161515151581525050905060006120568260000151612efe565b9050600073__$e84fd790a222e3862b17f02ee13c9fe1a1$__63d8916bb960028060098111156120af577f4e487b7100000000000000000000000000000000000000000000000000000000600052602160045260246000fd5b815481106120e6577f4e487b7100000000000000000000000000000000000000000000000000000000600052603260045260246000fd5b9060005260206000209060040201600101546040518263ffffffff1660e01b815260040161211491906135e5565b60206040518083038186803b15801561212c57600080fd5b505af4158015612140573d6000803e3d6000fd5b505050506040513d601f19601f82011682018060405250810190612164919061303d565b905080600183815481106121a1577f4e487b7100000000000000000000000000000000000000000000000000000000600052603260045260246000fd5b906000526020600020906002020160010160008282546121c19190613660565b925050819055508260200151600284604001518154811061220b577f4e487b7100000000000000000000000000000000000000000000000000000000600052603260045260246000fd5b9060005260206000209060040201600101819055507fe17681b714b3e85dd366451bd41d7a8ddb22b3c20575cb55fb96dfc3e14411a2836000015182600060018681548110612283577f4e487b7100000000000000000000000000000000000000000000000000000000600052603260045260246000fd5b906000526020600020906002020160010154600188604001516040516122ae96959493929190613349565b60405180910390a150505050565b60005b60018054905081101561262c57600073__$e84fd790a222e3862b17f02ee13c9fe1a1$__63d8916bb9600260066009811115612324577f4e487b7100000000000000000000000000000000000000000000000000000000600052602160045260246000fd5b8154811061235b577f4e487b7100000000000000000000000000000000000000000000000000000000600052603260045260246000fd5b9060005260206000209060040201600101546040518263ffffffff1660e01b815260040161238991906135e5565b60206040518083038186803b1580156123a157600080fd5b505af41580156123b5573d6000803e3d6000fd5b505050506040513d601f19601f820116820180604052508101906123d9919061303d565b905060018281548110612415577f4e487b7100000000000000000000000000000000000000000000000000000000600052603260045260246000fd5b9060005260206000209060020201600101548111156124845760006001838154811061246a577f4e487b7100000000000000000000000000000000000000000000000000000000600052603260045260246000fd5b9060005260206000209060020201600101819055506124e7565b80600183815481106124bf577f4e487b7100000000000000000000000000000000000000000000000000000000600052603260045260246000fd5b906000526020600020906002020160010160008282546124df9190613741565b925050819055505b7fe17681b714b3e85dd366451bd41d7a8ddb22b3c20575cb55fb96dfc3e14411a260018381548110612542577f4e487b7100000000000000000000000000000000000000000000000000000000600052603260045260246000fd5b906000526020600020906002020160000160009054906101000a900473ffffffffffffffffffffffffffffffffffffffff168260018086815481106125b0577f4e487b7100000000000000000000000000000000000000000000000000000000600052603260045260246000fd5b9060005260206000209060020201600101546000600660098111156125fe577f4e487b7100000000000000000000000000000000000000000000000000000000600052602160045260246000fd5b60405161261096959493929190613349565b60405180910390a15080806126249061382f565b9150506122bf565b50565b60005b600180549050811015612a8a57600073__$e84fd790a222e3862b17f02ee13c9fe1a1$__63d8916bb9600260086009811115612697577f4e487b7100000000000000000000000000000000000000000000000000000000600052602160045260246000fd5b815481106126ce577f4e487b7100000000000000000000000000000000000000000000000000000000600052603260045260246000fd5b9060005260206000209060040201600101546040518263ffffffff1660e01b81526004016126fc91906135e5565b60206040518083038186803b15801561271457600080fd5b505af4158015612728573d6000803e3d6000fd5b505050506040513d601f19601f8201168201806040525081019061274c919061303d565b905060018281548110612788577f4e487b7100000000000000000000000000000000000000000000000000000000600052603260045260246000fd5b906000526020600020906002020160010154811015612a7657600081600184815481106127de577f4e487b7100000000000000000000000000000000000000000000000000000000600052603260045260246000fd5b9060005260206000209060020201600101546127fa9190613741565b90506000606460026007600981111561283c577f4e487b7100000000000000000000000000000000000000000000000000000000600052602160045260246000fd5b81548110612873577f4e487b7100000000000000000000000000000000000000000000000000000000600052603260045260246000fd5b9060005260206000209060040201600101548361289091906136e7565b61289a91906136b6565b905080600185815481106128d7577f4e487b7100000000000000000000000000000000000000000000000000000000600052603260045260246000fd5b9060005260206000209060020201600101546128f39190613741565b6001858154811061292d577f4e487b7100000000000000000000000000000000000000000000000000000000600052603260045260246000fd5b9060005260206000209060020201600101819055507fe17681b714b3e85dd366451bd41d7a8ddb22b3c20575cb55fb96dfc3e14411a26001858154811061299d577f4e487b7100000000000000000000000000000000000000000000000000000000600052603260045260246000fd5b906000526020600020906002020160000160009054906101000a900473ffffffffffffffffffffffffffffffffffffffff16826001808881548110612a0b577f4e487b7100000000000000000000000000000000000000000000000000000000600052603260045260246000fd5b906000526020600020906002020160010154600060076009811115612a59577f4e487b7100000000000000000000000000000000000000000000000000000000600052602160045260246000fd5b604051612a6b96959493929190613349565b60405180910390a150505b508080612a829061382f565b915050612632565b50565b600260056009811115612ac9577f4e487b7100000000000000000000000000000000000000000000000000000000600052602160045260246000fd5b81548110612b00577f4e487b7100000000000000000000000000000000000000000000000000000000600052603260045260246000fd5b90600052602060002090600402016001015460038054905010612efc5742600081905550600080479050600060018054905067ffffffffffffffff811115612b71577f4e487b7100000000000000000000000000000000000000000000000000000000600052604160045260246000fd5b604051908082528060200260200182016040528015612b9f5781602001602082028036833780820191505090505b50905060005b600180549050811015612ca45760018181548110612bec577f4e487b7100000000000000000000000000000000000000000000000000000000600052603260045260246000fd5b906000526020600020906002020160010154828281518110612c37577f4e487b7100000000000000000000000000000000000000000000000000000000600052603260045260246000fd5b602002602001018181525050818181518110612c7c577f4e487b7100000000000000000000000000000000000000000000000000000000600052603260045260246000fd5b602002602001015184612c8f9190613660565b93508080612c9c9061382f565b915050612ba5565b506000831415612d775760005b600180549050811015612d75576001828281518110612cf9577f4e487b7100000000000000000000000000000000000000000000000000000000600052603260045260246000fd5b60200260200101818151612d0d9190613660565b91508181525050818181518110612d4d577f4e487b7100000000000000000000000000000000000000000000000000000000600052603260045260246000fd5b602002602001015184612d609190613660565b93508080612d6d9061382f565b915050612cb1565b505b60005b600180549050811015612ef7576000828281518110612dc2577f4e487b7100000000000000000000000000000000000000000000000000000000600052603260045260246000fd5b60200260200101511415612dd557612ee4565b60008484848481518110612e12577f4e487b7100000000000000000000000000000000000000000000000000000000600052603260045260246000fd5b6020026020010151612e2491906136e7565b612e2e91906136b6565b905060018281548110612e6a577f4e487b7100000000000000000000000000000000000000000000000000000000600052603260045260246000fd5b906000526020600020906002020160000160009054906101000a900473ffffffffffffffffffffffffffffffffffffffff1673ffffffffffffffffffffffffffffffffffffffff166108fc829081150290604051600060405180830381858888f19350505050158015612ee1573d6000803e3d6000fd5b50505b8080612eef9061382f565b915050612d7a565b505050505b565b600080600090505b600180549050811015612fce578273ffffffffffffffffffffffffffffffffffffffff1660018281548110612f64577f4e487b7100000000000000000000000000000000000000000000000000000000600052603260045260246000fd5b906000526020600020906002020160000160009054906101000a900473ffffffffffffffffffffffffffffffffffffffff1673ffffffffffffffffffffffffffffffffffffffff161415612fbb5780915050612fd0565b8080612fc69061382f565b915050612f06565b505b919050565b600081359050612fe481613c82565b92915050565b600081359050612ff981613c99565b92915050565b60008151905061300e81613c99565b92915050565b60006020828403121561302657600080fd5b600061303484828501612fea565b91505092915050565b60006020828403121561304f57600080fd5b600061305d84828501612fff565b91505092915050565b6000806040838503121561307957600080fd5b600061308785828601612fea565b925050602061309885828601612fd5565b9150509250929050565b600080604083850312156130b557600080fd5b60006130c385828601612fea565b92505060206130d485828601612fea565b9150509250929050565b6130e781613775565b82525050565b6130f681613787565b82525050565b600061310782613644565b613111818561364f565b93506131218185602086016137ca565b61312a8161392f565b840191505092915050565b600061314260298361364f565b915061314d82613940565b604082019050919050565b600061316560278361364f565b91506131708261398f565b604082019050919050565b6000613188601f8361364f565b9150613193826139de565b602082019050919050565b60006131ab60318361364f565b91506131b682613a07565b604082019050919050565b60006131ce60338361364f565b91506131d982613a56565b604082019050919050565b60006131f160278361364f565b91506131fc82613aa5565b604082019050919050565b6000613214601b8361364f565b915061321f82613af4565b602082019050919050565b6000613237601e8361364f565b915061324282613b1d565b602082019050919050565b600061325a603a8361364f565b915061326582613b46565b604082019050919050565b600061327d60378361364f565b915061328882613b95565b604082019050919050565b60006132a060218361364f565b91506132ab82613be4565b604082019050919050565b60006132c360268361364f565b91506132ce82613c33565b604082019050919050565b6132e2816137b3565b82525050565b6132f1816137b3565b82525050565b600060408201905061330c60008301856130de565b61331960208301846130ed565b9392505050565b600060408201905061333560008301856130de565b61334260208301846132d9565b9392505050565b600060c08201905061335e60008301896130de565b61336b60208301886132d9565b61337860408301876130ed565b61338560608301866132d9565b61339260808301856130ed565b61339f60a08301846132d9565b979650505050505050565b600060e0820190506133bf600083018a6130de565b6133cc60208301896132d9565b6133d960408301886132d9565b6133e660608301876130ed565b6133f360808301866130ed565b61340060a08301856130ed565b61340d60c08301846130ed565b98975050505050505050565b6000608082019050818103600083015261343381876130fc565b905061344260208301866132d9565b61344f60408301856132d9565b61345c60608301846132d9565b95945050505050565b6000602082019050818103600083015261347e81613135565b9050919050565b6000602082019050818103600083015261349e81613158565b9050919050565b600060208201905081810360008301526134be8161317b565b9050919050565b600060208201905081810360008301526134de8161319e565b9050919050565b600060208201905081810360008301526134fe816131c1565b9050919050565b6000602082019050818103600083015261351e816131e4565b9050919050565b6000602082019050818103600083015261353e81613207565b9050919050565b6000602082019050818103600083015261355e8161322a565b9050919050565b6000602082019050818103600083015261357e8161324d565b9050919050565b6000602082019050818103600083015261359e81613270565b9050919050565b600060208201905081810360008301526135be81613293565b9050919050565b600060208201905081810360008301526135de816132b6565b9050919050565b60006020820190506135fa60008301846132e8565b92915050565b600060208201905061361560008301846132d9565b92915050565b600060408201905061363060008301856132e8565b61363d60208301846132e8565b9392505050565b600081519050919050565b600082825260208201905092915050565b600061366b826137b3565b9150613676836137b3565b9250827fffffffffffffffffffffffffffffffffffffffffffffffffffffffffffffffff038211156136ab576136aa6138a2565b5b828201905092915050565b60006136c1826137b3565b91506136cc836137b3565b9250826136dc576136db6138d1565b5b828204905092915050565b60006136f2826137b3565b91506136fd836137b3565b9250817fffffffffffffffffffffffffffffffffffffffffffffffffffffffffffffffff0483118215151615613736576137356138a2565b5b828202905092915050565b600061374c826137b3565b9150613757836137b3565b92508282101561376a576137696138a2565b5b828203905092915050565b600061378082613793565b9050919050565b60008115159050919050565b600073ffffffffffffffffffffffffffffffffffffffff82169050919050565b6000819050919050565b600060ff82169050919050565b60005b838110156137e85780820151818401526020810190506137cd565b838111156137f7576000848401525b50505050565b6000600282049050600182168061381557607f821691505b6020821081141561382957613828613900565b5b50919050565b600061383a826137b3565b91507fffffffffffffffffffffffffffffffffffffffffffffffffffffffffffffffff82141561386d5761386c6138a2565b5b600182019050919050565b6000613883826137bd565b915060ff821415613897576138966138a2565b5b600182019050919050565b7f4e487b7100000000000000000000000000000000000000000000000000000000600052601160045260246000fd5b7f4e487b7100000000000000000000000000000000000000000000000000000000600052601260045260246000fd5b7f4e487b7100000000000000000000000000000000000000000000000000000000600052602260045260246000fd5b6000601f19601f8301169050919050565b7f50726f706f73616c2076616c7565206d7573742062652077697468696e20727560008201527f6c6520626f756e64730000000000000000000000000000000000000000000000602082015250565b7f50726f706f73616c206d757374206170706c7920746f20616e2065786973746960008201527f6e672072756c6500000000000000000000000000000000000000000000000000602082015250565b7f50726f706f73616c20696e646578206d75737420626520696e2072616e676500600082015250565b7f596f75206d7573742073656e6420726571756972656420656e7472792066656560008201527f20746f206a6f696e207468652067616d65000000000000000000000000000000602082015250565b7f596f75206d7573742068617665206a6f696e6564207468652067616d6520746f60008201527f2063616c6c20746869732066756e6374696f6e00000000000000000000000000602082015250565b7f596f75206861766520616c726561647920766f746564206f6e2074686973207060008201527f726f706f73616c00000000000000000000000000000000000000000000000000602082015250565b7f566f746520696e646578206d75737420626520696e2072616e67650000000000600082015250565b7f566f746564206f6e206e6f6e2d6578697374656e742070726f706f73616c0000600082015250565b7f596f7520646f206e6f74206861766520656e6f7567682067616d652066756e6460008201527f7320746f20706179207468652070726f706f73616c20636f7374000000000000602082015250565b7f596f752063616e6e6f7420696e7465726163742077697468207468697320676160008201527f6d6520626563617573652069742068617320656e646564000000000000000000602082015250565b7f596f75206861766520616c7265616479206a6f696e656420746869732067616d60008201527f6500000000000000000000000000000000000000000000000000000000000000602082015250565b7f596f75206d6179206e6f7420766f7465206f6e20636f6d706c6574656420707260008201527f6f706f73616c0000000000000000000000000000000000000000000000000000602082015250565b613c8b81613787565b8114613c9657600080fd5b50565b613ca2816137b3565b8114613cad57600080fd5b5056fea2646970667358221220c24de39d4e11ca5f58bf669b4916d5195a0c477795b1224fbd4e3aba07e2191464736f6c63430008010033",
  "linkReferences": {
    "contracts/Game.sol": {
      "Calculations": [
        {
          "length": 20,
          "start": 8683
        },
        {
          "length": 20,
          "start": 9438
        },
        {
          "length": 20,
          "start": 9844
        },
        {
          "length": 20,
          "start": 11858
        },
        {
          "length": 20,
          "start": 12486
        },
        {
          "length": 20,
          "start": 13369
        }
      ]
    }
  },
  "deployedLinkReferences": {
    "contracts/Game.sol": {
      "Calculations": [
        {
          "length": 20,
          "start": 5109
        },
        {
          "length": 20,
          "start": 5864
        },
        {
          "length": 20,
          "start": 6270
        },
        {
          "length": 20,
          "start": 8284
        },
        {
          "length": 20,
          "start": 8912
        },
        {
          "length": 20,
          "start": 9795
        }
      ]
    }
  }
}